:020000021000EC
:1090000000600020759301005D9301005F930100F3
:10901000619301006393010065930100000000006B
:109020000000000000000000000000006793010045
:1090300069930100000000006B9301006D93010033
:1090400049B401006F93010055B901006F9301000D
:109050006F93010000000000B1B701000DBC0100DA
:10906000B9C20100C9C20100D9C201006F93010059
:109070006F9301006F9301006F9301006F930100E4
:109080006F930100D59E01006F9301006F93010063
:10909000719F01006F930100A11902006F930100FD
:1090A0006F9301006F9301000000000000000000BA
:1090B0006F9301006F9301000000000000000000AA
:1090C00000000000000000000000000000000000A0
:1090D0000000000000000000000000000000000090
:1090E0000000000000000000000000000000000080
:1090F0000000000000000000000000000000000070
:10910000000000000000000000000000000000005F
:10911000000000000000000000000000000000004F
:10912000000000000000000000000000000000003F
:10913000000000000000000000000000000000002F
:10914000000000000000000000000000000000001F
:10915000000000000000000000000000000000000F
:1091600000000000000000000000000000000000FF
:1091700000000000000000000000000000000000EF
:1091800000000000000000000000000000000000DF
:1091900000000000000000000000000000000000CF
:1091A00000000000000000000000000000000000BF
:1091B00000000000000000000000000000000000AF
:1091C000000000000000000000000000000000009F
:1091D000000000000000000000000000000000008F
:1091E000000000000000000000000000000000007F
:1091F000000000000000000000000000000000006F
:10920000354936480A1A02D0072291438D4634491F
:1092100034480A1A06D00722914381F309880222B2
:1092200082F3148830483149314A00F044F831481B
:109230003149324A00F03FF831483249324A00F0B1
:109240003AF832483249334A00F035F83248334967
:10925000334A00F030F833483349344A00F02BF8F1
:1092600033483449344A00F026F83448344900225F
:1092700000F02CF833483449002200F027F8334836
:109280003349091A082902DB002202604160314A91
:1092900090471F481F49884205D00268043003B434
:1092A000904703BCF7E700208646EC4600200021EB
:1092B000294A9047FEE7884207D0521A05D0037822
:1092C00001300B700131013AF9D17047884202D068
:1092D00002700130FAE7704700600020005800205B
:1092E0000060002000600020D84F020014250020FC
:1092F00084250020C0930100C0930100E0290200F2
:10930000D84F02001425002014250020682B0200ED
:10931000682B0200682B0200682B0200682B0200F9
:10932000682B0200682B0200682B0200D84F020055
:109330004850020084250020842500208425002038
:109340001C3700201C3700201C3700201C37002051
:109350001C3F00208B9301004D240200FEE7FEE736
:10936000FEE7FEE7FEE7FEE7FEE7FEE7FEE7FEE7D5
:10937000704700BF0C4880470C484FF007018843F6
:1093800085460B488047FFF73BBF0A480A490B4A0E
:10939000884207D0521A05D0037801300B70013192
:1093A000013AF9D17047000071930100006000207C
:1093B000ADB00100542B0200002500201425002030
:1093C0007047000007B5044B0093044A402300F0A7
:1093D00032F803B05DF804FBE1930100852500201D
:1093E0002DE9F84389461446B2B10F4B0F4E0325C1
:1093F000002743F00108224609EB0701002003F093
:1094000077F80744241A48B933782BB14FF47A40DF
:10941000C047013D02D13570BDE8F88301233370A8
:10942000002CE8D1F8E700BF682B0200842500205B
:10943000704703F091B8F0B595B01C461646084643
:109440000D4601F0DCFB1A9B0D93CDE90864002466
:109450002346082205A928460A948DF82C400C942E
:1094600001F0EAFB079B0293069B03939DF81430DF
:109470008DF8114003F00302012A1DD1BDF81440FC
:10948000059EC3F3C203C4F383148DF81030A20009
:1094900008230EA9284601F0CFFBC6F3952608AB9A
:1094A0000093224602AB0EA9304600F087FB284607
:1094B00001F0A9FB15B0F0BD022AF8D1BDF81640A5
:1094C000C3F3C203A4098DF810300827082C2646E0
:1094D00028BF08263B4632460EA9284601F0ACFBC1
:1094E000A41B08AB02AA31460EA8374400F0CAFB01
:1094F000002CEBD1DBE7000008B5FFF79AFF042151
:10950000034800F0C9FA034B01225A7108BD00BF9D
:10951000442B020014250020037813F0040216D017
:1095200003F00303012B03D0022B09D00120704765
:109530000A6800880232C0F3831002440A60F5E72B
:109540000B684288023303EB92130B60EEE7104680
:10955000704700002DE9F04F87B000230446851CBA
:109560000DF107000F4690468DF8073000F014FF0C
:10957000454806683E60D0E90132134401339B1B25
:10958000824600F21C4600F5836900F21447AB42A4
:109590001BD30022B8F1000F70D0052363F307023C
:1095A00064F38912DAF80010DAF808309DF8070041
:1095B0000B4003330D444AF82320CAF8005000F052
:1095C0000FFF012007B0BDE8F08F0121304601F008
:1095D0005FF8484601F075F8384601F072F8DAF89D
:1095E0000400DAF808B0029000EA0B0003300AEB3E
:1095F000800002A9FFF790FF029B50BB0BEA030219
:109600000AEB820203F1020CD2680392013303EAEF
:109610000B0B0AEB8B0B02F00302012ACDF808C0FA
:10962000DBF80C1022D0022A16D08346384601F00F
:109630004BF810B1029BCAF804305946304601F08D
:1096400027F8DAE901231344DAF8002001339B1AE2
:109650009DE70BEA0300C9E7BDF80E309B09033311
:109660004FEA114B0CEB93030293DFE7BDF80C308C
:10967000C3F383134FEA114B6344F5E7062363F307
:10968000070264F39F528DE7982600200B4B0C488D
:10969000FF2210B59A600022C3F81824C3E9002203
:1096A000C3F8142483F8202401F062FA044610B9A8
:1096B000044801F0EFFA204610BD00BF98260020B4
:1096C000682A02008C2B020030B50A4C71B10A4A9C
:1096D0000A49121BD20800239A4201D1002030BD52
:1096E00031F82350854202D00133F5E7034654F8A0
:1096F0003300F4E77C2A0200442B020014250020EA
:10970000094B013903EBC000032909D8DFE801F058
:109710000A020406042070470079704740797047B8
:1097200000207047022070477C2A0200034BD3E9D7
:109730000030C31A58425841704700BF9826002095
:109740002DE9F04387B0FFF7F1FF0646002840F00F
:10975000FB807E4DC5F81804BFF34F8F6868AC6876
:1097600002902040033005EB800002A9FFF7D4FEF1
:10977000029B18B1D5F81824002A5FD004EA03022E
:10978000991C013305EB8202234005EB8303D26869
:10979000DB68049302F00303022B0392029162D16F
:1097A000BDF80E306A484FEA9318B8F1500FC14621
:1097B00028BF4FF0500969F38F1309F10801ADF884
:1097C0000E3001F0EDF90746002800F0A88001F006
:1097D00016FA03A900230822384601F023FA029959
:1097E00024EA01060136B600B14535D95FFA89F998
:1097F0007EB3F6B2A9EB0609214003315FFA89F482
:10980000B146544E05EB810108234A46384601F023
:1098100009FA36B109F1080322463146384601F00B
:1098200001FA029B08F1030803EB98030293D5F8B1
:109830001834002B4BD1D5F810445BE02A689A42CB
:1098400004D86A60304607B0BDE8F08304EA03003C
:1098500088E740493446D7E72140033108234A4688
:1098600005EB8101DAE7012B59D1BDF80C303848FE
:10987000C3F38311062928BF062161F3891302313E
:109880008900ADF80C3001F08BF90746002846D06E
:1098900001F0B5F90023082203A9384601F0C2F906
:1098A0000026BDF80C20C2F38312B300964203F1E8
:1098B0000803BCD202994A1C21400331029205EBF5
:1098C00081010422384601F0ADF90136E9E7384656
:1098D00001F099F9FFF72AFF80F00100C6B2B1E765
:1098E000E3685B7923B1236839461B6820469847B3
:1098F000E3681C68002CF3D1384601F084F90DF1BF
:1099000007008DF8074000F047FDD5F818340BB973
:10991000029B6B609DF8070000F062FDDAE7D5F866
:10992000104454B90C4B0D480D49C01AC00800042E
:1099300040F0020000F06EF8CCE7236820469B68F8
:109940009847E3681C68ECE700267BE79826002030
:10995000682A0200A42600207C2A0200B42A020001
:10996000982B02002DE9F74F284C80460F4692466F
:1099700001A9012218469B46D4F80890FFF7EAFD9A
:1099800080B3019D0026A91C5E4506EB010233D180
:1099900000211F4800F03BFE80F310006A1C02EA21
:1099A000090204EB8202000405EA0903033340EADA
:1099B0001840D06014F8232068F3C50204F823206F
:1099C00034F8232066F3891224F8232054F8232046
:1099D00067F39F2244F8232002F0F80242F00102CC
:1099E00004F8232094F820341BB1FFF7A9FE0028C7
:1099F000FBD103B0BDE8F08F09EA020204EB82025A
:109A00005AF82630D3600136BEE700BF9826002002
:109A1000B42A002000231A46FFF7A4BF07B501238C
:109A2000019201AAFFF79EFF03B05DF804FB07B5A2
:109A3000CDE9002302236A46FFF794FF03B05DF8E7
:109A400004FB1FB5CDE90123069B039301AA032361
:109A5000FFF788FF05B05DF804FB1FB5CDE90023D3
:109A6000069B0293079B03936A460423FFF77AFF42
:109A700005B05DF804FB7FB5CDE90123089B039396
:109A8000099B04930A9B059301AA0523FFF76AFF2C
:109A900007B05DF804FB000030B50F49D1F8102481
:109AA000002314463CB9C468237152B9C1F81004AC
:109AB0002260184630BDE46825799D4206D02468AE
:109AC000F0E7D268116821601060F2E701330A2BD9
:109AD000E7D14FF0FF33ECE798260020094A38B56C
:109AE0000123D2F8104482F820341D4604B938BD51
:109AF000E3685D71236820465B689847E3681C68EB
:109B0000F4E700BF98260020037A052B10B50C4619
:109B10000FD0437A23B1084A0849204600F037FEA7
:109B20000749204600F033FE2046BDE8104000F013
:109B300023BE002AF8D0F3E7E32B0200B340020073
:109B4000052C0200C38873B504460D4633B1144A90
:109B500000921449144A284600F019FE217A05297A
:109B60001CD0637A4BB1A088FFF7CAFD0F4B104998
:109B700053F82020284600F00AFE227A0D4BA088D8
:109B800053F822600021FFF79FFD0B490346324640
:109B9000284602B0BDE8704000F0F9BD02B070BDCB
:109BA000E32B0200F02B0200E82B0200B02B020096
:109BB000B3400200142C0200082C02002DE9F043EF
:109BC00085B01F460C9D002306460C46904695F82E
:109BD0000C902B7329463846FFF7B4FFB8F1060FF7
:109BE00009D8DFE808F00412181F28334000314676
:109BF000284600F0CCFD002229463846FFF784FFB6
:109C000085F80C9005B0BDE8F083226831462846FF
:109C100000F0BDFDEFE7D4E900233146284600F00F
:109C2000B6FDE8E7A36800933146D4E9002328464F
:109C300000F0ADFDDFE7E3680193A36800933146D0
:109C4000D4E90023284600F0A2FDD4E7236902935B
:109C5000E3680193A36800933146D4E900232846C2
:109C600000F095FDC7E76369039323690293E368F6
:109C70000193A36800933146D4E90023284600F0FD
:109C800086FDB8E708292DE9F84F80460E461746AD
:109C90001C4636D8002593F80C901D7319461046C3
:109CA000FFF750FFDFF87CA0DFF87CB0AE422AD986
:109CB00018F805205946204600F069FD0135082DA9
:109CC000F4D11649DFF864B0204600F060FD0025AD
:109CD000AE421DD918F805A0504608F093FD0028A3
:109CE00014BF52462E225946204600F050FD013541
:109CF000082DEDD1012221463846FFF705FF84F8F3
:109D00000C90BDE8F88F5146204600F040FDD5E7A5
:109D10000349204600F03BFDE9E700BFDE2B0200CF
:109D2000DC2B0200DA2B0200D42B0200E02B020015
:109D30001FB50021039001AA44F20100CDE90111F1
:109D400000F004F805B05DF804FB000010B572B631
:109D5000FFF7C4FEFFF7F4FC0028FBD1104B114CB9
:109D60001149E41AE408240444F00100FFF752FE0C
:109D70000E4B1B68DB0700D500BE0D4944F0020006
:109D8000FFF748FEBFF34F8F0A490B4BCA6802F436
:109D9000E0621343CB60BFF34F8F00BFFDE700BF0E
:109DA0007C2A0200B42A0200732C0200F0ED00E0CD
:109DB0007F2C020000ED00E00400FA0510B5846875
:109DC000C2688388121B934208D3C268134002689A
:109DD000D154C3680133C360002010BD0420FCE7E8
:109DE0008268C3689A420AD08268838813400268F6
:109DF000D35C0B70836801338360002070470520BB
:109E000070470000094A537891780133DBB29942D8
:109E100008BF0023117899421FBF037050781823A0
:109E200003FB002014BF043000207047542B002097
:109E300073B5054600240DF107000E468DF8074066
:109E400000F0AAFA0DF10600FFF7DCFF90B10670F2
:109E5000094B9DF8062045605A709DF8070000F0F8
:109E6000BFFA24B9054B4FF48012C3F800212046F5
:109E700002B070BD0424F0E7542B002000E100E0A4
:109E8000024B4FF43C6043F0010318478C2C020056
:109E900038B50C4B0C4C4FF40032C3F88020012530
:109EA0004FF48033C4F84833C4F808336560FFF7D3
:109EB000E7FF064BA56000241C60FFF7E1FF044BA1
:109EC0001C7038BD00E100E000100140702C002043
:109ED000612C0020F8B51F4B1F491B680025C1F8F5
:109EE0004051C1F84451C1F84851C1F84C51C1F832
:109EF0000051C1F804514BB3D1F804451749096822
:109F0000641A24F07F442F461A68A24209D8A41A82
:109F100015441A7CDE691AB11F74D3E905209047F5
:109F2000AEB90F4A0F4B11781B788B4205D1013324
:109F3000DBB2022B08BF0023137012780A4B43F8E0
:109F400022500A4B4FF48012C3F80021F8BD33466B
:109F5000DAE700BF742C002000100140702C0020B4
:109F60006D2C00206C2C0020642C002000E100E00F
:109F70002DE9F04FA14AA24913780978A14D9942E1
:109F800085B03CD00133DBB2022B08BF0023137035
:109F90009D4912789D4B0F6853F822003B1823F01F
:109FA0007F4300220B602B6816461446944613B973
:109FB00042B12B6006E0196881420ED902B12B60D4
:109FC000091A196001272B68DFF848A201934FF0A6
:109FD0000008BEB9DFF844B266E0401A0C44D96804
:109FE000C3F800C0D3F81CE031B13A1922F07F4227
:109FF000C3E90121DE611E4601227346D7E7002630
:10A000003746E0E73446F6697F4A63681268DFF84E
:10A0100010C2A068991A21F07F41614500F2A68024
:10A0200001442160012222742A680023C4E901331B
:10A03000E361002A40F0A3802C60CAE75A1C9BF819
:10A040000210D2B291428BF8002004BF00228BF89C
:10A050000020182202FB03B31A799C68022A1CD044
:10A06000032A12D0012A1FD1207CE8B9D3E90312B8
:10A07000A2605A69E2609A69654BA2611B78002B65
:10A080000CBF0B4603466360BEE700222B681146F7
:10A09000002B67D142B12B6006E029680A46894649
:10A0A000002A5AD1002323749BF800309BF801202A
:10A0B0009A42C3D12B68B8F1000F04D1019A9A4299
:10A0C00001D1002F43D0002B73D0D3F800A0514D05
:10A0D0004D4BD5F804751C68DFF848813E1B98F895
:10A0E000003026F07F4603369BB94FF48033C5F825
:10A0F0004433C5F80433484B4FF400324FF00109A4
:10A10000C3F880211A60C5F80090FFF7B9FE88F8FF
:10A110000090B2452CBF5444A41924F07F44C5F8E4
:10A120004045D5F80435DB1B23F07F43E41B0333A4
:10A1300024F07F44A3420AD9D5F80435C5F8403548
:10A14000FFF79EFE344B4FF40032C3F80021304B32
:10A1500000221A7005B0BDE8F08F94422CD09146D1
:10A16000D2699DE719740122DB6991E7D31A23F0C4
:10A170007F43834234BFC31A0023236052E7216820
:10A180001368994213D8591A1160E26154E7091A09
:10A19000D8691A4638B1034618688842F7D3401A7E
:10A1A0001860184613462160E061DC6111E7134630
:10A1B000F2E7FFF76DFECAE74C4511D1CB692B6082
:10A1C00073B9DFF844E00120CDE90212CAF80800B3
:10A1D000CEF800300E4B1870FFF752FEDDE9021288
:10A1E0001368D269C9F81C2012B1106803441360C7
:10A1F0002B68994218BF4FF0010853E76C2C0020E0
:10A200006D2C0020742C0020702C0020642C002069
:10A21000602C00200010014000E100E0542B0020E1
:10A22000FEFF7F00612C002008B5FFF731FE104BC8
:10A2300000200B2218809A700E4B18600E4B18707D
:10A240000E4B18700E4B4FF48012C021C3F88021C2
:10A2500083F814131A6002F18042A2F56F22C2F84B
:10A26000080583F81113074BD2F804251A6008BDBE
:10A27000542B0020742C00206C2C00206D2C00200E
:10A2800000E100E0702C0020074B9B784BB132B10D
:10A2900028B10368187C20B959745A6170470720A7
:10A2A00070470820704700BF542B00202DE9F7436A
:10A2B0001E4FBB7805460E469046A3B398B30429BB
:10A2C0002FD943697BB3437C0024012B0DF1070098
:10A2D0000CBF8946A1468DF8074000F05DF80DF1EE
:10A2E0000600FFF78FFDD0B101230370104B4560CE
:10A2F000D3F80435C0E90498C0E902369DF8063069
:10A300007B709DF8070000F06BF824B9094B4FF4FF
:10A310008012C3F80021204603B0BDE8F083042476
:10A32000EFE70724F7E70824F5E700BF542B0020E8
:10A330000010014000E100E0064A92783AB130B1E5
:10A34000426922B1002202740221FFF771BD082088
:10A35000704700BF542B002010B501460B48FFF793
:10A360002DFD044678B90A4801F0ACFB58B90949FB
:10A370000648FFF735FD30B9012206490448BDE81B
:10A38000104001F05DBB204610BD00BF782C0020BE
:10A3900020250020882C002070B5EFF3108672B6BF
:10A3A0000C4A946801239CB993600B4B0B4DD3F876
:10A3B000801029401160C3F88050D3F88410516098
:10A3C0004FF0FF32C3F88420047006B962B670BD46
:10A3D0000370FAE78C2C002000E100E0FC06FFBDD2
:10A3E000084B9A6810B55AB150B9EFF3108172B6A4
:10A3F000054A1C6814605C685460986001B962B6D4
:10A4000010BD00BF8C2C002000E100E010B561B150
:10A41000B2FBF3F403FB1424A4B244B9C0E9001462
:10A4200084608281C381204610BD0E20FCE7092094
:10A43000FAE782B050E8022FC188B2EB324F4FF0FA
:10A44000000317BF92B241EA014142EA014104E030
:10A450004268B2EB324F08BF012340E80212002AE3
:10A46000E8D18DF807309DF80730002B0CBF112084
:10A47000002002B0704737B550E8013F9DB2C48953
:10A4800025448489A54228BF2D1B0489A54202BF0B
:10A49000BFF32F8F002207E0C5EA030540E801540F
:10A4A000002CE9D14FF001028DF803200193019BAC
:10A4B0009DF803200B6002F0FF0322B10B880068B7
:10A4C000184403B030BD1846FBE70A884B889A420F
:10A4D00009D150E8012FC2EA024240E80123002BD3
:10A4E000F7D1012070470020704737B550E8023F90
:10A4F0001FFAA3F5C488A54202BFBFF32F8F002225
:10A500000DE0C48925448489A54228BF2D1BC3EAD8
:10A51000054540E80254002CE8D14FF001028DF8C7
:10A5200003200193019B9DF803200B6002F0FF03C1
:10A5300022B14B880068184403B030BD1846FBE7D1
:10A540000A884B889A4209D150E8022FC2EA224277
:10A5500040E80223002BF7D101207047002070470C
:10A5600001F01F024B090121914000EB830000F034
:10A5700063B84B0910B501F01F040121A14000EBA5
:10A58000830000F04EF8E04000F0010010BD01F043
:10A590001F0301229A404B0900EB8300D14300F0D6
:10A5A00061B84B0901F01F0150F82300C84000F0CA
:10A5B000010070472DE9F0474E1E760980460F4690
:10A5C0000136002558F8254008EB8509E44394FA44
:10A5D000A4F4B4FA84F44FEA451A202C06D10135CC
:10A5E000AE42EFD83C462046BDE8F0875444A7422F
:10A5F000F5D921464046FFF7BCFF0028F3D0D9F833
:10A600000040E44394FAA4F4B4FA84F4E5E750E893
:10A61000002F0B4640E8003C9CF0000FF7D110469D
:10A62000704750E8002F42EA010340E8003C9CF0EC
:10A63000000FF6D11046704750E8003F43EA010290
:10A6400040E8002C9CF0000FF6D11046704750E80F
:10A65000002F02EA010340E8003C9CF0000FF6D115
:10A660001046704750E8003F03EA010240E8002C22
:10A670009CF0000FF6D11046704750E8002F02EB17
:10A68000010340E8003C9CF0000FF6D110467047F3
:10A6900050E8003F03EB010240E8002C9CF0000F63
:10A6A000F6D11046704750E8003FA3EB010240E8A6
:10A6B000002C9CF0000FF6D1104670470121FFF7E7
:10A6C000B0BF0121FFF7B8BF0021FFF7C0BF10B531
:10A6D00090B1D0E9012301689B1ADBB20A60013B0B
:10A6E000DBB2FF2B026802D10020107110BD11688F
:10A6F0004C1C14600B70F2E70E20F7E737B50546E7
:10A7000000240DF107008DF80740FFF745FE2A6889
:10A710006B68116899420ED9481E106011F8014CFF
:10A72000EB68298A01FB0434AB6811791B1ADBB290
:10A73000994238BF13719DF80700FFF751FE20467C
:10A7400003B030BD37B5054600230DF107000C46B8
:10A750008DF80730FFF720FE2A681368591C116036
:10A76000E968641A298AB4FBF1F41C709DF80700AB
:10A77000FFF736FE03B030BD826810B504462AB13B
:10A7800043690168006998470023A36010BD0EB4B7
:10A7900003B5039921B104AB01AA019300F06CF851
:10A7A00002B05DF804EB03B07047826830B404680F
:10A7B000551C8560A154D0E901329A4202D330BCC5
:10A7C000FFF7DABF30BC70472DE9F84F9946DDE955
:10A7D0000A431746824688460A460126BA420FD2E5
:10A7E0004E4538BF4E4613F0010B01D164B9002429
:10A7F0000125B9F1010F1AD909F1FF397D43F8E7B5
:10A80000B2FBF7F20136E9E79B070ED5B9F1000F6D
:10A810000CBF30252025A642EAD2013C29465046ED
:10A82000FFF7C3FF002CF6D1E1E72025F3E7B8FBE3
:10A83000F5F39F42E2D9DFF83C90B8FBF5F35046C0
:10A8400019F8031005FB1388FFF7AFFFB5FBF7F30B
:10A85000BD4207D2BBF1000F02D00CB1A64203D318
:10A86000BDE8F88F1D46E8E720215046013CFFF780
:10A870009CFFF2E7922C02002DE9F74F05461746A0
:10A880008846002900F0308118F8011B49B92B7B5C
:10A89000002B00F02981284603B0BDE8F04FFFF7F8
:10A8A0006BBF252940F0C080002698F800302D2B82
:10A8B000424608F1010823D0302B24D02B2B25D081
:10A8C00000242A2B02F1010123D13B681A1D1B68C9
:10A8D0003A601C440A4613782E2B26D101324FF0E1
:10A8E0000009104610F8011BA1F1300CBCF1090F52
:10A8F0001DD80A2303FB0913A3F130090246F0E730
:10A9000046F00106D1E746F00206CEE746F004061F
:10A91000CBE711F8013CA3F130000928DBD80A226B
:10A9200002FB0434303C0A46CBE74FF0000912F832
:10A93000011B01F0FB0068289046F8D069290ED071
:10A940004AD8582964D006D825296DD098F8003007
:10A95000002B99D19BE7632962D06429F6D13A682C
:10A96000D2F800A0111D8AEAEA723960A2EBEA72FD
:10A970004FF0010B092A5BDCCB4538BFCB462CB12D
:10A98000BAF1000F01DB720700D5013CB30702D515
:10A99000B9F1000F04D0F00702D4002C4ED10024EE
:10A9A000BAF1000F52DACAF1000A2D212846FFF74A
:10A9B000FCFE06F00302022A05D1B9F1000F02D114
:10A9C000002C47D10024CDE900464B460A225146CF
:10A9D0002846FFF7F9FEB9E773294CD014D870293F
:10A9E000B4D13B681A1D3A60302128461C68FFF735
:10A9F000DCFE78212846FFF7D8FE00220823CDE9A7
:10AA0000003221461022E3E775292BD078299DD109
:10AA100039680A1D3A60CDE900464B46102228E00D
:10AA20003B681A1D19783A602846FFF7BEFE8DE78D
:10AA30000A230BF1010BB2FBF3F29BE7A345AFD264
:10AA400020212846013CFFF7B0FEA6E77107B0D5EC
:10AA50002B21ABE7A345B6D230212846013CFFF7B6
:10AA6000A4FEADE73968CDE900460A1D3A604B46C1
:10AA70000A220968ACE73B681A1D3A6016F0010625
:10AA8000D3F800A020D1BAF1000F03D0504607F050
:10AA900077FF0646B44200D9C4B90AF1FF3A1EE076
:10AAA00028460136FFF781FE1AF806100029F7D173
:10AAB000A642BFF44BAF002C3FF448AF20212846FC
:10AAC000013CFFF772FEF3E70026EDE72021284660
:10AAD000013CFFF76AFEDDE72846FFF766FE1AF83D
:10AAE000011F0029F8D131E703B0BDE8F08F2DE94F
:10AAF000F047B0F806904479D2F800A09DF8208085
:10AB000009FB04F4043C06460AEB0300A0420F468E
:10AB100088BFA4EB030A191DC2F800A0B1FBF9F528
:10AB200009FB15114DB9A9EB0104544528BF544642
:10AB3000BAF1000F04D1BDE8F0873668013DF1E7B6
:10AB400004317B1970182246B8F1000F0ED001466F
:10AB50001846AAEB040A07F095FED145254436684D
:10AB60004C464FF0000128BF5446E1E71946F0E794
:10AB7000FFF7ADBDF8B546790146721E05460023C4
:10AB800093422D6803D30024A64202D8F8BD0133B6
:10AB9000F6E70F682846FFF7D5FD01343946F3E79D
:10ABA0002DE9F843068ACD1C0746FFF7A7FD043EB2
:10ABB00035440446B5FBF6F5F0B14FF48073EDB2C1
:10ABC0008380C680013D076081464FF00008A8459C
:10ABD00012D23846FFF792FD064648B16379013339
:10ABE000637108F10108C9F8000007608146EEE7CB
:10ABF0002046FFF7BFFF34462046BDE8F883012119
:10AC00000430FFF745BD10B5012104460430FFF7BD
:10AC10004AFD10F0FF0F04D12046BDE81040FFF7B9
:10AC2000A9BF10BD1FB503920022009203AAFFF72F
:10AC30005EFF05B05DF804FB1FB503920122009290
:10AC400003AAFFF754FF05B05DF804FB41DF70472E
:10AC5000064B10B500241C70054B1C60BFF35F8FC2
:10AC60000449054800F01FF8204610BDA02C002024
:10AC7000A42C0020A42C0200982C002008B506F07B
:10AC800075FE18B1BDE80840FFF7E0BF20BF40BF28
:10AC900020BF08BD836800225A609A60C3E904227D
:10ACA000DA601A6070470B684A684360934208BFD5
:10ACB0000023016008BF43607047436843B10268E6
:10ACC000916852680B449342436004BF0023436081
:10ACD0007047000010B50D49A1F59472914201D85A
:10ACE00000200FE08B1ADB1003EBD3735B1002EB39
:10ACF000C30452F83330834205D802D204F108026B
:10AD0000ECE7606810BD2146E8E700BFF42D0200C3
:10AD100008B5FFF7DFFF024B002808BF184608BD43
:10AD2000B92C020029DF704728DF704770B503682F
:10AD30009D6886B004460E466DB114220021684617
:10AD400007F0C9FDA3680593237901962BB1012B68
:10AD50000DD06846A84706B070BD01238DF80030BD
:10AD600023690293E368039363690493F1E7022381
:10AD70008DF80030E3681B030293F5E7084670473F
:10AD800000207047024B187A003018BF012070472E
:10AD9000442D0020034B187A0122B0FA80F05A7437
:10ADA00040097047442D002008B510461A4607F0A8
:10ADB00069FD002008BD000008B5142200210448E8
:10ADC00007F089FD0348FFF734FB002008BD00BFF2
:10ADD000442D0020342D002010B5094C094B436050
:10ADE0002046FFF76BFC40B906F0C0FD1C23207421
:10ADF0008C2205490548FFF709FB002010BD00BF64
:10AE0000442D0020B0310200A82C0020342D002059
:10AE100070B5244C244E237A25463BB92349244857
:10AE2000FFF763FB306008B9606070BD34680223CF
:10AE30002B72237973B1012B24D020460321FFF715
:10AE400075FF00232B726B6018491948BDE87040EC
:10AE5000FFF776BBD4E90523D21AB2F5805F28BF8D
:10AE60004FF48052D4E903109208012A38BF01221E
:10AE700019441844FFF756FF50B11128DDD10123C2
:10AE80002B72D2E7D4E903031844FFF74DFFF3E731
:10AE90002B7C002BC9D10146BDE87040022000F098
:10AEA00009B800BF442D00205C2D0020582D002043
:10AEB000342D002038B5831E012B45D8234C237A2E
:10AEC000002B41D0022B09D1032830D0204B1B6826
:10AED0000022E2601A793AB1012A22D0637C7BBB5E
:10AEE000BDE83840FFF794BFD3E905128D1AB5F5D8
:10AEF000805F94BF521902F580529A619142EDD160
:10AF000002284FF0000308BF19462372104B18BFE8
:10AF10000D211868FFF70AFF0E490F48FFF710FBD5
:10AF2000DCE71A6901321A615B699A42E7E7E36874
:10AF30000133082B01D8E360D0E70023E360DFE7AB
:10AF4000BDE8384006F002BD38BD00BF442D0020EA
:10AF50005C2D0020582D0020342D002000F0FD0332
:10AF6000012B08D1044B00225A74421E504250411A
:10AF70001874FFF74DBF7047442D002010B5064CE4
:10AF8000201DFFF79BFB28B9637C1BB9BDE810406F
:10AF9000FFF73EBF10BD00BF442D00202DE9F34157
:10AFA00080460D460F4801A916461F46FFF763FA73
:10AFB0000446A8B11C22002107F08DFC2D0B0123B3
:10AFC000237101A9C4F80080A760E56066610548A7
:10AFD000FFF77BFAFFF7D2FF002002B0BDE8F08157
:10AFE0000420FAE7342D00202DE9F74381468846F6
:10AFF000104801A917461E46FFF73DFA0446B0B1B6
:10B000001C22002107F067FC00250A9BA36001A910
:10B010002571C4F80090C4E9037866610548FFF71C
:10B0200054FAFFF7ABFF284603B0BDE8F0830420D5
:10B03000FAE700BF342D00200C4B1B78062B10D1F3
:10B040000B4B1B681A070CD10A4B186800F0F00371
:10B05000302B08D000F0E000A0F1400358425841E6
:10B060007047002070470120704700BFE00F00F0DC
:10B07000E40F00F0E80F00F0094B1B78062B0CD111
:10B08000084B1B681A0708D1074B186800F0F0003E
:10B09000A0F130035842584170470020704700BF6C
:10B0A000E00F00F0E40F00F0E80F00F008B5FFF744
:10B0B000C3FF28B16F4B704A1B68C3F304231360AE
:10B0C000FFF7DAFF10B16D4B6D4A1A606D4B6E4A97
:10B0D0001B68C3F342331360FFF7CEFF20B16B4A06
:10B0E000D36823F08073D3604FF080430022C3F80D
:10B0F0000C21C3F81021C3F83825FFF7BDFF10B1AC
:10B10000634B03221A60FFF7B7FF40B1614B052282
:10B110001A6001229A6700229A603F225A604FF01B
:10B1200080525D4BD2F80414C3F82015D2F80814ED
:10B13000C3F82415D2F80C14C3F82815D2F810144B
:10B14000C3F82C15D2F81414C3F83015D2F818141B
:10B15000C3F83415D2F81C14C3F84015D2F82014E3
:10B16000C3F84415D2F82414C3F84815D2F82814AB
:10B17000C3F84C15D2F82C14C3F85015D2F830147B
:10B18000C3F85415D2F83414C3F86015D2F8381443
:10B19000C3F86415D2F83C14C3F86815D2F840140B
:10B1A000C3F86C15D2F84424C3F8702503F5405356
:10B1B000FB22C3F81825FFF73FFF28B1374B384A69
:10B1C0001B6803F04F0313604FF08043D3F8002453
:10B1D000D20744BF6FF00102C3F80024314B1B6853
:10B1E000062B08D1304B1B68062B01BF2F4A136872
:10B1F00043F4806313604FF01023D3F80022002A39
:10B2000003DBD3F80432002B2FDA294B0122C3F8D9
:10B210000425D3F80024002AFBD04FF0102215217A
:10B22000C2F80012D3F80024002AFBD04FF01023FC
:10B230001522C3F804221E4B1A46D3F80014002925
:10B24000FBD00021C3F80415D2F80034002BFBD04A
:10B25000BFF34F8F1749184BCA6802F4E0621343DB
:10B26000CB60BFF34F8F00BFFDE7144B144A1A6049
:10B2700008BD00BF240300104035014074C00740E2
:10B280000DF0ADBA440200103C050040F0ED00E0C6
:10B29000A00500401056004000C0004058020010B9
:10B2A000E40E004030010010340100103C17004053
:10B2B00000E0014000ED00E00400FA052825002030
:10B2C0000090D00338B5074C051E04F1080318BFE1
:10B2D0001C4623682BB11A6822605B682846984791
:10B2E000F7E738BD682D002020B9054B01225A70C0
:10B2F000FFF7E8BF012802D1014A9070F8E77047D4
:10B30000602D002020B9034B01225A70FFF7DABFED
:10B31000704700BF602D002038B50B4C237883B9EF
:10B320000A486360A3602361E36000F061F80546AA
:10B3300006F01CFB08B900F067F8012323702846CB
:10B3400038BD8525FBE700BF602D0020E9B2010074
:10B3500037B50B4C00230DF107008DF80730FFF7D0
:10B360001BF8E368013BE360E56815B900F060F89D
:10B37000A5709DF80700FFF733F803B030BD00BF9C
:10B38000602D0020012813B509D018B103281CD066
:10B3900002B010BD0F4B0122C3F88020F8E70E4C1D
:10B3A00000230DF107008DF80730FEF7F5FF237835
:10B3B0000BB9FFF7B1FFE3689DF807000133E360C5
:10B3C0000123A370FFF70CF8E2E700F01DF8FFF788
:10B3D000BFFFDDE700E100E0602D002000F18040CC
:10B3E000002382B0036003680193019B02B07047A1
:10B3F000044A137923B901211060918018467047DF
:10B4000085207047742D0020084B1A68D20706D497
:10B41000C02283F800230122C3F880211A604FF074
:10B4200080430122C3F81825704700BF00E100E007
:10B43000044B01221A604FF08042D2F81834DB032B
:10B44000FBD470470C000040124B1B6810B573B161
:10B450004FF48070FFF7C2FF4FF080430122C3F822
:10B4600008230D4B587910B95A711B6898470B4B3C
:10B470001B6873B14FF48270FFF7B0FF4FF0804349
:10B480000222C3F80823044B01201B68BDE81040CA
:10B49000184710BD00010040742D00200401004039
:10B4A00000F1804000F5C040002382B003600368D3
:10B4B0000193019B02B07047800000F1A040D0F8DA
:10B4C000003723F44033C0F80037D0F8003743EAA0
:10B4D0000141C0F800177047054B4FF0FF320728B5
:10B4E00043F8202084BF1B1883F83C20704700BF1E
:10B4F0007C2D0020C208054900F00700012383408D
:10B50000885C20EA03008854704700BFC12D0020EA
:10B5100010B5184C94F8493053BB04F12403202192
:10B52000FF22013911F0FF0103F8012BF9D1C8B254
:10B53000FFF7D2FF01310929F9D1042200210E4879
:10B5400007F0C9F90D4BC02283F806234022C3F847
:10B5500080214FF4BE701A60FFF7A2FF084B4FF036
:10B560000042C3F80423012384F84930002010BDB1
:10B570000820FCE77C2D0020C12D002000E100E028
:10B5800000600040034B93F84900003018BF0120D1
:10B59000704700BF7C2D002030B52E4B1A1892F951
:10B5A0002440013453D18C78002C4CD01C4600220E
:10B5B00054F8045B013541D11C1884F82420002480
:10B5C00043F82240920002F1804202F5C0420B781B
:10B5D000D2F810554C7825F498151B04240525F451
:10B5E000F85504F4801403F44033C2F81055234393
:10B5F0000402D2F8105504F4F85423432B43C2F844
:10B6000010354A780123012A4FF0A04203FA00F3D3
:10B610000CBFC2F80835C2F80C3500F5E073032101
:10B6200042F82310C2080C49012300F0070003FA76
:10B6300000F08B5C18438854002003E00132082A94
:10B64000B6D1042030BDFE2382F82430D9E708208B
:10B65000F8E700BF7C2D0020C12D002038B5164929
:10B660000D18044695F82400072809D8FFF734FF81
:10B6700095F92430114A03F5A273002042F8230003
:10B680000B19FF2201EBD40183F8242091F8452007
:10B69000012304F007018B401A420BD004F5E0723D
:10B6A0004FF0A043022143F822102046BDE8384065
:10B6B000FFF720BF38BD00BF7C2D00200060004098
:10B6C000012303FA00F04FF0A043C3F808057047C8
:10B6D0000E4B034493F92420072A02DD0021FFF7D3
:10B6E000EBBED3B2072B10D8930003F1804303F5D0
:10B6F000C043D3F8101521F00101C3F81015012340
:10B7000003FA02F2024BC3F8082370477C2D002095
:10B710000060004038B5164C0546FFF7D9FF6319A5
:10B7200093F92430DAB2072A9FBF03F5A273114AB6
:10B73000002142F8231004EBD50305F0070193F82C
:10B74000452001238B401A4209D005F5E0734FF0E4
:10B75000A042022142F823102846FFF7CBFE2C44DA
:10B7600094F82400FFF7B8FEFF2384F8243038BD96
:10B770007C2D00200060004038B50B4D002415F9E9
:10B78000013B9A1C0AD12046FFF768FF0134202CA8
:10B79000F5D1064B002283F8492038BD002BF5DB9C
:10B7A0002046FFF7B7FFF1E7A02D00207C2D0020F9
:10B7B0002DE9F04385B00024564D01944FF480727A
:10B7C000012102F1804303F5C04390B21B68012BB5
:10B7D00006D1D5F804330B4202D0FFF761FE0C43CB
:10B7E0000432B2F5907F4FEA4101EAD14A4B1B681F
:10B7F000012B0AD14FF4BE70FFF752FE4FF0A04369
:10B8000044F00044D3F81035019314F0FF0F1AD020
:10B81000424F00250126344210D0AB0003F1804393
:10B8200003F5C043D3F81005D3F8101557F82530A9
:10B8300023B1C1F30141C0F3042098470135082D1D
:10B840004FEA4606E7D1002C61DA00224FF0FF33C1
:10B85000CDE90223DFF8C480012702AE98F9443015
:10B86000DAB2013322F0C00451D004A94FEAD40C5B
:10B8700001EB0C0002F0070310F8041C07FA03F3B5
:10B88000194244D008EB0401920991F9241058F8A8
:10B8900021503DB9032A3AD116F80C10194306F885
:10B8A0000C1001E0032AF7D004F5E0714FF0A04C32
:10B8B00010F80C0C5CF821101842C1F3014105D0BE
:10B8C000022924D1032A20D1114604E003291ED1E4
:10B8D000032A1AD102212046FFF7EEFD3DB14FF0B9
:10B8E000010911462046A847B9F1000F0FD04FF0CB
:10B8F000A043019AD3F81035934208D00193029BDC
:10B900000393ABE74FF00009EBE7002DFAD105B048
:10B91000BDE8F083006000407C6100407C2D002089
:10B920000023435082B043580193019B02B07047FB
:10B930001FB501238DF80030054B8DF808000191EB
:10B940006846D3E90012904705B05DF804FB00BFDC
:10B95000C82D00207FB5384AD2F82461002E49D086
:10B9600010464FF49271FFF7DBFF02238DF8003091
:10B97000D2F88034C2F880340393D2F83C358DF885
:10B9800008302E4BDA6801920022C3E9062268468D
:10B99000D3E900129047284AD2F8443173B14FF4EA
:10B9A000A2711046FFF7BCFF244B996931B1002109
:10B9B0009961D2F83C05D968FFF7BAFF1E4AD2F860
:10B9C0002031ABB14FF490711046FFF7A9FF1B4B2C
:10B9D000596969B1D2F84C158DF8081000229968A0
:10B9E0008DF8002001915A616846D3E90012904712
:10B9F00004B070BDD2F81031002BCCD04FF4887158
:10BA00001046FFF78DFF0D4BD2F83C05996988422F
:10BA1000C1D1DC69D96864B1D2F8005225F02005A3
:10BA2000C2F800521A699C61DA60DE61FFF780FF9C
:10BA3000B1E79C61FAE700BF00200040C82D00205C
:10BA400001F06043B3F1005F2DE9F041074632D1C8
:10BA50001B4B0679242505FB063598466C6964BBAB
:10BA60006A61A96000684FF49071FFF759FF4FF4C5
:10BA7000AC713868FFF754FF3B686A69A968C3F87E
:10BA80004415C3F8482501229A606A6862B9D3F860
:10BA90002021D3F8584152B9002CF8D00F24242388
:10BAA00003FB0686002373612046BDE8F081002C6D
:10BAB00018BF0F24F3E71024F6E71124F4E700BFC2
:10BAC000C82D00200379044A242101FB032358696F
:10BAD000003018BF01207047C82D00202DE9F74F16
:10BAE0004FF00009154D164E07464FF0040AC846A0
:10BAF0005FFA89FB01240DF1070004FA0BF48DF8BD
:10BB00000780FEF749FC2C4208D0336814EA030290
:10BB100001BF2343336087F800B092469DF80700C9
:10BB2000FEF75EFCBAF1000F03D0A54309F101094D
:10BB3000DED1504603B0BDE8F08F00BFFFFF01002B
:10BB4000EC2D002037B501258540C5F31003ABB1BE
:10BB50000B4B0024C3F808550DF107008DF8074082
:10BB6000FEF71AFC074A9DF80700136823EA05054B
:10BB70001560FEF735FC204603B030BD0720FBE71B
:10BB800000F00140EC2D002010B5A1B19AB10123C5
:10BB90008340C3F3100484B10A4C246823420ED0BE
:10BBA000C00000F1804000F5F830C0F81015C0F872
:10BBB0001425002010BD0E20FCE70720FAE708201E
:10BBC000F8E700BFEC2D002001238340580C40040F
:10BBD00040B91BB1054A1268134205D0044AC2F8A5
:10BBE000043570470720704708207047EC2D00206F
:10BBF00000F0014000F1804000F5E040002382B0F9
:10BC0000036003680193019B02B07047F0B5534B8A
:10BC1000534C1B6885B0002B3DD04FF4827094F8D4
:10BC20002E20FFF7E7FF2AB394F82F3013BB4D4BBC
:10BC30001B68002B33D04FF48070FFF7DBFF94F8C4
:10BC40002D20638B91B28B424ED95B1A21899BB216
:10BC50006383CB1A616801EB4301434BC3F82C1695
:10BC6000C3F830264FF48270FFF7C4FF3F4B012228
:10BC70001A6014E0636802932389ADF80C30E3681E
:10BC800000218DF8041023BB2374236801A8984772
:10BC9000002384F82F3094F82E30002BC7D1344B7A
:10BCA0001B685BB14FF48870FFF7A4FF0023237477
:10BCB00002238DF8043001A8236898472D4B1B6898
:10BCC00013B34FF48A70FFF795FF0023237405B078
:10BCD000F0BD208B608363602081E160002AD4D1B5
:10BCE000214B01221A60D0E7BCD1E368012184F81E
:10BCF0002F103BB1002161831B49C1F82C36C1F8DC
:10BD00003026AFE76383ADE766694FF00047012552
:10BD1000002EDCD0B6FA86F227FA02F34632920001
:10BD200026EA030602F1804303F5E0431B68002B7B
:10BD3000EED01046FFF75EFFA2F58C72D30882F0BA
:10BD40000402C2F380028DF808308DF804508DF89B
:10BD50000920236801A89847DAE700BF0471004072
:10BD6000F02D002000710040007000400470004081
:10BD7000107100401471004038B51D4B044693F813
:10BD80002C0098BB1B4A19602178C2F8F015617825
:10BD9000C2F8F415E5781874012183F82C1083F8A3
:10BDA0002D00586183F82F0083F82E506FF0004368
:10BDB000C2F808334FF48270FFF71CFF4FF4807015
:10BDC000FFF718FFA3780C485B01DBB280F807335C
:10BDD0008023C0F8803103600223C2F804330DB120
:10BDE000C2F80413C2F80015002038BD0820FCE793
:10BDF000F02D00200070004000E100E02A4B1A7C8A
:10BE000070B502F0FF05002A4BD10A79012A9CBFC8
:10BE1000264CC4F8005500F10C0503EB45042479C9
:10BE200024B993F82D40013483F82D4003EB4503EA
:10BE3000CC790D7A8E781C715D714B7836021B01BE
:10BE400006F4E06603F0300333430E7806F0030691
:10BE50003343CE78360306F480563343160406F493
:10BE6000E02633434E798979360506F480160906B3
:10BE7000334301F080710B430C4901EB00160001C4
:10BE800000F1804000F5E040012AC6F81835C0F8FE
:10BE90001455C0F8104502D80123C1F80035002020
:10BEA00000E0112070BD00BFF02D002000700040A8
:10BEB000054B93F82E30002B14BF0020042000F116
:10BEC000804000F5E0407047F02D0020264A274BC7
:10BED00070B505461220C2F808031C7C022C03D161
:10BEE000C2F80403112070BD187C01281DD1D86848
:10BEF00018B10223C2F80433F4E7DD60198393F824
:10BF00002E3063B91A4A1368002BFCD04FF48070AE
:10BF1000FFF770FE144BC3F82C56C3F83016124BC3
:10BF20000222C3F804230020DDE7022093F82E400C
:10BF3000C2F80403012600201E745D601981D860D8
:10BF40003CB1598393F82D30C2F82C56C2F83036E4
:10BF5000C9E7C2F82C564FF48070C2F83016FFF7CC
:10BF600049FE20461660BEE700700040F02D00201C
:10BF700000710040024B187C003018BF0120704750
:10BF8000F02D0020F0B51B4F8BB207EB001443EAF5
:10BF90000243C4F81C35184B40005C6900F1010CE9
:10BFA0004FF0004611F5006F26FA0CF64FF08005B1
:10BFB00005FA00F50BBFB44334435C615C610CBF10
:10BFC000C7F80853C7F8045340244FF00045596997
:10BFD000844025FA00F040F2FF75AA42054A0BBFE3
:10BFE00081430143596159610CBFC2F80843C2F84B
:10BFF0000443F0BD00700040F02D0020124B1A7C6D
:10C0000010B5F2B900F10C0103EB4102127922B133
:10C0100093F82D20013A83F82D2003EB41030024EF
:10C020009C80030103F1804303F5E04340F2FF727B
:10C03000C3F814450549C3F81045FFF7A3FF204690
:10C0400010BD1120FCE700BFF02D002000F8FFFF1D
:10C0500038B5134B6FF00042C3F80823114A802112
:10C06000C2F88010104A01211160104942F210728A
:10C07000086808B9013AFBD10D4D0024C3F800450A
:10C080002C7405EB44031B7F13B1E0B2FFF7B6FF3E
:10C090000134082CF5D1002385F82C3038BD00BFC1
:10C0A0000070004000E100E00870004014710040A2
:10C0B000F02D00202DE9F743002406460F4600F539
:10C0C000A0754FF48038A146A0002B6800F5A07041
:10C0D00080B26BB1D6F8043308FA04F21A4207D0E2
:10C0E000C5F800902B680193019BD7E90031984770
:10C0F0000134042C05F10405E6D103B0BDE8F0835A
:10C10000F7B50579334C0C266E43A7193B7A002B03
:10C110005DD1A2514A687A60467900681F46DAB25A
:10C1200096424BD8020B53B2CE78002BA8BF03F136
:10C130006047D2B24FEA5313B8BF02F00F0C4FEA78
:10C140004616B4BF244F07F561474FEA8303F6B2A2
:10C1500003F16043B4BF07F80C6087F8006303F590
:10C160006143012602F01F0206FA02F2C3F88021A1
:10C170001A60D0F804254B7822F0030203F0030381
:10C180001343C0F80435D0F808258B7822F0030259
:10C1900003F003031343C0F80835D0F810250B78DB
:10C1A00022F00F0203F00F031343C0F810350C23E5
:10C1B00003FB05440020267203B0F0BD9A0002F58F
:10C1C000A0720133875082580192019AA7E7082094
:10C1D000F2E700BF202E002014ED00E003680122EA
:10C1E0001A600379034A0C2101FB032302221A720D
:10C1F000704700BF202E00200368044901221A6105
:10C2000003790C2000FB03131A727047202E0020C4
:10C210000268110B38B54BB201245B0901F01F0114
:10C2200004FA01F120330B4C44F823100546D2F8F0
:10C23000003200244FF0FF33C2F80042C2F8083346
:10C24000FFF7DAFF2B79044A0C2101FB03231C7250
:10C2500038BD00BF00E100E0202E002037B54FF4CC
:10C2600080348C4000687BB101F150039B000025B5
:10C27000C550C3580193019BC0F8044301F5A87150
:10C2800040F8212003B030BDC0F80843F6E770B491
:10C29000046840F20116D4F800528E4025EA0605E3
:10C2A000C4F80052D4F800522B43C4F800329DF871
:10C2B0000C3070BCFFF7D2BF01490248FFF7FABE4D
:10C2C000202E00200080004001490248FFF7F2BE06
:10C2D0002C2E00200090004001490248FFF7EABEE2
:10C2E000382E002000A00040032813D8012A0BD1CB
:10C2F000012908D100F10E02D2B200EB40000C4B34
:10C300001A540020704700220129F6D04BB24BB1DD
:10C31000022901D007207047054B00EB400018446C
:10C320004270EEE7024900EB400008448270E8E703
:10C33000442E002008B5012202210020FFF7D4FF7F
:10C3400008B1072810D1072202210120FFF7CCFFF6
:10C3500008B1072808D100210A220846FFF7C4FFC8
:10C3600010B1072808BF002008BD00000388102B6B
:10C3700010B502D0112B1ED010BD1A4C2168B1B9D6
:10C3800001220846FFF7B0FF08B1072824D1072291
:10C3900002210120FFF7A8FF08B107281CD10422C1
:10C3A00002210020FFF7A0FF08B1072814D123685D
:10C3B00001332360E0E70B4A1368013B1360002B55
:10C3C000DAD1FFF7B7FF0028D6D0074B1B68002B48
:10C3D000D2D0BDE810401847034B1B68002BE6D0B5
:10C3E0009847E4E7542E0020502E00200369C168CE
:10C3F0008B429DBF8268D21802F1FF3203F1FF33F6
:10C4000094BF501A581A70472DE9F041D0E90274D0
:10C4100005463E1B4068964220448846144404D991
:10C4200006F030FAEC60BDE8F0813246E41B06F01D
:10C4300029FA224608EB06016868F1E72DE9F8437E
:10C44000C5680646894617464FF000083469B36848
:10C450007068A54228BFE418013C621B5C1BBC420B
:10C4600028BF3C46944228BF1446494628442246E9
:10C4700006F008FAB3682544AB4208BF00253F1B0D
:10C48000A044A144F560E1D14046BDE8F883000036
:10C4900010B5114C114AA2610223C4E90433104BB8
:10C4A000E361A2644FF400730E4A2362E264002346
:10C4B00010220D49A362E01D6362E362A365636518
:10C4C000E365226506F03AFA0849204606F036FA96
:10C4D0002023A37110BD00BF582E00200932020096
:10C4E000E02E0020D02E0020123202001632020070
:10C4F000F8B5184C182300FB033503FB0040254416
:10C50000C46A012C0F46164611D024B1022C1BD050
:10C5100000242046F8BD2846FFF768FFB042F8D354
:10C52000324639462846FFF76FFF3446F1E7284682
:10C53000FFF75CFF8642344628BF04462246394650
:10C540002846FFF761FFE4E72846BDE8F840FFF71B
:10C5500075BF00BF582E0020FFF79ABF6DDF7047F0
:10C5600079DF70477DDF704764DF70472DE9F04F5A
:10C5700085B000250E9CBDF83CB02788019180460F
:10C5800091469A462E46B8F80020B2420CDC3DB1E6
:10C590002288013AD21B92B2FF2A3BD80AF8072020
:10C5A000002005B0BDE8F08FD8F8042052F826002E
:10C5B000039000220DF10B0103A8FFF7D5FF00281F
:10C5C000EFD19DF80B204A4522D12288002D14BFBF
:10C5D0000020022002EB0901014459451ADC45B94B
:10C5E000013292B2019B22800AF802302288013285
:10C5F000228022880DF10B01524403A8FFF7B4FFFB
:10C600000028CED121889DF80B200A4422800125E4
:10C610000136B8E70C20C4E72DE9F341089CBDF8CA
:10C6200024501746CDE90045022206469846FFF7FA
:10C630009DFF50B94346102239463046CDE90845A2
:10C6400002B0BDE8F041FFF791BF02B0BDE8F08154
:10C650002DE9F04F00231688138090F82D3085B017
:10C6600007460D46144653B3082E01D80C2027E187
:10C6700002A8FFF773FF002840F0228123880822D8
:10C68000EA54238801339BB21B222380EA5420887A
:10C69000013080B2208006220DF10901284406F005
:10C6A000F1F823889DF8082006339BB212F0FE02B1
:10C6B00018BF01222380EA54238801332380BB78EA
:10C6C000FBB123880433B342D0D802A8FFF748FF58
:10C6D000002840F0F58023880322EA5423880133A0
:10C6E0009BB219222380EA542388BDF80820013325
:10C6F0009BB2E9182380EA54120A4A702388023355
:10C700002380FA789AB12388D91CB142AED802218D
:10C71000E954238801339BB201212380E954238803
:10C720000B449BB22380EA5423880B4423807A680D
:10C73000AAB12388D91CB14298D8022192F90020CD
:10C74000E954238801339BB20A212380E9542388CA
:10C7500001339BB22380EA542388013323803B8931
:10C76000002B40F0A1803B8A5BB1CDE900462B460F
:10C770000722032107F11000FFF74EFF002840F0C9
:10C780009F803B8B5BB1CDE900462B4615221421DF
:10C7900007F11800FFF740FF002840F091803A6A47
:10C7A000002A40F09080D7F82480B8F1000F30D0F4
:10C7B000B8F804302188981C8A1C0244B2423FF623
:10C7C00055AFFE283FF652AF03336B542388013335
:10C7D0009BB2FF222380EA54238801339BB223803B
:10C7E000B8F80020EA54E918120A4A70208802308A
:10C7F00080B22080B8F804205AB1D8F80810002977
:10C800006BD0284406F03EF82388B8F8042013447F
:10C81000238097F82C30002B40F09A80387800283D
:10C820004ED03B88012B58D0228802F1020CB4452F
:10C830003FF61CAF012805D17B78023313449E429A
:10C84000FFF414AF023EB61AB6B202A905EB0C0013
:10C85000ADF80860FFF786FE90BB3978BDF8082078
:10C86000022900F0BA807B78934202D3B24240F2B0
:10C87000B280012940F0B3809BB29E42C0F0AF80ED
:10C88000ADF808300821BDF80830FE2B3FF6EEAEBB
:10C8900022880133AB542288013292B22280A954FB
:10C8A0002288134423800BE0CDE900462B46062264
:10C8B000022107F10800FFF7AFFE00283FF453AF55
:10C8C00005B0BDE8F08FB4F800C00CF10603B34228
:10C8D0003FF6CCAE1188052901D80720F0E76FF4A8
:10C8E000486E01EB0E039BB24FF27D3E7345F4D9C7
:10C8F0005388052BF1D96FF44860181880B2704541
:10C90000EBD94FF6FF70814203D0834201D09942A8
:10C91000E3D8052305F80C30238801339BB212219C
:10C920002380E954238801339BB223801188E95482
:10C93000E818090A4170238802339BB22380528889
:10C94000EA54E918120A4A702388023323802AE73E
:10C95000BB6A002BC1D04FF000094FF00C0A4FF01A
:10C96000160B97F82C305FFA89F293427FF656AF98
:10C97000B96A0AFB02F201EB0208B8F80430981C0D
:10C98000FE283FF673AE208803332B5423880133EF
:10C990009BB2238005F803B0238801339BB2238028
:10C9A0008A5AEA54E918120A4A702088023080B282
:10C9B0002080B8F804205AB1D8F8081000298CD08B
:10C9C000284405F05FFF2388B8F80420134423802F
:10C9D00009F10109C5E7092155E7B242FBD9ADF8D4
:10C9E00008604FE770B5C0B14AB116880024B44260
:10C9F00003D305196D789D4208D0A14201D80020CB
:10CA00000BE0055D01352C44A4B2F0E7A142F6D954
:10CA1000A31C1380005D013880B270BD13B50023E4
:10CA2000ADF8063013460DF106020446FFF7DAFFB3
:10CA300010B1BDF80600204402B010BD72DF70478F
:10CA400073DF704738B5012204460D46B0F89810E0
:10CA5000D0F89400FFF7E2FF00B1057004F13C024A
:10CA600004F1940104F15400BDE83840FFF7E6BF3B
:10CA700080F830107047F8B504460F46002968D09A
:10CA8000002866D091F87A301BB191F89830002BCD
:10CA900061D1D7F8A030042B5DD0D7F89C30042B9F
:10CAA00059D007F178060FCE4FF0000C251D84F801
:10CAB00002C00FC50FCE0FC596E8070085E8070036
:10CAC00084F830C0D7F8A4306363D7F8A830A363E4
:10CAD0004FF6FF7504F19403C4F8A430A4F8A850ED
:10CAE0000722614604F1AA0005F0F5FE23780BB990
:10CAF00084F85450224604F155011F25C4F89410BF
:10CB0000384622F8985FFFF7A3FD08BB224604F1E0
:10CB10007401C4F89C1007F13C0022F8A05FFFF7F5
:10CB200097FDA8B9A369A4F848304FF48073012594
:10CB3000A4F8503063692064014684F83C50636473
:10CB400004F13C0204F15400FFF778FF00B92570AE
:10CB5000F8BD0E20FCE70720FAE7F8B50778044691
:10CB60000D46002F00F0F98000F1AA06A1700722FF
:10CB70000021304605F0AFFEE38813B1A378012B06
:10CB800004D0E3794BB1A378022B06D1636BA3B138
:10CB9000012284F8B12008209847334604F1B001FF
:10CBA00013F8012F12B98B42FAD117466B1E032BD3
:10CBB00052D8DFE803F0050B0F1284F8B130ECE730
:10CBC000A3791BB194F8243003B95FB9E3790BB1B1
:10CBD000002F43D1237A002B42D1637A002B0CBF64
:10CBE00000250425636BA570002B3BD0033D012D70
:10CBF00038D86279002A35D094F8B22092BB84F8F4
:10CC0000B420012284F8B3200720984704F13C05A2
:10CC100018220021284605F05EFEE36A591E012213
:10CC2000022928BF134684F8513094F8243084F840
:10CC30003C2033B1914296BFA36A84F8522084F815
:10CC40005230A278002384F85030042A1BD8DFE841
:10CC500002F06C0D223252000025C3E70225C1E725
:10CC60000325BFE7002384F8B330CFE7C4F8A4302E
:10CC7000C4E910630223012284F83C30802384F845
:10CC80003120A4F84830A378002B51D1636B002BDE
:10CC90005FD100205CE0022384F83130032384F864
:10CCA0003C302369A4F848300023C4F8A430E3687A
:10CCB00026646364E7E763696364A369A4F84830A2
:10CCC0006379B3B194F8B2309BB994F8B43083B1BE
:10CCD000022384F8503004212046FFF7B3FE0028D9
:10CCE000D1D1052384F8313004F19403C4F8A43081
:10CCF000C9E70323F6E7E3696364236AA4F84830CD
:10CD0000637983B194F8B2306BB994F8B43053B10D
:10CD1000022384F8503004212046FFF793FE0028B8
:10CD2000B1D10623DEE70423DCE784F83130AAE73B
:10CD30002A46D4F8A41004F15400FFF77FFE38B956
:10CD400094F8301094F85400FFF77AFE00289DD034
:10CD5000F8BD94F8310098479BE70820F8E703886E
:10CD6000112B10B50C460AD0262B1FD0102B05D145
:10CD7000C37B012B02D18388A1F8A83010BD00220B
:10CD8000838881F8B220B1F8A8209A42F6D10B79B5
:10CD9000002BF3D101212046FFF7DFFE0028EDD064
:10CDA000A36B002BEAD0BDE810401847037A013B83
:10CDB000012BE3D8897805230131B1FBF3F303EBB1
:10CDC0008303C91AC9B2E6E7704775DF704776DF9B
:10CDD00070477ADF70477BDF70470000034B1A888B
:10CDE00082420CBF18460020704700BFFC30002074
:10CDF000024B9B6903B11847704700BFE030002029
:10CE000073B586B23046FFF7E9FF044670B1164DA0
:10CE1000027A2B7B9A420BD200F10A013046FFF7CF
:10CE2000D4FFE8B1112801D0FFF7E2FF02B070BDD6
:10CE3000002303722B7C43B13B213046FFF7C7FF31
:10CE400030F0080301D0FFF7D3FF6B69002BEDD062
:10CE500000228DF80420ADF8066001A89847E5E7A8
:10CE6000237A01332372E1E7E030002013B50B464B
:10CE7000497A0F4C024669B9D4E901101C7A002C9A
:10CE800018BF01465868FDF711FA08B1FFF7B0FF67
:10CE900002B010BD002119726369002BF8D0012186
:10CEA000ADF806008DF8041001A89847F0E700BF20
:10CEB000E03000204B8802889A4213D842889A4278
:10CEC00010D380888A8840F2F313984294BF031AE3
:10CED000C31A934206D800F2F310904234BF0020E8
:10CEE00001207047002070470388112B70B5014660
:10CEF00048D002D8102B1ED070BD122B52D0502B10
:10CF0000FAD12F4BC288DB899A42F5D1038A022BD2
:10CF1000F2D186883046FFF761FF05460028EBD046
:10CF200001F1120000F0FCF930BB6868FDF704FA6B
:10CF30000028E1D009E0C37B012BDDD14FF6FF7063
:10CF4000FFF74CFF054620B90420BDE87040FFF70D
:10CF50004FBF1C4A8E880680002303721368C5F8F1
:10CF60000A300A30536843601031FFF7A3FF144BB7
:10CF70006872DB89002BBFD129463046BDE870407E
:10CF8000FFF774BF8088FFF729FF04460028B3D05D
:10CF90004068FDF7D1F908B1FFF72AFF4FF6FF739C
:10CFA0002380A9E786883046FFF718FF054600284A
:10CFB000A2D008310A30FFF77DFF6872DCE700BFBE
:10CFC000E030002010310020F8B5064648B3054691
:10CFD0000FCD154F3C460FC495E8070084E80700C5
:10CFE0003068124C3C60B0B1FFF7F3FEC0B9326854
:10CFF00013682360536863600D480E4A4FF6FF7351
:10D0000003800D4B40F8043F0021FDF73DF9002857
:10D0100018BF032004E02046FFF7DDFE0028EBD018
:10D02000F8BD0E20FCE700BFE030002010310020EA
:10D03000FC30002001CE010018310020F7B5174662
:10D0400001900E4691B1019C6CB100252C462946F9
:10D0500001A8FDF7A6FA18B13946A8B2B0470134C5
:10D060000135142DF3D1204603B0F0BD0C46FAE78C
:10D0700073B50191019C06466CB100252C462946EA
:10D0800001A8FDF78EFA18B106EB440301349D8028
:10D090000135142DF3D13046346002B070BD00006C
:10D0A0002DE9F04703888488112B8CB006463CD0CC
:10D0B0001A2B3FD0102B17D1274DAB68DB430093C1
:10D0C00069686846FDF7CEFA009901A8FFF7D0FF1E
:10D0D0000DF108094FF00008019B984507D3132C68
:10D0E00013D90420FCF724FE0CB0BDE8F08739F812
:10D0F00002AB00270137514605EB8700FDF747FAE1
:10D100001D2FF7D108F10108E6E721461348FDF786
:10D1100027FA21461248FDF723FAF37B012BE3D0CF
:10D1200010482146FDF71CFADEE70C482146FDF7C2
:10D130002EFAD9E7057A0C482D09012D214606D98A
:10D14000FDF70EFA022D21460848F0D0EAE7FDF778
:10D150001EFA21460548EAE7383100204031002018
:10D160003C31002044310020483100204C31002067
:10D170001328014602D80248FDF713BA0020704771
:10D180003C310020FFF7F4BF10B50446FFF7F0FF75
:10D1900038B121460348FDF704FA002814BF0220E5
:10D1A000012010BD4031002010B50446FFF7E0FF1C
:10D1B00028B121460248BDE81040FDF7F2B910BD84
:10D1C0004831002010B50446FFF7D2FF28B12146B0
:10D1D0000248BDE81040FDF7E4B910BD4C31002015
:10D1E00010B50446FFF7C4FF002814BF20461420E2
:10D1F00010BD000008B518210248FDF7DBF9C0B2E8
:10D2000008BD00BF3831002070B50A4D06462846DB
:10D210000C46FDF7C6F958B13046FFF7A9FF38B103
:10D22000A01D314605EB8000BDE87040FDF7B9B99F
:10D23000002070BD38310020F8B50D4C0546204661
:10D240000E461746FDF7ADF980B12846FFF790FF6F
:10D2500060B1B01D04EB800029461FB1BDE8F84065
:10D26000FDF77EB9BDE8F840FDF791B9F8BD00BF04
:10D2700038310020F8B50A4C05460E4601462046D6
:10D280001746FDF78EF948B1043504EB85043A469C
:10D29000A0683146BDE8F840FFF7D0BEF8BD00BF3A
:10D2A0003831002070B5054616460AB90E2070BD0B
:10D2B000002313600028F9D00368002BF6D0C38840
:10D2C00013F003040FD10846FFF78AFFC0B21428F9
:10D2D0000BD02B7983420AD9EB882A6800FB032301
:10D2E00033602046E3E70720E1E70520DFE704207D
:10D2F000DDE7AADF7047002301380B70042806D849
:10D30000DFE800F00306080A0C0011230B707047D9
:10D310002123FBE73123F9E71223F7E72223F5E77F
:10D32000007800F001007047F0B58B7891B0002BC9
:10D330000C4608BF01238DF80E3005460B88ADF86A
:10D340000C30002116466846032205F0C4FA6946EF
:10D35000607CFFF7D0FF0DF10101A07CFFF7CBFF50
:10D360009DF80230E27B62F3C303227C62F3041374
:10D37000227B62F30003227D002A14BF02220122D5
:10D3800062F3420300211C2209A88DF8023005F047
:10D39000A2FA637B13F0300F15D002AF03220021F5
:10D3A000384605F098FA0DF10901E07CFFF7A3FF7C
:10D3B00011238DF808309DF80A300E97012262F390
:10D3C00042038DF80A30637B8DF824301422A37B4E
:10D3D0008DF82530002104A805F07DFA03AB0493F5
:10D3E000A388ADF81C30A368CDF814D01BB1E28837
:10D3F000ADF818200893A369002B2ED001AF0322AB
:10D400000021384605F067FAA3691A88ADF82C2088
:10D410005A88187BADF82E2039465A680A920D9723
:10D42000FFF769FFA3690DF10501587BFFF763FF63
:10D43000A2699DF80630917A61F3C303D17A61F352
:10D440000413117A927B002A61F3000314BF0222B5
:10D45000012262F342038DF80630E36903B10C93B5
:10D46000334604AA09A92846FFF743FF11B0F0BDCF
:10D47000A5DF7047B5DF704758B14FF0F713036071
:10D48000FB230371F723C3801723C160836000204F
:10D4900070470E20704730B1A1F11703E02B04D87C
:10D4A0000180002070470E20704707207047000061
:10D4B00013B5034680880C4680B91A88112A60D0BB
:10D4C0000ED8102A3AD0A37A43B1E1880020FFF7A2
:10D4D000CFFF002872D14FF48073638102B010BD7A
:10D4E0003A2A53D0552AEED1DB88C988A072172B6F
:10D4F00038BF17238B4228BF0B462381FFF7BAFFA3
:10D5000060B1FDF705FC354A354B36499B1ADB08FF
:10D510001B04024643F00100FCF780FAE37A002B7B
:10D52000D1D1E368002BCED040F677220092228939
:10D53000ADF80420694620469847C4E7DB7B012B01
:10D5400004BF0B88CB80C98823898B42BBD20020C3
:10D55000FFF78EFF10B90123E372B4E7112802D15F
:10D560000123A372AFE7FDF7D3FB1C4A1C4B1E49F6
:10D570009B1ADB081B04024643F00100FCF74EFA3D
:10D58000A1E7F723CB8017238B609CE75B89CA88D0
:10D59000934228BF1346172BCA6838BF17230B8145
:10D5A0004AB1C97A39B140F677210091ADF804301B
:10D5B0006946204690470023638184E711288DD077
:10D5C000FDF7A6FB054A064B07499B1ADB081B041F
:10D5D000024643F00100FCF721FA7FE77C2A0200B3
:10D5E000CC2A02004E3202001D320200B0DF70472A
:10D5F00066DF704710B5002104464088FFF7F8FF4A
:10D60000034608B9237210BD112801D10123F9E79F
:10D610006368BDE81040184760B159B10378DE2B4C
:10D620000AD00B684360DE2303704FF6FF7343801C
:10D63000002070470E2070470820704728B10378FB
:10D64000DE2B04D14180002070470E207047082057
:10D650007047F0B5054685B00C46F1B1E8B10B78DE
:10D66000DE2B1AD182884B889A4204D10B7A13B1EF
:10D670000846FFF7BFFF2B88112B32D0512B0ED05D
:10D68000012B0AD12B7A012B07D1A98862889142FC
:10D6900003D123722046FFF7ADFF05B0F0BDAE8881
:10D6A0006388B342F9D1AF79022FF6D1AD7B2B1F3E
:10D6B000022BF2D800211022684605F00CF9052D46
:10D6C00014BF4FF4C0730023694630468DF80070D4
:10D6D000ADF80430FFF78AFF0028DED06368984772
:10D6E000DBE76388AA889A4204BF4FF6FF73638022
:10D6F000D3E7000070B5064D0646002455F8043BFC
:10D700000BB1304698470134042CF7D170BD00BFEF
:10D71000BC310020033080B240F2FD33984230B576
:10D720001FD8124B1A783AB91C895D892C440444DD
:10D73000A4B2B4F5806F0AD31A7DA2B99A8BDC8BA0
:10D740002244024492B2B2F5806F0CD201220A80C8
:10D750001446142202FB04335A89104458810020D5
:10D7600030BD0920FCE70720FAE700BFF0310020B8
:10D770000B4A0C4B5188142000FB0131CB6833B9A4
:10D780000420496810700122074800F043BF0523B8
:10D790000649137002238B80012200230968F3E7F6
:10D7A000D4310020F031002000250020B8320020C4
:10D7B00007B5002305490093054A09680548082371
:10D7C00000F092FE03B05DF804FB00BFB832002009
:10D7D000983202000025002007B50023009301467F
:10D7E0000823034A034800F07FFE03B05DF804FB02
:10D7F000903202000025002013B500230C46009350
:10D8000001460423074A084800F06EFE38B9074B6A
:10D81000142202FB04340123237402B010BD0E2035
:10D82000FBE700BF8C32020000250020F031002011
:10D8300037B50A480A4B42689C8819685388032503
:10D84000033305709BB2002000909B0001EB840124
:10D85000044800F049FE03B030BD00BFD4310020C1
:10D86000B83200200025002010B501460448FCF71E
:10D8700002FE1C220446002105F02DF8204610BDB2
:10D88000A432002068B10268084B9A4209D140686E
:10D89000074B984207D0013398420CBF0120032068
:10D8A0007047032070470020704700BFDEC0ADDE28
:10D8B000FE011EF14388033300EB8303994209D331
:10D8C00082884FF6FF739A4206D00088B0FA80F043
:10D8D0004009704702207047012070472DE9F84346
:10D8E0000223DFF860800B800D46174600F5805656
:10D8F00000F108044FF00109B4420FD2236801334C
:10D900000CD031462046FFF7D5FF48B10FB187F85C
:10D91000009002280BD14FF480632B80BDE8F88380
:10D92000A368D8F80020934201D9C8F800302B88AA
:10D930006288033313442B806388033304EB83042E
:10D94000DAE700BFE8310020154A142303FB00206A
:10D9500070B50B6844680D4604F58056ABB15C8821
:10D96000033403EB8404B4420DD2236801330AD09C
:10D9700031462046FFF79EFF01280BD010F0FF0F25
:10D9800005D00228EFD1002003E00834EBE72C603B
:10D99000012070BD6388033304EB8304E3E700BF19
:10D9A000F0310020436873B504460D4663B3234A43
:10D9B000D1688B4228D31269934225D813F0030013
:10D9C00022D11F4A2189128991421DD121689A686A
:10D9D000914219D11B4A51688B4203D901F58051FC
:10D9E0008B420DD3926993420CD902F58052934237
:10D9F00008D201232B80B0FA80F0400902B070BD3C
:10DA00000346F7E70A20F6E700232B801E4601961F
:10DA100001A92888FFF798FF30B92B8801339BB202
:10DA2000012B2B80F3D9E9E7019B22689968914289
:10DA3000EED16360024B1B892381DFE700250020C4
:10DA4000D4310020F03100202DE9F8431C461C4B56
:10DA50001B7806460F4615466BB372B36CB3DFF8FE
:10DA600068804FF01409A388012B01D90A2020E017
:10DA700009FB03F318F803302BB92146A088FFF700
:10DA800063FF20B92060A3880133A380EBE72368FC
:10DA90001EB1998832889142EFD11FB119883A8816
:10DAA0009142EAD19A68C5E90023064B1B892B8174
:10DAB0000020BDE8F8830220FBE70520F9E700BF5E
:10DAC000CC310020D4310020F031002008B5074BC4
:10DAD000191D5888FFF738FF18B1BDE80840FFF757
:10DAE000A7BEBDE80840FFF743BE00BFD431002009
:10DAF0002DE9F04FA04FDFF8A49289B00646B84652
:10DB00003B6823B949469D48FCF7EFFC3860D8F8DC
:10DB1000005029784B1E052B00F2FA80DFE813F045
:10DB200006005E005E00EE00EE005C0126B1944B44
:10DB300000225A600124ECE02B79032B1DD8DFE88A
:10DB400003F015022A358F490B78022B084619D0AD
:10DB50000B7D022B4FF0010316D114225343C21840
:10DB60000020C8545068FFF737FE03E001232B71F3
:10DB7000FFF71EFE002800F0BC80814B00225A6097
:10DB80000E24C6E00023E8E77D4A137000235360AB
:10DB900041F61D54BDE07C497C48002302222B71D4
:10DBA0008A800122096800F035FDE3E7764C002603
:10DBB0002E712068734DFFF70FFE754BD4F800C02F
:10DBC0005A8814235343EA18EE5451682160A188FF
:10DBD000C2F804C011810222A280CBE7B5F814A0DC
:10DBE000AA7DDFF8A0B1AEB1022AEB8806D91421D4
:10DBF00001FB0AB1DA1C088902440A81142202FBE3
:10DC00000ABAC3F57F43BAF80A20FD331344AAF8D1
:10DC10000A308FE7142303FB0AB318895C6804EB0E
:10DC20008004062A68D8DFE802F0274D35431D59E5
:10DC3000040041F61D54AA7DEB88022A06D914215E
:10DC400001FB0AB1DA1C088902440A81142202FB92
:10DC50000ABAC3F57F43BAF80A20FD331344AAF881
:10DC60000A3056E04B484C4900234360AB690360DF
:10DC7000FFF798FE002871D00223AB7500230093B4
:10DC80000423EA182146414800F02EFC002830D039
:10DC90000E24D0E72B69002B14BF03230123AB759F
:10DCA0000023009305F10C02042304F10801EAE7C4
:10DCB0000123AB750022EB8800929B002A6904F1D6
:10DCC0000C01E0E703290CBF05230623AB750023F5
:10DCD0000093042305F10802E118D4E70623AB758D
:10DCE0002D4B19882B4B5868FFF786FD04460028FA
:10DCF000A1D109B0BDE8F08F0F249CE7002E7FF47E
:10DD000019AF2B79012B4BD0E3B1022B3FF440AF7D
:10DD10000F241422002103A804F0DDFD41F61D5359
:10DD20009C4208BF0024D8F8003004941A78023AC4
:10DD3000042A00F20581DFE812F0E600F200150186
:10DD40001D01240102232B710DF10A01EB680393DD
:10DD500003A8CDE90466FFF725FE08B90A24D8E731
:10DD60000498BDF80A108388EB8003882B81FFF7A5
:10DD700043FD044627E000BFEC310020A432002020
:10DD8000CC310020F0310020B832002000250020E6
:10DD9000D4310020B0310020C4320020E431002012
:10DDA000DFF8FCA103AA53463146A81DFFF74CFE3D
:10DDB000044658B9BAF804100498FFF71DFD04464C
:10DDC0000A2C3FF4E5AE002CA3D192E7082231469D
:10DDD000504604F080FDF3E7002E7FF4ABAE6B4BB2
:10DDE0001A7BAAB11E731A78013A062A90D801A1AB
:10DDF00051F822F09BDE0100C1DE0100DFDE0100F0
:10DE0000E5DE010011DD0100EBDE0100FDDE0100B9
:10DE10001A78072AE7D801A151F822F03DDE010067
:10DE2000E7DD0100E7DD010063DE010077DE0100D0
:10DE300097DE010097DE01005FDE01001A89544978
:10DE400001321A8100225A801A730A78B2FA82F2D9
:10DE500052099A720A7DB2FA82F25209DA720122EA
:10DE600007E04C4958688A884088033202448A8017
:10DE700002221A70B7E7464C5A884649142505FB1A
:10DE800002420868546850608888108102228A80A3
:10DE90000C600622EDE70722EBE79A7A32B9DA7ACC
:10DEA0008AB900221A705A805A6071E638490022F5
:10DEB0009A72CA68002AF2D1097C0029EFD05A80F0
:10DEC000FFF704FE55E70022DA72314A116A002991
:10DED000E7D192F82420002AE3D00122EFE7FFF7F0
:10DEE000A7FC46E7FFF744FC43E7294A5B88142177
:10DEF00001FB03235868FFF76FFC3AE700225A60E2
:10DF0000FFF756FC35E701228DF80C201A89ADF891
:10DF100018209A88DB68ADF81A20059310E00222D9
:10DF20008DF80C201A89ADF818209A88ADF81A20BF
:10DF3000DA689B7D05929A1F534253418DF81C303D
:10DF400003A8FFF7D7FB002649461348C8F800602E
:10DF5000FCF7F6FA01211148FCF7A5FB00287FF435
:10DF6000CFADC6E603228DF80C20DA88ADF8182074
:10DF70001A89CFE70422DB888DF80C20ADF8183021
:10DF8000DEE705238DF80C30DAE700BFD43100203E
:10DF9000F0310020B8320020A4320020B43200203A
:10DFA000C83200204068FFF7A3BD000008B501217A
:10DFB0000448FCF762FB18B9BDE80840FFF798BDBC
:10DFC00008BD00BFB43200202DE9F3419846354B1F
:10DFD0001B7806460D46002B5BD000295BD00988D4
:10DFE0004FF6FF73994258D06B88002B55D06B6861
:10DFF0009B0754D14AB92F890DF102013846FFF72A
:10E0000089FB30B102B0BDE8F08113885788ADF8C4
:10E01000023001A8FFF728FC044658B9BDF80230C9
:10E02000214A142101FB032358890338C01B58815E
:10E030000820E7E700238375BDF8023083826B6810
:10E04000036180F8008001211848FCF721FB2B8830
:10E050002381B8F1030F6B88A38004BF0423A37549
:10E060004FF0000508BF3368E06008BFA361E78098
:10E07000658101A90E48FCF728FA36B1E3683360E0
:10E080000C4B75601B89B5723381FFF78FFF002041
:10E09000B8E70220B6E70520B4E70420B2E7032082
:10E0A000B0E700BFCC310020F0310020E831002083
:10E0B000A4320020D431002008B5084B1A68042A85
:10E0C00009D01968064A42F8210001211846FCF7D8
:10E0D000DFFA002008BD0C20FCE700BFC0320020A2
:10E0E000BC3100202DE9F04F14228BB000210DEB44
:10E0F000020004F0F0FB734A137803F0FF01CDE94E
:10E1000001123BB105A8FFF7F5FA002738460BB01E
:10E11000BDE8F08F029B181DFCF7D0FA0028F4D15F
:10E120004FF010234FF080525B691269664C591C06
:10E1300004BF3023534323610022A3F540536349B6
:10E14000E360204600F09CF9039407460028DDD1E7
:10E150001C238C225E495F48DFF88491DFF88481BC
:10E16000FCF754F9BA463D464FF0030B3C46039B7F
:10E17000DE68564430463146FFF784FB01284DD017
:10E1800042B2002A36D0032822D106F58052086810
:10E19000013040F08A8004319142F8D1D9F8002052
:10E1A0003AB902220123C9F80060A9F804200193BA
:10E1B0000CE014226243022008EB020108F802007E
:10E1C000454A4E60548001340881A4B245F00105EF
:10E1D0000AF5805ABAF5405FC9D1BBF1010F98BF6B
:10E1E0000025EDB2022D03D0062D35D0002D3CD1F7
:10E1F0000B278BE71421614308EB010008F801208D
:10E2000001F1100208314660424441443046FFF7B4
:10E2100065FB45F002050134A4B2D9E7019B63B167
:10E220001422624308EB0201022008F802000134C4
:10E23000D9F800204A600881A4B200222749C9F811
:10E2400000603046FFF74AFBB9F80420022A0CBFF1
:10E25000042208221543BBE7029A0123137005A884
:10E2600000235360FFF746FA50E704A8FFF7FCFAD3
:10E27000C8B10123013D03700A2D09D8DFE805F07C
:10E2800006080608070807080F110F00002303718E
:10E2900004A91048FCF719F9FFF788FE36E70323B5
:10E2A000F5E70223F3E7082730E70BF1FF321FFA07
:10E2B00082FB1422624308EB02014E60032108F83E
:10E2C0000210A8E7CC31002000250020BC3102005C
:10E2D00018320020A4320020D4310020BC320020AB
:10E2E000B8320020F031002073B50D460446C8B1A5
:10E2F000C1B10DF10601FFF755FBA8B10B4BBDF8FD
:10E3000006006668142202FB003001210C30FCF785
:10E31000BFF963682E600C336B600123A372002089
:10E3200002B070BD0520FBE70A20F9E7F0310020BC
:10E3300013B50446A8B10DF10601FFF733FB90B108
:10E340000B4ABDF80630142101FB0323DA6862B1E1
:10E35000A27A52B1DA680020013ADA60A07202B003
:10E3600010BD0520FBE70A20F9E70620F7E700BF0C
:10E37000F031002002230022FFF726BE18B103234C
:10E380000022FFF721BE052070470000104B1B78CC
:10E3900013B50446ABB14FF6FF73984213D001A8F2
:10E3A000FFF762FA88B10523037001230371C4806B
:10E3B00001A90848FCF789F8FFF7F8FD002002B032
:10E3C00010BD0220FBE70420F9E70820F7E700BFB3
:10E3D000CC310020A43200200E4B1B7807B5A3B12E
:10E3E00001A8FFF741FA90B10623037001A90A487A
:10E3F000FCF76BF8094B1A780AB101221A73FFF780
:10E40000D5FD002003B05DF804FB0220FAE70820E8
:10E41000F8E700BFCC310020A4320020D431002026
:10E4200007B5ADF80600ADF804100DF1060001A91E
:10E43000FFF70AFB03B05DF804FB07B51346ADF820
:10E4400006000A4600200DF10601FFF7FDFA03B0B1
:10E450005DF804FB07B51346ADF806000A460DF15A
:10E4600006000021FFF7F0FA03B05DF804FB20B1CD
:10E4700019B103680B600020704705207047000049
:10E4800007B50B4688B9124B1248134AC01A0E231F
:10E49000C0080093114B0004114940F00100FBF744
:10E4A000D0FA0E2003B05DF804FB4BB9084B0948C5
:10E4B0000C4AC01AC0080E2300930004074BEBE778
:10E4C00003601B68114603B05DF804EB184700BFFA
:10E4D0007C2A0200D42A02004D330200A03202003E
:10E4E00052330200C93302002DE9F34188B93D4B94
:10E4F0003D483E4AC01AC0080E243D4B009400041B
:10E500003C4940F00100FBF79CFA204602B0BDE810
:10E51000F0814AB9334B3448374AC01AC0080E2438
:10E5200000040094324BEBE7D0F800C0BCF1000FC0
:10E5300009D12C4B2C48314AC01AC00808240004C9
:10E5400000942B4BDCE74BB9264B27482C4AC01ACA
:10E55000C008092400040094254BD1E74768D7F888
:10E560000480B3FBF8F708FB17374FB11D4B1E486B
:10E57000244AC01AC0080924000400941C4BBFE7B9
:10E580008F0709D0174B18481F4AC01AC00810241B
:10E5900000040094164BB3E712F0030F09D0114B9F
:10E5A00011481A4AC01AC008102400040094104BE5
:10E5B000A6E7C768B9420BD34C1E05691C44AC42A0
:10E5C00006D8DCF80C40A44602B0BDE8F041604734
:10E5D000044B05480E4AC01AC008102400040094D9
:10E5E000034B8DE77C2A0200D42A02004D3302003F
:10E5F000B232020052330200CF330200C3330200B2
:10E6000082330200D5330200FF33020017340200C8
:10E610003A340200F7B580B92A4B2B482B4AC01A6E
:10E62000C0080E242A4B009400042A4940F001003F
:10E63000FBF707FA204603B0F0BDD0F800C0BCF1EC
:10E64000000F09D11F4B2048234AC01AC0080824D4
:10E65000000400941E4BE8E74AB91A4B1A481F4AB7
:10E66000C01AC008092400040094194BDDE747686C
:10E67000D7F800E00EF1FF370F4209D0114B1248D6
:10E68000174AC01AC008102400040094104BCCE7AD
:10E69000C768B9420CD34C1E05690EFB0244AC425C
:10E6A00006D8DCF81040A44603B0BDE8F04060474F
:10E6B000044B05480B4AC01AC008102400040094FB
:10E6C000034BB2E77C2A0200D42A02004D33020039
:10E6D000C532020052330200C3330200823302000B
:10E6E000D8320200FE320200A0DF7047024B03491D
:10E6F00018780022FEF7BEBDD73200202DE80100B9
:10E7000013B5042204460021684604F0E4F842F6FA
:10E71000A623ADF8003001238DF80230044B1868B1
:10E72000019001AA69462046FFF7DEFF02B010BD46
:10E730006E34020010B50446408800F09FFCA080B3
:10E740002046BDE8104001F06BBB30B587B00546F0
:10E750000C4618220021684604F0BDF807236846DD
:10E760008DF80030ADF802500294FFF7E3FF07B0D8
:10E7700030BD000070B586B00546182200216846FD
:10E7800004F0A9F84FF6FF739D42ADF802503FD058
:10E79000284600F061FB0B28044624D014D8D8B1D9
:10E7A0002046FCF7B5FA1B4E1B4B1C49F61AF6081F
:10E7B000360402462B4646F00100FBF738F92146A5
:10E7C0002846FFF7C2FF05E011281BD043F20203E1
:10E7D0009842E5D1002216E00E238DF800306846FD
:10E7E000FFF7A8FFF6E70F238DF8003009480A4B22
:10E7F0000B49C01AC00800042A4640F00200FBF78B
:10E800000DF9ECE70122074B28461978FEF714FDB5
:10E8100006B070BDFC2A02007C2A02008B36020082
:10E820000B360200D5320020FFF7A4BF2DE9F041DE
:10E830002D4D86B029780446FEF7E6FCA84607462B
:10E84000002849D1204600F06BFB0828054632D04D
:10E8500016D808B306282ED02846FCF759FA234EBE
:10E86000234B2449F61AF60836040246234646F09E
:10E870000100FBF7DCF829462046FFF766FF09E0B8
:10E8800043F20203984205D043F20143984226D056
:10E890001128E1D1012214E039461822684604F01B
:10E8A0001AF8102368468DF80030ADF802400127B1
:10E8B000FFF740FFEEE7204600F0E0FB00F05CFBD6
:10E8C00000220D4B20461978FEF7B6FC3A4698F820
:10E8D00000102046FEF7B0FC06B0BDE8F0812046EF
:10E8E000FFF748FFD6E700BFD8320020FC2A02001D
:10E8F0007C2A0200DC360200D732002013B5044621
:10E9000000F0BCFB00236A46092101F0EFF805285E
:10E9100005D1044B012219782046FEF78DFC02B088
:10E9200010BD00BFD432002008B5084B0849187844
:10E930000022FEF79FFC024630B9064B06491878C4
:10E94000BDE80840FEF796BC08BD00BFD6320020E7
:10E950005DE90100D432002001E7010070B501211A
:10E9600086B006462B48FBF752FE0446BFF35F8F86
:10E97000002849D1304600F013FA1128054638D056
:10E9800016D8002842D02846FCF7C2F9224C234B67
:10E990002349E41AE40824040246334644F0010003
:10E9A000FBF745F829463046FFF7CFFE002405E087
:10E9B000862805D043F202039842E4D1224619E0AA
:10E9C00021461822684603F086FF06238DF80030A2
:10E9D0001148124B1349ADF80260C01AC008000478
:10E9E000324640F00200FBF719F86846FFF7A2FE36
:10E9F000E4E701220C4B30461978FEF71DFC1CB9E8
:10EA0000BFF35F8F034B1C6006B070BD012402464C
:10EA1000F0E700BFD0320020FC2A02007C2A02006E
:10EA2000B13402007C340200D632002038B50378BD
:10EA30000446A3B94088FFF79DFE6588284600F08C
:10EA40005DFA28B1064B012219782846FEF7F4FB3F
:10EA50006088FFF753FFBDE83840FFF765BF38BD5A
:10EA6000D73200200378082B37B5044630D1427ADC
:10EA700072BB057A072D1BD0082D2DD0012D27D173
:10EA80006A462946808800F009FE08BB019B1B7876
:10EA9000F3B1A08800F020FB4FF6FF73984217D027
:10EAA000114B2A461978FEF7C7FBFFF71FFE0FE050
:10EAB000808800F011FB4FF6FF739842044607D0A0
:10EAC0000A4B01221978FEF7B7FB2046FFF716FF25
:10EAD000FFF72AFF03B030BD054B19680129F7D1B4
