:020000021000EC
:1090000000600020759301005D9301005F930100F3
:10901000619301006393010065930100000000006B
:109020000000000000000000000000006793010045
:1090300069930100000000006B9301006D93010033
:10904000C9B301006F93010085B701006F93010060
:109050006F93010000000000E1B5010089B8010034
:1090600095BD0100A5BD0100B5BD01006F930100D4
:109070006F9301006F9301006F9301006F930100E4
:109080006F930100959E01006F9301006F930100A3
:10909000319F01006F930100E10B02006F9301000B
:1090A0006F9301006F9301000000000000000000BA
:1090B0006F9301006F9301000000000000000000AA
:1090C00000000000000000000000000000000000A0
:1090D0000000000000000000000000000000000090
:1090E0000000000000000000000000000000000080
:1090F0000000000000000000000000000000000070
:10910000000000000000000000000000000000005F
:10911000000000000000000000000000000000004F
:10912000000000000000000000000000000000003F
:10913000000000000000000000000000000000002F
:10914000000000000000000000000000000000001F
:10915000000000000000000000000000000000000F
:1091600000000000000000000000000000000000FF
:1091700000000000000000000000000000000000EF
:1091800000000000000000000000000000000000DF
:1091900000000000000000000000000000000000CF
:1091A00000000000000000000000000000000000BF
:1091B00000000000000000000000000000000000AF
:1091C000000000000000000000000000000000009F
:1091D000000000000000000000000000000000008F
:1091E000000000000000000000000000000000007F
:1091F000000000000000000000000000000000006F
:10920000354936480A1A02D0072291438D4634491F
:1092100034480A1A06D00722914381F309880222B2
:1092200082F3148830483149314A00F044F831481B
:109230003149324A00F03FF831483249324A00F0B1
:109240003AF832483249334A00F035F83248334967
:10925000334A00F030F833483349344A00F02BF8F1
:1092600033483449344A00F026F83448344900225F
:1092700000F02CF833483449002200F027F8334836
:109280003349091A082902DB002202604160314A91
:1092900090471F481F49884205D00268043003B434
:1092A000904703BCF7E700208646EC4600200021EB
:1092B000294A9047FEE7884207D0521A05D0037822
:1092C00001300B700131013AF9D17047884202D068
:1092D00002700130FAE7704700600020005800205B
:1092E00000600020006000200460020014250020BF
:1092F000A8250020C0930100C09301004C4A020041
:10930000046002001425002014250020D44B020024
:10931000D44B0200D44B0200D44B0200D44B0200C9
:10932000D44B0200D44B0200D44B02000460020074
:1093300098600200A8250020A8250020A82500206C
:10934000C1370020C4370020C8370020C8370020AC
:10935000C83F00208B930100A92B0200FEE7FEE727
:10936000FEE7FEE7FEE7FEE7FEE7FEE7FEE7FEE7D5
:10937000704700BF0C4880470C484FF007018843F6
:1093800085460B488047FFF73BBF0A480A490B4A0E
:10939000884207D0521A05D0037801300B70013192
:1093A000013AF9D17047000071930100006000207C
:1093B0002DB00100C04B0200002500201425002024
:1093C00000487047BC3700207047000007B5044BC9
:1093D0000093044A402300F032F803B05DF804FB28
:1093E000E9930100A92500202DE9F8438946144698
:1093F000B2B10F4B0F4E0325002743F00108224660
:1094000009EB0701002002F0E1FD0744241A48B9E6
:1094100033782BB14FF47A40C047013D02D135700B
:10942000BDE8F88301233370002CE8D1F8E700BFD2
:10943000D44B0200A8250020704702F0FBBDF0B518
:1094400095B01C46164608460D4601F098FB1A9B3F
:109450000D93CDE9086400242346082205A9284677
:109460000A948DF82C400C9401F0A6FB079B029304
:10947000069B03939DF814308DF8114003F003020E
:10948000012A1DD1BDF81440059EC3F3C203C4F3E5
:1094900083148DF81030A20008230EA9284601F08D
:1094A0008BFBC6F3952608AB0093224602AB0EA9B0
:1094B000304600F087FB284601F065FB15B0F0BD93
:1094C000022AF8D1BDF81640C3F3C203A4098DF8EF
:1094D00010300827082C264628BF08263B4632466F
:1094E0000EA9284601F068FBA41B08AB02AA31466E
:1094F0000EA8374400F0CAFB002CEBD1DBE70000DC
:1095000008B5FFF79AFF0421034800F0C9FA034B9E
:1095100001225A7108BD00BFB04B02001425002083
:10952000037813F0040216D003F00303012B03D0D9
:10953000022B09D0012070470A6800880232C0F36C
:10954000831002440A60F5E70B684288023303EB9C
:1095500092130B60EEE71046704700002DE9F04FC4
:1095600087B000230446851C0DF107000F46904686
:109570008DF8073000F0D0FE454806683E60D0E91F
:109580000132134401339B1B824600F21C4600F556
:10959000836900F21447AB421BD30022B8F1000FDD
:1095A00070D0052363F3070264F38912DAF8001020
:1095B000DAF808309DF807000B4003330D444AF8F1
:1095C0002320CAF8005000F0CBFE012007B0BDE810
:1095D000F08F0121304601F01BF8484601F031F8C8
:1095E000384601F02EF8DAF80400DAF808B00290F4
:1095F00000EA0B0003300AEB800002A9FFF790FF9E
:10960000029B50BB0BEA03020AEB820203F1020C3D
:10961000D2680392013303EA0B0B0AEB8B0B02F0C7
:109620000302012ACDF808C0DBF80C1022D0022A70
:1096300016D08346384601F007F810B1029BCAF8ED
:1096400004305946304600F0E3FFDAE901231344C1
:10965000DAF8002001339B1A9DE70BEA0300C9E703
:10966000BDF80E309B0903334FEA114B0CEB93030B
:109670000293DFE7BDF80C30C3F383134FEA114BBD
:109680006344F5E7062363F3070264F39F528DE713
:10969000F02600200B4B0C48FF2210B59A600022E8
:1096A000C3F81824C3E90022C3F81424012283F864
:1096B000202401F01DFA044610B9044801F0AAFA6A
:1096C000204610BDF0260020D44A0200F84B0200CC
:1096D00030B50A4C71B10A4A0A49121BD20800235C
:1096E0009A4201D1002030BD31F82350854202D08A
:1096F0000133F5E7034654F83300F4E7E84A020083
:10970000B04B020014250020094B013903EBC000C7
:10971000032909D8DFE801F00A0204060420704793
:1097200000797047407970470020704702207047E9
:10973000E84A0200034BD3E90030C31A58425841AB
:10974000704700BFF02600202DE9F04387B0FFF7F7
:10975000F1FF0646002840F0FB807E4DC5F8180456
:10976000BFF34F8F6868AC6802902040033005EB70
:10977000800002A9FFF7D4FE029B18B1D5F8182487
:10978000002A5FD004EA0302991C013305EB820230
:10979000234005EB8303D268DB68049302F00303E4
:1097A000022B0392029162D1BDF80E306A484FEA53
:1097B0009318B8F1640FC14628BF4FF0640969F3EC
:1097C0008F1309F10801ADF80E3001F0A9F9074631
:1097D000002800F0A88001F0D2F903A90023082294
:1097E000384601F0DFF9029924EA01060136B60095
:1097F000B14535D95FFA89F97EB3F6B2A9EB06090E
:10980000214003315FFA89F4B146544E05EB8101E2
:1098100008234A46384601F0C5F936B109F1080374
:1098200022463146384601F0BDF9029B08F1030893
:1098300003EB98030293D5F81834002B4BD1D5F8DD
:1098400010445BE02A689A4204D86A60304607B048
:10985000BDE8F08304EA030088E740493446D7E7CF
:109860002140033108234A4605EB8101DAE7012B49
:1098700059D1BDF80C303848C3F38311062928BFED
:10988000062161F3891302318900ADF80C3001F033
:1098900047F90746002846D001F071F90023082255
:1098A00003A9384601F07EF90026BDF80C20C2F36A
:1098B0008312B300964203F10803BCD202994A1CFA
:1098C00021400331029205EB81010422384601F068
:1098D00069F90136E9E7384601F055F9FFF72AFF43
:1098E00080F00100C6B2B1E7E3685B7923B1236879
:1098F00039461B6820469847E3681C68002CF3D162
:10990000384601F040F90DF107008DF8074000F0EE
:1099100003FDD5F818340BB9029B6B609DF8070066
:1099200000F01EFDDAE7D5F8104454B90C4B0D4891
:109930000D49C01AC008000440F0020000F06EF8A3
:10994000CCE7236820469B689847E3681C68ECE7EF
:1099500000267BE7F0260020D44A0200FC260020E7
:10996000E84A0200204B0200044C02002DE9F74FA8
:10997000284C80460F46924601A9012218469B4674
:10998000D4F80890FFF7EAFD80B3019D0026A91CDA
:109990005E4506EB010233D100211F4800F0F7FDC0
:1099A00080F310006A1C02EA090204EB8202000440
:1099B00005EA0903033340EA1840D06014F8232075
:1099C00068F3C50204F8232034F8232066F38912D3
:1099D00024F8232054F8232067F39F2244F82320FF
:1099E00002F0F80242F0010204F8232094F8203437
:1099F0001BB1FFF7A9FE0028FBD103B0BDE8F08F33
:109A000009EA020204EB82025AF82630D3600136DA
:109A1000BEE700BFF02600200C2B002000231A46D2
:109A2000FFF7A4BF07B50123019201AAFFF79EFF2C
:109A300003B05DF804FB07B5CDE9002302236A46B5
:109A4000FFF794FF03B05DF804FB1FB5CDE90123D8
:109A5000069B039301AA0323FFF788FF05B05DF877
:109A600004FB1FB5CDE90023069B0293079B0393DC
:109A70006A460423FFF77AFF05B05DF804FB7FB563
:109A8000CDE90123089B0393099B04930A9B05934B
:109A900001AA0523FFF76AFF07B05DF804FB000089
:109AA00030B50F49D1F81024002314463CB9C468DE
:109AB000237152B9C1F810042260184630BDE46821
:109AC00025799D4206D02468F0E7D26811682160AC
:109AD0001060F2E701330A2BE7D14FF0FF33ECE7D8
:109AE000F0260020094A38B50123D2F8104482F844
:109AF00020341D4604B938BDE3685D7123682046F3
:109B00005B689847E3681C68F4E700BFF026002014
:109B1000037A052B10B50C460FD0437A23B1084ABF
:109B20000849204600F0F3FD0749204600F0EFFD0C
:109B30002046BDE8104000F0DFBD002AF8D0F3E772
:109B40004F4C0200544C020015580200C38873B5F4
:109B500004460D4633B1144A00921449144A28466B
:109B600000F0D5FD217A05291CD0637A4BB1A0887D
:109B7000FFF7CAFD0F4B104953F82020284600F08C
:109B8000C6FD227A0D4BA08853F822600021FFF712
:109B90009FFD0B4903463246284602B0BDE870409F
:109BA00000F0B5BD02B070BD4F4C02005F4C02002A
:109BB000574C02001C4C0200544C0200844C020022
:109BC000774C02002DE9F04385B01F460C9D002321
:109BD00006460C46904695F80C902B73294638465D
:109BE000FFF7B4FFB8F1060F09D8DFE808F0041258
:109BF000181F283340003146284600F088FD002217
:109C000029463846FFF784FF85F80C9005B0BDE87B
:109C1000F08322683146284600F079FDEFE7D4E969
:109C200000233146284600F072FDE8E7A368009360
:109C30003146D4E90023284600F069FDDFE7E368F8
:109C40000193A36800933146D4E90023284600F02D
:109C50005EFDD4E723690293E3680193A368009350
:109C60003146D4E90023284600F051FDC7E7636977
:109C7000039323690293E3680193A3680093314639
:109C8000D4E90023284600F042FDB8E708292DE971
:109C9000F84F80460E4617461C4636D8002593F8E6
:109CA0000C901D7319461046FFF750FFDFF87CA09B
:109CB000DFF87CB0AE422AD918F805205946204674
:109CC00000F025FD0135082DF4D11649DFF864B008
:109CD000204600F01CFD0025AE421DD918F805A055
:109CE00050460AF02BFC002814BF52462E2259463B
:109CF000204600F00CFD0135082DEDD10122214652
:109D00003846FFF705FF84F80C90BDE8F88F514600
:109D1000204600F0FCFCD5E70349204600F0F7FCA4
:109D2000E9E700BF4A4C0200484C0200464C0200E2
:109D3000404C02004C4C02001FB50021039001AAC8
:109D400044F20100CDE9011100F004F805B05DF81E
:109D500004FB000010B572B6FFF7C4FEFFF7F4FC79
:109D60000028FBD1104B114C1149E41AE4082404DB
:109D700044F00100FFF752FE0E4B1B68DB0700D5D5
:109D800000BE0D4944F00200FFF748FEBFF34F8FBD
:109D90000A490B4BCA6802F4E0621343CB60BFF37D
:109DA0004F8F00BFFDE700BFE84A0200204B0200D2
:109DB000E34C0200F0ED00E0EF4C020000ED00E0AB
:109DC0000400FA05094A537891780133DBB29942CD
:109DD00008BF0023117899421FBF037050781823E1
:109DE00003FB002014BF043000207047AC2B002080
:109DF00073B5054600240DF107000E468DF80740A7
:109E000000F08AFA0DF10600FFF7DCFF90B1067052
:109E1000094B9DF8062045605A709DF8070000F038
:109E20009FFA24B9054B4FF48012C3F80021204655
:109E300002B070BD0424F0E7AC2B002000E100E08C
:109E4000024B4FF43C6043F001031847FC4C020006
:109E500038B50C4B0C4C4FF40032C3F88020012570
:109E60004FF48033C4F84833C4F808336560FFF713
:109E7000E7FF064BA56000241C60FFF7E1FF044BE1
:109E80001C7038BD00E100E000100140C82C00202B
:109E9000B92C0020F8B51F4B1F491B680025C1F8DD
:109EA0004051C1F84451C1F84851C1F84C51C1F872
:109EB0000051C1F804514BB3D1F804451749096862
:109EC000641A24F07F442F461A68A24209D8A41AC3
:109ED00015441A7CDE691AB11F74D3E90520904736
:109EE000AEB90F4A0F4B11781B788B4205D1013365
:109EF000DBB2022B08BF0023137012780A4B43F821
:109F000022500A4B4FF48012C3F80021F8BD3346AB
:109F1000DAE700BFCC2C002000100140C82C002044
:109F2000C52C0020C42C0020BC2C002000E100E047
:109F30002DE9F04FA14AA24913780978A14D994221
:109F400085B03CD00133DBB2022B08BF0023137075
:109F50009D4912789D4B0F6853F822003B1823F05F
:109F60007F4300220B602B6816461446944613B9B3
:109F700042B12B6006E0196881420ED902B12B6014
:109F8000091A196001272B68DFF848A201934FF0E6
:109F90000008BEB9DFF844B266E0401A0C44D96844
:109FA000C3F800C0D3F81CE031B13A1922F07F4267
:109FB000C3E90121DE611E4601227346D7E7002670
:109FC0003746E0E73446F6697F4A63681268DFF88F
:109FD00010C2A068991A21F07F41614500F2A68065
:109FE00001442160012222742A680023C4E901335C
:109FF000E361002A40F0A3802C60CAE75A1C9BF85A
:10A000000210D2B291428BF8002004BF00228BF8DC
:10A010000020182202FB03B31A799C68022A1CD084
:10A02000032A12D0012A1FD1207CE8B9D3E90312F8
:10A03000A2605A69E2609A69654BA2611B78002BA5
:10A040000CBF0B4603466360BEE700222B68114637
:10A05000002B67D142B12B6006E029680A46894689
:10A06000002A5AD1002323749BF800309BF801206A
:10A070009A42C3D12B68B8F1000F04D1019A9A42D9
:10A0800001D1002F43D0002B73D0D3F800A0514D45
:10A090004D4BD5F804751C68DFF848813E1B98F8D5
:10A0A000003026F07F4603369BB94FF48033C5F865
:10A0B0004433C5F80433484B4FF400324FF00109E4
:10A0C000C3F880211A60C5F80090FFF7B9FE88F840
:10A0D0000090B2452CBF5444A41924F07F44C5F825
:10A0E0004045D5F80435DB1B23F07F43E41B0333E5
:10A0F00024F07F44A3420AD9D5F80435C5F8403589
:10A10000FFF79EFE344B4FF40032C3F80021304B72
:10A1100000221A7005B0BDE8F08F94422CD0914611
:10A12000D2699DE719740122DB6991E7D31A23F004
:10A130007F43834234BFC31A0023236052E7216860
:10A140001368994213D8591A1160E26154E7091A49
:10A15000D8691A4638B1034618688842F7D3401ABE
:10A160001860184613462160E061DC6111E7134670
:10A17000F2E7FFF76DFECAE74C4511D1CB692B60C2
:10A1800073B9DFF844E00120CDE90212CAF80800F3
:10A19000CEF800300E4B1870FFF752FEDDE90212C8
:10A1A0001368D269C9F81C2012B110680344136007
:10A1B0002B68994218BF4FF0010853E7C42C0020C8
:10A1C000C52C0020CC2C0020C82C0020BC2C00204A
:10A1D000B82C00200010014000E100E0AC2B002072
:10A1E000FEFF7F00B92C002008B5FFF731FE104BB1
:10A1F00000200B2218809A700E4B18600E4B1870BE
:10A200000E4B18700E4B4FF48012C021C3F8802102
:10A2100083F814131A6002F18042A2F56F22C2F88B
:10A22000080583F81113074BD2F804251A6008BDFE
:10A23000AC2B0020CC2C0020C42C0020C52C0020EE
:10A2400000E100E0C82C0020074B9B784BB132B1F5
:10A2500028B10368187C20B959745A6170470720E7
:10A2600070470820704700BFAC2B00202DE9F74352
:10A270001E4FBB7805460E469046A3B398B30429FB
:10A280002FD943697BB3437C0024012B0DF10700D8
:10A290000CBF8946A1468DF8074000F03DF80DF14E
:10A2A0000600FFF78FFDD0B101230370104B45600E
:10A2B000D3F80435C0E90498C0E902369DF80630A9
:10A2C0007B709DF8070000F04BF824B9094B4FF460
:10A2D0008012C3F80021204603B0BDE8F0830424B7
:10A2E000EFE70724F7E70824F5E700BFAC2B0020D1
:10A2F0000010014000E100E0064A92783AB130B126
:10A30000426922B1002202740221FFF771BD0820C8
:10A31000704700BFAC2B002070B5EFF3108672B60B
:10A320000C4A946801239CB993600B4B0B4DD3F8F6
:10A33000801029401160C3F88050D3F88410516018
:10A340004FF0FF32C3F88420047006B962B670BDC6
:10A350000370FAE7D02C002000E100E0FC06FFBD0E
:10A36000084B9A6810B55AB150B9EFF3108172B624
:10A37000054A1C6814605C685460986001B962B654
:10A3800010BD00BFD02C002000E100E010B561B18D
:10A39000B2FBF3F403FB1424A4B244B9C0E90014E3
:10A3A00084608281C381204610BD0E20FCE7092015
:10A3B000FAE782B050E8022FC188B2EB324F4FF07B
:10A3C000000317BF92B241EA014142EA014104E0B1
:10A3D0004268B2EB324F08BF012340E80212002A64
:10A3E000E8D18DF807309DF80730002B0CBF112005
:10A3F000002002B0704737B550E8013F9DB2C489D4
:10A4000025448489A54228BF2D1B0489A54202BF8B
:10A41000BFF32F8F002207E0C5EA030540E801548F
:10A42000002CE9D14FF001028DF803200193019B2C
:10A430009DF803200B6002F0FF0322B10B88006837
:10A44000184403B030BD1846FBE70A884B889A428F
:10A4500009D150E8012FC2EA024240E80123002B53
:10A46000F7D1012070470020704737B550E8023F10
:10A470001FFAA3F5C488A54202BFBFF32F8F0022A5
:10A480000DE0C48925448489A54228BF2D1BC3EA59
:10A49000054540E80254002CE8D14FF001028DF848
:10A4A00003200193019B9DF803200B6002F0FF0342
:10A4B00022B14B880068184403B030BD1846FBE752
:10A4C0000A884B889A4209D150E8022FC2EA2242F8
:10A4D00040E80223002BF7D101207047002070478D
:10A4E00001F01F024B090121914000EB830000F0B5
:10A4F00063B84B0910B501F01F040121A14000EB26
:10A50000830000F04EF8E04000F0010010BD01F0C3
:10A510001F0301229A404B0900EB8300D14300F056
:10A5200061B84B0901F01F0150F82300C84000F04A
:10A53000010070472DE9F0474E1E760980460F4610
:10A540000136002558F8254008EB8509E44394FAC4
:10A55000A4F4B4FA84F44FEA451A202C06D101354C
:10A56000AE42EFD83C462046BDE8F0875444A742AF
:10A57000F5D921464046FFF7BCFF0028F3D0D9F8B3
:10A580000040E44394FAA4F4B4FA84F4E5E750E814
:10A59000002F0B4640E8003C9CF0000FF7D110461E
:10A5A000704750E8002F42EA010340E8003C9CF06D
:10A5B000000FF6D11046704750E8003F43EA010211
:10A5C00040E8002C9CF0000FF6D11046704750E890
:10A5D000002F02EA010340E8003C9CF0000FF6D196
:10A5E0001046704750E8003F03EA010240E8002CA3
:10A5F0009CF0000FF6D11046704750E8002F02EB98
:10A60000010340E8003C9CF0000FF6D11046704773
:10A6100050E8003F03EB010240E8002C9CF0000FE3
:10A62000F6D11046704750E8003FA3EB010240E826
:10A63000002C9CF0000FF6D1104670470121FFF767
:10A64000B0BF0121FFF7B8BF0021FFF7C0BF10B5B1
:10A6500090B1D0E9012301689B1ADBB20A60013B8B
:10A66000DBB2FF2B026802D10020107110BD11680F
:10A670004C1C14600B70F2E70E20F7E737B5054667
:10A6800000240DF107008DF80740FFF745FE2A680A
:10A690006B68116899420ED9481E106011F8014C80
:10A6A000EB68298A01FB0434AB6811791B1ADBB211
:10A6B000994238BF13719DF80700FFF751FE2046FD
:10A6C00003B030BD37B5054600230DF107000C4639
:10A6D0008DF80730FFF720FE2A681368591C1160B7
:10A6E000E968641A298AB4FBF1F41C709DF807002C
:10A6F000FFF736FE03B030BD826810B504462AB1BC
:10A7000043690168006998470023A36010BD0EB437
:10A7100003B5039921B104AB01AA019300F06CF8D1
:10A7200002B05DF804EB03B07047826830B404688F
:10A73000551C8560A154D0E901329A4202D330BC45
:10A74000FFF7DABF30BC70472DE9F84F9946DDE9D5
:10A750000A431746824688460A460126BA420FD265
:10A760004E4538BF4E4613F0010B01D164B90024A9
:10A770000125B9F1010F1AD909F1FF397D43F8E735
:10A78000B2FBF7F20136E9E79B070ED5B9F1000FEE
:10A790000CBF30252025A642EAD2013C294650466E
:10A7A000FFF7C3FF002CF6D1E1E72025F3E7B8FB64
:10A7B000F5F39F42E2D9DFF83C90B8FBF5F3504641
:10A7C00019F8031005FB1388FFF7AFFFB5FBF7F38C
:10A7D000BD4207D2BBF1000F02D00CB1A64203D399
:10A7E000BDE8F88F1D46E8E720215046013CFFF701
:10A7F0009CFFF2E7024D02002DE9F74F0546174690
:10A800008846002900F0308118F8011B49B92B7BDC
:10A81000002B00F02981284603B0BDE8F04FFFF778
:10A820006BBF252940F0C080002698F800302D2B02
:10A83000424608F1010823D0302B24D02B2B25D001
:10A8400000242A2B02F1010123D13B681A1D1B6849
:10A850003A601C440A4613782E2B26D101324FF061
:10A860000009104610F8011BA1F1300CBCF1090FD2
:10A870001DD80A2303FB0913A3F130090246F0E7B0
:10A8800046F00106D1E746F00206CEE746F00406A0
:10A89000CBE711F8013CA3F130000928DBD80A22EC
:10A8A00002FB0434303C0A46CBE74FF0000912F8B3
:10A8B000011B01F0FB0068289046F8D069290ED0F2
:10A8C0004AD8582964D006D825296DD098F8003088
:10A8D000002B99D19BE7632962D06429F6D13A68AD
:10A8E000D2F800A0111D8AEAEA723960A2EBEA727E
:10A8F0004FF0010B092A5BDCCB4538BFCB462CB1AE
:10A90000BAF1000F01DB720700D5013CB30702D595
:10A91000B9F1000F04D0F00702D4002C4ED100246E
:10A92000BAF1000F52DACAF1000A2D212846FFF7CA
:10A93000FCFE06F00302022A05D1B9F1000F02D194
:10A94000002C47D10024CDE900464B460A2251464F
:10A950002846FFF7F9FEB9E773294CD014D87029BF
:10A96000B4D13B681A1D3A60302128461C68FFF7B5
:10A97000DCFE78212846FFF7D8FE00220823CDE927
:10A98000003221461022E3E775292BD078299DD18A
:10A9900039680A1D3A60CDE900464B46102228E08E
:10A9A0003B681A1D19783A602846FFF7BEFE8DE70E
:10A9B0000A230BF1010BB2FBF3F29BE7A345AFD2E5
:10A9C00020212846013CFFF7B0FEA6E77107B0D56D
:10A9D0002B21ABE7A345B6D230212846013CFFF737
:10A9E000A4FEADE73968CDE900460A1D3A604B4642
:10A9F0000A220968ACE73B681A1D3A6016F00106A6
:10AA0000D3F800A020D1BAF1000F03D0504609F0CE
:10AA1000EDFF0646B44200D9C4B90AF1FF3A1EE080
:10AA200028460136FFF781FE1AF806100029F7D1F3
:10AA3000A642BFF44BAF002C3FF448AF202128467C
:10AA4000013CFFF772FEF3E70026EDE720212846E0
:10AA5000013CFFF76AFEDDE72846FFF766FE1AF8BD
:10AA6000011F0029F8D131E703B0BDE8F08F2DE9CF
:10AA7000F047B0F806904479D2F800A09DF8208005
:10AA800009FB04F4043C06460AEB0300A0420F460F
:10AA900088BFA4EB030A191DC2F800A0B1FBF9F5A9
:10AAA00009FB15114DB9A9EB0104544528BF5446C3
:10AAB000BAF1000F04D1BDE8F0873668013DF1E737
:10AAC00004317B1970182246B8F1000F0ED00146F0
:10AAD0001846AAEB040A09F00BFFD1452544366855
:10AAE0004C464FF0000128BF5446E1E71946F0E715
:10AAF000FFF7ADBDF8B546790146721E0546002345
:10AB000093422D6803D30024A64202D8F8BD013336
:10AB1000F6E70F682846FFF7D5FD01343946F3E71D
:10AB20002DE9F843068ACD1C0746FFF7A7FD043E32
:10AB300035440446B5FBF6F5F0B14FF48073EDB241
:10AB40008380C680013D076081464FF00008A8451C
:10AB500012D23846FFF792FD064648B163790133B9
:10AB6000637108F10108C9F8000007608146EEE74B
:10AB70002046FFF7BFFF34462046BDE8F883012199
:10AB80000430FFF745BD10B5012104460430FFF73E
:10AB90004AFD10F0FF0F04D12046BDE81040FFF73A
:10ABA000A9BF10BD1FB503920022009203AAFFF7B0
:10ABB0005EFF05B05DF804FB1FB503920122009211
:10ABC00003AAFFF754FF05B05DF804FB41DF7047AF
:10ABD000064B10B500241C70054B1C60BFF35F8F43
:10ABE0000449054800F01FF8204610BDE42C002061
:10ABF000E82C0020144D0200DC2C002008B505F0E4
:10AC0000D5FF18B1BDE80840FFF7E0BF20BF40BF47
:10AC100020BF08BD836800225A609A60C3E90422FD
:10AC2000DA601A6070470B684A684360934208BF55
:10AC30000023016008BF43607047436843B1026866
:10AC4000916852680B449342436004BF0023436001
:10AC50007047000010B50D49A1F59472914201D8DA
:10AC600000200FE08B1ADB1003EBD3735B1002EBB9
:10AC7000C30452F83330834205D802D204F10802EB
:10AC8000ECE7606810BD2146E8E700BF644E0200B3
:10AC900008B5FFF7DFFF024B002808BF184608BDC4
:10ACA000294D020029DF704728DF704770B503681F
:10ACB0009D6886B004460E466DB114220021684698
:10ACC00009F03FFEA3680593237901962BB1012B70
:10ACD0000DD06846A84706B070BD01238DF800303E
:10ACE00023690293E368039363690493F1E7022302
:10ACF0008DF80030E3681B030293F5E708467047C0
:10AD000000207047024B187A003018BF01207047AE
:10AD1000882D0020034B187A0122B0FA80F05A7473
:10AD200040097047882D002008B510461A4609F0E2
:10AD3000DFFD002008BD000008B5142200210448F2
:10AD400009F0FFFD0348FFF734FB002008BD00BFFA
:10AD5000882D0020782D002010B5094C094B436048
:10AD60002046FFF76BFC40B905F020FF1C23207440
:10AD70008C2205490548FFF709FB002010BD00BFE4
:10AD8000882D002020520200EC2C0020782D00207D
:10AD900070B5244C244E237A25463BB923492448D8
:10ADA000FFF763FB306008B9606070BD3468022350
:10ADB0002B72237973B1012B24D020460321FFF796
:10ADC00075FF00232B726B6018491948BDE870406D
:10ADD000FFF776BBD4E90523D21AB2F5805F28BF0E
:10ADE0004FF48052D4E903109208012A38BF01229F
:10ADF00019441844FFF756FF50B11128DDD1012343
:10AE00002B72D2E7D4E903031844FFF74DFFF3E7B1
:10AE10002B7C002BC9D10146BDE87040022000F018
:10AE200009B800BF882D0020A02D00209C2D0020F7
:10AE3000782D002038B5831E012B45D8234C237A6A
:10AE4000002B41D0022B09D1032830D0204B1B68A6
:10AE50000022E2601A793AB1012A22D0637C7BBBDE
:10AE6000BDE83840FFF794BFD3E905128D1AB5F558
:10AE7000805F94BF521902F580529A619142EDD1E0
:10AE800002284FF0000308BF19462372104B18BF69
:10AE90000D211868FFF70AFF0E490F48FFF710FB56
:10AEA000DCE71A6901321A615B699A42E7E7E368F5
:10AEB0000133082B01D8E360D0E70023E360DFE72C
:10AEC000BDE8384005F062BE38BD00BF882D0020C7
:10AED000A02D00209C2D0020782D002000F0FD03E7
:10AEE000012B08D1044B00225A74421E504250419B
:10AEF0001874FFF74DBF7047882D002010B5064C21
:10AF0000201DFFF79BFB28B9637C1BB9BDE81040EF
:10AF1000FFF73EBF10BD00BF882D00202DE9F34193
:10AF200080460D460F4801A916461F46FFF763FAF3
:10AF30000446A8B11C22002109F003FD2D0B0123BA
:10AF4000237101A9C4F80080A760E5606661054827
:10AF5000FFF77BFAFFF7D2FF002002B0BDE8F081D7
:10AF60000420FAE7782D00202DE9F7438146884632
:10AF7000104801A917461E46FFF73DFA0446B0B136
:10AF80001C22002109F0DDFC00250A9BA36001A919
:10AF90002571C4F80090C4E9037866610548FFF79D
:10AFA00054FAFFF7ABFF284603B0BDE8F083042056
:10AFB000FAE700BF782D00200C4B1B78062B10D130
:10AFC0000B4B1B681A070CD10A4B186800F0F003F2
:10AFD000302B08D000F0E000A0F140035842584167
:10AFE0007047002070470120704700BFE00F00F05D
:10AFF000E40F00F0E80F00F0094B1B78062B0CD192
:10B00000084B1B681A0708D1074B186800F0F000BE
:10B01000A0F130035842584170470020704700BFEC
:10B02000E00F00F0E40F00F0E80F00F008B5FFF7C4
:10B03000C3FF28B16F4B704A1B68C3F3042313602E
:10B04000FFF7DAFF10B16D4B6D4A1A606D4B6E4A17
:10B050001B68C3F342331360FFF7CEFF20B16B4A86
:10B06000D36823F08073D3604FF080430022C3F88D
:10B070000C21C3F81021C3F83825FFF7BDFF10B12C
:10B08000634B03221A60FFF7B7FF40B1614B052203
:10B090001A6001229A6700229A603F225A604FF09C
:10B0A00080525D4BD2F80414C3F82015D2F808146E
:10B0B000C3F82415D2F80C14C3F82815D2F81014CC
:10B0C000C3F82C15D2F81414C3F83015D2F818149C
:10B0D000C3F83415D2F81C14C3F84015D2F8201464
:10B0E000C3F84415D2F82414C3F84815D2F828142C
:10B0F000C3F84C15D2F82C14C3F85015D2F83014FC
:10B10000C3F85415D2F83414C3F86015D2F83814C3
:10B11000C3F86415D2F83C14C3F86815D2F840148B
:10B12000C3F86C15D2F84424C3F8702503F54053D6
:10B13000FB22C3F81825FFF73FFF28B1374B384AE9
:10B140001B6803F04F0313604FF08043D3F80024D3
:10B15000D20744BF6FF00102C3F80024314B1B68D3
:10B16000062B08D1304B1B68062B01BF2F4A1368F2
:10B1700043F4806313604FF01023D3F80022002AB9
:10B1800003DBD3F80432002B2FDA294B0122C3F85A
:10B190000425D3F80024002AFBD04FF010221521FB
:10B1A000C2F80012D3F80024002AFBD04FF010237D
:10B1B0001522C3F804221E4B1A46D3F800140029A6
:10B1C000FBD00021C3F80415D2F80034002BFBD0CB
:10B1D000BFF34F8F1749184BCA6802F4E06213435C
:10B1E000CB60BFF34F8F00BFFDE7144B144A1A60CA
:10B1F00008BD00BF240300104035014074C0074063
:10B200000DF0ADBA440200103C050040F0ED00E046
:10B21000A00500401056004000C000405802001039
:10B22000E40E004030010010340100103C170040D3
:10B2300000E0014000ED00E00400FA051C250020BC
:10B240000090D00338B5074C051E04F1080318BF61
:10B250001C4623682BB11A6822605B682846984711
:10B26000F7E738BDAC2D002020B9054B01225A70FC
:10B27000FFF7E8BF012802D1014A9070F8E7704754
:10B28000A42D002020B9034B01225A70FFF7DABF2A
:10B29000704700BFA42D002038B50B4C237883B92C
:10B2A0000A486360A3602361E36000F061F805462B
:10B2B00005F07CFC08B900F067F8012323702846EC
:10B2C00038BD8525FBE700BFA42D002069B2010031
:10B2D00037B50B4C00230DF107008DF80730FFF751
:10B2E0001BF8E368013BE360E56815B900F060F81E
:10B2F000A5709DF80700FFF733F803B030BD00BF1D
:10B30000A42D0020012813B509D018B103281CD0A2
:10B3100002B010BD0F4B0122C3F88020F8E70E4C9D
:10B3200000230DF107008DF80730FEF7F5FF2378B5
:10B330000BB9FFF7B1FFE3689DF807000133E36045
:10B340000123A370FFF70CF8E2E700F01DF8FFF708
:10B35000BFFFDDE700E100E0A42D002000F1804008
:10B36000002382B0036003680193019B02B0704721
:10B37000044A137923B9012110609180184670475F
:10B3800085207047B82D0020084B1A68D20706D4D4
:10B39000C02283F800230122C3F880211A604FF0F5
:10B3A00080430122C3F81825704700BF00E100E088
:10B3B000044B01221A604FF08042D2F81834DB03AC
:10B3C000FBD470470C000040124B1B6810B573B1E2
:10B3D0004FF48070FFF7C2FF4FF080430122C3F8A3
:10B3E00008230D4B587910B95A711B6898470B4BBD
:10B3F0001B6873B14FF48270FFF7B0FF4FF08043CA
:10B400000222C3F80823044B01201B68BDE810404A
:10B41000184710BD00010040B82D00200401004075
:10B4200000F1804000F5C040002382B00360036853
:10B430000193019B02B07047800000F1A040D0F85A
:10B44000003723F44033C0F80037D0F8003743EA20
:10B450000141C0F800177047054B4FF0FF32072835
:10B4600043F8202084BF1B1883F83C20704700BF9E
:10B47000C02D002010B5184C94F8493053BB04F18E
:10B4800024032021FF22013911F0FF0103F8012BD1
:10B49000F9D1C8B2FFF7E0FF01310929F9D104223F
:10B4A00000210E4809F04DFA0D4BC02283F8062307
:10B4B0004022C3F880214FF4BE701A60FFF7B0FF3E
:10B4C000084B4FF00042C3F80423012384F84930AD
:10B4D000002010BD0820FCE7C02D0020052E002014
:10B4E00000E100E000600040034B93F849000030A9
:10B4F00018BF0120704700BFC02D002030B52E4B73
:10B500001A1892F92440013453D18C78002C4CD075
:10B510001C46002254F8045B013541D11C1884F804
:10B520002420002443F82240920002F1804202F5D8
:10B53000C0420B78D2F810554C7825F498151B04AE
:10B54000240525F4F85504F4801403F44033C2F8BC
:10B55000105523430402D2F8105504F4F854234341
:10B560002B43C2F810354A780123012A4FF0A0423C
:10B5700003FA00F30CBFC2F80835C2F80C3500F529
:10B58000E073032142F82310C2080C49012300F0A4
:10B59000070003FA00F08B5C18438854002003E096
:10B5A0000132082AB6D1042030BDFE2382F82430AF
:10B5B000D9E70820F8E700BFC02D0020052E0020A5
:10B5C000012303FA00F04FF0A043C3F808057047C9
:10B5D000012303FA00F04FF0A043C3F80C057047B5
:10B5E0002DE9F04385B00024564D01944FF480724C
:10B5F000012102F1804303F5C04390B21B68012B87
:10B6000006D1D5F804330B4202D0FFF709FF0C43F3
:10B610000432B2F5907F4FEA4101EAD14A4B1B68F0
:10B62000012B0AD14FF4BE70FFF7FAFE4FF0A04392
:10B6300044F00044D3F81035019314F0FF0F1AD0F2
:10B64000424F00250126344210D0AB0003F1804365
:10B6500003F5C043D3F81005D3F8101557F825307B
:10B6600023B1C1F30141C0F3042098470135082DEF
:10B670004FEA4606E7D1002C61DA00224FF0FF3393
:10B68000CDE90223DFF8C480012702AE98F94430E7
:10B69000DAB2013322F0C00451D004A94FEAD40C2D
:10B6A00001EB0C0002F0070310F8041C07FA03F387
:10B6B000194244D008EB0401920991F9241058F87A
:10B6C00021503DB9032A3AD116F80C10194306F857
:10B6D0000C1001E0032AF7D004F5E0714FF0A04C04
:10B6E00010F80C0C5CF821101842C1F3014105D090
:10B6F000022924D1032A20D1114604E003291ED1B6
:10B70000032A1AD102212046FFF796FE3DB14FF0E1
:10B71000010911462046A847B9F1000F0FD04FF09C
:10B72000A043019AD3F81035934208D00193029BAD
:10B730000393ABE74FF00009EBE7002DFAD105B01A
:10B74000BDE8F083006000407C610040C02D002017
:10B750000023435082B043580193019B02B07047CD
:10B760001FB501238DF80030054B8DF808000191BD
:10B770006846D3E90012904705B05DF804FB00BFAE
:10B780000C2E00207FB5384AD2F82461002E49D013
:10B7900010464FF49271FFF7DBFF02238DF8003063
:10B7A000D2F88034C2F880340393D2F83C358DF857
:10B7B00008302E4BDA6801920022C3E9062268465F
:10B7C000D3E900129047284AD2F8443173B14FF4BC
:10B7D000A2711046FFF7BCFF244B996931B10021DB
:10B7E0009961D2F83C05D968FFF7BAFF1E4AD2F832
:10B7F0002031ABB14FF490711046FFF7A9FF1B4BFE
:10B80000596969B1D2F84C158DF808100022996871
:10B810008DF8002001915A616846D3E900129047E3
:10B8200004B070BDD2F81031002BCCD04FF4887129
:10B830001046FFF78DFF0D4BD2F83C059969884201
:10B84000C1D1DC69D96864B1D2F8005225F0200575
:10B85000C2F800521A699C61DA60DE61FFF780FF6E
:10B86000B1E79C61FAE700BF002000400C2E0020E9
:10B8700000F1804000F5E040002382B003600368DF
:10B880000193019B02B07047F0B5534B534C1B68BA
:10B8900085B0002B3DD04FF4827094F82E20FFF736
:10B8A000E7FF2AB394F82F3013BB4D4B1B68002BD6
:10B8B00033D04FF48070FFF7DBFF94F82D20638BBB
:10B8C00091B28B424ED95B1A21899BB26383CB1A0A
:10B8D000616801EB4301434BC3F82C16C3F83026D3
:10B8E0004FF48270FFF7C4FF3F4B01221A6014E04F
:10B8F000636802932389ADF80C30E36800218DF86A
:10B90000041023BB2374236801A89847002384F8FC
:10B910002F3094F82E30002BC7D1344B1B685BB10D
:10B920004FF48870FFF7A4FF0023237402238DF8DF
:10B93000043001A8236898472D4B1B6813B34FF4BC
:10B940008A70FFF795FF0023237405B0F0BD208BAC
:10B95000608363602081E160002AD4D1214B012201
:10B960001A60D0E7BCD1E368012184F82F103BB105
:10B97000002161831B49C1F82C36C1F83026AFE79E
:10B980006383ADE766694FF000470125002EDCD0E8
:10B99000B6FA86F227FA02F34632920026EA030646
:10B9A00002F1804303F5E0431B68002BEED0104604
:10B9B000FFF75EFFA2F58C72D30882F00402C2F397
:10B9C00080028DF808308DF804508DF80920236826
:10B9D00001A89847DAE700BF04710040302E00202C
:10B9E0000071004000700040047000401071004081
:10B9F0001471004038B51D4B044693F82C0098BBD9
:10BA00001B4A19602178C2F8F0156178C2F8F41564
:10BA1000E5781874012183F82C1083F82D00586103
:10BA200083F82F0083F82E506FF00043C2F80833DC
:10BA30004FF48270FFF71CFF4FF48070FFF718FF80
:10BA4000A3780C485B01DBB280F807338023C0F891
:10BA5000803103600223C2F804330DB1C2F804132D
:10BA6000C2F80015002038BD0820FCE7302E002069
:10BA70000070004000E100E02A4B1A7C70B502F033
:10BA8000FF05002A4BD10A79012A9CBF264CC4F835
:10BA9000005500F10C0503EB4504247924B993F813
:10BAA0002D40013483F82D4003EB4503CC790D7A0A
:10BAB0008E781C715D714B7836021B0106F4E066CE
:10BAC00003F0300333430E7806F003063343CE7899
:10BAD000360306F480563343160406F4E026334357
:10BAE0004E798979360506F480160906334301F04C
:10BAF00080710B430C4901EB0016000100F18040FE
:10BB000000F5E040012AC6F81835C0F81455C0F811
:10BB1000104502D80123C1F80035002000E01120B3
:10BB200070BD00BF302E002000700040344A70B558
:10BB3000147C04F0FF03002C5FD1324C0125032656
:10BB40001574C4F80863C4F82C16C4F8305692F87B
:10BB50002D10A9420CD91C46190101F1804101F5B3
:10BB6000E0410133082BC1F81445C1F81045F3D169
:10BB700000F10C03000102EB430300F1804000F5EB
:10BB8000E04019795B79C0F81435C0F810151D49EB
:10BB900001230B604B6042F2107301F5827108685B
:10BBA00008B9013BFBD14FF48070FFF761FE4FF401
:10BBB0008270FFF75DFE92F82D30012B11D91048ED
:10BBC00000210B0103F1804303F5E0430131047FC1
:10BBD000457FC3F814550829C3F8104500F1020049
:10BBE000EFD192F82E10074B29B103210020C3F8A2
:10BBF0000413107470BD0221F8E71120FAE700BFAA
:10BC0000302E002000700040024B187C003018BF1E
:10BC100001207047302E0020F0B51B4F8BB207EB90
:10BC2000001443EA0243C4F81C35184B40005C6919
:10BC300000F1010C4FF0004611F5006F26FA0CF6EA
:10BC40004FF0800505FA00F50BBFB44334435C6147
:10BC50005C610CBFC7F80853C7F8045340244FF089
:10BC600000455969844025FA00F040F2FF75AA4268
:10BC7000054A0BBF81430143596159610CBFC2F8AA
:10BC80000843C2F80443F0BD00700040302E00208D
:10BC9000124B1A7C10B5F2B900F10C0103EB410212
:10BCA000127922B193F82D20013A83F82D2003EB6D
:10BCB000410300249C80030103F1804303F5E0432A
:10BCC00040F2FF72C3F814450549C3F81045FFF769
:10BCD000A3FF204610BD1120FCE700BF302E00203E
:10BCE00000F8FFFF38B5134B6FF00042C3F808238C
:10BCF000114A8021C2F88010104A012111601049B8
:10BD000042F21072086808B9013AFBD10D4D0024C7
:10BD1000C3F800452C7405EB44031B7F13B1E0B25C
:10BD2000FFF7B6FF0134082CF5D1002385F82C303D
:10BD300038BD00BF0070004000E100E00870004026
:10BD400014710040302E00202DE9F74300240646F0
:10BD50000F4600F5A0754FF48038A146A0002B686F
:10BD600000F5A07080B26BB1D6F8043308FA04F283
:10BD70001A4207D0C5F800902B680193019BD7E9C0
:10BD8000003198470134042C05F10405E6D103B0D5
:10BD9000BDE8F08301490248FFF7D6BF602E0020BE
:10BDA0000080004001490248FFF7CEBF6C2E002002
:10BDB0000090004001490248FFF7C6BF782E0020DE
:10BDC00000A00040032813D8012A0BD1012908D173
:10BDD00000F10E02D2B200EB40000C4B1A540020CE
:10BDE000704700220129F6D04BB24BB1022901D095
:10BDF00007207047054B00EB400018444270EEE707
:10BE0000024900EB400008448270E8E7842E0020DD
:10BE100008B5012202210020FFF7D4FF08B107284E
:10BE200010D1072202210120FFF7CCFF08B107281B
:10BE300008D100210A220846FFF7C4FF10B10728E5
:10BE400008BF002008BD00000388102B10B502D0E9
:10BE5000112B1ED010BD1A4C2168B1B90122084621
:10BE6000FFF7B0FF08B1072824D1072202210120E3
:10BE7000FFF7A8FF08B107281CD1042202210020E7
:10BE8000FFF7A0FF08B1072814D12368013323600E
:10BE9000E0E70B4A1368013B1360002BDAD1FFF790
:10BEA000B7FF0028D6D0074B1B68002BD2D0BDE8C7
:10BEB00010401847034B1B68002BE6D09847E4E777
:10BEC000942E0020902E00200369C1688B429DBFF4
:10BED0008268D21802F1FF3203F1FF3394BF501A87
:10BEE000581A70472DE9F041D0E9027405463E1B0F
:10BEF0004068964220448846144404D908F0F8FC6F
:10BF0000EC60BDE8F0813246E41B08F0F1FC22460B
:10BF100008EB06016868F1E72DE9F843C5680646B5
:10BF2000894617464FF000083469B3687068A54227
:10BF300028BFE418013C621B5C1BBC4228BF3C4686
:10BF4000944228BF144649462844224608F0D0FCB3
:10BF5000B3682544AB4208BF00253F1BA044A14461
:10BF6000F560E1D14046BDE8F883000010B5114C02
:10BF7000114AA2610223C4E90433104BE361A264B5
:10BF80004FF400730E4A2362E264002310220D492D
:10BF9000A362E01D6362E362A3656365E3652265F6
:10BFA00008F002FD0849204608F0FEFC2023A3719A
:10BFB00010BD00BF982E002079520200202F0020D3
:10BFC000102F00208252020086520200F8B5184C51
:10BFD000182300FB033503FB00402544C46A012CF1
:10BFE0000F46164611D024B1022C1BD00024204647
:10BFF000F8BD2846FFF768FFB042F8D3324639460D
:10C000002846FFF76FFF3446F1E72846FFF75CFF4D
:10C010008642344628BF0446224639462846FFF762
:10C0200061FFE4E72846BDE8F840FFF775BF00BFB1
:10C03000982E0020FFF79ABF6DDF704779DF7047B9
:10C040007DDF704764DF70472DE9F04F85B0002534
:10C050000E9CBDF83CB027880191804691469A46D7
:10C060002E46B8F80020B2420CDC3DB12288013ADD
:10C07000D21B92B2FF2A3BD80AF80720002005B055
:10C08000BDE8F08FD8F8042052F826000390002273
:10C090000DF10B0103A8FFF7D5FF0028EFD19DF8A4
:10C0A0000B204A4522D12288002D14BF00200220F7
:10C0B00002EB0901014459451ADC45B9013292B23B
:10C0C000019B22800AF802302288013222802288D5
:10C0D0000DF10B01524403A8FFF7B4FF0028CED1A5
:10C0E00021889DF80B200A44228001250136B8E7FB
:10C0F0000C20C4E72DE9F341089CBDF824501746F5
:10C10000CDE90045022206469846FFF79DFF50B94B
:10C110004346102239463046CDE9084502B0BDE815
:10C12000F041FFF791BF02B0BDE8F0812DE9F04F7B
:10C1300000231688138090F82D3085B007460D46F1
:10C14000144653B3082E01D80C2027E102A8FFF7AC
:10C1500073FF002840F0228123880822EA542388B4
:10C1600001339BB21B222380EA542088013080B225
:10C17000208006220DF10901284408F0B9FB23882C
:10C180009DF8082006339BB212F0FE0218BF012270
:10C190002380EA54238801332380BB78FBB12388B2
:10C1A0000433B342D0D802A8FFF748FF002840F07C
:10C1B000F58023880322EA54238801339BB2192295
:10C1C0002380EA542388BDF8082001339BB2E91884
:10C1D0002380EA54120A4A70238802332380FA78B3
:10C1E0009AB12388D91CB142AED80221E9542388E0
:10C1F00001339BB201212380E95423880B449BB275
:10C200002380EA5423880B4423807A68AAB12388C8
:10C21000D91CB14298D8022192F90020E954238810
:10C2200001339BB20A212380E954238801339BB256
:10C230002380EA542388013323803B89002B40F07C
:10C24000A1803B8A5BB1CDE900462B460722032142
:10C2500007F11000FFF74EFF002840F09F803B8B56
:10C260005BB1CDE900462B461522142107F11800D9
:10C27000FFF740FF002840F091803A6A002A40F022
:10C280009080D7F82480B8F1000F30D0B8F804308F
:10C290002188981C8A1C0244B2423FF655AFFE2802
:10C2A0003FF652AF03336B54238801339BB2FF2216
:10C2B0002380EA54238801339BB22380B8F80020FE
:10C2C000EA54E918120A4A702088023080B22080AD
:10C2D000B8F804205AB1D8F8081000296BD02844C7
:10C2E00008F006FB2388B8F804201344238097F84D
:10C2F0002C30002B40F09A80387800284ED03B88B4
:10C30000012B58D0228802F1020CB4453FF61CAF35
:10C31000012805D17B78023313449E42FFF414AF09
:10C32000023EB61AB6B202A905EB0C00ADF80860E1
:10C33000FFF786FE90BB3978BDF80820022900F08F
:10C34000BA807B78934202D3B24240F2B280012994
:10C3500040F0B3809BB29E42C0F0AF80ADF8083091
:10C360000821BDF80830FE2B3FF6EEAE22880133DF
:10C37000AB542288013292B22280A95422881344FD
:10C3800023800BE0CDE900462B460622022107F16F
:10C390000800FFF7AFFE00283FF453AF05B0BDE83B
:10C3A000F08FB4F800C00CF10603B3423FF6CCAEF8
:10C3B0001188052901D80720F0E76FF4486E01EBDA
:10C3C0000E039BB24FF27D3E7345F4D95388052B83
:10C3D000F1D96FF44860181880B27045EBD94FF668
:10C3E000FF70814203D0834201D09942E3D80523F4
:10C3F00005F80C30238801339BB212212380E954C5
:10C40000238801339BB223801188E954E818090A74
:10C410004170238802339BB223805288EA54E91882
:10C42000120A4A702388023323802AE7BB6A002B52
:10C43000C1D04FF000094FF00C0A4FF0160B97F8DF
:10C440002C305FFA89F293427FF656AFB96A0AFB45
:10C4500002F201EB0208B8F80430981CFE283FF6FF
:10C4600073AE208803332B54238801339BB223807F
:10C4700005F803B0238801339BB223808A5AEA541B
:10C48000E918120A4A702088023080B22080B8F879
:10C4900004205AB1D8F8081000298CD0284408F09C
:10C4A00027FA2388B8F804201344238009F10109EE
:10C4B000C5E7092155E7B242FBD9ADF808604FE75F
:10C4C00070B5C0B14AB116880024B44203D305192F
:10C4D0006D789D4208D0A14201D800200BE0055D97
:10C4E00001352C44A4B2F0E7A142F6D9A31C138075
:10C4F000005D013880B270BD13B50023ADF8063081
:10C5000013460DF106020446FFF7DAFF10B1BDF83D
:10C510000600204402B010BD72DF704773DF704721
:10C5200038B5012204460D46B0F89810D0F89400B2
:10C53000FFF7E2FF00B1057004F13C0204F1940141
:10C5400004F15400BDE83840FFF7E6BF80F8301032
:10C550007047F8B504460F46002968D0002866D019
:10C5600091F87A301BB191F89830002B61D1D7F84F
:10C57000A030042B5DD0D7F89C30042B59D007F1A4
:10C5800078060FCE4FF0000C251D84F802C00FC5B1
:10C590000FCE0FC596E8070085E8070084F830C085
:10C5A000D7F8A4306363D7F8A830A3634FF6FF75BC
:10C5B00004F19403C4F8A430A4F8A85007226146FB
:10C5C00004F1AA0008F0BDF923780BB984F854509F
:10C5D000224604F155011F25C4F89410384622F86C
:10C5E000985FFFF7A3FD08BB224604F17401C4F86D
:10C5F0009C1007F13C0022F8A05FFFF797FDA8B957
:10C60000A369A4F848304FF480730125A4F8503092
:10C6100063692064014684F83C50636404F13C0281
:10C6200004F15400FFF778FF00B92570F8BD0E2023
:10C63000FCE70720FAE7F8B5077804460D46002F17
:10C6400000F0F98000F1AA06A1700722002130460F
:10C6500008F077F9E38813B1A378012B04D0E379CC
:10C660004BB1A378022B06D1636BA3B1012284F8EE
:10C67000B12008209847334604F1B00113F8012F88
:10C6800012B98B42FAD117466B1E032B52D8DFE842
:10C6900003F0050B0F1284F8B130ECE7A3791BB15E
:10C6A00094F8243003B95FB9E3790BB1002F43D17B
:10C6B000237A002B42D1637A002B0CBF002504257E
:10C6C000636BA570002B3BD0033D012D38D86279F8
:10C6D000002A35D094F8B22092BB84F8B42001220D
:10C6E00084F8B3200720984704F13C051822002164
:10C6F000284608F026F9E36A591E0122022928BFBC
:10C70000134684F8513094F8243084F83C2033B137
:10C71000914296BFA36A84F8522084F85230A278DE
:10C72000002384F85030042A1BD8DFE802F06C0D97
:10C73000223252000025C3E70225C1E70325BFE7E7
:10C74000002384F8B330CFE7C4F8A430C4E9106301
:10C750000223012284F83C30802384F83120A4F89D
:10C760004830A378002B51D1636B002B5FD10020A0
:10C770005CE0022384F83130032384F83C302369E1
:10C78000A4F848300023C4F8A430E3682664636446
:10C79000E7E763696364A369A4F848306379B3B1D8
:10C7A00094F8B2309BB994F8B43083B1022384F882
:10C7B000503004212046FFF7B3FE0028D1D10523D5
:10C7C00084F8313004F19403C4F8A430C9E703239A
:10C7D000F6E7E3696364236AA4F84830637983B1B8
:10C7E00094F8B2306BB994F8B43053B1022384F8A2
:10C7F000503004212046FFF793FE0028B1D10623D4
:10C80000DEE70423DCE784F83130AAE72A46D4F8CF
:10C81000A41004F15400FFF77FFE38B994F83010EB
:10C8200094F85400FFF77AFE00289DD0F8BD94F8E4
:10C83000310098479BE70820F8E70388102B05D1C3
:10C84000C37B012B04BF8388A1F8A83070477047D1
:10C8500075DF704776DF70477ADF70477BDF7047A0
:10C86000034B1A8882420CBF18460020704700BF55
:10C870003C310020024B9B6903B11847704700BF51
:10C880002031002073B586B23046FFF7E9FF044639
:10C8900070B1164D027A2B7B9A420BD200F10A013D
:10C8A0003046FFF7D5FFE8B1112801D0FFF7E2FFCE
:10C8B00002B070BD002303722B7C43B13B21304694
:10C8C000FFF7C8FF30F0080301D0FFF7D3FF6B6913
:10C8D000002BEDD000228DF80420ADF8066001A8F1
:10C8E0009847E5E7237A01332372E1E720310020FE
:10C8F00013B50B46497A0F4C024669B9D4E90110C9
:10C900001C7A002C18BF01465868FDF7AFFC08B12F
:10C91000FFF7B0FF02B010BD002119726369002B50
:10C92000F8D00121ADF806008DF8041001A8984751
:10C93000F0E700BF203100204B8802889A4213D8CC
:10C9400042889A4210D380888A8840F2F313984232
:10C9500094BF031AC31A934206D800F2F310904210
:10C9600034BF002001207047002070470388112B3E
:10C9700070B5014648D002D8102B1ED070BD122BC6
:10C9800052D0502BFAD12F4BC288DB899A42F5D175
:10C99000038A022BF2D186883046FFF761FF0546F5
:10C9A0000028EBD001F1120000F0FCF930BB686800
:10C9B000FDF7A2FC0028E1D009E0C37B012BDDD10B
:10C9C0004FF6FF70FFF74CFF054620B90420BDE885
:10C9D0007040FFF74FBF1C4A8E8806800023037209
:10C9E0001368C5F80A300A30536843601031FFF706
:10C9F000A3FF144B6872DB89002BBFD12946304658
:10CA0000BDE87040FFF774BF8088FFF729FF044638
:10CA10000028B3D04068FDF76FFC08B1FFF72AFF8C
:10CA20004FF6FF732380A9E786883046FFF718FF8B
:10CA300005460028A2D008310A30FFF77DFF687252
:10CA4000DCE700BF2031002050310020F8B5064659
:10CA500048B305460FCD154F3C460FC495E8070077
:10CA600084E807003068124C3C60B0B1FFF7F4FE78
:10CA7000C0B9326813682360536863600D480E4A7A
:10CA80004FF6FF7303800D4B40F8043F0021FDF784
:10CA9000DBFB002818BF032004E02046FFF7DEFE82
:10CAA0000028EBD0F8BD0E20FCE700BF20310020AD
:10CAB000503100203C31002085C801005831002051
:10CAC000F7B5174601900E4691B1019C6CB1002557
:10CAD0002C46294601A8FDF724FD18B13946A8B215
:10CAE000B04701340135142DF3D1204603B0F0BD19
:10CAF0000C46FAE773B50191019C06466CB100251E
:10CB00002C46294601A8FDF70CFD18B106EB44039D
:10CB100001349D800135142DF3D13046346002B0CC
:10CB200070BD00002DE9F04703888488112B8CB07C
:10CB300006463CD01A2B3FD0102B17D1274DAB689F
:10CB4000DB43009369686846FDF74CFD009901A836
:10CB5000FFF7D0FF0DF108094FF00008019B984541
:10CB600007D3132C13D90420FDF7E6F80CB0BDE869
:10CB7000F08739F802AB00270137514605EB8700F3
:10CB8000FDF7C5FC1D2FF7D108F10108E6E72146A6
:10CB90001348FDF7A5FC21461248FDF7A1FCF37BE5
:10CBA000012BE3D010482146FDF79AFCDEE70C4844
:10CBB0002146FDF7ACFCD9E7057A0C482D09012D7B
:10CBC000214606D9FDF78CFC022D21460848F0D0FD
:10CBD000EAE7FDF79CFC21460548EAE778310020AA
:10CBE000803100207C3100208431002088310020F9
:10CBF0008C3100201328014602D80248FDF791BC71
:10CC0000002070477C310020FFF7F4BF10B50446C8
:10CC1000FFF7F0FF38B121460348FDF782FC0028FA
:10CC200014BF0220012010BD8031002010B5044641
:10CC3000FFF7E0FF28B121460248BDE81040FDF7AC
:10CC400070BC10BD8831002010B50446FFF7D2FF3C
:10CC500028B121460248BDE81040FDF762BC10BD76
:10CC60008C31002010B50446FFF7C4FF002814BF24
:10CC70002046142010BD000008B518210248FDF719
:10CC800059FCC0B208BD00BF7831002070B50A4D14
:10CC9000064628460C46FDF744FC58B13046FFF7DF
:10CCA000A9FF38B1A01D314605EB8000BDE87040FA
:10CCB000FDF737BC002070BD78310020F8B50D4C71
:10CCC000054620460E461746FDF72BFC80B1284648
:10CCD000FFF790FF60B1B01D04EB800029461FB143
:10CCE000BDE8F840FDF7FCBBBDE8F840FDF70FBC20
:10CCF000F8BD00BF78310020F8B50A4C05460E4655
:10CD0000014620461746FDF70CFC48B1043504EBFC
:10CD100085043A46A0683146BDE8F840FFF7D0BE2A
:10CD2000F8BD00BF7831002070B5054616460AB937
:10CD30000E2070BD002313600028F9D00368002B7B
:10CD4000F6D0C38813F003040FD10846FFF78AFF1B
:10CD5000C0B214280BD02B7983420AD9EB882A68F9
:10CD600000FB032333602046E3E70720E1E70520CB
:10CD7000DFE70420DDE7AADF7047002301380B70EE
:10CD8000042806D8DFE800F00306080A0C00112387
:10CD90000B7070472123FBE73123F9E71223F7E7F4
:10CDA0002223F5E7007800F001007047F0B58B789A
:10CDB00091B0002B0C4608BF01238DF80E300546BC
:10CDC0000B88ADF80C30002116466846032207F0A8
:10CDD000B8FD6946607CFFF7D0FF0DF10101A07C32
:10CDE000FFF7CBFF9DF80230E27B62F3C303227CA6
:10CDF00062F30413227B62F30003227D002A14BF36
:10CE00000222012262F3420300211C2209A88DF8AC
:10CE1000023007F096FD637B13F0300F15D002AFA0
:10CE200003220021384607F08CFD0DF10901E07C5A
:10CE3000FFF7A3FF11238DF808309DF80A300E97F5
:10CE4000012262F342038DF80A30637B8DF82430AF
:10CE50001422A37B8DF82530002104A807F071FD72
:10CE600003AB0493A388ADF81C30A368CDF814D0AD
:10CE70001BB1E288ADF818200893A369002B2ED0CF
:10CE800001AF03220021384607F05BFDA3691A8831
:10CE9000ADF82C205A88187BADF82E2039465A68F8
:10CEA0000A920D97FFF769FFA3690DF10501587B01
:10CEB000FFF763FFA2699DF80630917A61F3C3031F
:10CEC000D17A61F30413117A927B002A61F3000393
:10CED00014BF0222012262F342038DF80630E36997
:10CEE00003B10C93334604AA09A92846FFF743FF70
:10CEF00011B0F0BDA5DF7047B5DF704758B14FF0F6
:10CF0000F7130360FB230371F723C3801723C1606A
:10CF10008360002070470E20704730B1A1F11703E5
:10CF2000E02B04D80180002070470E2070470720B6
:10CF30007047000013B5034680880C4680B91A88F4
:10CF4000112A60D00ED8102A3AD0A37A43B1E188D2
:10CF50000020FFF7CFFF002872D14FF48073638168
:10CF600002B010BD3A2A53D0552AEED1DB88C988C9
:10CF7000A072172B38BF17238B4228BF0B46238183
:10CF8000FFF7BAFF60B1FDF783FE354A354B3649EE
:10CF90009B1ADB081B04024643F00100FCF742FD2C
:10CFA000E37A002BD1D1E368002BCED040F6772274
:10CFB00000922289ADF80420694620469847C4E7CC
:10CFC000DB7B012B04BF0B88CB80C98823898B4274
:10CFD000BBD20020FFF78EFF10B90123E372B4E744
:10CFE000112802D10123A372AFE7FDF751FE1C4ABD
:10CFF0001C4B1E499B1ADB081B04024643F0010030
:10D00000FCF710FDA1E7F723CB8017238B609CE78B
:10D010005B89CA88934228BF1346172BCA6838BF5A
:10D0200017230B814AB1C97A39B140F677210091B3
:10D03000ADF804306946204690470023638184E7B9
:10D0400011288DD0FDF724FE054A064B07499B1A8F
:10D05000DB081B04024643F00100FCF7E3FC7FE71A
:10D06000E84A0200384B0200BE5202008D52020014
:10D07000B0DF704766DF704710B500210446408876
:10D08000FFF7F8FF034608B9237210BD112801D13C
:10D090000123F9E76368BDE81040184760B159B152
:10D0A0000378DE2B0AD00B684360DE2303704FF653
:10D0B000FF734380002070470E20704708207047A0
:10D0C00028B10378DE2B04D14180002070470E2068
:10D0D000704708207047F0B5054685B00C46F1B1A1
:10D0E000E8B10B78DE2B1AD182884B889A4204D1A2
:10D0F0000B7A13B10846FFF7BFFF2B88112B32D0F4
:10D10000512B0ED0012B0AD12B7A012B07D1A988E4
:10D110006288914203D123722046FFF7ADFF05B02C
:10D12000F0BDAE886388B342F9D1AF79022FF6D152
:10D13000AD7B2B1F022BF2D800211022684607F08E
:10D1400000FC052D14BF4FF4C07300236946304620
:10D150008DF80070ADF80430FFF78AFF0028DED0AC
:10D1600063689847DBE76388AA889A4204BF4FF652
:10D17000FF736380D3E7000070B5064D06460024B8
:10D1800055F8043B0BB1304698470134042CF7D1D5
:10D1900070BD00BFFC310020033080B240F2FD338F
:10D1A000984230B51FD8124B1A783AB91C895D895C
:10D1B0002C440444A4B2B4F5806F0AD31A7DA2B9FA
:10D1C0009A8BDC8B2244024492B2B2F5806F0CD26F
:10D1D00001220A801446142202FB04335A891044A7
:10D1E0005881002030BD0920FCE70720FAE700BF86
:10D1F000303200200B4A0C4B5188142000FB0131C7
:10D20000CB6833B90420496810700122074800F048
:10D21000C1BF05230649137002238B80012200231E
:10D220000968F3E714320020303200200025002086
:10D23000F832002007B5002305490093054A096824
:10D240000548082300F010FF03B05DF804FB00BFA1
:10D25000F8320020085302000025002007B5002303
:10D26000009301460823034A034800F0FDFE03B083
:10D270005DF804FB005302000025002013B50023D5
:10D280000C46009301460423074A084800F0ECFED0
:10D2900038B9074B142202FB04340123237402B073
:10D2A00010BD0E20FBE700BFFC520200002500204D
:10D2B0003032002037B50A480A4B42689C8819680A
:10D2C00053880325033305709BB2002000909B0018
:10D2D00001EB8401044800F0C7FE03B030BD00BF7D
:10D2E00014320020F83200200025002010B501463D
:10D2F0000448FDF780F81C220446002107F021FBBA
:10D30000204610BDE432002068B10268084B9A4202
:10D3100009D14068074B984207D0013398420CBFAF
:10D32000012003207047032070470020704700BF92
:10D33000DEC0ADDEFE011EF14388033300EB830344
:10D34000994209D382884FF6FF739A4206D000882B
:10D35000B0FA80F040097047022070470120704702
:10D360002DE9F8430223DFF860800B800D46174655
:10D3700000F5805600F108044FF00109B4420FD2C5
:10D38000236801330CD031462046FFF7D5FF48B162
:10D390000FB187F8009002280BD14FF480632B80E7
:10D3A000BDE8F883A368D8F80020934201D9C8F8F3
:10D3B00000302B886288033313442B806388033347
:10D3C00004EB8304DAE700BF28320020154A142357
:10D3D00003FB002070B50B6844680D4604F58056C9
:10D3E000ABB15C88033403EB8404B4420DD22368F0
:10D3F00001330AD031462046FFF79EFF01280BD0AB
:10D4000010F0FF0F05D00228EFD1002003E0083410
:10D41000EBE72C60012070BD6388033304EB8304C9
:10D42000E3E700BF30320020436873B504460D4681
:10D4300063B3234AD1688B4228D31269934225D81B
:10D4400013F0030022D11F4A2189128991421DD174
:10D4500021689A68914219D11B4A51688B4203D9BD
:10D4600001F580518B420DD3926993420CD902F59C
:10D470008052934208D201232B80B0FA80F04009F9
:10D4800002B070BD0346F7E70A20F6E700232B80C1
:10D490001E46019601A92888FFF798FF30B92B880E
:10D4A00001339BB2012B2B80F3D9E9E7019B226862
:10D4B00099689142EED16360024B1B892381DFE7BB
:10D4C0000025002014320020303200202DE9F843DE
:10D4D0001C461C4B1B7806460F4615466BB372B3B1
:10D4E0006CB3DFF868804FF01409A388012B01D9D1
:10D4F0000A2020E009FB03F318F803302BB921467A
:10D50000A088FFF763FF20B92060A3880133A380C0
:10D51000EBE723681EB1998832889142EFD11FB1A1
:10D5200019883A889142EAD19A68C5E90023064BE6
:10D530001B892B810020BDE8F8830220FBE7052032
:10D54000F9E700BF0C3200201432002030320020F6
:10D5500008B5074B191D5888FFF738FF18B1BDE80B
:10D560000840FFF7A7BEBDE80840FFF743BE00BF75
:10D57000143200202DE9F04FA04FDFF8A49289B0BB
:10D580000646B8463B6823B949469D48FCF76DFFFF
:10D590003860D8F8005029784B1E052B00F2FA802D
:10D5A000DFE813F006005E005E00EE00EE005C01B6
:10D5B00026B1944B00225A600124ECE02B79032B16
:10D5C0001DD8DFE803F015022A358F490B78022BAE
:10D5D000084619D00B7D022B4FF0010316D11422FF
:10D5E0005343C2180020C8545068FFF737FE03E0C9
:10D5F00001232B71FFF71EFE002800F0BC80814B39
:10D6000000225A600E24C6E00023E8E77D4A13702A
:10D610000023536041F61D54BDE07C497C48002343
:10D6200002222B718A800122096800F0B3FDE3E732
:10D63000764C00262E712068734DFFF70FFE754B58
:10D64000D4F800C05A8814235343EA18EE545168A2
:10D650002160A188C2F804C011810222A280CBE718
:10D66000B5F814A0AA7DDFF8A0B1AEB1022AEB880C
:10D6700006D9142101FB0AB1DA1C088902440A8187
:10D68000142202FB0ABAC3F57F43BAF80A20FD331D
:10D690001344AAF80A308FE7142303FB0AB318894E
:10D6A0005C6804EB8004062A68D8DFE802F0274DA6
:10D6B00035431D59040041F61D54AA7DEB88022A0A
:10D6C00006D9142101FB0AB1DA1C088902440A8137
:10D6D000142202FB0ABAC3F57F43BAF80A20FD33CD
:10D6E0001344AAF80A3056E04B484C4900234360E3
:10D6F000AB690360FFF798FE002871D00223AB7579
:10D70000002300930423EA182146414800F0ACFCB2
:10D71000002830D00E24D0E72B69002B14BF032340
:10D720000123AB750023009305F10C02042304F1DF
:10D730000801EAE70123AB750022EB8800929B0009
:10D740002A6904F10C01E0E703290CBF0523062335
:10D75000AB7500230093042305F10802E118D4E718
:10D760000623AB752D4B19882B4B5868FFF786FDA8
:10D7700004460028A1D109B0BDE8F08F0F249CE732
:10D78000002E7FF419AF2B79012B4BD0E3B1022B84
:10D790003FF440AF0F241422002103A807F0D1F872
:10D7A00041F61D539C4208BF0024D8F80030049471
:10D7B0001A78023A042A00F20581DFE812F0E60046
:10D7C000F20015011D01240102232B710DF10A0144
:10D7D000EB68039303A8CDE90466FFF725FE08B9BB
:10D7E0000A24D8E70498BDF80A108388EB800388E0
:10D7F0002B81FFF743FD044627E000BF2C320020B9
:10D80000E43200200C32002030320020F8320020B8
:10D810000025002014320020F031002004330020C5
:10D8200024320020DFF8FCA103AA53463146A81D8C
:10D83000FFF74CFE044658B9BAF804100498FFF7F5
:10D840001DFD04460A2C3FF4E5AE002CA3D192E75F
:10D8500008223146504607F074F8F3E7002E7FF4B3
:10D86000ABAE6B4B1A7BAAB11E731A78013A062A2B
:10D8700090D801A151F822F01FD9010045D901002B
:10D8800063D9010069D9010095D701006FD9010062
:10D8900081D901001A78072AE7D801A151F822F0AE
:10D8A000C1D801006BD801006BD80100E7D8010096
:10D8B000FBD801001BD901001BD90100E3D80100EE
:10D8C0001A89544901321A8100225A801A730A783F
:10D8D000B2FA82F252099A720A7DB2FA82F25209BF
:10D8E000DA72012207E04C4958688A88408803327E
:10D8F00002448A8002221A70B7E7464C5A88464989
:10D90000142505FB0242086854685060888810811D
:10D9100002228A800C600622EDE70722EBE79A7A62
:10D9200032B9DA7A8AB900221A705A805A6071E6DE
:10D93000384900229A72CA68002AF2D1097C00296B
:10D94000EFD05A80FFF704FE55E70022DA72314A21
:10D95000116A0029E7D192F82420002AE3D001229D
:10D96000EFE7FFF7A7FC46E7FFF744FC43E7294A48
:10D970005B88142101FB03235868FFF76FFC3AE72B
:10D9800000225A60FFF756FC35E701228DF80C2083
:10D990001A89ADF818209A88DB68ADF81A2005932B
:10D9A00010E002228DF80C201A89ADF818209A8810
:10D9B000ADF81A20DA689B7D05929A1F53425341B5
:10D9C0008DF81C3003A8FFF7D7FB00264946134803
:10D9D000C8F80060FCF774FD01211148FCF723FE34
:10D9E00000287FF4CFADC6E603228DF80C20DA883C
:10D9F000ADF818201A89CFE70422DB888DF80C20B7
:10DA0000ADF81830DEE705238DF80C30DAE700BFFB
:10DA10001432002030320020F8320020E43200209E
:10DA2000F4320020083300204068FFF7A3BD000057
:10DA300008B501210448FCF7E0FD18B9BDE808402D
:10DA4000FFF798BD08BD00BFF43200202DE9F34177
:10DA50009846354B1B7806460D46002B5BD00029B7
:10DA60005BD009884FF6FF73994258D06B88002B22
:10DA700055D06B689B0754D14AB92F890DF102012B
:10DA80003846FFF789FB30B102B0BDE8F08113885A
:10DA90005788ADF8023001A8FFF728FC044658B9B2
:10DAA000BDF80230214A142101FB032358890338B1
:10DAB000C01B58810820E7E700238375BDF80230BA
:10DAC00083826B68036180F8008001211848FCF7AD
:10DAD0009FFD2B882381B8F1030F6B88A38004BFBF
:10DAE0000423A3754FF0000508BF3368E06008BF4A
:10DAF000A361E780658101A90E48FCF7A6FC36B159
:10DB0000E36833600C4B75601B89B5723381FFF796
:10DB10008FFF0020B8E70220B6E70520B4E7042015
:10DB2000B2E70320B0E700BF0C3200203032002003
:10DB300028320020E43200201432002008B5084BBF
:10DB40001A68042A09D01968064A42F821000121FE
:10DB50001846FCF75DFD002008BD0C20FCE700BF67
:10DB600000330020FC3100202DE9F04F14228BB04F
:10DB700000210DEB020006F0E4FE734A137803F077
:10DB8000FF01CDE901123BB105A8FFF7F5FA002727
:10DB900038460BB0BDE8F08F029B181DFCF74EFD18
:10DBA0000028F4D14FF010234FF080525B691269C6
:10DBB000664C591C04BF3023534323610022A3F554
:10DBC00040536349E360204600F01AFA0394074685
:10DBD0000028DDD11C238C225E495F48DFF8849148
:10DBE000DFF88481FCF7D2FBBA463D464FF0030BC9
:10DBF0003C46039BDE68564430463146FFF784FBC3
:10DC000001284DD042B2002A36D0032822D106F591
:10DC100080520868013040F08A8004319142F8D186
:10DC2000D9F800203AB902220123C9F80060A9F806
:10DC3000042001930CE014226243022008EB02014D
:10DC400008F80200454A4E60548001340881A4B2AD
:10DC500045F001050AF5805ABAF5405FC9D1BBF11C
:10DC6000010F98BF0025EDB2022D03D0062D35D04F
:10DC7000002D3CD10B278BE71421614308EB0100F9
:10DC800008F8012001F11002083146604244414485
:10DC90003046FFF765FB45F002050134A4B2D9E731
:10DCA000019B63B11422624308EB0201022008F8D1
:10DCB00002000134D9F800204A600881A4B2002291
:10DCC0002749C9F800603046FFF74AFBB9F804203D
:10DCD000022A0CBF042208221543BBE7029A012343
:10DCE000137005A800235360FFF746FA50E704A815
:10DCF000FFF7FCFAC8B10123013D03700A2D09D8D2
:10DD0000DFE805F006080608070807080F110F00EE
:10DD10000023037104A91048FCF797FBFFF788FE66
:10DD200036E70323F5E70223F3E7082730E70BF193
:10DD3000FF321FFA82FB1422624308EB02014E609D
:10DD4000032108F80210A8E70C320020002500206B
:10DD50002C52020058320020E432002014320020FD
:10DD6000FC320020F83200203032002073B50D461E
:10DD70000446C8B1C1B10DF10601FFF755FBA8B1CA
:10DD80000B4BBDF806006668142202FB003001212F
:10DD90000C30FCF73DFC63682E600C336B60012394
:10DDA000A372002002B070BD0520FBE70A20F9E74E
:10DDB0003032002013B50446A8B10DF10601FFF77B
:10DDC00033FB90B10B4ABDF80630142101FB03234D
:10DDD000DA6862B1A27A52B1DA680020013ADA60F8
:10DDE000A07202B010BD0520FBE70A20F9E706206B
:10DDF000F7E700BF3032002002230022FFF726BEE3
:10DE000018B103230022FFF721BE05207047000050
:10DE1000104B1B7813B50446ABB14FF6FF73984215
:10DE200013D001A8FFF762FA88B10523037001231C
:10DE30000371C48001A90848FCF707FBFFF7F8FD50
:10DE4000002002B010BD0220FBE70420F9E7082003
:10DE5000F7E700BF0C320020E43200200E4B1B78A5
:10DE600007B5A3B101A8FFF741FA90B106230370EB
:10DE700001A90A48FCF7E9FA094B1A780AB101220C
:10DE80001A73FFF7D5FD002003B05DF804FB0220F4
:10DE9000FAE70820F8E700BF0C320020E432002047
:10DEA0001432002007B5ADF80600ADF804100DF1EE
:10DEB000060001A9FFF70AFB03B05DF804FB07B5F4
:10DEC0001346ADF806000A4600200DF10601FFF7E3
:10DED000FDFA03B05DF804FB07B51346ADF8060084
:10DEE0000A460DF106000021FFF7F0FA03B05DF8D5
:10DEF00004FB20B119B103680B60002070470520B6
:10DF0000704700002DE9F84F3B4B1B780446002B6F
:10DF10006ED000286ED012220021DFF8E0A006F0BB
:10DF200010FD032323804FF0000BD04614274FF041
:10DF30000109DAF80410BAF80A50BAF8086008467D
:10DF4000FFF7E2F9032808BF2388628804BF03F1C2
:10DF5000FF33238007FB0B832E44DB68134463806D
:10DF600023891D4463892581B6B233446381C6F594
:10DF70008066A389B6B2B34238BFA68101F1080515
:10DF800001F58056AE4217D92B68013314D03146C3
:10DF90002846FFF7D1F9012819D010F0FF0F23D040
:10DFA0000228EFD1E38884F81090761BE5890133CD
:10DFB00005EBA605E380E5810AF1140ABBF1000F29
:10DFC00002D00020BDE8F88F4FF0010BB1E7E388E5
:10DFD0000133E380E3896A8803331344E3816B8868
:10DFE000033305EB8305CDE7A3880133A380F6E770
:10DFF0000220E7E70520E5E70C3200203032002060
:10E0000007B50B4688B9124B1248134AC01A0E23A3
:10E01000C0080093114B0004114940F00100FBF7C8
:10E0200014FD0E2003B05DF804FB4BB9084B094802
:10E030000C4AC01AC0080E2300930004074BEBE7FC
:10E0400003601B68114603B05DF804EB184700BF7E
:10E05000E84A0200404B0200BD5302001053020088
:10E06000C2530200395402002DE9F34188B93D4BF7
:10E070003D483E4AC01AC0080E243D4B009400049F
:10E080003C4940F00100FBF7E0FC204602B0BDE84F
:10E09000F0814AB9334B3448374AC01AC0080E24BD
:10E0A00000040094324BEBE7D0F800C0BCF1000F45
:10E0B00009D12C4B2C48314AC01AC008082400044E
:10E0C00000942B4BDCE74BB9264B27482C4AC01A4F
:10E0D000C008092400040094254BD1E74768D7F80D
:10E0E0000480B3FBF8F708FB17374FB11D4B1E48F0
:10E0F000244AC01AC0080924000400941C4BBFE73E
:10E100008F0709D0174B18481F4AC01AC00810249F
:10E1100000040094164BB3E712F0030F09D0114B23
:10E1200011481A4AC01AC008102400040094104B69
:10E13000A6E7C768B9420BD34C1E05691C44AC4224
:10E1400006D8DCF80C40A44602B0BDE8F0416047B8
:10E15000044B05480E4AC01AC0081024000400945D
:10E16000034B8DE7E84A0200404B0200BD5302001A
:10E1700022530200C25302003F54020033540200F3
:10E18000F2530200455402006F540200875402000B
:10E19000AA540200F7B580B92A4B2B482B4AC01A63
:10E1A000C0080E242A4B009400042A4940F00100C4
:10E1B000FBF74BFC204603B0F0BDD0F800C0BCF12B
:10E1C000000F09D11F4B2048234AC01AC008082459
:10E1D000000400941E4BE8E74AB91A4B1A481F4A3C
:10E1E000C01AC008092400040094194BDDE74768F1
:10E1F000D7F800E00EF1FF370F4209D0114B12485B
:10E20000174AC01AC008102400040094104BCCE731
:10E21000C768B9420CD34C1E05690EFB0244AC42E0
:10E2200006D8DCF81040A44603B0BDE8F0406047D3
:10E23000044B05480B4AC01AC0081024000400947F
:10E24000034BB2E7E84A0200404B0200BD53020014
:10E2500035530200C253020033540200F25302004D
:10E26000485302006E530200A0DF7047024B03497F
:10E2700018780022FEF740BD1733002065E3010047
:10E2800013B5042204460021684606F05AFB42F604
:10E29000A623ADF8003001238DF80230044B186836
:10E2A000019001AA69462046FFF7DEFF02B010BDCB
:10E2B000DE54020010B50446408800F0ADFBA0809B
:10E2C0002046BDE8104001F0B7B930B587B005462B
:10E2D0000C4618220021684606F033FB07236846E7
:10E2E0008DF80030ADF802500294FFF7E3FF07B05D
:10E2F00030BD000030B587B00546182200216846C1
:10E3000006F01FFB4FF6FF739D42ADF8025023D07D
:10E31000284600F096FA0B28044615D005D860B1BF
:10E3200021462846FFF7D1FF05E011280ED043F221
:10E3300002039842F4D1002209E00E2368468DF8CA
:10E340000030FFF7B7FFF6E70F23F7E70122034B93
:10E3500028461978FEF7B2FC07B030BD153300200F
:10E36000FFF7C8BF70B5234E86B031780446FEF77C
:10E370008DFC0546C0BB204600F0B2FA08280146D5
:10E3800022D006D888B106281ED02046FFF79DFF70
:10E3900009E043F20203984205D043F20143984258
:10E3A00024D01128F1D1012214E029461822684610
:10E3B00006F0C7FA102368468DF80030ADF8024029
:10E3C0000125FFF777FFEEE7204600F025FB00F080
:10E3D000A1FA0022084B20461978FEF76FFC2A4666
:10E3E00031782046FEF76AFC06B070BD2046FFF784
:10E3F00081FFD8E7183300201733002013B50446F7
:10E4000000F00AFB00236A46092100F08BFF052873
:10E4100005D1044B012219782046FEF74FFC02B0CB
:10E4200010BD00BF1433002008B5084B0849187808
:10E430000022FEF761FC024630B9064B0649187807
:10E44000BDE80840FEF758BC08BD00BF16330020E9
:10E450005DE401001433002081E2010030B50121A8
:10E4600087B005461C48FCF792F80446BFF35F8F5F
:10E4700068BB284600F0A0F9112801461CD005D839
:10E4800038B32846FFF721FF002405E0862805D091
:10E4900043F202039842F4D122460EE018222146AC
:10E4A000684606F04EFA062368468DF80030ADF84F
:10E4B0000250FFF7FFFEEFE70122084B28461978CC
:10E4C000FEF7FCFB1CB9BFF35F8F034B1C6007B06A
:10E4D00030BD01240246F0E710330020163300203F
:10E4E00038B503780446A3B94088FFF703FF658871
:10E4F000284600F0E3F928B1064B01221978284696
:10E50000FEF7DCFB6088FFF779FFBDE83840FFF7D6
:10E510008BBF38BD173300200378082B37B504466E
:10E5200030D1427A72BB057A072D1BD0082D2DD031
:10E53000012D27D16A462946808800F037FD08BBA7
:10E54000019B1B78F3B1A08800F094FA4FF6FF739B
:10E55000984217D0114B2A461978FEF7AFFBFFF708
:10E5600085FE0FE0808800F085FA4FF6FF73984231
:10E57000044607D00A4B01221978FEF79FFB20467C
:10E58000FFF73CFFFFF750FF03B030BD054B1968A4
:10E590000129F7D1BFF35F8F1A60F3E7173300202B
:10E5A0001633002010330020F8B5FEF765FB144F3A
:10E5B000144E3870FEF760FB3070FEF75DFB124DB5
:10E5C000124C2870FEF758FB2070FEF755FB104BDD
:10E5D00018703B78182B10D03378182B0DD02B786F
:10E5E000182B0AD02378182B07D0182805D0094BF0
:10E5F00000201860BFF35F8FF8BD0320FCE700BF69
:10E600001633002015330020173300201833002064
:10E61000143300201033002013B501230024ADF87B
:10E6200000300923ADF80240084A8DF80230084B4B
:10E63000A14214BF19461146019100F0EDF922469E
:10E64000694600F0DBFE02B010BD00BFE4540200DA
:10E65000E854020030B503888488502B87B0054603
:10E6600035D00BD8352B45D02D4B2E4918780022AC
:10E67000FEF742FBFFF7FAFD07B030BD522B22D068
:10E68000542BF1D118220021684606F05AF91123C3
:10E6900020468DF80030ADF8024000F0BDF9ADF82D
:10E6A000040000F037F9204B204619780022FEF7CD
:10E6B00005FB1E4B204600221978FEF7FFFA68463C
:10E6C000FFF7F8FDD0E72046FFF714FECCE7037B09
:10E6D000012BC9D1827A012AC6D1018942F60213DF
:10E6E0009942C1D1124B20461978FEF7E7FAFFF79D
:10E6F0009BFEB9E70F4B002219782046FEF7DEFAA1
:10E70000E98851B9AB89012B03D1A97B003118BF2E
:10E7100001212046FFF780FFA6E70021F9E700BFAF
:10E720001533002061E30100183300201733002067
:10E730001633002014330020AFDF7047B1DF70477D
:10E74000B2DF7047B3DF704773B50F4B0F4C93E8E0
:10E7500003006D4685E8030000222946208800F06A
:10E760004DFE4FF6FF762388B34201D0112801D128
:10E7700002B070BD184600F094FE002229462080A9
:10E7800000F03CFEEFE700BF005502001A33002006
:10E79000044B1A884FF6FF739A4201D0FFF7D4BF9B
:10E7A000704700BF1A330020024B4FF6FF721A80E9
:10E7B000002070471A3300202DE9F743804600F00F
:10E7C0002BF94FF6FF739842064637D001224FF0DF
:10E7D00003096B4608213046571C00F0EBFBBFB223
:10E7E000054630BB01990A46032342F8049B0631D3
:10E7F0004046FFF7A5FF044648B932460821304697
:10E8000000F061FC0446204603B0BDE8F0830C280C
:10E810000DD0052800D12C460821304600F02AFCF6
:10E82000002818BF03243A46002DD2D1EBE701257A
:10E83000F2E7072814BF04460C24E4E743F202047D
:10E84000E1E72DE9F341804600F0E6F84FF6FF736B
:10E85000984217D100240325264601272B4622463D
:10E8600031464046FFF76AFF042820D0082823D00D
:10E870000B281DD115F002030FD18EB9A4B902B037
:10E88000BDE8F0816A46082100F090FB0028E1D144
:10E89000019B9E1D9C881D68DFE701250027DDE7A1
:10E8A00003251C461E46F9E703253446F6E71120EA
:10E8B000002F08BF0B20E2E70020F9E71FB50DF19C
:10E8C0000703039300F0A8F802AA012100F06EFBF1
:10E8D00020B9039B187805B05DF804FB0020FAE727
:10E8E00070B505460A48FFF72DFF70B9084C43F292
:10E8F00003064FF6FF7221882846FFF71DFFB0423E
:10E9000004D1238801332380F3E7032070BD00BFC7
:10E910001C33002013B5074A044692E803006B46F7
:10E9200083E8030000221946204600F067FD02B08C
:10E9300010BD00BF0855020046DF7047421E00F1BF
:10E940000F0312F8010F10B99A42FAD17047012053
:10E95000704708B570B171B103780A78534013F06D
:10E96000FE0F08D106220131013005F067FEB0FA32
:10E9700080F0400908BD0020FCE72DE9F04700F1D8
:10E9800001084F1C06460D4600F1110901F1110A5C
:10E9900010223946404605F051FE0446E0B9404693
:10E9A000FFF7CCFF18B13846FFF7C8FF04465146C1
:10E9B0004846FFF7CEFF737C03F0FC03042B04D022
:10E9C0006B7C03F0FC03042B02D1201C18BF012038
:10E9D00000F00100BDE8F0870024E8E730B585B01D
:10E9E00004460D4600F0D4FC02AA0DF106010720F2
:10E9F00000F0D6FC10B94FF6FF700BE0BDF8063002
:10EA0000AB42F1D003992046FFF7B7FF0028EBD0C7
:10EA1000BDF8060005B030BD132810B5044602D974
:10EA20004FF6FF7010BDFEF7E5F80028F8D00A2079
:10EA30006043014B185AF5E71E330020132838B500
:10EA400004460D4602D943F2020038BDFEF7D2F863
:10EA50000028F8D006480A2303FB040050F8023FC0
:10EA60002B608388AB808379AB710020EDE700BF1A
:10EA70001E3300204FF6FF7398422DE9F041064601
:10EA80000CD00C4F00244FF00A0808FB04F3A5B289
:10EA9000DB5BB34205D00134142CF6D14FF6FF7581
:10EAA00004E02846FEF7A6F80028F4D02846BDE882
:10EAB000F08100BF1E330020038843B9821C00F19F
:10EAC0000A0312F8010B10B99A42FAD170470120DB
:10EAD000704710B50446FFF7EFFF58B122880B8846
