:020000021000EC
:1090000000600020759301005D9301005F930100F3
:10901000619301006393010065930100000000006B
:109020000000000000000000000000006793010045
:1090300069930100000000006B9301006D93010033
:10904000E5D501006F93010005E801006F93010071
:109050006F9301000000000035E1010091EF010075
:10906000CDFC0100E5FC0100FDFC01006F93010057
:109070006F9301006F9301006F9301006F930100E4
:109080006F9301001DB101006F9301006F93010008
:109090005DB101006F930100F58E02006F93010036
:1090A0006F9301006F9301000000000000000000BA
:1090B0006F9301006F9301000000000000000000AA
:1090C00000000000000000000000000000000000A0
:1090D0000000000000000000000000000000000090
:1090E0000000000000000000000000000000000080
:1090F0000000000000000000000000000000000070
:10910000000000000000000000000000000000005F
:10911000000000000000000000000000000000004F
:10912000000000000000000000000000000000003F
:10913000000000000000000000000000000000002F
:10914000000000000000000000000000000000001F
:10915000000000000000000000000000000000000F
:1091600000000000000000000000000000000000FF
:1091700000000000000000000000000000000000EF
:1091800000000000000000000000000000000000DF
:1091900000000000000000000000000000000000CF
:1091A00000000000000000000000000000000000BF
:1091B00000000000000000000000000000000000AF
:1091C000000000000000000000000000000000009F
:1091D000000000000000000000000000000000008F
:1091E000000000000000000000000000000000007F
:1091F000000000000000000000000000000000006F
:10920000354936480A1A02D0072291438D4634491F
:1092100034480A1A06D00722914381F309880222B2
:1092200082F3148830483149314A00F044F831481B
:109230003149324A00F03FF831483249324A00F0B1
:109240003AF832483249334A00F035F83248334967
:10925000334A00F030F833483349344A00F02BF8F1
:1092600033483449344A00F026F83448344900225F
:1092700000F02CF833483449002200F027F8334836
:109280003349091A082902DB002202604160314A91
:1092900090471F481F49884205D00268043003B434
:1092A000904703BCF7E700208646EC4600200021EB
:1092B000294A9047FEE7884207D0521A05D0037822
:1092C00001300B700131013AF9D17047884202D068
:1092D00002700130FAE7704700600020005800205B
:1092E000006000200060002094D7020014250020B8
:1092F000B0250020C0930100C0930100C8AA02005D
:1093000094D70200142500201425002050AC020040
:1093100050AC020050AC020050AC020050AC020055
:1093200050AC020050AC020050AC020094D70200D6
:1093300030D80200B0250020B0250020B025002044
:10934000E7340020E8340020E8340020E83400202E
:10935000E83C00208B930100EDA40200FEE7FEE74D
:10936000FEE7FEE7FEE7FEE7FEE7FEE7FEE7FEE7D5
:10937000704700BF0C4880470C484FF007018843F6
:1093800085460B488047FFF73BBF0A480A490B4A0E
:10939000884207D0521A05D0037801300B70013192
:1093A000013AF9D17047000071930100006000207C
:1093B000D1CA01003CAC0200002500201425002089
:1093C00000B585B00190019B002B0AD0074B43F0FC
:1093D00001030393019B9B010293039B029898470F
:1093E00000E000BF05B05DF804FB00BF5CAC02000C
:1093F00000B583B00190019B002B0AD04FF47A7026
:10940000FFF7DEFF019B013B0193019B002BF5D190
:1094100000E000BF03B05DF804FB08B506F0C4FE31
:1094200000BF08BD00B589B0039002910192019B75
:10943000002B33D00023079303230693029A079B44
:109440001344019A1946002006F060FE0590079A21
:10945000059B13440793019A059BD31A0193059B1F
:10946000002B13D10F4B1B7883F00103DBB2002BD1
:1094700013D10120FFF7BCFF069B013B0693069B1F
:10948000002B03D1074B00221A7007E0054B012285
:109490001A70019B002BD1D100E000BF00BF09B0C2
:1094A0005DF804FBB025002000B585B00390029163
:1094B000054B00934023054A0299039800F012F8E7
:1094C00000BF05B05DF804FB25940100B425002021
:1094D00082B0019000BF02B0704782B0019000BF1F
:1094E00002B0704700B5A1B00590049103920293B9
:1094F000049802F03EFF039B1593029B16930023F2
:10950000179300238DF8603000231993229B1A9340
:1095100000231F930FA91F9B0822049802F0E6FF67
:1095200008231F93119B1293BDF84030ADF84C30C7
:10953000BDF84230ADF84E3000238DF851309DF823
:109540003C3003F00303DBB2012B26D10F9BC3F3A6
:1095500095231D939DF83C30C3F3C203DBB28DF815
:109560005030BDF83C30C3F38313DBB21C931C9B1B
:109570009A0009A91F9B049802F0B8FF1C9B9B004E
:109580001F9A13441F9312AA09A915AB00931346FF
:109590001C9A1D9800F0CCFE2FE09DF83C3003F0A3
:1095A0000303DBB2022B28D1BDF83E30C3F389138D
:1095B0009BB21E939DF83C30C3F3C203DBB28DF81F
:1095C00050301E9B082B28BF08231B9307A91F9B05
:1095D0001B9A049802F08AFF1F9A1B9B13441F9347
:1095E0001E9A1B9BD31A1E9315AB12AA07A81B9990
:1095F00000F040FF1E9B002BE3D1049802F0C8FE50
:1096000000BF21B05DF804FB82B00190019BDB68D4
:1096100001225A7100BF02B07047000000B583B04C
:109620004FF0FF330193FFF7F8FE0421054800F0E7
:109630009BFD01900348FFF7E7FF00BF03B05DF813
:1096400004FB00BF2CAC020000B583B00190009178
:10965000019B1B681B6800990198984700BF03B0E5
:109660005DF804FB00B583B00190019B1B685B684B
:109670000198984700BF03B05DF804FB00B583B0C4
:109680000190019B1B689B680198984700BF03B03D
:109690005DF804FB82B001900B468DF80330019B0E
:1096A000DB689DF803201A7100BF02B0704782B0DA
:1096B0000190019BDB681B79184602B0704782B0AD
:1096C0000190019BDB6801225A7100BF02B0704714
:1096D00082B00190019BDB685B79184602B070474D
:1096E00000B585B001900091154BFF229A60144B94
:1096F00000221A60124B00225A60114B0022C3F85C
:1097000018240F4B0022C3F814240D4B002283F8B9
:1097100020240C4802F092FD0390039B002B01D003
:10972000039B08E0084802F02BFF084A084BD31AB5
:10973000DB0802930023184605B05DF804FB00BF68
:109740005C27002050AB020074AC02002CAC02007D
:1097500064AB0200024A034BD31ADB081846704779
:109760002CAC020064AB020000B587B001900B4640
:109770008DF803309DF80330002B1FD0FFF7EAFF70
:1097800004900023059313E0059B9B000E4A1344AD
:109790000393039B1B881A46019B1B689A4204D1C2
:1097A000019B059A1A60002309E0059B013305938C
:1097B000059A049B9A42E7D3052300E0002318464C
:1097C00007B05DF804FB00BF1425002000B585B08C
:1097D00001900B468DF803309DF8032001AB114634
:1097E0001846FFF7C1FF0346002B07D1019BDB00A2
:1097F000054A13440393039B1B6800E000231846AB
:1098000005B05DF804FB00BF64AB020084B00190BA
:109810000B468DF80330019BDB00174A134402937B
:109820009DF80330013B032B1CD801A252F823F012
:109830004198010049980100519801005B9801008E
:1098400002238DF80F3011E004238DF80F300DE066
:10985000029B1B798DF80F3008E0029B5B798DF835
:109860000F3003E000238DF80F3000BF9DF80F305C
:10987000184604B0704700BF64AB020084B001908A
:10988000009100238DF80F30019B1B7803F0040337
:10989000DBB2002B24D0019B1B78C3F30103DBB2A6
:1098A000012B02D0022B0CD017E0009B1B68019A01
:1098B0001288C2F38312D2B213449A1C009B1A601E
:1098C0000BE0009B1B68019A5288C2F3891292B286
:1098D00013449A1C009B1A6000BF01238DF80F30BF
:1098E0009DF80F30184604B07047000000B58BB0EB
:1098F0000023ADF826303B4802F013F83A4802F056
:1099000010F83A4B5B680493384B9B680693049AB3
:10991000069B134002339B00344A134404330893DC
:1099200004AB19460898FFF7A9FF0346002B09D09E
:10993000049A069B134002339B002C4A13440433C1
:109940000893EDE700BF0023079311E0049B5A1C26
:109950000492069A1340079A920001A90A442349E7
:1099600002339B000B445B681360079B0133079332
:10997000079B012BEAD99DF80430C3F30103DBB246
:10998000012B10D0022B1CD1BDF80A30ADF82630C7
:10999000BDF80630C3F389139BB203339A08049BC6
:1099A000134404930EE0BDF80A30ADF82630BDF83C
:1099B0000430C3F38313DBB21A46049B13440493AD
:1099C00000E000BF084801F0B8FF0590059B002BA0
:1099D00002D0049B054A5360BDF8263018460BB0F0
:1099E0005DF804FB742B0020702B00205C27002006
:1099F00000B585B00021074801F0DCFE0390039B11
:109A00000293029B83F310030193019B184605B058
:109A10005DF804FB782B002000B589B0039002911B
:109A200001920093039B1B0C0693FFF7E1FF079045
:109A3000079B1904009B5A1C0A9B1340069A0A4371
:109A40001B4902339B000B445A60009A0A9B134047
:109A500002339B00164A134404330593039B03F01F
:109A60000703D9B2059A137861F3C5031370019BFC
:109A700003F00F03D9B2059A138861F38913138099
:109A8000029BC3F31501059A136861F39F231360CA
:109A9000059A1378012161F301031370059A137875
:109AA0006FF38203137000BF09B05DF804FB00BFC1
:109AB0005C27002000B58DB00390029113468DF80D
:109AC0000730039B02330A9301238DF827300023CC
:109AD0008DF81B300DF11B03184601F0CBFC404BF9
:109AE0001A68029B1A603E4B9A683D4B59683C4B82
:109AF0001B68CB1A134401330B9314E0012139483E
:109B000001F0E1FEFFF7F2FE08900899354801F0F8
:109B1000DAFE334B9A68324B5968314B1B68CB1ACB
:109B2000134401330B930A9A0B9B9A42E6D89DF893
:109B30002730002B48D0002305939DF80730002BD9
:109B400017D09DF81430012262F301038DF8143010
:109B50009DF8143043F004038DF81430039B03F098
:109B60000F03DAB2BDF8143062F38913ADF8143084
:109B700016E09DF81430022262F301038DF81430D0
:109B80009DF8143043F004038DF81430039BC3F3A5
:109B900009039AB2BDF8163062F38F13ADF8163090
:109BA0000F4B1A680E4B9B68134002339B000C4A04
:109BB000134404330793059A079B1A60084B1A68ED
:109BC0000A9B1344064A13609DF81B30184601F0A7
:109BD0005BFC9DF8273018460DB05DF804FB00BF14
:109BE0005C270020782B002000B58BB005900491F5
:109BF000039202931F4B9B68079306AB0122194601
:109C00000298FFF757FF0346002B24D0069B023330
:109C100009930023089311E0089B9B00039A1A44C0
:109C2000099B591C099107990B401268114902338D
:109C30009B000B445A60089B01330893089A029BCF
:109C40009A42E9D3069A079B00931346029A049915
:109C50000598FFF7E1FE074B93F82034002B05D061
:109C600000BF00F07BF80346002BFAD100BF0BB019
:109C70005DF804FB5C27002000B583B001900091E3
:109C80000023002200990198FFF7AEFF00BF03B048
:109C90005DF804FB00B587B0039002910192019B2F
:109CA000059305AA012302990398FFF79DFF00BFC2
:109CB00007B05DF804FB00B587B0039002910192F4
:109CC0000093019B0493009B059304AA022302992D
:109CD0000398FFF789FF00BF07B05DF804FB00B5EC
:109CE00089B00390029101920093019B0593009B20
:109CF00006930A9B079305AA032302990398FFF78B
:109D000073FF00BF09B05DF804FB00B58BB0039092
:109D1000029101920093019B0593009B06930C9B7B
:109D200007930D9B08930E9B099305AA052302999F
:109D30000398FFF759FF00BF0BB05DF804FB00006C
:109D4000054B5A68044B1B689A420CBF0123002341
:109D5000DBB21846704700BF5C27002000B599B001
:109D6000FFF7EEFF0346002B01D00023BCE19A4B26
:109D70000022C3F81824BFF34F8F974B5B680493FE
:109D8000954B9B681093049A109B134002339B00E1
:109D9000914A13440433119300231793002316931D
:109DA00000230F9304AB19461198FFF767FD034694
:109DB000002B19D0884BD3F81834002B14D1864BC4
:109DC0001A68049B9A4205D8834B1B68824A5360E9
:109DD000002389E1049A109B134002339B007E4AC2
:109DE000134404331193DDE70023159311E0049B22
:109DF0005A1C0492109A1340159A920001A90A4421
:109E0000754902339B000B445B681360159B01335B
:109E10001593159B012BEAD99DF8043003F0030339
:109E2000DBB2022B40F09C80BDF80630C3F38913EF
:109E30009BB20E93BDF80630C3F389139BB2502B2F
:109E400028BF50239BB20D930D9BC3F309039AB215
:109E5000BDF8063062F38F13ADF806300D9B083362
:109E60000C939DF80430C3F3C203DBB20F930C993B
:109E70005A4802F0EEF91790179B002B00F0D080A3
:109E8000179802F076FA01A9169B0822179802F09B
:109E900019FB169B08331693049BDA43109B13405F
:109EA00001339B000B930D9A0B9B9A4242D90B9B5B
:109EB000002B08D0049A109B134002339B00464AA3
:109EC0001344043300E0464B0A930B9B002B02D053
:109ED0000B9BDBB201E00D9BDBB28DF827300B9BB7
:109EE000002B01D03E4B00E0002308930B9B002B7E
:109EF00006D00D9BDAB20B9BDBB2D31ADBB200E0CB
:109F000000238DF81F309DF82720169B0A9917987B
:109F100002F0D8FA9DF82730169A13441693089B3E
:109F2000002B16D09DF81F20169B0899179802F059
:109F3000C9FA0EE0049A109B134002339B00264A94
:109F4000134404330693169B0D9A0699179802F052
:109F5000B9FA0E9B03339A08049B134404935FE001
:109F60009DF8043003F00303DBB2012B58D1BDF898
:109F70000430C3F38313DBB2062B28BF0623DAB207
:109F8000BDF8043062F38913ADF80430BDF8043035
:109F9000C3F38313DBB2023305939DF80430C3F39C
:109FA000C203DBB20F93059B9B0019460B4802F0DE
:109FB00050F91790179B002B32D0179802F0D9F95F
:109FC00001A9169B0822179802F07CFA169B083309
:109FD0001693002315931AE05C27002050AB020073
:109FE00068270020049B5A1C0492109A13400233E5
:109FF0009B003F4A1344191D169B0422179802F038
:10A0000061FA169B04331693159B01331593BDF823
:10A010000430C3F38313DBB21A46159B9342E1D39A
:10A02000179B002B40D0324BD3F810341493304B95
:10A03000D3F81834002B1BD0179802F0A9F94DE083
:10A0400000238DF84F301498FFF742FB0346002B96
:10A0500002D001238DF84F309DF84F30002B03D0F4
:10A0600017991498FFF7F0FA149BDB681B68149398
:10A07000149B002BE4D1179802F08AF900238DF885
:10A0800003300DF10303184601F0F4F9184BD3F82F
:10A090001834002B02D1049B154A53609DF80330FD
:10A0A000184601F0F1F919E0114BD3F8103412936E
:10A0B00006E01298FFF7E2FA129BDB681B68129326
:10A0C000129B002BF5D10B4A0B4BD31ADB081B0458
:10A0D00043F0020309491846FFF7CEFDFFF730FEB3
:10A0E000034683F00103DBB2184619B05DF804FBA8
:10A0F0005C2700209CAB020064AB020084AC020031
:10A1000000B585B00023039323E0164BD3F8103439
:10A11000029301238DF807300FE00298FFF7C7FA8A
:10A1200003461A46039B934203D100238DF8073060
:10A1300006E0029BDB681B680293029B002BECD1BC
:10A140009DF80730002B01D0039B07E0039B0133F0
:10A150000393039B092BD8DD4FF0FF33184605B05E
:10A160005DF804FB5C27002000B585B001900B462C
:10A170008DF80330FFF7C4FF0390039BB3F1FF3F5B
:10A1800001D1039B22E0039BDBB219460198FFF744
:10A1900081FA104BD3F81034002B08D10D4A019BE3
:10A1A000C2F81034019BDB6800221A600DE0094BF5
:10A1B000D3F81034DA68019BDB6812681A60054B2B
:10A1C000D3F81034DB68019A1A60039B184605B077
:10A1D0005DF804FB5C27002000B583B00C4BD3F87E
:10A1E000103401930A4B012283F8202409E00198DE
:10A1F000FFF765FA0198FFF735FA019BDB681B68EA
:10A200000193019B002BF2D100BF03B05DF804FB6A
:10A210005C27002082B00190009100BF02B070471F
:10A2200010B584B003900291039BDB88002B0AD009
:10A23000039BDB881A461F4B009313461E4A1F4997
:10A24000029801F048FC039B1B7A052B2ED0039B40
:10A250005B7A002B12D0039B9B881A46039B1B7AC8
:10A2600019461046FFF7D2FA03461A46144B53F824
:10A2700022301A461349029801F02DFC039B1B68FB
:10A2800019460298FFF7C6FF039B1B7A1A460E4B2E
:10A2900053F82240039B9B8800211846FFF796FA4B
:10A2A000034622460949029801F015FC00BF04B09C
:10A2B00010BD00BFB8AC0200C8AC020000AD020087
:10A2C0003025002018AD02001C2500201CAD020026
:10A2D00000B585B00390029113468DF80730039BBB
:10A2E0001B7A052B0FD0039B5B7A002B06D00D4BFE
:10A2F0001B681A460C49029801F0EDFB0B490298C5
:10A3000001F0E9FB07E09DF80730002B03D0074977
:10A31000029801F0E0FB029801F0C5FB00BF05B018
:10A320005DF804FB3025002018AD020028AD0200C6
:10A3300030B58BB007900691059204930E9B1B7B62
:10A340008DF827300E9B00221A730E990498FFF7A0
:10A3500067FF059B062B7FD801A252F823F000BFB0
:10A360007DA3010087A3010097A30100ABA3010017
:10A37000C9A30100F1A3010021A4010007990E98CF
:10A3800001F0A9FB69E0069B1B681A4607990E9825
:10A3900001F0A1FB61E0069B1A68069B04331B6871
:10A3A00007990E9801F097FB57E0069B1A68069BE9
:10A3B00004331968069B08331B6800930B46079902
:10A3C0000E9801F088FB48E0069B1968069B043351
:10A3D0001868069B08331B68069A0C3212680192B3
:10A3E000009303460A4607990E9801F074FB34E087
:10A3F000069B1868069B04331C68069B08331B6881
:10A40000069A0C321268069910310968029101927D
:10A4100000932346024607990E9801F05CFB1CE06E
:10A42000069B1C68069B04331D68069B08331B684B
:10A43000069A0C3212680699103109680698143091
:10A44000006803900291019200932B4622460799DF
:10A450000E9801F040FB00E000BF00220E99049826
:10A46000FFF736FF0E9B9DF827201A7300BF0BB035
:10A4700030BD00BF00B587B00390029101920093F8
:10A48000029B082B5CD8009B1B7B8DF81330009B34
:10A4900000221A7300990198FFF7C2FE002305936A
:10A4A00014E0059A029B9A4209D2039A059B134431
:10A4B0001B781A462449009801F00DFB03E023495C
:10A4C000009801F008FB059B01330593059B072BC2
:10A4D000E7D91F49009801F0FEFA0023059322E016
:10A4E000059A029B9A4217D2039A059B13441B7844
:10A4F0008DF812309DF81230184610F0F7F9034627
:10A50000002B02D09DF8123000E02E231A4611498C
:10A51000009801F0E0FA03E00F49009801F0DBFA3F
:10A52000059B01330593059B072BD9D9012200997F
:10A530000198FFF7CDFE009B9DF813201A7300E0F1
:10A5400000BF07B05DF804FB2CAD020034AD020083
:10A5500038AD02003CAD020040AD020000B587B04E
:10A5600001900023039300230493019B059303AB05
:10A570001A46002144F2010000F016F800BF07B0AF
:10A580005DF804FBBFF34F8F054BDB6803F4E0621B
:10A590000349044B1343CB60BFF34F8F00BFFDE76C
:10A5A00000ED00E00400FA0500B585B003900291CB
:10A5B000019272B6FFF710FE00BFFFF7CFFB034614
:10A5C000002BFAD1114A124BD31ADB081B0443F0BB
:10A5D000010310491846FFF74FFB0F4B1B6803F0B0
:10A5E0000103002B00D000BE084A094BD31ADB0838
:10A5F0001B0443F0020309491846FFF73DFBFFF730
:10A60000C1FF00BF05B05DF804FB00BF9CAB0200BA
:10A6100064AB020044AD0200F0ED00E050AD02007A
:10A6200084B00190019B9B680393019BDA68039BB4
:10A63000D31A184604B0704782B001900B468DF8CB
:10A640000330019B1A68019BDB68019989880B40E4
:10A6500013449DF803201A70019BDB685A1C019B70
:10A66000DA6000BF02B0704784B003900B460192DD
:10A67000ADF80A30039B1A68039B9968BDF80A304D
:10A680000B44039989880B4013441A78019B1A7074
:10A6900000BF04B0704700B583B001900091009AEC
:10A6A00000210198FFF7E0FF019B9B685A1C019B6A
:10A6B0009A6000BF03B05DF804FB00B583B0019061
:10A6C0000B468DF803300198FFF7AAFF0246019B65
:10A6D0009B889A4207D89DF8033019460198FFF7E6
:10A6E000ABFF002300E00423184603B05DF804FB31
:10A6F00000B583B0019000910198FFF791FF0346E8
:10A70000002B05D000990198FFF7C5FF002300E05A
:10A710000523184603B05DF804FB000082B0034631
:10A720008DF807309DF8073003F01F0205499DF9A9
:10A7300007305B09012000FA02F241F8232000BF34
:10A7400002B0704700E100E082B003468DF80730A8
:10A750009DF8073003F01F0206499DF907305B0999
:10A76000012000FA02F2203341F8232000BF02B09A
:10A77000704700BF00E100E082B003468DF807306B
:10A780009DF8073003F01F0206499DF907305B0969
:10A79000012000FA02F2403341F8232000BF02B04A
:10A7A000704700BF00E100E082B003468DF807303B
:10A7B0009DF8073003F01F0206499DF907305B0939
:10A7C000012000FA02F2603341F8232000BF02B0FA
:10A7D000704700BF00E100E082B0034600918DF8B1
:10A7E00007309DF90730002B0CDA009BDAB20C49D8
:10A7F0009DF8073003F00F03043B5201D2B20B4423
:10A800001A7609E0009BDAB206499DF90730520139
:10A81000D2B20B4483F8002300BF02B0704700BFE0
:10A8200000ED00E000E100E000B585B00190019B83
:10A83000002B0AD0074B43F001030393019B9B01BC
:10A840000293039B0298984700E000BF05B05DF8B3
:10A8500004FB00BF60AD020000B583B00190064A62
:10A86000019BC2F8083506211120FFF7B5FF00BF94
:10A8700003B05DF804FB00BF0010014008B50D4BAC
:10A880004FF48032C3F844230A4B4FF48032C3F8AC
:10A8900004231120FFF788FF1120FFF73FFF054B2E
:10A8A00001221A602F20FFF7BFFF034B01221A700D
:10A8B00000BF08BD001001409E2C002008B51120EB
:10A8C000FFF742FF0E4B4FF48032C3F848230C4B86
:10A8D0004FF48032C3F80823094B01225A602F201D
:10A8E000FFF7A2FF064B01229A60064B00221A6076
:10A8F0002F20FFF799FF044B00221A7000BF08BDFC
:10A9000000100140902C00209E2C0020024BD3F818
:10A9100004351846704700BF0010014082B0019016
:10A920000091019A009BD31A23F07F43184602B08E
:10A930007047000082B00190034A019BC2F8403585
:10A9400000BF02B0704700BF0010014086B0019008
:10A95000284B1B68002B03D1264A019B136045E05E
:10A96000019B1A68234B1B681B689A4210D8214B25
:10A970001B681968019B1A681E4B1B688A1A1A60AB
:10A980001C4B1A68019BDA611A4A019B13602DE087
:10A99000019B1B680393174B1B680593154B1B68A2
:10A9A000049309E0049B1B68039AD31A0393049B46
:10A9B0000593049BDB690493049B002B04D0049B48
:10A9C0001B68039A9A42EDD8049B002B05D0049B88
:10A9D0001A68039BD21A049B1A60019B039A1A609F
:10A9E000019B049ADA61059B019ADA6100BF06B007
:10A9F000704700BF8C2C002000B587B001902A4B17
:10AA00001B680393284B1B680593059B049308E080
:10AA1000049A019B9A4208D0049B0593049BDB692E
:10AA20000493049B002BF3D100E000BF049B002B98
:10AA300001D1002333E0059A049B9A4214D11A4BAA
:10AA40001B68DB69184A1360174B1B68002B0BD17E
:10AA5000164B01229A60164B00221A60154B0122F8
:10AA60001A702F20FFF7E0FE049B1B680293049BE3
:10AA7000DA69059BDA61059BDB690493049B002B73
:10AA800005D0049B1A68029B1A44049B1A60064B6B
:10AA90001B68039A9A4214BF01230023DBB21846B5
:10AAA00007B05DF804FB00BF8C2C002000100140B3
:10AAB000902C00209F2C002008B51120FFF75CFE91
:10AAC00000BF08BD08B51420FFF756FE00BF08BD43
:10AAD00000B583B00190019B5B69019A92691046B1
:10AAE000984700BF03B05DF804FB000000B585B0D7
:10AAF0002B4B1B68002B4ED000230193FFF706FF62
:10AB00000246284B1B6819461046FFF707FF0290C4
:10AB1000234B1B6803931DE0039B1B68029A9A4218
:10AB20001CD3039B1B68029AD31A0293039B1B68D6
:10AB3000019A13440193039B0093039BDB690393E6
:10AB4000009B1B7C002B05D0009B00221A740098F0
:10AB5000FFF7BEFF039B002BDED100E000BF124BCE
:10AB60001A78124B1B789A420CD1104B1B78013388
:10AB7000DAB20E4B1A700D4B1B78022B02D10B4B25
:10AB800000221A70094B1B781946094A019B42F8AA
:10AB90002130FFF797FF00BF05B05DF804FB00BF51
:10ABA0008C2C0020902C00209C2C00209D2C002020
:10ABB000942C002082B00190184B1A78184B1B7807
:10ABC0009A4223D0154B1B780133DAB2134B1A701B
:10ABD000124B1B78022B02D1104B00221A700F4B24
:10ABE0001B781A460F4B53F82220019B1A60019BD9
:10ABF0001A680D4B1B6813440B4A13600A4B1B6801
:10AC000023F07F43084A1360012303E0019B0022E5
:10AC10001A600023184602B0704700BF9C2C002029
:10AC20009D2C0020942C0020902C002088B00390B4
:10AC3000029101920023079338E0204B1B68069392
:10AC4000069B1B68039A9A4206D2069B1A68039BCE
:10AC5000D21A069B1A602DE0069B1B68039AD31A32
:10AC60000393069B1B68079A13440793069B0022D5
:10AC70001A60124B1B680593069BDB690F4A136031
:10AC8000069BDB68002B11D0029A079B134423F02C
:10AC90007F42069B5A60069BDA68069B9A60019B7E
:10ACA0001A68069BDA61019B059A1A60034B1B68C0
:10ACB000002BC2D100BF08B0704700BF8C2C002011
:10ACC00000B589B0019000238DF81F30664B1B68DA
:10ACD0000593AAE0019B002B05D0019B0693069BE0
:10ACE000DB69019361E0614B1B781A4613465B00F8
:10ACF0001344DB005D4A1344043304935B4B1B781D
:10AD00000133DAB2594B1A70584B1A78574B9B786B
:10AD10009A4202D1554B00221A70049B5B6806933D
:10AD2000049B1B78022B04D0032B1BD0012B1FD0BC
:10AD30001DE0049B5B681846FFF75EFE0346002B90
:10AD400002D001238DF81F30069B00221A746CE09C
:10AD5000454B1B680393039B00221A74039BDB691A
:10AD6000414A1360404B1B68002BF1D15DE05CE071
:10AD700000BF069B1B7C002B00D056E0049B9A680A
:10AD8000069B5A60049BDA68069B9A60049B1A69CA
:10AD9000069BDA60049B5A69069B9A61344B1B78C8
:10ADA000002B02D0069B00225A60069B5A68314B4A
:10ADB0001B68D31A23F07F432F4A93420ED8069B79
:10ADC0005A682C4B1B6819461046FFF7A7FD024630
:10ADD000069B9B681A44069B1A6017E0254B1A686D
:10ADE000069B5B6819461046FFF798FD0290069B8C
:10ADF0009B68029A9A4206D2069B9A68029BD21AD4
:10AE0000069B1A6002E0069B00221A60069B002245
:10AE10005A60069B00229A60069B01221A74069BC8
:10AE20000022DA610698FFF791FD019B002B7FF469
:10AE300051AF0E4B1A780D4B5B789A427FF44AAFB4
:10AE40009DF81F30002B04D1074B1B68059A9A42CE
:10AE500001D0012300E0002303F00103DBB2184618
:10AE600009B05DF804FB00BF8C2C0020802B002073
:10AE70009F2C0020902C0020FEFF7F0010B588B092
:10AE80000190274B1B68002B44D0254B1B681B6887
:10AE90000793FFF73BFD0690224B1B68059305992E
:10AEA0000698FFF73BFD0346033304931E4B1B78C4
:10AEB00083F00103DBB2002B01D0FFF7DFFC049A23
:10AEC000079B934238BF1346059A13440593059B8D
:10AED00023F07F4305930598FFF72CFDFFF716FD40
:10AEE000039006990398FFF719FD0346DC1C0699A9
:10AEF0000598FFF713FD03469C420DD9FFF706FDA9
:10AF000003461846FFF716FD2F20FFF78DFCFFF7CD
:10AF1000D3FD01E0FFF7D2FC00BF08B010BD00BFB9
:10AF20008C2C0020902C00209E2C002000B587B097
:10AF30000023019300238DF81730194B1B680493ED
:10AF4000184B1B6803936B461846FFF733FE034606
:10AF50008DF80B309DF80B30002B08D0009B01AA18
:10AF600004991846FFF762FE01238DF81730019B04
:10AF70001846FFF7A5FE0346002B02D001238DF8EB
:10AF800017309DF81730002B02D00398FFF776FF9B
:10AF9000054B00221A7000BF07B05DF804FB00BF2C
:10AFA000902C00208C2C00209F2C002082B0034687
:10AFB0008DF80730034A9DF80730537000BF02B088
:10AFC000704700BF802B002084B00190144B5B7849
:10AFD00001338DF80F30124B9B789DF80F209A4269
:10AFE00002D100238DF80F300D4B1B789DF80F20F8
:10AFF0009A4201D100230FE0019B9DF80F201A70A7
:10B00000074B5B781A4613465B001344DB00044A87
:10B01000134404330293029B184604B0704700BFE8
:10B02000802B002000B589B003900291019200931B
:10B030000023079300238DF816300DF116031846F0
:10B0400000F018FA0DF117031846FFF7BDFF069040
:10B05000069B002B02D10423079318E0069B0122D4
:10B060001A70069B039A5A60FFF750FC0246069B33
:10B070009A60069B029ADA60069B019A1A61069B07
:10B08000009A5A619DF817301846FFF78FFF9DF818
:10B090001630184600F0F8F9079B002B01D1FFF796
:10B0A00011FD079B184609B05DF804FB00B587B099
:10B0B00001900B468DF803300023059300238DF893
:10B0C0000E300DF10E03184600F0D4F90DF10F0308
:10B0D0001846FFF779FF0490049B002B02D104234C
:10B0E00005930BE0049B9DF803201A70049B019AC2
:10B0F0005A609DF80F301846FFF758FF9DF80E3044
:10B10000184600F0C1F9059B002B01D1FFF7DAFCCE
:10B11000059B184607B05DF804FB000008B50E4B10
:10B120000022C3F840210C4B0022C3F844210A4BF3
:10B130000022C3F84821084B0022C3F84C21064BDB
:10B140000022C3F80021044B0022C3F80421FFF7BA
:10B15000CDFC00BF08BD00BF0010014008B5FFF7DF
:10B16000E5FE00BF08BD000008B5FFF7A7FB134BC5
:10B1700000221A70114B00225A70104B0B229A7049
:10B180000F4B00221A600F4B00221A700E4B002248
:10B190001A701420FFF708FB06211420FFF71CFB90
:10B1A0001420FFF7BBFA0020FFF756FBFFF7AEFBBA
:10B1B0000246064B1A600023184608BD802B00206B
:10B1C0008C2C00209C2C00209D2C0020902C0020FA
:10B1D00086B003900B4601928DF80B30134B9B7891
:10B1E000002B01D108231EE0019B002B01D1072376
:10B1F00019E0039B002B01D1072314E0039B1B687C
:10B200001B7C002B01D008230DE0039B1B680593DA
:10B21000059B00221A74059B9DF80B205A74059B10
:10B22000019A5A610023184606B07047802B00200F
:10B2300000B587B0039002910192039B0593144BD4
:10B240009B78002B01D108231EE0039B002B01D12A
:10B25000082319E0029B042B01D8072314E0059B67
:10B260005B69002B01D108230EE0059B5B7C012B61
:10B2700001D1029B00E000230493019B049A0299F0
:10B280000598FFF7CFFE0346184607B05DF804FBAC
:10B29000802B002000B585B00190019B03930D4BDE
:10B2A0009B78002B01D1082310E0019B002B03D0D9
:10B2B000039B5B69002B01D1082307E0039B00225D
:10B2C0001A7402210398FFF7F1FE0346184605B0F1
:10B2D0005DF804FB802B002000B587B0039002913D
:10B2E00013468DF8073000230593039B04339DF824
:10B2F00007200299184603F00DF90590059B1846A2
:10B3000007B05DF804FB00B585B0019000238DF80F
:10B310000F30019B0433184603F07EF903468DF885
:10B320000F309DF80F30184605B05DF804FB0000A3
:10B3300000B585B003468DF807309DF807301946F3
:10B340001048FFF7BAF90390039B002B15D10E4864
:10B35000FFF7D9FF034683F00103DBB2002B0CD0CB
:10B360000A490848FFF7C4F90346002B05D101221A
:10B3700006490548FFF7B0FF0390039B184605B048
:10B380005DF804FBA42C002054250020A02C0020F4
:10B3900082B0EFF310830093009B019372B6019B80
:10B3A000184602B0704762B600BF704700B585B05E
:10B3B0000190FFF7EDFF0390164B9B68002B1BD10C
:10B3C000144B01229A60144BD3F88020134B134086
:10B3D000104A1360104B114AC3F880200E4BD3F86B
:10B3E00084300C4A53600C4B4FF0FF32C3F884207A
:10B3F000019B00221A7002E0019B01221A70039B3C
:10B40000002B01D1FFF7CFFF0023184605B05DF8F0
:10B4100004FB00BFB42C002000E100E0FC06FFBDEF
:10B4200000B585B003468DF80730104B9B68002BA4
:10B4300016D09DF80730002B12D1FFF7A9FF03901B
:10B440000B4A0A4B1B681360094A084B5B68536040
:10B45000064B00229A60039B002B01D1FFF7A3FF4C
:10B460000023184605B05DF804FB00BFB42C002093
:10B4700000E100E000B583B001900198FFF796FF6E
:10B4800000BF03B05DF804FB00B583B003468DF840
:10B4900007309DF807301846FFF7C2FF00BF03B022
:10B4A0005DF804FB86B001900091019B53E8011FF9
:10B4B0008AB2D88902449889824228BF121A188910
:10B4C000824202BFBFF32F8F002307E0C2EA0102CE
:10B4D00043E801200028E9D14FF001038DF80F3037
:10B4E000059002910492029A009B1A609DF80F3019
:10B4F000DBB2184606B0704784B00190019951E85C
:10B50000013FC3EA034341E80132002AF7D1039225
:10B51000029300BF04B0704786B001900091019B78
:10B5200053E8021F1FFAA1F2D888824202BFBFF37C
:10B530002F8F00230DE0D88902449889824228BFCA
:10B54000121AC1EA024243E802200028E8D14FF073
:10B5500001038DF80F30059002910492029A009B2E
:10B560001A609DF80F30DBB2184606B0704784B001
:10B570000190019951E8023FC3EA234341E80232B6
:10B58000002AF7D10392029300BF04B0704700B5C0
:10B5900085B001900091009B19460198FFF782FF4A
:10B5A0000346002B07D0019B1B68009A12881344A6
:10B5B0000393039B00E00023184605B05DF804FBED
:10B5C00000B583B001900091009B1A88009B5B88B6
:10B5D0009A4204D10198FFF78FFF012300E0002376
:10B5E000184603B05DF804FB00B585B001900091EA
:10B5F000009B19460198FFF78FFF0346002B07D0E9
:10B60000019B1B68009A528813440393039B00E03C
:10B610000023184605B05DF804FB00B583B0019027
:10B620000091009B1A88009B5B889A4204D1019884
:10B63000FFF79DFF012300E00023184603B05DF8EB
:10B6400004FB00B585B001900091009B5B099B0055
:10B65000019AD018009B03F01F03012202FA03F3A2
:10B66000194600F0D4F8039000BF05B05DF804FB64
:10B6700000B583B001900091009B5B099B00019A8B
:10B68000D018009B03F01F03012202FA03F31946AE
:10B6900000F0A6F80246009B03F01F0322FA03F312
:10B6A00003F00103002B14BF01230023DBB2184673
:10B6B00003B05DF804FB00B585B001900091009BDC
:10B6C0005B099B00019AD018009B03F01F03012225
:10B6D00002FA03F3DB43194600F0C7F8039000BFFA
:10B6E00005B05DF804FB82B001900091009B5B09FE
:10B6F0009B00019A13441A68009B03F01F0322FA6F
:10B7000003F303F00103002B14BF01230023DBB27A
:10B71000184602B0704700B58BB00190009100232D
:10B7200009933BE0099B9B00019A13441B68DB4390
:10B730000693069B93FAA3F30593059BB3FA83F351
:10B74000089323E0099B5B01089A13440793079A27
:10B75000009B9A421ED207990198FFF789FF034682
:10B7600083F00103DBB2002B01D0079B1EE0099B95
:10B770009B00019A13441B68DB430493049B93FAD8
:10B78000A3F30393039BB3FA83F30893089B1F2B44
:10B79000D8D900E000BF099B01330993009B013B0E
:10B7A0005B090133099A9A42BCD3009B18460BB03F
:10B7B0005DF804FB10B487B001900091019B009AE2
:10B7C00053E8004F104643E8000191F0000FF7D115
:10B7D000059404900391059B184607B010BC704770
:10B7E00010B487B001900091019B009A53E8004F7C
:10B7F00044EA020043E8000191F0000FF6D10594FD
:10B8000004900391059B184607B010BC704710B414
:10B8100087B001900091019B009A53E8004F44EAE1
:10B82000020043E8000191F0000FF6D10594049066
:10B830000391049B184607B010BC704710B487B042
:10B8400001900091019B009A53E8004F04EA020026
:10B8500043E8000191F0000FF6D1059404900391A4
:10B86000059B184607B010BC704710B487B0019014
:10B870000091019B009A53E8004F04EA020043E85C
:10B88000000191F0000FF6D1059404900391049B00
:10B89000184607B010BC704710B487B001900091F3
:10B8A000019B009A53E8004F04EB020043E80001BB
:10B8B00091F0000FF6D1059404900391059B184672
:10B8C00007B010BC704710B487B001900091019B85
:10B8D000009A53E8004F04EB020043E8000191F0A6
:10B8E000000FF6D1059404900391049B184607B00D
:10B8F00010BC704710B487B001900091019B009A72
:10B9000053E8004FA4EB020043E8000191F0000F60
:10B91000F6D1059404900391049B184607B010BC1F
:10B92000704700B583B0019001210198FFF76FFFC8
:10B930000346184603B05DF804FB00B583B00190E0
:10B9400000210198FFF77AFF0346184603B05DF81F
:10B9500004FB82B001900B468DF80330019BDA683E
:10B960009DF803300199098A01FB03F3134418463B
:10B9700002B0704782B001900091009B019AD2689A
:10B980009B1A019A128AB3FBF2F3DBB2184602B09B
:10B99000704784B00190019B002B01D10E2320E061
:10B9A000019B9A68019B5B68D31A8DF80F30019B4D
:10B9B0001B68019A52681A6007E0019B1A681368B5
:10B9C000591C11609DF80F201A709DF80F305A1EF7
:10B9D0008DF80F20002BF0D1019B1B6800221A71FB
:10B9E0000023184604B0704700B585B001900023CD
:10B9F000039300238DF80A300DF10A031846FFF770
:10BA000039FD019B1B681A68019B5B689A421FD92C
:10BA1000019B1B681A68013A1A601B681B7819465B
:10BA20000198FFF796FF0390019B9A68019B1B68A2
:10BA30001B68D31A8DF80B30019B1B681B799DF88E
:10BA40000B209A4204D9019B1B689DF80B201A71A8
:10BA50009DF80A301846FFF717FD039B184605B0FE
:10BA60005DF804FB10B584B001900091009B039336
:10BA700000238DF80B300DF10B031846FFF7FAFC8D
:10BA8000019B1B681C68621C1A6003990198FFF7F0
:10BA900071FF034623709DF80B301846FFF7F4FC46
:10BAA00000BF04B010BD00B583B00190019B9B683E
:10BAB000002B0CD0019B5B69019A1069019A1168F7
:10BAC000019A92689847019B00229A6000E000BFAB
:10BAD00003B05DF804FB0EB400B584B00190059B83
:10BAE000002B0AD00023039306AB039303AB1A4643
:10BAF0000599019800F0ACF900E000BF04B05DF8D2
:10BB000004EB03B0704700B583B001900B468DF88D
:10BB10000330019B1A68019B9B68581C019988603F
:10BB200013449DF803201A70019B9A68019B5B687F
:10BB30009A4202D30198FFF7B6FF00BF03B05DF849
:10BB400004FB00B587B0039002910192009300239B
:10BB50000593009B03F00103002B24D00BE0029B14
:10BB600001330293059B013305939DF81330194669
:10BB70000398FFF7C8FF029B1B788DF813309DF8E0
:10BB80001330002BEBD106E0019B013B01932021F8
:10BB90000398FFF7B8FF019A059B9A422ED9019BA3
:10BBA000002BF1D12AE0029B002B0BD002980EF063
:10BBB0005BFF059006E0019B013B01932021039868
:10BBC000FFF7A1FF019A059B9A420FD9019B002B19
:10BBD000F1D10BE0029B01330293059B01330593E6
:10BBE0009DF8133019460398FFF78DFF029B1B78D1
:10BBF0008DF813309DF81330002BEBD100BF07B048
:10BC00005DF804FB00B589B00390029101920093A6
:10BC1000029B07930123069307E0079A019BB2FB5F
:10BC2000F3F30793069B01330693079A019B9A420D
:10BC3000F3D2009A069B9A4201D9009B06930B9B74
:10BC400003F00103002B22D10A9B002B1FD00B9B7A
:10BC500003F00203002B06D0009B002B03D13023FE
:10BC60008DF8173002E020238DF8173008E00A9B8A
:10BC7000013B0A939DF8173019460398FFF743FFDD
:10BC80000A9B002B03D0069A0A9B9A42EFD301230A
:10BC90000793009B012B03D9009B013B009309E014
:10BCA000029A079BB2FBF3F30493049A019B9A4216
:10BCB00000D205E0079B019A02FB03F30793E8E734
:10BCC000029A079BB2FBF3F30493049B079A02FBCF
:10BCD00003F3029AD31A0293154A049B13441B7868
:10BCE00019460398FFF70FFF079A019BB2FBF3F386
:10BCF0000793079B002BE3D10B9B03F00103002B61
:10BD000011D00A9B002B0ED006E00A9B013B0A9340
:10BD100020210398FFF7F7FE0A9B002B03D0069A19
:10BD20000A9B9A42F1D300BF09B05DF804FB00BF43
:10BD300068AD020000B589B00590049103920293AA
:10BD4000049B002BB8BF5B4206930123079307E0D7
:10BD5000039B069A92FBF3F30693079B0133079329
:10BD6000039B069A9A42F3DA029A079B9A4201D9F8
:10BD7000029B07930A9B002B0AD0049B002B04DB39
:10BD80000B9B03F00403002B02D00A9B013B0A9398
:10BD90000B9B03F00203002B02D0029B002B16D05A
:10BDA0000B9B03F00103002B11D10A9B002B0ED03B
:10BDB00006E00A9B013B0A9320210598FFF7A3FEAA
:10BDC0000A9B002B03D0079A0A9B9A42F1D3049B4B
:10BDD000002B07DA049B5B4204932D210598FFF7A3
:10BDE00092FE08E00B9B03F00403002B03D02B21F1
:10BDF0000598FFF788FE0B9B03F00203002B19D078
:10BE00000B9B03F00103002B14D1029B002B11D1DB
:10BE10000A9B002B0ED006E00A9B013B0A933021BF
:10BE20000598FFF770FE0A9B002B03D0079A0A9B28
:10BE30009A42F1D304990B9B01930A9B0093029BB6
:10BE4000039A0598FFF7DEFE00BF09B05DF804FB1A
:10BE500000B58FB0059004910392049B002B00F075
:10BE6000E981049B1B788DF83730049B01330493E0
:10BE70009DF83730002B00F0D4819DF83730252B0A
:10BE800040F0C38100230A9301230C93049B1B7889
:10BE90008DF837309DF837302D2B04D0302B0AD059
:10BEA0002B2B10D017E00A9B43F001030A93049B4D
:10BEB0000133049312E00A9B43F002030A93049BAC
:10BEC000013304930AE00A9B43F004030A93049BA2
:10BED0000133049302E000230C9300BF0C9B002B62
:10BEE000D4D1002309939DF837302A2B0CD1039B22
:10BEF0001B68191D039A11601B68099A1344099362
:10BF0000049B013304931AE0049B1B788DF83730AF
:10BF10009DF837302F2B12D99DF83730392B0ED89A
:10BF2000049B01330493099A13469B0013445B005E
:10BF30001A469DF837301344303B0993D3E700236A
:10BF40000B93049B1B788DF837309DF837302E2BE0
:10BF50001DD1049B01330493049B1B788DF837306B
:10BF60009DF837302F2B12D99DF83730392B0ED84A
:10BF7000049B013304930B9A13469B0013445B000C
:10BF80001A469DF837301344303B0B93E4E7049B8B
:10BF90001B788DF837309DF837306C2B03D09DF827
:10BFA0003730682B07D1049B01330493049B1B7823
:10BFB0008DF83730EFE79DF83730253B532B00F2F3
:10BFC0001F8101A252F823F0F7C1010001C2010054
:10BFD00001C2010001C2010001C2010001C2010051
:10BFE00001C2010001C2010001C2010001C2010041
:10BFF00001C2010001C2010001C2010001C2010031
:10C0000001C2010001C2010001C2010001C2010020
:10C0100001C2010001C2010001C2010001C2010010
:10C0200001C2010001C2010001C2010001C2010000
:10C0300001C2010001C2010001C2010001C20100F0
:10C0400001C2010001C2010001C2010001C20100E0
:10C0500001C2010001C2010001C2010001C20100D0
:10C0600001C2010001C2010001C2010001C20100C0
:10C0700001C2010001C2010001C2010001C20100B0
:10C0800001C2010001C2010001C2010001C20100A0
:10C0900001C2010083C1010001C2010001C201000F
:10C0A00001C2010001C2010001C2010001C2010080
:10C0B00001C2010001C2010001C2010001C2010070
:10C0C00019C101003BC1010001C2010001C2010010
:10C0D00001C2010001C201003BC1010001C2010017
:10C0E00001C2010001C2010001C2010001C2010040
:10C0F00001C20100C3C1010001C2010001C201006F
:10C10000A7C1010001C201005FC1010001C201001D
:10C1100001C2010083C10100039B1B68191D039A22
:10C1200011601B680C930C9B8DF823309DF8233015
:10C1300019460598FFF7E7FC63E0039B1B68191D90
:10C14000039A11601B680C930A9B0193099B00934F
:10C150000B9B0A220C990598FFF7ECFD51E0039B1D
:10C160001B68191D039A11601B680C930C990A9B9C
:10C170000193099B00930B9B0A220598FFF742FD50
:10C180003FE0039B1B68191D039A11601B680C9309
:10C190000C990A9B0193099B00930B9B1022059815
:10C1A000FFF730FD2DE0039B1B68191D039A1160FA
:10C1B0001B6807930A9B099A07990598FFF7C1FC2A
:10C1C0001FE0039B1B68191D039A11601B680C93E9
:10C1D00030210598FFF797FC78210598FFF793FC2D
:10C1E0000C9900230193082300930823102205983B
:10C1F000FFF708FD05E025210598FFF784FC00E026
:10C2000000BF049B0133049305E09DF837301946C5
:10C210000598FFF778FC049B1B78002B7FF421AE78
:10C2200000E000BF059B1B7B002B04D00598FFF7A7
:10C230003AFC00E000BF0FB05DF804FB00B583B02E
:10C2400001900198FFF7A5FB0346184603B05DF87F
:10C2500004FB00B58BB001900091019B1B8A043B4D
:10C260000793009A079B1344DA1C079BB2FBF3F376
:10C270008DF81B300198FFF7B7FB0590059B002B4D
:10C2800001D1002338E0059B00221A71059B012291
:10C290005A71079B9AB2059BDA80059B09939DF81A
:10C2A0001B30013B0493099B019A1A6000230893F9
:10C2B0001DE00198FFF798FB0390039B002B0ED025
:10C2C000059B5B790133DAB2059B5A71099B039A8E
:10C2D0001A60039B019A1A60039B099304E0059876
:10C2E00000F00EF8002307E0089B01330893089A3A
:10C2F000049B9A42DDD3059B18460BB05DF804FB06
:10C3000000B58BB00190019B0793079B5B798DF87B
:10C310001B30019B08939DF81B30013B05930023C4
:10C32000099305E0089B1B680893099B0133099357
:10C33000099A059B9A42F5D3089B1B680493019BBD
:10C340000893002309930BE0089B1B68039308994B
:10C350000498FFF787FB039B0893099B013309931C
:10C360009DF81B30099A9A42EED300BF0BB05DF8DE
:10C3700004FB00B585B00190019B0393039B04333C
:10C3800001211846FFF79FFA00BF05B05DF804FBD6
:10C3900000B587B00190019B0593059B04330121F3
:10C3A0001846FFF7A7FA0346039303AB0493049BD5
:10C3B0001B78002B02D10198FFF7A2FF00BF07B046
:10C3C0005DF804FB00B591B00390029101920093D7
:10C3D000039B0993039B0F93099BDB881A46099BD8
:10C3E0005B7903FB02F3043B0893099BDB8807930B
:10C3F000009B1A1D079BB2FBF3F30E93009B0433C3
:10C40000079AB3FBF2F2079901FB02F29B1A0D9314
:10C41000019B1A68009B1344089A9A4203D2089A17
:10C42000009BD31A01E0019B1B680C93019B0C9AA3
:10C430001A6005E00F9B1B680F930E9B013B0E9348
:10C440000E9B002BF6D100230B93079A0D9BD31A5A
:10C450000A930A9A0C9B934228BF13460A932AE038
:10C46000029A0B9B134406930F9A0D9B13440433BB
:10C4700005939DF84830002B05D00A9A0599069837
:10C480000EF074FA04E00A9A069905980EF06EFA16
:10C4900000230D930F9B1B680F930C9A0A9BD31AD2
:10C4A0000C930B9A0A9B13440B93079A0C9B934291
:10C4B00028BF13460A930C9B002BD1D100BF11B0AB
:10C4C0005DF804FB00B589B00590049103920293D6
:10C4D000039B079307AA00230093029B04990598E6
:10C4E000FFF770FF00BF09B05DF804FB00B589B02D
:10C4F0000590049103920293039B079307AA0123DB
:10C500000093029B04990598FFF75CFF00BF09B0F8
:10C510005DF804FB82B00190019B00221A60BFF31A
:10C520005F8F00BF02B0704741DF704700BF184601
:10C5300008B5064B00221A700548FFF7EBFF0549C6
:10C54000054800F03AF80023184608BDC42C002026
:10C55000C02C002084AD0200C82C002000B583B0A0
:10C560000CF09CFC0346002B03D0FFF7DDFF01908D
:10C5700002E020BF40BF20BF00BF03B05DF804FB56
:10C5800082B00190019B9B6800229A60019B9B688E
:10C5900000221A61019B9B6800225A61019B9B68E3
:10C5A0000022DA60019B9B6800225A60019B9B6815
:10C5B00000221A6000BF02B0704782B00190009163
:10C5C000019B009A1A60019B1B681A68019B5A60C4
:10C5D000019B5A68019B1B685B689A4202D1019BD0
:10C5E00000225A6000BF02B0704782B00190019BE8
:10C5F0005B68002B14D0019B5B681A46019B1B688B
:10C600009B6813441A46019B5A60019B5A68019B20
:10C610001B685B689A4204D1019B00225A6000E0CB
:10C6200000BF02B07047000000B585B001900198CE
:10C6300000F00EF80390039B002B01D0039B00E059
:10C64000024B184605B05DF804FB00BF90AD020038
:10C6500086B00190164B0593164B04931FE0049A85
:10C66000059BD31ADB10DA0F13445B10DB00059A2D
:10C6700013440393039B1B680293029A019B9A4203
:10C6800002D9039B04930AE0029A019B9A4203D2C7
:10C69000039B0833059302E0039B5B6804E0059A63
:10C6A000049B9A42DBD30023184606B0704700BFB4
:10C6B00090B10200B8B2020029DF704700BF1846EF
:10C6C00028DF704700BF184600B589B0019000917F
:10C6D000019B1B689B68002B35D002AB00221A60BF
:10C6E0005A609A60DA601A615A61009B0393019B59
:10C6F0009B680793019B1B79002B02D0012B0DD067
:10C700001AE001238DF80830019B1B690493019BFB
:10C71000DB680593019B5B6906930DE002238DF8AE
:10C720000830019BDB684FF4805202FB03F3049353
:10C73000019B5B69069300BF019B1B689B6802AA73
:10C740001046984700E000BF09B05DF804FB00B553
:10C7500087B00190019B5A69019B9B69D31AB3F57D
:10C76000805F28BF4FF4805305930422059BB3FBE1
:10C77000F2F3012B38BF01230593019B1A69019B3A
:10C780009B6913440493019BDB681A46019B9B69D8
:10C7900013440393059A03990498FFF78DFF03460A
:10C7A000184607B05DF804FB00B583B00190019B0B
:10C7B000DA68019B1B6913441846FFF781FF0346A3
:10C7C000184603B05DF804FB08B5034B034918464F
:10C7D000FEF723FF00BF08BDD02C0020F82C00205E
:10C7E00008B5084B08491846FEF7FEFE0246074BFF
:10C7F0001A60064B1B68002B14BF01230023DBB219
:10C80000184608BDD02C0020F82C0020F42C002065
:10C8100000B583B02B4B1B7A002B0BD1FFF7E0FF49
:10C82000034683F00103DBB2002B03D0254B00222B
:10C830005A6043E0234B02221A72234B1B681B7978
:10C84000002B02D0012B07D00DE01F4B1B681846B0
:10C85000FFF77DFF019009E01B4B1B681846FFF7AF
:10C86000A3FF019002E00323019300BF019B002B73
:10C8700003D0019B112B0CD00FE0124B1B7C83F0DB
:10C880000103DBB2002B18D00021022000F070F869
:10C8900013E00C4B01221A7210E00B4B1B680321B2
:10C8A0001846FFF711FF074B00221A72054B0022B2
:10C8B0005A60FFF789FF00BF00E000BF03B05DF8DA
:10C8C00004FB00BFE02C0020F42C002084B0019079
:10C8D0001B4B0022DA60019B1B79002B02D0012B3D
:10C8E00019D028E0019B5A69019B9B69D31AB3F5C3
:10C8F000805F28BF4FF480530393019B9A69039B89
:10C900001A44019B9A61019B9A69019B5B699A4257
:10C910000ED1012310E0019B1B695A1C019B1A6177
:10C92000019B1A69019B5B699A4203D1012303E0D1
:10C9300000BF00E000BF0023184604B0704700BFEE
:10C94000E02C002082B00190084BDB680133074ADD
:10C95000D360064BDB68082B04D9044B0022DA6055
:10C96000012300E00023184602B07047E02C0020AD
:10C9700000B585B001900091019B022B02D0019B74
:10C98000032B4AD1274B1B7A012B36D0022B02D026
:10C99000002B35D142E000238DF80F30019B022B94
:10C9A00003D0019B032B09D011E01F4B1B681846D5
:10C9B000FFF78CFF03468DF80F3008E01A4B1B6819
:10C9C0001846FFF7BFFF03468DF80F3000BF9DF8F4
:10C9D0000F30002B13D0134B00221A72124B1A681F
:10C9E000019B022B01D1002300E00D2319461046C4
:10C9F000FFF76AFEFFF7E8FE01E000BF00E000BFBE
:10CA0000084B5B7C83F00103DBB2002B02D0FFF705
:10CA1000FFFE03E00CF026FA00E000BF05B05DF871
:10CA200004FB00BFE02C0020F42C002082B0034661
:10CA300000918DF80730064B01225A74044B1B7A83
:10CA4000002B0CBF01230023DBB2184602B0704755
:10CA5000E02C002000B583B0034600918DF807302C
:10CA60009DF80730012B03D09DF80730032B0DD123
:10CA7000084B00225A749DF80730012B0CBF01238C
:10CA80000023DAB2034B1A74FFF7C2FE00BF03B0F3
:10CA90005DF804FBE02C0020BFF34F8F054BDB68F3
:10CAA00003F4E0620349044B1343CB60BFF34F8FA1
:10CAB00000BFFDE700ED00E00400FA05024B034A69
:10CAC0001A6000BF704700BF602500200090D003AF
:10CAD00008B500F065F90346002B06D09E4B1B6895
:10CAE0001B0A9E4A03F01F03136000F085F90346FA
:10CAF000002B02D09A4B9B4A1A6000F099F903462A
:10CB0000002B06D0984B1B685B0B984A03F0070379
:10CB1000136000F0C7F90346002B05D0944BDB6887
:10CB2000934A23F08073D36000F0D8F90346002BBA
:10CB30000ED04FF080430022C3F80C214FF0804309
:10CB40000022C3F810214FF080430022C3F838259B
:10CB500000F0FEF90346002B02D0864B03221A6038
:10CB600000F012FA0346002B0BD0834B05221A600B
:10CB7000824B01221A60824B00221A60814B3F22B5
:10CB80001A6000F01DFA0346002B76D04FF0805358
:10CB90007D4AD3F80434C2F820354FF080537A4AE6
:10CBA000D3F80834C2F824354FF08053764AD3F8CE
:10CBB0000C34C2F828354FF08053734AD3F8103440
:10CBC000C2F82C354FF080536F4AD3F81434C2F8B2
:10CBD00030354FF080536C4AD3F81834C2F83435EE
:10CBE0004FF08053684AD3F81C34C2F840354FF0F8
:10CBF0008053654AD3F82034C2F844354FF080534F
:10CC0000614AD3F82434C2F848354FF080535E4A65
:10CC1000D3F82834C2F84C354FF080535A4AD3F831
:10CC20002C34C2F850354FF08053574AD3F8303483
:10CC3000C2F854354FF08053534AD3F83434C2F815
:10CC400060354FF08053504AD3F83834C2F8643519
:10CC50004FF080534C4AD3F83C34C2F868354FF05B
:10CC60008053494AD3F84034C2F86C354FF08053B2
:10CC7000454AD3F84434C2F8703500F0CBF9034686
:10CC8000002B03D0414BFB22C3F8182500F0D4F948
:10CC90000346002B05D03E4B1B683E4A03F04F0372
:10CCA000136000F0F5F90346002B0DD04FF08043E0
:10CCB000D3F8003403F00103002B05D04FF080437C
:10CCC0006FF00102C3F8002400F01CFA0346002BA9
:10CCD00005D0314B1B68304A43F4806313604FF03A
:10CCE0001023D3F80032002B05DB4FF01023D3F8CC
:10CCF0000432002B2BDA294B0122C3F8042500BF94
:10CD0000264BD3F80034002BFAD04FF01023152215
:10CD1000C3F8002200BF214BD3F80034002BFAD017
:10CD20004FF010231522C3F8042200BF1B4BD3F889
:10CD30000034002BFAD0194B0022C3F8042500BFA1
:10CD4000164BD3F80034002BFAD0FFF7A5FEFFF7FF
:10CD5000B5FE00BF08BD00BF2403001040350140F0
:10CD600074C007400DF0ADBA440200103C0500400D
:10CD7000F0ED00E0A005004010560040885600404D
:10CD8000185600401456004000C0004000F000401B
:10CD900058020010E40E00403C17004000E0014043
:10CDA000124B1B68DBB2062B1DD1114B1B6803F025
:10CDB0000F03002B17D10F4B1B6803F0F003302B30
:10CDC00001D1012310E00B4B1B6803F0F003402B53
:10CDD00001D1012308E0074B1B6803F0F003502B3F
:10CDE00001D1012300E0002318467047E00F00F056
:10CDF000E40F00F0E80F00F00A4B1B68DBB2062BD3
:10CE00000DD1094B1B6803F00F03002B07D1074B13
:10CE10001B6803F0F003302B01D1012300E0002355
:10CE200018467047E00F00F0E40F00F0E80F00F044
:10CE3000174B1B680A2B05D1164B1B68002B01D121
:10CE4000012323E0144B1B68DBB2062B1DD1134BCF
:10CE50001B6803F00F03002B17D1114B1B6803F065
:10CE6000F003302B01D1012310E00D4B1B6803F0C0
:10CE7000F003402B01D1012308E0094B1B6803F0AC
:10CE8000F003502B01D1012300E001231846704725
:10CE90003001001034010010E00F00F0E40F00F04A
:10CEA000E80F00F00A4B1B68DBB2062B0DD1094BD3
:10CEB0001B6803F00F03002B07D1074B1B6803F01F
:10CEC000F003302B01D1012300E000231846704706
:10CED000E00F00F0E40F00F0E80F00F0174B1B68C4
:10CEE0000A2B05D1164B1B68002B01D1012323E02F
:10CEF000144B1B68DBB2062B1DD1134B1B6803F0D0
:10CF00000F03002B17D1114B1B6803F0F003302BDC
:10CF100001D1012310E00D4B1B6803F0F003402BFF
:10CF200001D1012308E0094B1B6803F0F003502BEB
:10CF300001D1012300E001231846704730010010A1
:10CF400034010010E00F00F0E40F00F0E80F00F0F3
:10CF50000A4B1B68DBB2062B0DD1094B1B6803F093
:10CF60000F03002B07D1074B1B6803F0F003302B96
:10CF700001D1012300E0002318467047E00F00F0C4
:10CF8000E40F00F0E80F00F00A4B1B68DBB2062B41
:10CF90000DD1094B1B6803F00F03002B07D1074B82
:10CFA0001B6803F0F003302B01D1012300E00023C4
:10CFB00018467047E00F00F0E40F00F0E80F00F0B3
:10CFC0000F4B1B680A2B05D10E4B1B68002B01D1A0
:10CFD000012313E00C4B1B68DBB2062B0DD10B4B6E
:10CFE0001B6803F00F03002B07D1094B1B6803F0EC
:10CFF000F003502B01D1012300E0012318467047B4
:10D000003001001034010010E00F00F0E40F00F0D8
:10D01000E80F00F0064B1B680A2B05D1054B1B6877
:10D02000002B01D1012300E001231846704700BF07
:10D030003001001034010010124B1B68DBB2062BCC
:10D040001DD1114B1B6803F00F03002B17D10F4BA1
:10D050001B6803F0F003302B01D1012310E00B4BD0
:10D060001B6803F0F003402B01D1012308E0074BBC
:10D070001B6803F0F003502B01D1012300E00023D3
:10D0800018467047E00F00F0E40F00F0E80F00F0E2
:10D09000174B1B680A2B05D1164B1B68002B01D1BF
:10D0A000012323E0144B1B68DBB2062B1DD1134B6D
:10D0B0001B6803F00F03002B17D1114B1B6803F003
:10D0C000F003302B01D1012310E00D4B1B6803F05E
:10D0D000F003402B01D1012308E0094B1B6803F04A
:10D0E000F003502B01D1012300E0012318467047C3
:10D0F0003001001034010010E00F00F0E40F00F0E8
:10D10000E80F00F0064B1B68062B05D1054B1B688A
:10D11000062B01D1012300E000231846704700BF11
:10D12000300100103401001082B003468DF8073042
:10D130009DF8073003F01F0206499DF907305B098F
:10D14000012000FA02F2203341F8232000BF02B090
:10D15000704700BF00E100E008B500F037FA024B6D
:10D1600000229A7000BF08BDFC2C002000B583B0DF
:10D1700000230193144B1B78002B02D085230193CD
:10D180001CE0114B00229A600F4B00225A600E4B9C
:10D1900000221A610C4B0022DA600C4800F0F4F90E
:10D1A00001900BF07BFE034683F00103DBB2002B02
:10D1B00001D000F003FA044B01221A70019B1846BB
:10D1C00003B05DF804FB00BFFC2C00207DD2010001
:10D1D00084B00190019B1B680393039B002B03D039
:10D1E000039B1A68019B1A60039B184604B07047A2
:10D1F00000B583B000238DF807300DF10703184602
:10D20000FEF738F9094BDB68013B084AD360074B4E
:10D21000DB68002B01D1FFF79FFF9DF80730184610
:10D22000FEF732F900BF03B05DF804FBFC2C0020D0
:10D2300000B585B003468DF807309DF80730002B08
:10D2400002D10C4B039301E00B4B03930398FFF7C0
:10D25000BFFF0290029B002B06D0029B5B689DF8EB
:10D26000072010469847F1E700BF00BF05B05DF802
:10D2700004FB00BF042D00200C2D002000B583B05E
:10D2800003468DF807309DF80730002B05D10A4B77
:10D2900001225A700020FFF7CBFF9DF80730012BC9
:10D2A00005D1054B01229A700120FFF7C1FF00BF95
:10D2B00003B05DF804FB00BFFC2C002000B583B078
:10D2C00001900091019B002B05D1054B01225A7062
:10D2D0000020FFF7ADFF00BF03B05DF804FB00BF07
:10D2E000FC2C002000B585B0034600918DF8073076
:10D2F0009DF80730012B07D0032B24D0002B27D11A
:10D300000020FFF711FF24E000238DF80F300DF10E
:10D310000F031846FEF7AEF8104B1B7883F001039D
:10D32000DBB2002B01D0FFF721FF0C4BDB68013390
:10D330000A4AD360094B01229A709DF80F301846B3
:10D34000FEF7A2F805E000F039F9FFF751FF00E021
:10D3500000BF00BF05B05DF804FB00BFFC2C00203F
:10D3600082B003468DF807309DF8073003F01F02A6
:10D3700005499DF907305B09012000FA02F241F8E6
:10D38000232000BF02B0704700E100E082B00346F6
:10D390008DF807309DF8073003F01F0206499DF90C
:10D3A00007305B09012000FA02F2603341F82320C4
:10D3B00000BF02B0704700BF00E100E082B003464A
:10D3C00000918DF807309DF90730002B0CDA009B97
:10D3D000DAB20C499DF8073003F00F03043B520109
:10D3E000D2B20B441A7609E0009BDAB206499DF9E5
:10D3F00007305201D2B20B4483F8002300BF02B0C1
:10D40000704700BF00ED00E000E100E000B583B030
:10D4100003460A468DF8073013468DF806309DF80E
:10D4200006209DF9073011461846FFF7C7FF00BFD9
:10D4300003B05DF804FB00B583B003468DF80730F8
:10D440009DF907301846FFF7A1FF9DF907301846F0
:10D45000FFF786FF00BF03B05DF804FB82B0034610
:10D460008DF807300F4A9DF90730002B00DA1F3383
:10D470005B115BB252F823209DF90730594203F04B
:10D480001F0301F01F0158BF4B425BB222FA03F3A6
:10D4900003F00103002B14BF01230023DBB2184665
:10D4A00002B0704700E100E082B001904FF080428E
:10D4B000019BC2F8083300BF02B0704782B0034638
:10D4C0008DF807309DF8073003F1804301221A6080
:10D4D00000BF02B0704784B00346ADF80630BDF817
:10D4E000063003F1804300221A60BDF8063003F1D4
:10D4F00080431B680393039B00BF04B0704782B056
:10D500000346ADF80630BDF8063003F180431B68D2
:10D51000002B14BF01230023DBB2184602B0704772
:10D5200082B001904FF08042019BC2F8183500BFD5
:10D5300002B070474FF08043D3F818341B0C03F04F
:10D540000103002B14BF01230023DBB218467047F0
:10D5500000B583B006238DF807300020FFF77EFF6B
:10D56000034683F00103DBB2002B08D09DF807309F
:10D5700019460020FFF74AFF0020FFF75CFF00BFBD
:10D5800003B05DF804FB000084B001900023039316
:10D59000094B1B79002B02D08523039308E0064A30
:10D5A000019B1360044B01221A71034B00225A7134
:10D5B000039B184604B07047102D002008B5FFF7F4
:10D5C000C7FF0120FFF7ACFF00BF08BD08B50C2066
:10D5D000FFF774FF00BFFFF7ADFF0346002BFAD142
:10D5E00000BF08BD08B54FF48070FFF788FF034601
:10D5F000002B14D04FF48070FFF76DFF0120FFF770
:10D6000053FF114B5B7983F00103DBB2002B06D093
:10D610000D4B01225A710C4B1B68002098474FF4A8
:10D620008270FFF76CFF0346002B0AD04FF4827024
:10D63000FFF751FF0220FFF737FF034B1B68012064
:10D64000984700BF08BD00BF102D002082B00346E0
:10D650008DF807309DF8073003F01F0205499DF94A
:10D6600007305B09012000FA02F241F8232000BFD5
:10D6700002B0704700E100E082B003468DF8073049
:10D680009DF8073003F01F0206499DF907305B093A
:10D69000012000FA02F2603341F8232000BF02B0FB
:10D6A000704700BF00E100E082B0034600918DF8B2
:10D6B00007309DF90730002B0CDA009BDAB20C49D9
:10D6C0009DF8073003F00F03043B5201D2B20B4424
:10D6D0001A7609E0009BDAB206499DF9073052013B
:10D6E000D2B20B4483F8002300BF02B0704700BFE2
:10D6F00000ED00E000E100E000B583B003460A461B
:10D700008DF8073013468DF806309DF806209DF9F8
:10D71000073011461846FFF7C7FF00BF03B05DF89A
:10D7200004FB00B583B003468DF807309DF9073040
:10D730001846FFF7A1FF9DF907301846FFF786FF4F
:10D7400000BF03B05DF804FB00B583B00346ADF83D
:10D750000630BDF80630184600F026F803461B6870
:10D76000012B0CBF01230023DBB2184603B05DF888
:10D7700004FB00B585B00346ADF80630BDF80630B1
:10D78000184600F011F803461A4600231360BDF84E
:10D790000630184600F008F803461B680393039B05
:10D7A00000BF05B05DF804FB82B00346ADF806305B
:10D7B000BDF8063003F1804303F5C043184602B0BC
:10D7C0007047000082B00190034A019BC2F8043305
:10D7D00000BF02B0704700BF0060004082B00190FF
:10D7E000034A019BC2F8083300BF02B0704700BF74
:10D7F0000060004082B00190034BD3F80423019BEA
:10D800001340184602B070470060004082B001909B
:10D81000084A019B03F5A27352F82330054923F00F
:10D820000102019B03F5A27341F8232000BF02B05F
:10D83000704700BF0060004082B00190054A019B24
:10D8400003F5A27352F823301B0A03F01F03184696
:10D8500002B070470060004082B00190064A019B10
:10D8600003F5A27352F823301B0C03F00303DBB261
:10D87000184602B0704700BF0060004084B00390BB
:10D88000029111461A460B468DF8073013468DF863
:10D890000630184A039B03F5A27352F8233015494A
:10D8A00023F4981323F4F853039A02F5A27241F873
:10D8B0002230104A039B03F5A27352F82320029BE7
:10D8C0001B0203F4F8519DF807301B0403F44033A6
:10D8D00019439DF806301B0503F480130B430549DB
:10D8E0001A43039B03F5A27341F8232000BF04B041
:10D8F000704700BF0060004082B00190044A019B65
:10D9000003F5A273002142F8231000BF02B0704754
:10D910000060004082B001904FF0A043184602B072
:10D92000704700B585B00190084611461A46034677
:10D930008DF803300B468DF8023013468DF8013018
:10D9400001AB1846FFF7E6FF03909DF803209DF812
:10D9500002305B001A439DF801309B001A439DF88A
:10D9600018301B0242EA03019DF81C301B04019A87
:10D970001943039B02F5E07243F8221000BF05B083
:10D980005DF804FB00B585B00390002301930023EC
:10D9900000930023012201210398FFF7C2FF00BF7B
:10D9A00005B05DF804FB00B585B00390002301933A
:10D9B000002300930023012200210398FFF7B1FF09
:10D9C00000BF05B05DF804FB00B585B001900B46C3
:10D9D0008DF8033001AB1846FFF79CFF0390019AC6
:10D9E000039B02F5E07253F82230019A23F4403190
:10D9F000039B02F5E07243F82210019A039B02F5A3
:10DA0000E07253F822309DF8032012041146019A67
:10DA10001943039B02F5E07243F8221000BF05B0E2
:10DA20005DF804FB00B585B0019001AB1846FFF727
:10DA300071FF0390019B012202FA03F31946039838
:10DA400000F036F800BF05B05DF804FB00B585B006
:10DA5000019001AB1846FFF75DFF0390019B012287
:10DA600002FA03F31946039800F02CF800BF05B042
:10DA70005DF804FB00B585B0019001AB1846FFF7D7
:10DA800049FF0390019A039B02F5E07253F822309C
:10DA90001B0C03F00303DBB2184605B05DF804FB72
:10DAA00082B00190019BD3F81035184602B0704740
:10DAB00082B001900091019B009AC3F8082500BF35
:10DAC00002B0704782B001900091019B009AC3F8A8
:10DAD0000C2500BF02B0704700B587B003900291DB
:10DAE00001924FF0A0430493039B059311E0059B23
:10DAF0009B0006AA134453F8083C1846FFF7D0FFD2
:10DB00000246019B1A60019B04330193059B01337C
:10DB10000593039A029B1344059A9A42E7D300BFE8
:10DB200007B05DF804FB84B001900091009B039363
:10DB3000019BDB080293019B03F007030193012281
:10DB4000019B02FA03F30399029A0A4412781340E4
:10DB5000184604B0704784B001900091009B039375
:10DB6000019BDB080293019B03F007030193039AD7
:10DB7000029B13441B785AB20121019B01FA03F363
:10DB80005BB2134359B2039A029B1344CAB21A7090
:10DB900000BF04B0704784B001900091009B0393D4
:10DBA000019BDB080293019B03F007030193039A97
:10DBB000029B13441B785AB20121019B01FA03F323
:10DBC0005BB2DB435BB2134059B2039A029B13442E
:10DBD000CAB21A7000BF04B07047000082B0019052
:10DBE000074A019B1344303393F90030B3F1FF3FF0
:10DBF00014BF01230023DBB2184602B0704700BFF8
:10DC0000182D002082B00190074A019B1344303345
:10DC100093F9003013F1020F0CBF01230023DBB294
:10DC2000184602B0704700BF182D002082B0019046
:10DC30000C4A019B1344303393F90030002B09DB6D
:10DC4000084A019B1344303393F90030072B01DC61
:10DC5000012300E0002303F00103DBB2184602B009
:10DC6000704700BF182D002082B00190064A019B2A
:10DC70001344303393F90030072BCCBF012300232A
:10DC8000DBB2184602B07047182D002082B0019018
:10DC9000064A019B1344303393F90030DB43DBB277
:10DCA000DB09DBB2184602B0704700BF182D002018
:10DCB00084B00390029101928DF80330029B59B217
:10DCC0000E4A039B134430330A461A700B49029BD9
:10DCD000019A41F823209DF8033083F00103DBB261
:10DCE000002B08D0029B083B039A51B2034A13440D
:10DCF0000A4683F8502000BF04B07047182D00205A
:10DD000082B00190044A019B13443033FE221A7002
:10DD100000BF02B0704700BF182D002082B00190F4
:10DD2000044A019B13443033FF221A7000BF02B033
:10DD3000704700BF182D002000B583B00190044942
:10DD40000198FFF708FF00BF03B05DF804FB00BFB8
:10DD50006C2D002000B583B0019004490198FFF7B5
:10DD60001AFF00BF03B05DF804FB00BF6C2D00205C
:10DD700000B583B0019007490198FFF7D4FE034630
:10DD8000002B14BF01230023DBB2184603B05DF85B
:10DD900004FB00BF6C2D002082B00190044A019B5F
:10DDA0001344303393F90030184602B0704700BF77
:10DDB000182D002082B00190034A019B52F82330B5
:10DDC000184602B0704700BF182D002000B589B07A
:10DDD0000390029113468DF80730FF238DF81F3012
:10DDE0009DF80730002B01D0002300E008230593A5
:10DDF0009DF80730002B01D0082300E00C2304938A
:10DE0000059B069314E00F4A069B52F82330B3F1AA
:10DE1000FF3F0AD19DF80730029A06990398FFF751
:10DE200047FF069B8DF81F3006E0069B01330693E3
:10DE3000069A049B9A42E6D39DF91F30184609B012
:10DE40005DF804FB182D002082B003468DF80730E2
:10DE50009DF80730094A4FF0FF3142F823109DF832
:10DE60000730072B07D99DF80730083B034A1344B6
:10DE7000FF2283F8502000BF02B07047182D002009
:10DE800000B583B0254B93F85830002B03D00823FE
:10DE90000093009B3EE000238DF8073009E09DF8D9
:10DEA00007301846FFF73AFF9DF8073001338DF829
:10DEB00007309DF807301F2BF1D900238DF807306C
:10DEC00009E09DF807301846FFF7BEFF9DF80730C0
:10DED00001338DF807309DF807300B2BF1D9042260
:10DEE00000210F480CF06BFD06210620FFF704FC13
:10DEF0000620FFF716FC4FF4BE70FFF73AFC4FF018
:10DF00000040FFF75FFC054B012283F858200023F7
:10DF10000093009B184603B05DF804FB182D002009
:10DF20006C2D0020044B93F85830002B14BF0123B4
:10DF30000023DBB218467047182D002000B583B0CF
:10DF40000023019315E00198FFF75CFE0346002BC8
:10DF500003D0019800F063F808E00198FFF796FEFF
:10DF60000346002B02D0019800F0B6F8019B013364
:10DF70000193019B1F2BE6D9034B002283F8582005
:10DF800000BF03B05DF804FB182D002000B585B07C
:10DF900001900091002303930198FFF71FFE0346B1
:10DFA000002B02D00823039334E0009B9B78002BC6
:10DFB00019D0012200210198FFF708FF03468DF8D0
:10DFC0000B309DF90B30B3F1FF3F09D09DF90B00E9
:10DFD000009B1A78009B5B780199FFF74FFC05E0E6
:10DFE0000423039302E00198FFF78AFE039B002BB2
:10DFF00010D1009B5B78012B03D10198FFF712FD34
:10E0000002E00198FFF722FD0198FFF7BBFC0198A1
:10E01000FFF792FE039B184605B05DF804FB00B5C0
:10E0200083B001900198FFF701FE0346002B0ED04C
:10E030000198FFF7B1FE0346DBB21846FFF704FF75
:10E040000198FFF7A9FE03461846FFF755FC019813
:10E05000FFF764FE0198FFF78BFE0346002B05D007
:10E060000198FFF7A0FC0198FFF774FE00BF03B012
:10E070005DF804FB00B583B001900198FFF7D2FC76
:10E0800000BF03B05DF804FB00B585B001900198B6
:10E09000FFF7EAFD0346002B04D000210198FFF7AB
:10E0A00093FC15E00198FFF7C1FD0346002B0FD04C
:10E0B0000198FFF771FE03460393039B1846FFF791
:10E0C000A5FB0122039B02FA03F31846FFF786FB28
:10E0D00000BF05B05DF804FB00B583B00190019866
:10E0E000FFF7D2FF0198FFF7A1FD0346002B06D0F2
:10E0F0000198FFF751FE03461846FFF7FDFB019814
:10E10000FFF736FE0346002B05D00198FFF74BFCC6
:10E110000198FFF71FFE0198FFF73EFE0346DBB2B2
:10E120001846FFF791FE0198FFF7F8FD00BF03B016
:10E130005DF804FB00B595B0002310930023039312
:10E140004FF48073ADF83A300123129300230F93FC
:10E1500021E0BDF83A301846FFF7F6FA0346002BE7
:10E160000ED01298FFF746FB0346002B08D0BDF8EF
:10E170003A301846FFF7FDFA109A129B134310939A
:10E18000129B5B001293BDF83A300433ADF83A307D
:10E190000F9B01330F930F9B072BDAD94FF4BE70FF
:10E1A000FFF7D2FA0346002B0DD04FF4BE70FFF7F5
:10E1B000E0FA109B43F00043109303AB1A46012191
:10E1C0000020FFF789FC109BDBB2002B29D0012334
:10E1D000129300230F9321E0129A109B1340002BFF
:10E1E00016D00F98FFF728FB0D900F98FFF734FB20
:10E1F00003468DF833300F98FFF7DCFD0B900B9B37
:10E20000002B05D09DF833200B9B11460D989847A5
:10E21000129B5B0012930F9B01330F930F9B072BF5
:10E22000DAD9109B002B80F2EE8000238DF84F305E
:10E2300000230293002311930AE0119B9B0014AA70
:10E2400013444FF0FF3243F84C2C119B01331193D0
:10E25000119B002BF1D000238DF84F3000230F933A
:10E2600078E06B4A0F9B1344503393F900308DF8DC
:10E270002B309DF82B3023F0C0030993644A0F9B89
:10E280001344503393F90030B3F1FF3F5FD001AB3B
:10E2900019460998FFF747FC0346002B57D09DF815
:10E2A0002B309B098DF823300998FFF775FD034645
:10E2B0001846FFF77FFD0790079B002B03D19DF8C1
:10E2C0002330032B43D19DF82330032B04D102AB21
:10E2D00019460998FFF73FFC0998FFF7CBFB034667
:10E2E0008DF81B3003AB19460998FFF71CFC05900D
:10E2F000059B002B03D09DF81B30022B06D0059BFD
:10E30000002B24D19DF81B30032B20D19DF8233006
:10E31000032B13D19DF81B30022B01D1032300E006
:10E3200002238DF813309DF8133019460998FFF732
:10E330004BFB9DF84F3001338DF84F30079B002B7E
:10E3400005D09DF82320079B1146099898470F9BFD
:10E3500001330F930F9B032B83D99DF84F30002B74
:10E360004CD001238DF84E306B461A460121002017
:10E37000FFF7B2FB0023119314E0119B9B0014AA3A
:10E38000134453F8502C119B9B0014A90B4453F8D1
:10E39000443C9A4203D000238DF84E3005E0119B97
:10E3A00001331193119B002BE7D09DF84E30002BC9
:10E3B00003D000238DF84F3020E0002311931AE0A2
:10E3C000119B9B0014AA134453F8502C119B9B00E3
:10E3D00014A90B4443F8442C119B9B0014AA13442A
:10E3E00053F8482C119B9B0014A90B4443F84C2C68
:10E3F000119B01331193119B002BE1D09DF84F30FD
:10E40000002B7FF428AF00BF15B05DF804FB00BF00
:10E41000182D002082B00190019B03F06043B3F1FE
:10E42000005F0CBF01230023DBB2184602B0704727
:10E4300084B001900B46ADF80230BDF80230019A6D
:10E44000134400221A60BDF80230019A13441B687D
:10E450000393039B00BF04B0704782B001900B464A
:10E46000ADF80230BDF80230019A13441B68002B4E
:10E4700014BF01230023DBB2184602B0704782B0FC
:10E4800001900091019BD3F80022009BDB431A40CE
:10E49000019BC3F8002200BF02B0704784B0019016
:10E4A000019BD3F880340393019B039AC3F8802423
:10E4B000039B184604B0704782B001900B468DF85C
:10E4C00003309DF80330019A134401221A6000BF03
:10E4D00002B0704784B0039002910192029A039BAC
:10E4E000C3F84425039B019AC3F8482500BF04B034
:10E4F000704782B00190019BD3F84C35184602B0AA
:10E50000704782B00190019BD3F83C35184602B0A9
:10E510007047000000B589B0039002910192039BFF
:10E520001B791A461346DB0013449B00394A1344F7
:10E5300005930298FFF76EFF034683F00103DBB2F9
:10E54000002B03D010230693069B5EE0039800F097
:10E5500063F80346002B03D011230693069B54E077
:10E56000059B019A5A61059B029A9A6000230693C3
:10E57000039B1B684FF490711846FFF759FF039BEC
:10E580001B684FF4AC711846FFF752FF039B1868E5
:10E59000059B9968059B5B691A46FFF79BFF039BE8
:10E5A0001B6808211846FFF787FF059B5B68002B57
:10E5B0002AD1039B1B684FF490711846FFF74DFF5B
:10E5C00003468DF81F30039B1B684FF4AC7118464F
:10E5D000FFF743FF03468DF81E309DF81F3083F090
:10E5E0000103DBB2002B06D09DF81E3083F001033F
:10E5F000DBB2002BDDD19DF81E30002B01D00F23A4
:10E600000693059B00225A61069B184609B05DF8E7
:10E6100004FB00BF742D002082B00190019B1B7988
:10E620001946084A0B46DB000B449B001344143385
:10E630001B68002B14BF01230023DBB2184602B075
:10E64000704700BF742D002000B589B0039002917F
:10E65000019201238DF81030029BDBB28DF8183047
:10E66000019B0593039B5B68039A116804AA1046FB
:10E67000984700BF09B05DF804FB00B587B0019072
:10E68000009100238DF80830009BDBB28DF810302C
:10E69000019B9B680393019B00225A61019B5B686D
:10E6A000019A116802AA1046984700BF07B05DF8AA
:10E6B00004FB00B589B0019000914FF4927101986C
:10E6C000FFF7CBFE0346002B24D04FF49271019844
:10E6D000FFF7AEFE02238DF808300198FFF7DEFE4B
:10E6E000034605930198FFF70CFF0346DBB28DF854
:10E6F0001030009BDB680393009B00229A61009B13
:10E700000022DA61009B5B68009A116802AA104639
:10E7100098473BE04FF488710198FFF79EFE03464F
:10E72000002B33D04FF488710198FFF781FE0198D8
:10E73000FFF7E7FE0790009B9B69079A9A4225D155
:10E74000009BDB69002B17D0009BDB680693202120
:10E750000198FFF794FE009BDA69009B9A61009B89
:10E760001A69009BDA60009B0022DA61069A079919
:10E770000098FFF769FF09E0009B00229A61009B67
:10E78000DB681A4607990098FFF75EFF4FF4A27105
:10E790000198FFF762FE0346002B15D04FF4A271DB
:10E7A0000198FFF745FE009B9B69002B0CD0009B56
:10E7B00000229A610198FFF7A4FE0146009BDB68E6
:10E7C0001A460098FFF740FF4FF490710198FFF749
:10E7D00044FE0346002B10D04FF490710198FFF7D0
:10E7E00027FE009B5B69002B07D00198FFF781FE95
:10E7F000034619460098FFF740FF00BF09B05DF8D7
:10E8000004FB000008B503490348FFF752FF00BFAF
:10E8100008BD00BF742D00200020004082B00346D8
:10E820008DF807309DF80730044A012101FA03F3FF
:10E83000C2F8043500BF02B0704700BF00F00140CD
:10E8400082B003468DF807309DF80730044A012155
:10E8500001FA03F3C2F8083500BF02B0704700BFE9
:10E8600000F0014084B00346029101928DF80F3010
:10E8700008499DF80F30A233029A41F83320054A27
:10E880009DF80F30A233DB001344019A5A6000BF99
:10E8900004B0704700F0014082B003468DF80730A5
:10E8A0009DF80730012202FA03F3184602B07047C0
:10E8B00000B583B003468DF807309DF80730184641
:10E8C000FFF7EAFF0346C3F31003002B14BF012335
:10E8D0000023DBB2184603B05DF804FB82B0019060
:10E8E000019B5B0C5B04002B0CBF01230023DBB2FC
:10E8F000184602B0704700B583B003468DF8073064
:10E900009DF807301846FFF7C7FF03461846FFF784
:10E91000E5FF0346184603B05DF804FB00B583B07D
:10E9200003468DF807309DF807301846FFF7B4FF0F
:10E930000246064B1B681340002B14BF0123002323
:10E94000DBB2184603B05DF804FB00BF982D002031
:10E9500000B583B003468DF807309DF807301846A0
:10E96000FFF79AFF0246044B1B681343024A1360E9
:10E9700000BF03B05DF804FB982D002000B583B004
:10E9800003468DF807309DF807301846FFF784FFDF
:10E990000346DA43044B1B681340034A136000BF6D
:10E9A00003B05DF804FB00BF982D002000B587B0D0
:10E9B0000190002304930023059304230493274B21
:10E9C000059300238DF80F303EE000238DF80E30C4
:10E9D0000DF10E031846FCF74DFD9DF80F3018465B
:10E9E000FFF75AFF0246059B1340002B15D09DF8F8
:10E9F0000F301846FFF792FF034683F00103DBB2A6
:10EA0000002B0AD09DF80F301846FFF7A1FF019B9D
:10EA10009DF80F201A70002304939DF80E301846BD
:10EA2000FCF732FD049B002B12D09DF80F301846E6
:10EA3000FFF732FF0346DB43059A134005939DF829
:10EA40000F3001338DF80F30059B002BBDD100E056
:10EA500000BF049B184607B05DF804FBFFFF0100F0
:10EA600000B585B003468DF80730002303939DF869
:10EA700007301846FFF71CFF034683F00103DBB2A3
:10EA8000002B02D00723039316E09DF807301846A9
:10EA9000FFF7D6FE00238DF80B300DF10B0318465F
:10EAA000FCF7E8FC9DF807301846FFF767FF9DF874
:10EAB0000B301846FCF7E8FC039B184605B05DF8E0
:10EAC00004FB00B587B00346029101928DF80F3028
:10EAD000029B002B02D0019B002B01D10E2325E0CD
