:020000021000EC
:1090000000600020759301005D9301005F930100F3
:10901000619301006393010065930100000000006B
:109020000000000000000000000000006793010045
:1090300069930100000000006B9301006D93010033
:1090400019A401006F930100D5A701006F930100DF
:109050006F9301000000000031A601001DA901006E
:109060008DAE01009DAE0100ADAE01006F93010019
:109070006F9301006F9301006F9301006F930100E4
:109080006F930100E99401006F9301006F93010059
:10909000859501006F93010051F901006F93010064
:1090A0006F9301006F9301000000000000000000BA
:1090B0006F9301006F9301000000000000000000AA
:1090C00000000000000000000000000000000000A0
:1090D0000000000000000000000000000000000090
:1090E0000000000000000000000000000000000080
:1090F0000000000000000000000000000000000070
:10910000000000000000000000000000000000005F
:10911000000000000000000000000000000000004F
:10912000000000000000000000000000000000003F
:10913000000000000000000000000000000000002F
:10914000000000000000000000000000000000001F
:10915000000000000000000000000000000000000F
:1091600000000000000000000000000000000000FF
:1091700000000000000000000000000000000000EF
:1091800000000000000000000000000000000000DF
:1091900000000000000000000000000000000000CF
:1091A00000000000000000000000000000000000BF
:1091B00000000000000000000000000000000000AF
:1091C000000000000000000000000000000000009F
:1091D000000000000000000000000000000000008F
:1091E000000000000000000000000000000000007F
:1091F000000000000000000000000000000000006F
:10920000354936480A1A02D0072291438D4634491F
:1092100034480A1A06D00722914381F309880222B2
:1092200082F3148830483149314A00F044F831481B
:109230003149324A00F03FF831483249324A00F0B1
:109240003AF832483249334A00F035F83248334967
:10925000334A00F030F833483349344A00F02BF8F1
:1092600033483449344A00F026F83448344900225F
:1092700000F02CF833483449002200F027F8334836
:109280003349091A082902DB002202604160314A91
:1092900090471F481F49884205D00268043003B434
:1092A000904703BCF7E700208646EC4600200021EB
:1092B000294A9047FEE7884207D0521A05D0037822
:1092C00001300B700131013AF9D17047884202D068
:1092D00002700130FAE7704700600020005800205B
:1092E0000060002000600020EC2002001425002017
:1092F00070250020C0930100C0930100AC1C020047
:10930000EC2002001425002014250020481D020036
:10931000481D0200481D0200481D0200481D0200B1
:10932000481D0200481D0200481D0200EC200200FA
:1093300048210200702500207025002070250020A3
:10934000ED2E0020F02E0020F42E0020F42E002020
:10935000F43600208B930100F1080200FEE7FEE7DF
:10936000FEE7FEE7FEE7FEE7FEE7FEE7FEE7FEE7D5
:10937000704700BF0C4880470C484FF007018843F6
:1093800085460B488047FFF73BBF0A480A490B4A0E
:10939000884207D0521A05D0037801300B70013192
:1093A000013AF9D17047000071930100006000207C
:1093B0007DA00100341D020000250020142500209E
:1093C00000487047E82E00201FB50021039001AA35
:1093D00044F20100CDE9011100F004F805B05DF898
:1093E00004FB000072B6094B1B68DB0700D500BE0A
:1093F000BFF34F8F0649074BCA6802F4E06213437C
:10940000CB60BFF34F8F00BFFDE700BFF0ED00E082
:1094100000ED00E00400FA05094A53789178013321
:10942000DBB2994208BF0023117899421FBF037035
:109430005078182303FB002014BF0430002070472D
:109440007025002073B5054600240DF107000E4677
:109450008DF8074000F08AFA0DF10600FFF7DCFFF7
:1094600090B10670094B9DF8062045605A709DF832
:10947000070000F09FFA24B9054B4FF48012C3F89F
:109480000021204602B070BD0424F0E770250020C2
:1094900000E100E0024B4FF43C6043F00103184749
:1094A000481D020038B50C4B0C4C4FF40032C3F889
:1094B000802001254FF48033C4F84833C4F80833C2
:1094C0006560FFF7E7FF064BA56000241C60FFF70F
:1094D000E1FF044B1C7038BD00E100E000100140CA
:1094E0008C2600207D260020F8B51F4B1F491B68E5
:1094F0000025C1F84051C1F84451C1F84851C1F8A4
:109500004C51C1F80051C1F804514BB3D1F8044596
:1095100017490968641A24F07F442F461A68A2424A
:1095200009D8A41A15441A7CDE691AB11F74D3E94C
:1095300005209047AEB90F4A0F4B11781B788B422C
:1095400005D10133DBB2022B08BF00231370127860
:109550000A4B43F822500A4B4FF48012C3F8002103
:10956000F8BD3346DAE700BF902600200010014026
:109570008C260020892600208826002080260020B6
:1095800000E100E02DE9F04FA14AA24913780978E3
:10959000A14D994285B03CD00133DBB2022B08BF0C
:1095A000002313709D4912789D4B0F6853F82200D9
:1095B0003B1823F07F4300220B602B6816461446AD
:1095C000944613B942B12B6006E0196881420ED966
:1095D00002B12B60091A196001272B68DFF848A235
:1095E00001934FF00008BEB9DFF844B266E0401ABC
:1095F0000C44D968C3F800C0D3F81CE031B13A1963
:1096000022F07F42C3E90121DE611E46012273463A
:10961000D7E700263746E0E73446F6697F4A6368B5
:109620001268DFF810C2A068991A21F07F416145E5
:1096300000F2A68001442160012222742A680023DE
:10964000C4E90133E361002A40F0A3802C60CAE73B
:109650005A1C9BF80210D2B291428BF8002004BF32
:1096600000228BF80020182202FB03B31A799C68B1
:10967000022A1CD0032A12D0012A1FD1207CE8B96B
:10968000D3E90312A2605A69E2609A69654BA2614C
:109690001B78002B0CBF0B4603466360BEE700221D
:1096A0002B681146002B67D142B12B6006E0296878
:1096B0000A468946002A5AD1002323749BF80030B9
:1096C0009BF801209A42C3D12B68B8F1000F04D156
:1096D000019A9A4201D1002F43D0002B73D0D3F8C6
:1096E00000A0514D4D4BD5F804751C68DFF848813A
:1096F0003E1B98F8003026F07F4603369BB94FF4A6
:109700008033C5F84433C5F80433484B4FF4003276
:109710004FF00109C3F880211A60C5F80090FFF7E7
:10972000B9FE88F80090B2452CBF5444A41924F027
:109730007F44C5F84045D5F80435DB1B23F07F4353
:10974000E41B033324F07F44A3420AD9D5F804353F
:10975000C5F84035FFF79EFE344B4FF40032C3F896
:109760000021304B00221A7005B0BDE8F08F944202
:109770002CD09146D2699DE719740122DB6991E7EB
:10978000D31A23F07F43834234BFC31A00232360DC
:1097900052E721681368994213D8591A1160E2619F
:1097A00054E7091AD8691A4638B10346186888423E
:1097B000F7D3401A1860184613462160E061DC6157
:1097C00011E71346F2E7FFF76DFECAE74C4511D1EA
:1097D000CB692B6073B9DFF844E00120CDE90212B8
:1097E000CAF80800CEF800300E4B1870FFF752FE92
:1097F000DDE902121368D269C9F81C2012B11068A1
:10980000034413602B68994218BF4FF0010853E7D7
:109810008826002089260020902600208C26002003
:10982000802600207C2600200010014000E100E09E
:1098300070250020FEFF7F007D26002008B5FFF781
:1098400031FE104B00200B2218809A700E4B1860CE
:109850000E4B18700E4B18700E4B4FF48012C02137
:10986000C3F8802183F814131A6002F18042A2F534
:109870006F22C2F8080583F81113074BD2F80425AC
:109880001A6008BD70250020902600208826002040
:109890008926002000E100E08C260020074B9B7801
:1098A0004BB132B128B10368187C20B959745A61A0
:1098B0007047072070470820704700BF70250020C0
:1098C0002DE9F7431E4FBB7805460E469046A3B3DD
:1098D00098B304292FD943697BB3437C0024012B1F
:1098E0000DF107000CBF8946A1468DF8074000F036
:1098F0003DF80DF10600FFF78FFDD0B10123037095
:10990000104B4560D3F80435C0E90498C0E902362D
:109910009DF806307B709DF8070000F04BF824B9E5
:10992000094B4FF48012C3F80021204603B0BDE874
:10993000F0830424EFE70724F7E70824F5E700BFE6
:10994000702500200010014000E100E0064A9278F6
:109950003AB130B1426922B1002202740221FFF70C
:1099600071BD0820704700BF7025002070B5EFF36F
:10997000108672B60C4A946801239CB993600B4B15
:109980000B4DD3F8801029401160C3F88050D3F8F4
:10999000841051604FF0FF32C3F88420047006B980
:1099A00062B670BD0370FAE79426002000E100E083
:1099B000FC06FFBD084B9A6810B55AB150B9EFF3D9
:1099C000108172B6054A1C6814605C685460986027
:1099D00001B962B610BD00BF9426002000E100E08E
:1099E00010B561B1B2FBF3F403FB1424A4B244B983
:1099F000C0E9001484608281C381204610BD0E201E
:109A0000FCE70920FAE782B050E8022FC188B2EBE8
:109A1000324F4FF0000317BF92B241EA014142EAD0
:109A2000014104E04268B2EB324F08BF012340E835
:109A30000212002AE8D18DF807309DF80730002B7C
:109A40000CBF1120002002B0704737B550E8013F2D
:109A50009DB2C48925448489A54228BF2D1B048951
:109A6000A54202BFBFF32F8F002207E0C5EA03051E
:109A700040E80154002CE9D14FF001028DF8032099
:109A80000193019B9DF803200B6002F0FF0322B1BC
:109A90000B880068184403B030BD1846FBE70A88FD
:109AA0004B889A4209D150E8012FC2EA024240E8AD
:109AB0000123002BF7D1012070470020704737B5F4
:109AC00050E8023F1FFAA3F5C488A54202BFBFF3C6
:109AD0002F8F00220DE0C48925448489A54228BF28
:109AE0002D1BC3EA054540E80254002CE8D14FF095
:109AF00001028DF803200193019B9DF803200B6068
:109B000002F0FF0322B14B880068184403B030BD57
:109B10001846FBE70A884B889A4209D150E8022F81
:109B2000C2EA224240E80223002BF7D1012070470D
:109B30000020704701F01F024B090121914000EB0A
:109B4000830000F063B84B0910B501F01F04012138
:109B5000A14000EB830000F04EF8E04000F001006F
:109B600010BD01F01F0301229A404B0900EB830056
:109B7000D14300F056B84B0901F01F0150F8230003
:109B8000C84000F0010070472DE9F0474E1E7609ED
:109B900080460F460136002558F8254008EB850918
:109BA000E44394FAA4F4B4FA84F44FEA451A202C5E
:109BB00006D10135AE42EFD83C462046BDE8F087DD
:109BC0005444A742F5D921464046FFF7BCFF002880
:109BD000F3D0D9F80040E44394FAA4F4B4FA84F43E
:109BE000E5E750E8002F0B4640E8003C9CF0000FF2
:109BF000F7D11046704750E8002F42EA010340E8D1
:109C0000003C9CF0000FF6D11046704750E8003F32
:109C100043EA010240E8002C9CF0000FF6D1104608
:109C2000704750E8003F03EA010240E8002C9CF036
:109C3000000FF6D11046704750E8002F02EB0103E9
:109C400040E8003C9CF0000FF6D11046704750E809
:109C5000003F03EB010240E8002C9CF0000FF6D11E
:109C60001046704750E8003FA3EB010240E8002C8B
:109C70009CF0000FF6D1104670470121FFF7BBBFE3
:109C800041DF7047064B10B500241C70054B1C606B
:109C9000BFF35F8F0449054800F016F8204610BD59
:109CA000A8260020AC260020501D0200A02600207F
:109CB00008B505F033FE18B1BDE80840FFF7E0BF76
:109CC00020BF40BF20BF08BD0B684A684360934275
:109CD00008BF0023016008BF43607047436843B179
:109CE0000268916852680B449342436004BF0023AA
:109CF0004360704729DF704728DF704770B50368FD
:109D00009D6886B004460E466DB114220021684657
:109D100007F069FFA3680593237901962BB1012B06
:109D20000DD06846A84706B070BD01238DF80030FD
:109D300023690293E368039363690493F1E70223C1
:109D40008DF80030E3681B030293F5E7084670477F
:109D500000207047024B187A003018BF012070476E
:109D60004C270020034B187A0122B0FA80F05A7475
:109D7000400970474C27002008B510461A4607F0E6
:109D800009FF002008BD000008B514220021044886
:109D900007F029FF0348FFF736FE002008BD00BF8B
:109DA0004C2700203C27002010B5094C094B43608C
:109DB0002046FFF762FF40B905F0B0FD1C23207478
:109DC0008C2205490548FFF70BFE002010BD00BF9F
:109DD0004C2700205C1D0200B02600203C270020FC
:109DE00070B5244C244E237A25463BB92349244898
:109DF000FFF765FE306008B9606070BD346802230B
:109E00002B72237973B1012B24D020460321FFF755
:109E100075FF00232B726B6018491948BDE870402C
:109E2000FFF778BED4E90523D21AB2F5805F28BFC8
:109E30004FF48052D4E903109208012A38BF01225E
:109E400019441844FFF756FF50B11128DDD1012302
:109E50002B72D2E7D4E903031844FFF74DFFF3E771
:109E60002B7C002BC9D10146BDE87040022000F0D8
:109E700009B800BF4C27002064270020602700207D
:109E80003C27002038B5831E012B45D8234C237A6C
:109E9000002B41D0022B09D1032830D0204B1B6866
:109EA0000022E2601A793AB1012A22D0637C7BBB9E
:109EB000BDE83840FFF794BFD3E905128D1AB5F518
:109EC000805F94BF521902F580529A619142EDD1A0
:109ED00002284FF0000308BF19462372104B18BF29
:109EE0000D211868FFF70AFF0E490F48FFF712FE11
:109EF000DCE71A6901321A615B699A42E7E7E368B5
:109F00000133082B01D8E360D0E70023E360DFE7EB
:109F1000BDE8384005F0F2BC38BD00BF4C2700203A
:109F200064270020602700203C27002000F0FD036C
:109F3000012B08D1044B00225A74421E504250415A
:109F40001874FFF74DBF70474C27002010B5064C22
:109F5000201DFFF792FE28B9637C1BB9BDE81040B5
:109F6000FFF73EBF10BD00BF4C2700202DE9F34195
:109F700080460D460F4801A916461F46FFF765FDAE
:109F80000446A8B11C22002107F02DFE2D0B012351
:109F9000237101A9C4F80080A760E56066610548E7
:109FA000FFF77DFDFFF7D2FF002002B0BDE8F08192
:109FB0000420FAE73C2700202DE9F7438146884634
:109FC000104801A917461E46FFF73FFD0446B0B1F1
:109FD0001C22002107F007FE00250A9BA36001A9AF
:109FE0002571C4F80090C4E9037866610548FFF75D
:109FF00056FDFFF7ABFF284603B0BDE8F083042011
:10A00000FAE700BF3C2700200C4B1B78062B10D131
:10A010000B4B1B681A070CD10A4B186800F0F003B1
:10A02000302B08D000F0E000A0F140035842584126
:10A030007047002070470120704700BFE00F00F01C
:10A04000E40F00F0E80F00F0094B1B78062B0CD151
:10A05000084B1B681A0708D1074B186800F0F0007E
:10A06000A0F130035842584170470020704700BFAC
:10A07000E00F00F0E40F00F0E80F00F008B5FFF784
:10A08000C3FF28B16F4B704A1B68C3F304231360EE
:10A09000FFF7DAFF10B16D4B6D4A1A606D4B6E4AD7
:10A0A0001B68C3F342331360FFF7CEFF20B16B4A46
:10A0B000D36823F08073D3604FF080430022C3F84D
:10A0C0000C21C3F81021C3F83825FFF7BDFF10B1EC
:10A0D000634B03221A60FFF7B7FF40B1614B0522C3
:10A0E0001A6001229A6700229A603F225A604FF05C
:10A0F00080525D4BD2F80414C3F82015D2F808142E
:10A10000C3F82415D2F80C14C3F82815D2F810148B
:10A11000C3F82C15D2F81414C3F83015D2F818145B
:10A12000C3F83415D2F81C14C3F84015D2F8201423
:10A13000C3F84415D2F82414C3F84815D2F82814EB
:10A14000C3F84C15D2F82C14C3F85015D2F83014BB
:10A15000C3F85415D2F83414C3F86015D2F8381483
:10A16000C3F86415D2F83C14C3F86815D2F840144B
:10A17000C3F86C15D2F84424C3F8702503F5405396
:10A18000FB22C3F81825FFF73FFF28B1374B384AA9
:10A190001B6803F04F0313604FF08043D3F8002493
:10A1A000D20744BF6FF00102C3F80024314B1B6893
:10A1B000062B08D1304B1B68062B01BF2F4A1368B2
:10A1C00043F4806313604FF01023D3F80022002A79
:10A1D00003DBD3F80432002B2FDA294B0122C3F81A
:10A1E0000425D3F80024002AFBD04FF010221521BB
:10A1F000C2F80012D3F80024002AFBD04FF010233D
:10A200001522C3F804221E4B1A46D3F80014002965
:10A21000FBD00021C3F80415D2F80034002BFBD08A
:10A22000BFF34F8F1749184BCA6802F4E06213431B
:10A23000CB60BFF34F8F00BFFDE7144B144A1A6089
:10A2400008BD00BF240300104035014074C0074022
:10A250000DF0ADBA440200103C050040F0ED00E006
:10A26000A00500401056004000C0004058020010F9
:10A27000E40E004030010010340100103C17004093
:10A2800000E0014000ED00E00400FA051425002084
:10A290000090D00338B5074C051E04F1080318BF21
:10A2A0001C4623682BB11A6822605B6828469847D1
:10A2B000F7E738BD7027002020B9054B01225A70FE
:10A2C000FFF7E8BF012802D1014A9070F8E7704714
:10A2D0006827002020B9034B01225A70FFF7DABF2C
:10A2E000704700BF6827002038B50B4C237883B92E
:10A2F0000A486360A3602361E36000F061F80546EB
:10A3000005F00CFB08B900F067F80123237028461C
:10A3100038BD8525FBE700BF68270020B9A20100F2
:10A3200037B50B4C00230DF107008DF80730FFF710
:10A330001DFBE368013BE360E56815B900F060F8D8
:10A34000A5709DF80700FFF735FB03B030BD00BFD7
:10A3500068270020012813B509D018B103281CD0A4
:10A3600002B010BD0F4B0122C3F88020F8E70E4C5D
:10A3700000230DF107008DF80730FFF7F7FA237877
:10A380000BB9FFF7B1FFE3689DF807000133E36005
:10A390000123A370FFF70EFBE2E700F01DF8FFF7C3
:10A3A000BFFFDDE700E100E06827002000F180400A
:10A3B000002382B0036003680193019B02B07047E1
:10A3C000044A137923B9012110609180184670471F
:10A3D000852070477C270020084B1A68D20706D4D6
:10A3E000C02283F800230122C3F880211A604FF0B5
:10A3F00080430122C3F81825704700BF00E100E048
:10A40000044B01221A604FF08042D2F81834DB036B
:10A41000FBD470470C000040124B1B6810B573B1A1
:10A420004FF48070FFF7C2FF4FF080430122C3F862
:10A4300008230D4B587910B95A711B6898470B4B7C
:10A440001B6873B14FF48270FFF7B0FF4FF0804389
:10A450000222C3F80823044B01201B68BDE810400A
:10A46000184710BD000100407C2700200401004077
:10A4700000F1804000F5C040002382B00360036813
:10A480000193019B02B07047800000F1A040D0F81A
:10A49000003723F44033C0F80037D0F8003743EAE0
:10A4A0000141C0F800177047054B4FF0FF320728F5
:10A4B00043F8202084BF1B1883F83C20704700BF5E
:10A4C0008427002010B5184C94F8493053BB04F190
:10A4D00024032021FF22013911F0FF0103F8012B91
:10A4E000F9D1C8B2FFF7E0FF01310929F9D10422FF
:10A4F00000210E4807F077FB0D4BC02283F806239E
:10A500004022C3F880214FF4BE701A60FFF7B0FFFD
:10A51000084B4FF00042C3F80423012384F849306C
:10A52000002010BD0820FCE784270020C927002058
:10A5300000E100E000600040034B93F84900003068
:10A5400018BF0120704700BF8427002030B52E4B74
:10A550001A1892F92440013453D18C78002C4CD035
:10A560001C46002254F8045B013541D11C1884F8C4
:10A570002420002443F82240920002F1804202F598
:10A58000C0420B78D2F810554C7825F498151B046E
:10A59000240525F4F85504F4801403F44033C2F87C
:10A5A000105523430402D2F8105504F4F854234301
:10A5B0002B43C2F810354A780123012A4FF0A042FC
:10A5C00003FA00F30CBFC2F80835C2F80C3500F5E9
:10A5D000E073032142F82310C2080C49012300F064
:10A5E000070003FA00F08B5C18438854002003E056
:10A5F0000132082AB6D1042030BDFE2382F824306F
:10A60000D9E70820F8E700BF84270020C9270020E9
:10A61000012303FA00F04FF0A043C3F80805704788
:10A62000012303FA00F04FF0A043C3F80C05704774
:10A630002DE9F04385B00024564D01944FF480720B
:10A64000012102F1804303F5C04390B21B68012B46
:10A6500006D1D5F804330B4202D0FFF709FF0C43B3
:10A660000432B2F5907F4FEA4101EAD14A4B1B68B0
:10A67000012B0AD14FF4BE70FFF7FAFE4FF0A04352
:10A6800044F00044D3F81035019314F0FF0F1AD0B2
:10A69000424F01260025344210D0AB0003F1804325
:10A6A00003F5C043D3F81005D3F8101557F825303B
:10A6B00023B1C1F30141C0F3042098470135082DAF
:10A6C0004FEA4606E7D1002C61DA00224FF0FF3353
:10A6D000CDE90223DFF8C480012702AE98F94430A7
:10A6E000DAB2013322F0C00451D004A94FEAD40CED
:10A6F00001EB0C0002F0070310F8041C07FA03F347
:10A70000194244D008EB0401920991F9241058F839
:10A7100021503DB9032A3AD116F80C10194306F816
:10A720000C1001E0032AF7D004F5E0714FF0A04CC3
:10A7300010F80C0C5CF821101842C1F3014105D04F
:10A74000022924D1032A20D1114604E003291ED175
:10A75000032A1AD102212046FFF796FE3DB14FF0A1
:10A76000010911462046A847B9F1000F0FD04FF05C
:10A77000A043019AD3F81035934208D00193029B6D
:10A780000393ABE74FF00009EBE7002DFAD105B0DA
:10A79000BDE8F083006000407C6100408427002019
:10A7A0000023435082B043580193019B02B070478D
:10A7B0001FB501238DF80030054B8DF8080001917D
:10A7C0006846D3E90012904705B05DF804FB00BF6E
:10A7D000D02700207FB5384AD2F82461002E49D016
:10A7E00010464FF49271FFF7DBFF02238DF8003023
:10A7F000D2F88034C2F880340393D2F83C358DF817
:10A8000008302E4BDA6801920022C3E9062268461E
:10A81000D3E900129047284AD2F8443173B14FF47B
:10A82000A2711046FFF7BCFF244B996931B100219A
:10A830009961D2F83C05D968FFF7BAFF1E4AD2F8F1
:10A840002031ABB14FF490711046FFF7A9FF1B4BBD
:10A85000596969B1D2F84C158DF808100022996831
:10A860008DF8002001915A616846D3E900129047A3
:10A8700004B070BDD2F81031002BCCD04FF48871E9
:10A880001046FFF78DFF0D4BD2F83C0599698842C1
:10A89000C1D1DC69D96864B1D2F8005225F0200535
:10A8A000C2F800521A699C61DA60DE61FFF780FF2E
:10A8B000B1E79C61FAE700BF00200040D0270020EC
:10A8C00037B501258540C5F31003ABB10B4B002410
:10A8D000C3F808550DF107008DF80740FFF746F85B
:10A8E000074A9DF80700136823EA05051560FFF77E
:10A8F00061F8204603B030BD0720FBE700F00140BF
:10A90000F427002000F1804000F5E040002382B0F1
:10A91000036003680193019B02B07047F0B5534B8D
:10A92000534C1B6885B0002B3DD04FF4827094F8D7
:10A930002E20FFF7E7FF2AB394F82F3013BB4D4BBF
:10A940001B68002B33D04FF48070FFF7DBFF94F8C7
:10A950002D20638B91B28B424ED95B1A21899BB219
:10A960006383CB1A616801EB4301434BC3F82C1698
:10A97000C3F830264FF48270FFF7C4FF3F4B01222B
:10A980001A6014E0636802932389ADF80C30E36821
:10A9900000218DF8041023BB2374236801A8984775
:10A9A000002384F82F3094F82E30002BC7D1344B7D
:10A9B0001B685BB14FF48870FFF7A4FF002323747A
:10A9C00002238DF8043001A8236898472D4B1B689B
:10A9D00013B34FF48A70FFF795FF0023237405B07B
:10A9E000F0BD208B608363602081E160002AD4D1B8
:10A9F000214B01221A60D0E7BCD1E368012184F821
:10AA00002F103BB1002161831B49C1F82C36C1F8DE
:10AA10003026AFE76383ADE766694FF00047012555
:10AA2000002EDCD0B6FA86F227FA02F34632920004
:10AA300026EA030602F1804303F5E0431B68002B7E
:10AA4000EED01046FFF75EFFA2F58C72D30882F0BD
:10AA50000402C2F380028DF808308DF804508DF89E
:10AA60000920236801A89847DAE700BF0471004075
:10AA7000F827002000710040007000400470004082
:10AA8000107100401471004038B51D4B044693F816
:10AA90002C0098BB1B4A19602178C2F8F015617828
:10AAA000C2F8F415E5781874012183F82C1083F8A6
:10AAB0002D00586183F82F0083F82E506FF000436B
:10AAC000C2F808334FF48270FFF71CFF4FF4807018
:10AAD000FFF718FFA3780C485B01DBB280F807335F
:10AAE0008023C0F8803103600223C2F804330DB123
:10AAF000C2F80413C2F80015002038BD0820FCE796
:10AB0000F82700200070004000E100E02A4B1A7C8A
:10AB100070B502F0FF05002A4BD10A79012A9CBFCB
:10AB2000264CC4F8005500F10C0503EB45042479CC
:10AB300024B993F82D40013483F82D4003EB4503ED
:10AB4000CC790D7A8E781C715D714B7836021B01C1
:10AB500006F4E06603F0300333430E7806F0030694
:10AB60003343CE78360306F480563343160406F496
:10AB7000E02633434E798979360506F480160906B6
:10AB8000334301F080710B430C4901EB00160001C7
:10AB900000F1804000F5E040012AC6F81835C0F801
:10ABA0001455C0F8104502D80123C1F80035002023
:10ABB00000E0112070BD00BFF827002000700040A9
:10ABC000344A70B5147C04F0FF03002C5FD1324C82
:10ABD000012503261574C4F80863C4F82C16C4F8BC
:10ABE000305692F82D10A9420CD91C46190101F1DA
:10ABF000804101F5E0410133082BC1F81445C1F84B
:10AC00001045F3D100F10C03000102EB430300F106
:10AC1000804000F5E04019795B79C0F81435C0F840
:10AC200010151D4901230B604B6042F2107301F5B2
:10AC30008271086808B9013BFBD14FF48070FFF7BF
:10AC400061FE4FF48270FFF75DFE92F82D30012B0C
:10AC500011D9104800210B0103F1804303F5E043B3
:10AC60000131047F457FC3F814550829C3F8104506
:10AC700000F10200EFD192F82E10074B29B1032109
:10AC80000020C3F80413107470BD0221F8E71120EE
:10AC9000FAE700BFF827002000700040024B187C44
:10ACA000003018BF01207047F8270020F0B51B4F77
:10ACB0008BB207EB001443EA0243C4F81C35184B6F
:10ACC00040005C6900F1010C4FF0004611F5006F87
:10ACD00026FA0CF64FF0800505FA00F50BBFB443D9
:10ACE00034435C615C610CBFC7F80853C7F8045378
:10ACF00040244FF000455969844025FA00F040F2A5
:10AD0000FF75AA42054A0BBF81430143596159614E
:10AD10000CBFC2F80843C2F80443F0BD0070004005
:10AD2000F8270020124B1A7C10B5F2B900F10C0183
:10AD300003EB4102127922B193F82D20013A83F8F6
:10AD40002D2003EB410300249C80030103F1804389
:10AD500003F5E04340F2FF72C3F814450549C3F818
:10AD60001045FFF7A3FF204610BD1120FCE700BFF0
:10AD7000F827002000F8FFFF38B5134B6FF00042B2
:10AD8000C3F80823114A8021C2F88010104A01211B
:10AD90001160104942F21072086808B9013AFBD1FB
:10ADA0000D4D0024C3F800452C7405EB44031B7FB4
:10ADB00013B1E0B2FFF7B6FF0134082CF5D1002340
:10ADC00085F82C3038BD00BF0070004000E100E085
:10ADD0000870004014710040F82700202DE9F74367
:10ADE000002406460F4600F5A0754FF48038A146B2
:10ADF000A0002B6800F5A07080B26BB1D6F80433C8
:10AE000008FA04F21A4207D0C5F800902B680193A3
:10AE1000019BD7E9003198470134042C05F1040562
:10AE2000E6D103B0BDE8F0830368044901221A614A
:10AE300003790C2000FB03131A72704728280020A6
:10AE40000268110B38B54BB201245B0901F01F01F8
:10AE500004FA01F120330B4C44F823100546D2F8D4
:10AE6000003200244FF0FF33C2F80042C2F808332A
:10AE7000FFF7DAFF2B79044A0C2101FB03231C7234
:10AE800038BD00BF00E100E0282800200149024849
:10AE9000FFF7A4BF28280020008000400149024895
:10AEA000FFF79CBF34280020009000400149024871
:10AEB000FFF794BF4028002000A00040032813D8CB
:10AEC000012A0BD1012908D100F10E02D2B200EB08
:10AED00040000C4B1A540020704700220129F6D084
:10AEE0004BB24BB1022901D007207047054B00EB54
:10AEF000400018444270EEE7024900EB400008446D
:10AF00008270E8E74C28002008B5012202210020C9
:10AF1000FFF7D4FF08B1072810D107220221012032
:10AF2000FFF7CCFF08B1072808D100210A22084604
:10AF3000FFF7C4FF10B1072808BF002008BD0000BC
:10AF40000388102B10B502D0112B1ED010BD1A4C47
:10AF50002168B1B901220846FFF7B0FF08B1072800
:10AF600024D1072202210120FFF7A8FF08B10728FA
:10AF70001CD1042202210020FFF7A0FF08B10728FE
:10AF800014D1236801332360E0E70B4A1368013BC7
:10AF90001360002BDAD1FFF7B7FF0028D6D0074B9C
:10AFA0001B68002BD2D0BDE810401847034B1B682C
:10AFB000002BE6D09847E4E75C28002058280020C2
:10AFC0006DDF704779DF70477DDF704764DF704762
:10AFD0002DE9F04F85B000250E9CBDF83CB02788C8
:10AFE0000191804691469A462E46B8F80020B2421A
:10AFF0000CDC3DB12288013AD21B92B2FF2A3BD829
:10B000000AF80720002005B0BDE8F08FD8F804202A
:10B0100052F82600039000220DF10B0103A8FFF760
:10B02000D5FF0028EFD19DF80B204A4522D1228878
:10B03000002D14BF0020022002EB090101445945F4
:10B040001ADC45B9013292B2019B22800AF8023023
:10B0500022880132228022880DF10B01524403A87C
:10B06000FFF7B4FF0028CED121889DF80B200A44B9
:10B07000228001250136B8E70C20C4E72DE9F34111
:10B08000089CBDF824501746CDE90045022206462B
:10B090009846FFF79DFF50B9434610223946304687
:10B0A000CDE9084502B0BDE8F041FFF791BF02B01D
:10B0B000BDE8F0812DE9F04F00231688138090F849
:10B0C0002D3085B007460D46144653B3082E01D8DF
:10B0D0000C2027E102A8FFF773FF002840F022812F
:10B0E00023880822EA54238801339BB21B22238041
:10B0F000EA542088013080B2208006220DF1090137
:10B10000284406F047FD23889DF8082006339BB2AB
:10B1100012F0FE0218BF01222380EA542388013373
:10B120002380BB78FBB123880433B342D0D802A874
:10B13000FFF748FF002840F0F58023880322EA54F7
:10B14000238801339BB219222380EA542388BDF857
:10B15000082001339BB2E9182380EA54120A4A708E
:10B16000238802332380FA789AB12388D91CB1420C
:10B17000AED80221E954238801339BB201212380F8
:10B18000E95423880B449BB22380EA5423880B4460
:10B1900023807A68AAB12388D91CB14298D80221A9
:10B1A00092F90020E954238801339BB20A212380BD
:10B1B000E954238801339BB22380EA542388013366
:10B1C00023803B89002B40F0A1803B8A5BB1CDE915
:10B1D00000462B460722032107F11000FFF74EFF20
:10B1E000002840F09F803B8B5BB1CDE900462B46A9
:10B1F0001522142107F11800FFF740FF002840F046
:10B2000091803A6A002A40F09080D7F82480B8F103
:10B21000000F30D0B8F804302188981C8A1C0244F2
:10B22000B2423FF655AFFE283FF652AF03336B54A0
:10B23000238801339BB2FF222380EA542388013301
:10B240009BB22380B8F80020EA54E918120A4A7029
:10B250002088023080B22080B8F804205AB1D8F893
:10B26000081000296BD0284406F094FC2388B8F815
:10B2700004201344238097F82C30002B40F09A8050
:10B28000387800284ED03B88012B58D0228802F114
:10B29000020CB4453FF61CAF012805D17B78023380
:10B2A00013449E42FFF414AF023EB61AB6B202A98E
:10B2B00005EB0C00ADF80860FFF786FE90BB39780F
:10B2C000BDF80820022900F0BA807B78934202D3AF
:10B2D000B24240F2B280012940F0B3809BB29E425C
:10B2E000C0F0AF80ADF808300821BDF80830FE2B63
:10B2F0003FF6EEAE22880133AB542288013292B27F
:10B300002280A9542288134423800BE0CDE9004613
:10B310002B460622022107F10800FFF7AFFE0028A6
:10B320003FF453AF05B0BDE8F08FB4F800C00CF1A6
:10B330000603B3423FF6CCAE1188052901D8072099
:10B34000F0E76FF4486E01EB0E039BB24FF27D3EC7
:10B350007345F4D95388052BF1D96FF44860181858
:10B3600080B27045EBD94FF6FF70814203D0834223
:10B3700001D09942E3D8052305F80C302388013326
:10B380009BB212212380E954238801339BB223808E
:10B390001188E954E818090A4170238802339BB2E6
:10B3A00023805288EA54E918120A4A70238802332B
:10B3B00023802AE7BB6A002BC1D04FF000094FF071
:10B3C0000C0A4FF0160B97F82C305FFA89F2934273
:10B3D0007FF656AFB96A0AFB02F201EB0208B8F831
:10B3E0000430981CFE283FF673AE208803332B549C
:10B3F000238801339BB2238005F803B023880133EF
:10B400009BB223808A5AEA54E918120A4A702088AB
:10B41000023080B22080B8F804205AB1D8F8081061
:10B4200000298CD0284406F0B5FB2388B8F8042006
:10B430001344238009F10109C5E7092155E7B24208
:10B44000FBD9ADF808604FE770B5C0B14AB11688B6
:10B450000024B44203D305196D789D4208D0A1425F
:10B4600001D800200BE0055D01352C44A4B2F0E7C3
:10B47000A142F6D9A31C1380005D013880B270BDD3
:10B4800013B50023ADF8063013460DF1060204464D
:10B49000FFF7DAFF10B1BDF80600204402B010BD7E
:10B4A00072DF704773DF704738B5012204460D46DE
:10B4B000B0F89810D0F89400FFF7E2FF00B10570E3
:10B4C00004F13C0204F1940104F15400BDE8384059
:10B4D000FFF7E6BF80F830107047F8B504460F4616
:10B4E000002968D0002866D091F87A301BB191F815
:10B4F0009830002B61D1D7F8A030042B5DD0D7F85D
:10B500009C30042B59D007F178060FCE4FF0000C79
:10B51000251D84F802C00FC50FCE0FC596E80700A1
:10B5200085E8070084F830C0D7F8A4306363D7F803
:10B53000A830A3634FF6FF7504F19403C4F8A43058
:10B54000A4F8A8500722614604F1AA0006F04BFBBC
:10B5500023780BB984F85450224604F155011F2575
:10B56000C4F89410384622F8985FFFF7A3FD08BB93
:10B57000224604F17401C4F89C1007F13C0022F843
:10B58000A05FFFF797FDA8B9A369A4F848304FF46E
:10B5900080730125A4F8503063692064014684F863
:10B5A0003C50636404F13C0204F15400FFF778FF5F
:10B5B00000B92570F8BD0E20FCE70720FAE7F8B5C2
:10B5C000077804460D46002F00F0F98000F1AA0626
:10B5D000A17007220021304606F005FBE38813B175
:10B5E000A378012B04D0E3794BB1A378022B06D1C9
:10B5F000636BA3B1012284F8B12008209847334639
:10B6000004F1B00113F8012F12B98B42FAD1174699
:10B610006B1E032B52D8DFE803F0050B0F1284F8E2
:10B62000B130ECE7A3791BB194F8243003B95FB9CA
:10B63000E3790BB1002F43D1237A002B42D1637AF7
:10B64000002B0CBF00250425636BA570002B3BD09D
:10B65000033D012D38D86279002A35D094F8B22004
:10B6600092BB84F8B420012284F8B32007209847C5
:10B6700004F13C0518220021284606F0B4FAE36ADA
:10B68000591E0122022928BF134684F8513094F82C
:10B69000243084F83C2033B1914296BFA36A84F8E9
:10B6A000522084F85230A278002384F85030042AC3
:10B6B0001BD8DFE802F06C0D223252000025C3E7F0
:10B6C0000225C1E70325BFE7002384F8B330CFE7A5
:10B6D000C4F8A430C4E910630223012284F83C308A
:10B6E000802384F83120A4F84830A378002B51D16E
:10B6F000636B002B5FD100205CE0022384F83130C3
:10B70000032384F83C302369A4F848300023C4F8AC
:10B71000A430E36826646364E7E763696364A3694C
:10B72000A4F848306379B3B194F8B2309BB994F877
:10B73000B43083B1022384F8503004212046FFF74F
:10B74000B3FE0028D1D1052384F8313004F19403ED
:10B75000C4F8A430C9E70323F6E7E3696364236A06
:10B76000A4F84830637983B194F8B2306BB994F897
:10B77000B43053B1022384F8503004212046FFF73F
:10B7800093FE0028B1D10623DEE70423DCE784F82A
:10B790003130AAE72A46D4F8A41004F15400FFF788
:10B7A0007FFE38B994F8301094F85400FFF77AFE11
:10B7B00000289DD0F8BD94F8310098479BE70820F9
:10B7C000F8E70388102B05D1C37B012B04BF8388C6
:10B7D000A1F8A8307047704775DF704776DF704773
:10B7E0007ADF70477BDF7047034B1A8882420CBFB9
:10B7F00018460020704700BF7C280020024B9B6940
:10B8000003B11847704700BF6028002073B586B2A7
:10B810003046FFF7E9FF044670B1164D027A2B7BE4
:10B820009A420BD200F10A013046FFF7D5FFE8B18A
:10B83000112801D0FFF7E2FF02B070BD00230372B0
:10B840002B7C43B13B213046FFF7C8FF30F00803A3
:10B8500001D0FFF7D3FF6B69002BEDD000228DF8EC
:10B860000420ADF8066001A89847E5E7237A013384
:10B870002372E1E76028002013B50B46497A0F4C8C
:10B88000024669B9D4E901101C7A002C18BF0146A0
:10B890005868FEF715F808B1FFF7B0FF02B010BD09
:10B8A000002119726369002BF8D00121ADF8060060
:10B8B0008DF8041001A89847F0E700BF6028002029
:10B8C0004B8802889A4213D842889A4210D38088C3
:10B8D0008A8840F2F313984294BF031AC31A934222
:10B8E00006D800F2F310904234BF002001207047C8
:10B8F000002070470388112B70B5014648D002D84C
:10B90000102B1ED070BD122B52D0502BFAD12F4BC2
:10B91000C288DB899A42F5D1038A022BF2D186884C
:10B920003046FFF761FF05460028EBD001F1120019
:10B9300000F0FCF930BB6868FEF708F80028E1D099
:10B9400009E0C37B012BDDD14FF6FF70FFF74CFF01
:10B95000054620B90420BDE87040FFF74FBF1C4AE0
:10B960008E880680002303721368C5F80A300A30F7
:10B97000536843601031FFF7A3FF144B6872DB89F3
:10B98000002BBFD129463046BDE87040FFF774BF99
:10B990008088FFF729FF04460028B3D04068FDF7F0
:10B9A000D5FF08B1FFF72AFF4FF6FF732380A9E701
:10B9B00086883046FFF718FF05460028A2D00831D8
:10B9C0000A30FFF77DFF6872DCE700BF60280020C7
:10B9D00090280020F8B5064648B305460FCD154F10
:10B9E0003C460FC495E8070084E807003068124C15
:10B9F0003C60B0B1FFF7F4FEC0B932681368236051
:10BA0000536863600D480E4A4FF6FF7303800D4B79
:10BA100040F8043F0021FDF741FF002818BF032034
:10BA200004E02046FFF7DEFE0028EBD0F8BD0E2034
:10BA3000FCE700BF60280020902800207C28002020
:10BA40000DB8010098280020F7B5174601900E4662
:10BA500091B1019C6CB100252C46294601A8FEF746
:10BA60008AF818B13946A8B2B04701340135142D0F
:10BA7000F3D1204603B0F0BD0C46FAE773B501914F
:10BA8000019C06466CB100252C46294601A8FEF70C
:10BA900072F818B106EB440301349D800135142D72
:10BAA000F3D13046346002B070BD00002DE9F0479C
:10BAB00003888488112B8CB006463CD01A2B3FD0CB
:10BAC000102B17D1274DAB68DB430093696868469C
:10BAD000FEF7A7F8009901A8FFF7D0FF0DF10809BC
:10BAE0004FF00008019B984507D3132C13D904206D
:10BAF000FDF76AFC0CB0BDE8F08739F802AB00270F
:10BB00000137514605EB8700FEF72BF81D2FF7D1C3
:10BB100008F10108E6E721461348FEF70BF8214635
:10BB20001248FEF707F8F37B012BE3D010482146BB
:10BB3000FEF700F8DEE70C482146FEF712F8D9E7D9
:10BB4000057A0C482D09012D214606D9FDF7F2FF93
:10BB5000022D21460848F0D0EAE7FEF702F8214618
:10BB60000548EAE7B8280020C0280020BC280020AB
:10BB7000C4280020C8280020CC2800201328014613
:10BB800002D80248FDF7F7BF00207047BC2800200C
:10BB9000FFF7F4BF10B50446FFF7F0FF38B12146B8
:10BBA0000348FDF7E8FF002814BF0220012010BD64
:10BBB000C028002010B50446FFF7E0FF28B1214659
:10BBC0000248BDE81040FDF7D6BF10BDC8280020D0
:10BBD00010B50446FFF7D2FF28B121460248BDE860
:10BBE0001040FDF7C8BF10BDCC28002010B504469A
:10BBF000FFF7C4FF002814BF2046142010BD00002A
:10BC000008B518210248FDF7BFFFC0B208BD00BF4C
:10BC1000B828002070B50A4D064628460C46FDF7A8
:10BC2000AAFF58B13046FFF7A9FF38B1A01D314631
:10BC300005EB8000BDE87040FDF79DBF002070BDA2
:10BC4000B8280020F8B50D4C054620460E4617468C
:10BC5000FDF791FF80B12846FFF790FF60B1B01D5E
:10BC600004EB800029461FB1BDE8F840FDF762BF34
:10BC7000BDE8F840FDF775BFF8BD00BFB82800204B
:10BC8000F8B50A4C05460E46014620461746FDF714
:10BC900072FF48B1043504EB85043A46A06831468A
:10BCA000BDE8F840FFF7D0BEF8BD00BFB8280020BF
:10BCB00070B5054616460AB90E2070BD0023136004
:10BCC0000028F9D00368002BF6D0C38813F00304D2
:10BCD0000FD10846FFF78AFFC0B214280BD02B798A
:10BCE00083420AD9EB882A6800FB0323336020468D
:10BCF000E3E70720E1E70520DFE70420DDE7AADF2F
:10BD00007047002301380B70042806D8DFE800F0E4
:10BD10000306080A0C0011230B7070472123FBE770
:10BD20003123F9E71223F7E72223F5E7007800F043
:10BD300001007047F0B58B7891B0002B0C4608BF1E
:10BD400001238DF80E3005460B88ADF80C3000212C
:10BD500016466846032205F046FF6946607CFFF7F9
:10BD6000D0FF0DF10101A07CFFF7CBFF9DF8023061
:10BD7000E27B62F3C303227C62F30413227B62F34F
:10BD80000003227D002A14BF0222012262F3420333
:10BD900000211C2209A88DF8023005F024FF637BE6
:10BDA00013F0300F15D002AF03220021384605F002
:10BDB0001AFF0DF10901E07CFFF7A3FF11238DF8B5
:10BDC00008309DF80A300E97012262F342038DF885
:10BDD0000A30637B8DF824301422A37B8DF8253044
:10BDE000002104A805F0FFFE03AB0493A388ADF87F
:10BDF0001C30A368CDF814D01BB1E288ADF8182030
:10BE00000893A369002B2ED001AF032200213846EE
:10BE100005F0E9FEA3691A88ADF82C205A88187B32
:10BE2000ADF82E2039465A680A920D97FFF769FF40
:10BE3000A3690DF10501587BFFF763FFA2699DF827
:10BE40000630917A61F3C303D17A61F30413117A56
:10BE5000927B002A61F3000314BF0222012262F3E5
:10BE600042038DF80630E36903B10C93334604AA0C
:10BE700009A92846FFF743FF11B0F0BDA5DF7047C1
:10BE8000B5DF704758B14FF0F7130360FB23037120
:10BE9000F723C3801723C1608360002070470E2002
:10BEA000704730B1A1F11703E02B04D801800020C6
:10BEB00070470E2070470720704713B503468088EF
:10BEC0000C4678B91A88112A43D00DD8102A2BD0E5
:10BED000A37A3BB1E1880020FFF7D0FF10B94FF4FF
:10BEE0008073638102B010BD3A2A37D0552AEFD152
:10BEF000DB88C988A072172B38BF17238B4228BF55
:10BF00000B462381FFF7BCFFE37A002BE0D1E36807
:10BF1000002BDDD040F6772200922289ADF8042074
:10BF2000694620469847D3E7DB7B012B04BF0B888B
:10BF3000CB80C98823898B42CAD20020FFF79EFF9D
:10BF400010B90123E372C3E71128C1D10123A37201
:10BF5000BEE7F723CB8017238B60B9E75B89CA88DC
:10BF6000934228BF1346172BCA6838BF17230B818B
:10BF70004AB1C97A39B140F677210091ADF8043061
:10BF800069462046904700236381A1E7B0DF7047F0
:10BF900066DF704710B5002104464088FFF7F8FFC0
:10BFA000034608B9237210BD112801D10123F9E716
:10BFB0006368BDE81040184760B159B10378DE2BC3
:10BFC0000AD00B684360DE2303704FF6FF73438093
:10BFD000002070470E2070470820704728B1037872
:10BFE000DE2B04D14180002070470E2070470820CE
:10BFF0007047F0B5054685B00C46F1B1E8B10B7855
:10C00000DE2B1AD182884B889A4204D10B7A13B165
:10C010000846FFF7BFFF2B88112B32D0512B0ED0D3
:10C02000012B0AD12B7A012B07D1A9886288914272
:10C0300003D123722046FFF7ADFF05B0F0BDAE88F7
:10C040006388B342F9D1AF79022FF6D1AD7B2B1FB4
:10C05000022BF2D800211022684605F0C4FD052D00
:10C0600014BF4FF4C0730023694630468DF800704A
:10C07000ADF80430FFF78AFF0028DED063689847E8
:10C08000DBE76388AA889A4204BF4FF6FF73638098
:10C09000D3E7000070B5064D0646002455F8043B72
:10C0A0000BB1304698470134042CF7D170BD00BF66
:10C0B0003C290020033080B240F2FD33984230B575
:10C0C0001FD8124B1A783AB91C895D892C44044454
:10C0D000A4B2B4F5806F0AD31A7DA2B99A8BDC8B17
:10C0E0002244024492B2B2F5806F0CD201220A803F
:10C0F0001446142202FB04335A891044588100204C
:10C1000030BD0920FCE70720FAE700BF70290020B6
:10C110000B4A0C4B5188142000FB0131CB6833B91A
:10C120000420496810700122074800F02EBF052343
:10C130000649137002238B80012200230968F3E76C
:10C14000542900207029002000250020382A0020D2
:10C1500007B5002305490093054A096805480823E7
:10C1600000F0E5FE03B05DF804FB00BF382A0020B4
:10C17000941D02000025002007B50023009301460E
:10C180000823034A034800F0D2FE03B05DF804FB25
:10C190008C1D02000025002013B500230C460093DF
:10C1A00001460423074A084800F0C1FE38B9074B8E
:10C1B000142202FB04340123237402B010BD0E20AC
:10C1C000FBE700BF881D0200002500207029002029
:10C1D00037B50A480A4B42689C881968538803257A
:10C1E000033305709BB2002000909B0001EB84019B
:10C1F000044800F09CFE03B030BD00BF542900206D
:10C20000382A00200025002010B501460448FDF71B
:10C210001CFC1C220446002105F0E5FC204610BD54
:10C22000242A002068B10268084B9A4209D140686C
:10C23000074B984207D0013398420CBF01200320DE
:10C240007047032070470020704700BFDEC0ADDE9E
:10C25000FE011EF14388033300EB8303994209D3A7
:10C2600082884FF6FF739A4206D00088B0FA80F0B9
:10C270004009704702207047012070472DE9F843BC
:10C280000223DFF860800B800D46174600F58056CC
:10C2900000F108044FF00109B4420FD223680133C2
:10C2A0000CD031462046FFF7D5FF48B10FB187F8D3
:10C2B000009002280BD14FF480632B80BDE8F883F7
:10C2C000A368D8F80020934201D9C8F800302B8821
:10C2D0006288033313442B806388033304EB8304A5
:10C2E000DAE700BF68290020154A142303FB002069
:10C2F00070B50B6844680D4604F58056ABB15C8898
:10C30000033403EB8404B4420DD2236801330AD012
:10C3100031462046FFF79EFF01280BD010F0FF0F9B
:10C3200005D00228EFD1002003E00834EBE72C60B1
:10C33000012070BD6388033304EB8304E3E700BF8F
:10C3400070290020436873B504460D4663B3234A41
:10C35000D1688B4228D31269934225D813F0030089
:10C3600022D11F4A2189128991421DD121689A68E0
:10C37000914219D11B4A51688B4203D901F5805172
:10C380008B420DD3926993420CD902F580529342AD
:10C3900008D201232B80B0FA80F0400902B070BDB2
:10C3A0000346F7E70A20F6E700232B801E46019696
:10C3B00001A92888FFF798FF30B92B8801339BB279
:10C3C000012B2B80F3D9E9E7019B22689968914200
:10C3D000EED16360024B1B892381DFE7002500203B
:10C3E00054290020702900202DE9F8431C461C4BDD
:10C3F0001B7806460F4615466BB372B36CB3DFF875
:10C4000068804FF01409A388012B01D90A2020E08D
:10C4100009FB03F318F803302BB92146A088FFF776
:10C4200063FF20B92060A3880133A380EBE7236872
:10C430001EB1998832889142EFD11FB119883A888C
:10C440009142EAD19A68C5E90023064B1B892B81EA
:10C450000020BDE8F8830220FBE70520F9E700BFD4
:10C460004C290020542900207029002008B5074BD2
:10C47000191D5888FFF738FF18B1BDE80840FFF7CD
:10C48000A7BEBDE80840FFF743BE00BF5429002007
:10C490002DE9F04FA04FDFF8A49289B00646B846C8
:10C4A0003B6823B949469D48FDF709FB3860D8F839
:10C4B000005029784B1E052B00F2FA80DFE813F0BC
:10C4C00006005E005E00EE00EE005C0126B1944BBB
:10C4D00000225A600124ECE02B79032B1DD8DFE801
:10C4E00003F015022A358F490B78022B084619D024
:10C4F0000B7D022B4FF0010316D114225343C218B7
:10C500000020C8545068FFF737FE03E001232B7169
:10C51000FFF71EFE002800F0BC80814B00225A600D
:10C520000E24C6E00023E8E77D4A13700023536021
:10C5300041F61D54BDE07C497C48002302222B714A
:10C540008A800122096800F020FDE3E7764C00268E
:10C550002E712068734DFFF70FFE754BD4F800C0A5
:10C560005A8814235343EA18EE5451682160A18875
:10C57000C2F804C011810222A280CBE7B5F814A052
:10C58000AA7DDFF8A0B1AEB1022AEB8806D914214A
:10C5900001FB0AB1DA1C088902440A81142202FB59
:10C5A0000ABAC3F57F43BAF80A20FD331344AAF848
:10C5B0000A308FE7142303FB0AB318895C6804EB85
:10C5C0008004062A68D8DFE802F0274D35431D595C
:10C5D000040041F61D54AA7DEB88022A06D91421D5
:10C5E00001FB0AB1DA1C088902440A81142202FB09
:10C5F0000ABAC3F57F43BAF80A20FD331344AAF8F8
:10C600000A3056E04B484C4900234360AB69036055
:10C61000FFF798FE002871D00223AB75002300932A
:10C620000423EA182146414800F081FC002830D05C
:10C630000E24D0E72B69002B14BF03230123AB7515
:10C640000023009305F10C02042304F10801EAE73A
:10C650000123AB750022EB8800929B002A6904F14C
:10C660000C01E0E703290CBF05230623AB7500236B
:10C670000093042305F10802E118D4E70623AB7503
:10C680002D4B19882B4B5868FFF786FD0446002870
:10C69000A1D109B0BDE8F08F0F249CE7002E7FF4F4
:10C6A00019AF2B79012B4BD0E3B1022B3FF440AFF4
:10C6B0000F241422002103A805F095FA41F61D531A
:10C6C0009C4208BF0024D8F8003004941A78023A3B
:10C6D000042A00F20581DFE812F0E600F2001501FD
:10C6E0001D01240102232B710DF10A01EB68039354
:10C6F00003A8CDE90466FFF725FE08B90A24D8E7A8
:10C700000498BDF80A108388EB8003882B81FFF71B
:10C7100043FD044627E000BF6C290020242A0020A6
:10C720004C29002070290020382A002000250020F4
:10C730005429002030290020442A002064290020A8
:10C74000DFF8FCA103AA53463146A81DFFF74CFEB3
:10C75000044658B9BAF804100498FFF71DFD0446C2
:10C760000A2C3FF4E5AE002CA3D192E70822314613
:10C77000504605F038FAF3E7002E7FF4ABAE6B4B72
:10C780001A7BAAB11E731A78013A062A90D801A121
:10C7900051F822F03BC8010061C801007FC80100C8
:10C7A00085C80100B1C601008BC801009DC8010009
:10C7B0001A78072AE7D801A151F822F0DDC7010055
:10C7C00087C7010087C7010003C8010017C801001F
:10C7D00037C8010037C80100FFC701001A89544952
:10C7E00001321A8100225A801A730A78B2FA82F250
:10C7F00052099A720A7DB2FA82F25209DA72012261
:10C8000007E04C4958688A884088033202448A808D
:10C8100002221A70B7E7464C5A884649142505FB90
:10C8200002420868546850608888108102228A8019
:10C830000C600622EDE70722EBE79A7A32B9DA7A42
:10C840008AB900221A705A805A6071E6384900226B
:10C850009A72CA68002AF2D1097C0029EFD05A8066
:10C86000FFF704FE55E70022DA72314A116A002907
:10C87000E7D192F82420002AE3D00122EFE7FFF766
:10C88000A7FC46E7FFF744FC43E7294A5B881421ED
:10C8900001FB03235868FFF76FFC3AE700225A6058
:10C8A000FFF756FC35E701228DF80C201A89ADF808
:10C8B00018209A88DB68ADF81A20059310E0022250
:10C8C0008DF80C201A89ADF818209A88ADF81A2036
:10C8D000DA689B7D05929A1F534253418DF81C30B4
:10C8E00003A8FFF7D7FB002649461348C8F80060A5
:10C8F000FDF710F901211148FDF7B4F900287FF484
:10C90000CFADC6E603228DF80C20DA88ADF81820EA
:10C910001A89CFE70422DB888DF80C20ADF8183097
:10C92000DEE705238DF80C30DAE700BF542900203C
:10C9300070290020382A0020242A0020342A0020D0
:10C94000482A00204068FFF7A3BD000008B5012178
:10C950000448FDF771F918B9BDE80840FFF798BD24
:10C9600008BD00BF342A00202DE9F3419846354B1D
:10C970001B7806460D46002B5BD000295BD009884A
:10C980004FF6FF73994258D06B88002B55D06B68D7
:10C990009B0754D14AB92F890DF102013846FFF7A0
:10C9A00089FB30B102B0BDE8F08113885788ADF83B
:10C9B000023001A8FFF728FC044658B9BDF8023040
:10C9C000214A142101FB032358890338C01B5881D5
:10C9D0000820E7E700238375BDF8023083826B6887
:10C9E000036180F8008001211848FDF730F92B8899
:10C9F0002381B8F1030F6B88A38004BF0423A375C0
:10CA00004FF0000508BF3368E06008BFA361E7800E
:10CA1000658101A90E48FDF742F836B1E36833603D
:10CA20000C4B75601B89B5723381FFF78FFF0020B7
:10CA3000B8E70220B6E70520B4E70420B2E70320F8
:10CA4000B0E700BF4C290020702900206829002091
:10CA5000242A00205429002008B5084B1A68042A0B
:10CA600009D01968064A42F8210001211846FDF74D
:10CA7000EEF8002008BD0C20FCE700BF402A002093
:10CA80003C2900202DE9F04F14228BB000210DEB42
:10CA9000020005F0A8F8734A137803F0FF01CDE90E
:10CAA00001123BB105A8FFF7F5FA002738460BB095
:10CAB000BDE8F08F029B181DFDF7DFF80028F4D1C8
:10CAC0004FF010234FF080525B691269664C591C7D
:10CAD00004BF3023534323610022A3F5405363492D
:10CAE000E360204600F01AFA039407460028DDD1DF
:10CAF0001C238C225E495F48DFF88491DFF8848133
:10CB0000FCF76EFFBA463D464FF0030B3C46039BD5
:10CB1000DE68564430463146FFF784FB01284DD08D
:10CB200042B2002A36D0032822D106F58052086886
:10CB3000013040F08A8004319142F8D1D9F80020C8
:10CB40003AB902220123C9F80060A9F80420019330
:10CB50000CE014226243022008EB020108F80200F4
:10CB6000454A4E60548001340881A4B245F0010565
:10CB70000AF5805ABAF5405FC9D1BBF1010F98BFE1
:10CB80000025EDB2022D03D0062D35D0002D3CD16D
:10CB90000B278BE71421614308EB010008F8012003
:10CBA00001F1100208314660424441443046FFF72B
:10CBB00065FB45F002050134A4B2D9E7019B63B1DE
:10CBC0001422624308EB0201022008F8020001343B
:10CBD000D9F800204A600881A4B200222749C9F888
:10CBE00000603046FFF74AFBB9F80420022A0CBF68
:10CBF000042208221543BBE7029A0123137005A8FB
:10CC000000235360FFF746FA50E704A8FFF7FCFA49
:10CC1000C8B10123013D03700A2D09D8DFE805F0F2
:10CC200006080608070807080F110F000023037104
:10CC300004A91048FCF733FFFFF788FE36E703230B
:10CC4000F5E70223F3E7082730E70BF1FF321FFA7D
:10CC500082FB1422624308EB02014E60032108F8B4
:10CC60000210A8E74C29002000250020681D0200C2
:10CC700098290020242A0020542900203C2A002042
:10CC8000382A00207029002073B50D460446C8B12B
:10CC9000C1B10DF10601FFF755FBA8B10B4BBDF873
:10CCA00006006668142202FB003001210C30FCF7FC
:10CCB000CEFF63682E600C336B600123A3720020EB
:10CCC00002B070BD0520FBE70A20F9E770290020BB
:10CCD00013B50446A8B10DF10601FFF733FB90B17F
:10CCE0000B4ABDF80630142101FB0323DA6862B158
:10CCF000A27A52B1DA680020013ADA60A07202B07A
:10CD000010BD0520FBE70A20F9E70620F7E700BF82
:10CD10007029002002230022FFF726BE18B103234A
:10CD20000022FFF721BE052070470000104B1B7842
:10CD300013B50446ABB14FF6FF73984213D001A868
:10CD4000FFF762FA88B10523037001230371C480E1
:10CD500001A90848FCF7A3FEFFF7F8FD002002B088
:10CD600010BD0220FBE70420F9E70820F7E700BF29
:10CD70004C290020242A00200E4B1B7807B5A3B1B4
:10CD800001A8FFF741FA90B10623037001A90A48F0
:10CD9000FCF785FE094B1A780AB101221A73FFF7D6
:10CDA000D5FD002003B05DF804FB0220FAE708205F
:10CDB000F8E700BF4C290020242A00205429002035
:10CDC00007B5ADF80600ADF804100DF1060001A995
:10CDD000FFF70AFB03B05DF804FB07B51346ADF897
:10CDE00006000A4600200DF10601FFF7FDFA03B028
:10CDF0005DF804FB07B51346ADF806000A460DF1D1
:10CE000006000021FFF7F0FA03B05DF804FB20B143
:10CE100019B103680B6000207047052070470000BF
:10CE20002DE9F84F3B4B1B780446002B6ED00028B1
:10CE30006ED012220021DFF8E0A004F0D4FE03231C
:10CE400023804FF0000BD04614274FF00109DAF889
:10CE50000410BAF80A50BAF808600846FFF7E2F979
:10CE6000032808BF2388628804BF03F1FF332380AF
:10CE700007FB0B832E44DB681344638023891D4426
:10CE800063892581B6B233446381C6F58066A38980
:10CE9000B6B2B34238BFA68101F1080501F580564C
:10CEA000AE4217D92B68013314D031462846FFF71C
:10CEB000D1F9012819D010F0FF0F23D00228EFD1AB
:10CEC000E38884F81090761BE589013305EBA6050D
:10CED000E380E5810AF1140ABBF1000F02D00020C3
:10CEE000BDE8F88F4FF0010BB1E7E3880133E38031
:10CEF000E3896A8803331344E3816B88033305EBCA
:10CF00008305CDE7A3880133A380F6E70220E7E796
:10CF10000520E5E74C290020702900200B4620B1B0
:10CF20001BB1036011461B6818470E2070472DE99E
:10CF3000F04108B302B3D0F800E0BEF1000F1ED0FC
:10CF4000FBB14768D7F80480B3FBF8F708FB173745
:10CF5000BFB942EA010C1CF0030F14D1C768B942F3
:10CF600011D34C1E05691C44AC420CD8DEF80C40B1
:10CF7000A446BDE8F04160470E20BDE8F0810820DE
:10CF8000FBE70920F9E71020F7E7F0B5D8B1D0F8B2
:10CF900000C0BCF1000F18D0CAB14768D7F800E054
:10CFA0000EF1FF370F4214D1C768B94211D34C1E9E
:10CFB00005690EFB0244AC420BD8DCF81040A446D5
:10CFC000BDE8F04060470E20F0BD0820FCE70920D6
:10CFD000FAE71020F8E7A0DF70470000024B034992
:10CFE00018780022FEF74CBE572A0020D5D0010049
:10CFF00013B5042204460021684604F0F4FD42F60D
:10D00000A623ADF8003001238DF80230044B1868D8
:10D01000019001AA69462046FFF7DDFF02B010BD6E
:10D020009C1D020010B50446408800F0ADFBA080B6
:10D030002046BDE8104001F0B7B930B587B00546CD
:10D040000C4618220021684604F0CDFD07236846EF
:10D050008DF80030ADF802500294FFF7E3FF07B0FF
:10D0600030BD000030B587B0054618220021684663
:10D0700004F0B9FD4FF6FF739D42ADF8025023D086
:10D08000284600F096FA0B28044615D005D860B162
:10D0900021462846FFF7D1FF05E011280ED043F2C4
:10D0A00002039842F4D1002209E00E2368468DF86D
:10D0B0000030FFF7B7FFF6E70F23F7E70122034B36
:10D0C00028461978FEF7BEFD07B030BD552A00206E
:10D0D000FFF7C8BF70B5234E86B031780446FEF71F
:10D0E00099FD0546C0BB204600F0B2FA082801466B
:10D0F00022D006D888B106281ED02046FFF79DFF13
:10D1000009E043F20203984205D043F201439842FA
:10D1100024D01128F1D1012214E0294618226846B2
:10D1200004F061FD102368468DF80030ADF8024030
:10D130000125FFF777FFEEE7204600F025FB00F022
:10D14000A1FA0022084B20461978FEF77BFD2A46FB
:10D1500031782046FEF776FD06B070BD2046FFF719
:10D1600081FFD8E7582A0020572A002013B504462B
:10D1700000F00AFB00236A46092100F08BFF052816
:10D1800005D1044B012219782046FEF75BFD02B061
:10D1900010BD00BF542A002008B5084B0849187874
:10D1A0000022FEF76DFD024630B9064B064918789D
:10D1B000BDE80840FEF764BD08BD00BF562A002048
:10D1C000CDD10100542A0020F1CF010030B501215A
:10D1D00087B005461C48FCF704FD0446BFF35F8F8B
:10D1E00068BB284600F0A0F9112801461CD005D8DC
:10D1F00038B32846FFF721FF002405E0862805D034
:10D2000043F202039842F4D122460EE0182221464E
:10D21000684604F0E8FC062368468DF80030ADF857
:10D220000250FFF7FFFEEFE70122084B284619786E
:10D23000FEF708FD1CB9BFF35F8F034B1C6007B0FE
:10D2400030BD01240246F0E7502A0020562A002073
:10D2500038B503780446A3B94088FFF703FF658813
:10D26000284600F0E3F928B1064B01221978284638
:10D27000FEF7E8FC6088FFF779FFBDE83840FFF76C
:10D280008BBF38BD572A00200378082B37B50446DA
:10D2900030D1427A72BB057A072D1BD0082D2DD0D4
:10D2A000012D27D16A462946808800F037FD08BB4A
:10D2B000019B1B78F3B1A08800F094FA4FF6FF733E
:10D2C000984217D0114B2A461978FEF7BBFCFFF79E
:10D2D00085FE0FE0808800F085FA4FF6FF739842D4
:10D2E000044607D00A4B01221978FEF7ABFC204612
:10D2F000FFF73CFFFFF750FF03B030BD054B196847
:10D300000129F7D1BFF35F8F1A60F3E7572A002096
:10D31000562A0020502A0020F8B5FEF771FC144F61
:10D32000144E3870FEF76CFC3070FEF769FC124D3D
:10D33000124C2870FEF764FC2070FEF761FC104B65
:10D3400018703B78182B10D03378182B0DD02B7811
:10D35000182B0AD02378182B07D0182805D0094B92
:10D3600000201860BFF35F8FF8BD0320FCE700BF0B
:10D37000562A0020552A0020572A0020582A00202B
:10D38000542A0020502A002013B501230024ADF8B0
:10D3900000300923ADF80240084A8DF80230084BEE
:10D3A000A14214BF19461146019100F0EDF9224641
:10D3B000694600F0DBFE02B010BD00BFA01D0200F8
:10D3C000A41D020030B503888488502B87B0054621
:10D3D00035D00BD8352B45D02D4B2E49187800224F
:10D3E000FEF74EFCFFF7FAFD07B030BD522B22D0FE
:10D3F000542BF1D118220021684604F0F4FB1123CC
:10D4000020468DF80030ADF8024000F0BDF9ADF8CF
:10D41000040000F037F9204B204619780022FEF76F
:10D4200011FC1E4B204600221978FEF70BFC6846C3
:10D43000FFF7F8FDD0E72046FFF714FECCE7037BAB
:10D44000012BC9D1827A012AC6D1018942F6021381
:10D450009942C1D1124B20461978FEF7F3FBFFF732
:10D460009BFEB9E70F4B002219782046FEF7EAFB36
:10D47000E98851B9AB89012B03D1A97B003118BFD1
:10D4800001212046FFF780FFA6E70021F9E700BF52
:10D49000552A0020D1D00100582A0020572A002008
:10D4A000562A0020542A0020AFDF7047B1DF7047B2
:10D4B000B2DF7047B3DF704773B50F4B0F4C93E883
:10D4C00003006D4685E8030000222946208800F00D
:10D4D0004DFE4FF6FF762388B34201D0112801D1CB
:10D4E00002B070BD184600F094FE0022294620804C
:10D4F00000F03CFEEFE700BFA81D02005A2A002002
:10D50000044B1A884FF6FF739A4201D0FFF7D4BF3D
:10D51000704700BF5A2A0020024B4FF6FF721A8054
:10D52000002070475A2A00202DE9F743804600F07A
:10D530002BF94FF6FF739842064637D001224FF081
:10D5400003096B4608213046571C00F0EBFBBFB2C5
:10D55000054630BB01990A46032342F8049B063175
:10D560004046FFF7A5FF044648B932460821304639
:10D5700000F061FC0446204603B0BDE8F0830C28AF
:10D580000DD0052800D12C460821304600F02AFC99
:10D59000002818BF03243A46002DD2D1EBE701251D
:10D5A000F2E7072814BF04460C24E4E743F2020420
:10D5B000E1E72DE9F341804600F0E6F84FF6FF730E
:10D5C000984217D100240325264601272B462246E0
:10D5D00031464046FFF76AFF042820D0082823D0B0
:10D5E0000B281DD115F002030FD18EB9A4B902B0DA
:10D5F000BDE8F0816A46082100F090FB0028E1D1E7
:10D60000019B9E1D9C881D68DFE701250027DDE743
:10D6100003251C461E46F9E703253446F6E711208C
:10D62000002F08BF0B20E2E70020F9E71FB50DF13E
:10D630000703039300F0A8F802AA012100F06EFB93
:10D6400020B9039B187805B05DF804FB0020FAE7C9
:10D6500070B505460A48FFF72DFF70B9084C43F234
:10D6600003064FF6FF7221882846FFF71DFFB042E0
:10D6700004D1238801332380F3E7032070BD00BF6A
:10D680005C2A002013B5074A044692E803006B4663
:10D6900083E8030000221946204600F067FD02B02F
:10D6A00010BD00BFB01D020046DF7047421E00F1F2
:10D6B0000F0312F8010F10B99A42FAD170470120F6
:10D6C000704708B570B171B103780A78534013F010
:10D6D000FE0F08D106220131013004F001F9B0FA41
:10D6E00080F0400908BD0020FCE72DE9F04700F17B
:10D6F00001084F1C06460D4600F1110901F1110AFF
:10D7000010223946404604F0EBF80446E0B94046A2
:10D71000FFF7CCFF18B13846FFF7C8FF0446514663
:10D720004846FFF7CEFF737C03F0FC03042B04D0C4
:10D730006B7C03F0FC03042B02D1201C18BF0120DA
:10D7400000F00100BDE8F0870024E8E730B585B0BF
:10D7500004460D4600F0D4FC02AA0DF10601072094
:10D7600000F0D6FC10B94FF6FF700BE0BDF80630A4
:10D77000AB42F1D003992046FFF7B7FF0028EBD06A
:10D78000BDF8060005B030BD132810B5044602D917
:10D790004FF6FF7010BDFEF7F1F90028F8D00A200F
:10D7A0006043014B185AF5E75E2A0020132838B56C
:10D7B00004460D4602D943F2020038BDFEF7DEF9F9
:10D7C0000028F8D006480A2303FB040050F8023F63
:10D7D0002B608388AB808379AB710020EDE700BFBD
:10D7E0005E2A00204FF6FF7398422DE9F04106466D
:10D7F0000CD00C4F00244FF00A0808FB04F3A5B22C
:10D80000DB5BB34205D00134142CF6D14FF6FF7523
:10D8100004E02846FEF7B2F90028F4D02846BDE817
:10D82000F08100BF5E2A0020038843B9821C00F10A
:10D830000A0312F8010B10B99A42FAD1704701207D
:10D84000704710B50446FFF7EFFF58B122880B88E8
:10D850009A4208D108220231A01C04F041F8B0FA23
:10D8600080F0400910BD0020FCE71FB5044600F021
:10D8700047FC02AA0DF10601072000F049FC10B98F
:10D880004FF6FF7007E0039920464631FFF7D9FFB6
:10D8900018B1BDF8060004B010BD039920462A3126
:10D8A000FFF7CFFF0028E4D0F3E7000013289FBF65
:10D8B0000A234343014AD152704700BF5E2A002029
:10D8C00038B50546FFF78EFF0446284600F094FA67
:10D8D00038B9132C05D80A236343024A4FF6FF7167
:10D8E000D15238BD5E2A002070B58CB014466A460D
:10D8F0000D4600F11003164613F8011D02F8011B36
:10D900009842F9D10D22002104A804F06CF92B787B
:10D910008DF81F306B788DF81E303046AB788DF85F
:10D920001D30FFF7C1FE9DF82F3023709DF82E307B
:10D9300063709DF82D30A3700CB070BD30B50378C6
:10D9400003F0FE03042B85B004460D4618D1411C9C
:10D95000032201A804F01EF90322211D03A804F0EC
:10D9600019F902AA03A92846FFF7BEFF032202A95C
:10D9700001A803F0B5FFB0FA80F0400905B030BD52
:10D980000020FBE730B50388102B93B04ED1041D67
:10D990000FCC08AD0FC50FCC0FC59DF8243094E80F
:10D9A000030003F0FE03062B85E8030008D000F017
:10D9B000A7FB9DF824305B08012B04D9022B3ED035
:10D9C0004FF6FF7310E002AA0DF10601072000F0E8
:10D9D0009FFB0028F4D0039909A81131FFF771FECD
:10D9E0000028F0D0BDF80630BDF8201018480A22F3
:10D9F0004A4384188352A21C0998C4F80200BDF857
:10DA000028409DF82A00948090714FF6FF7293424F
:10DA10000CD0ADF80C3002A80023ADF80A108DF838
:10DA2000083000F0C3FC02A8FFF712FC13B030BDB1
:10DA3000039909A80131FFF781FF0028D2D102AA7A
:10DA40000DF10601072000F063FB0028F0D1B7E7D5
:10DA50005E2A00200A68084B70B50C25032A01D9FC
:10DA6000002006E005FB02F4E65A864202D10A6075
:10DA7000181970BD0132F1E77C2C002037B5002366
:10DA80000D460446019301A9FFF7E4FF38B18378FE
:10DA9000AB4206D1837A9B0703D143680BB903B02D
:10DAA00030BD019B0133019301A92046ECE710B57D
:10DAB000044600F09BFD204601F08AFC2046FFF75B
:10DAC0001FFD2046BDE81040FFF7DEBB70B50E4ECF
:10DAD00004460025237AAB420DD84FF6FF7323800E
:10DAE000A370002363604FF47F432381A37A23F064
:10DAF0000303A37270BD617A2944C9B2304600F0B5
:10DB0000A3FF0135E6E700BF6C2C002013B500230E
:10DB1000CDE9003304468378417A26488DF80230F7
:10DB200000F079FFF8B1237AA2788DF8022003EB98
:10DB300083039B00ADF80030531E0190072B08D8DB
:10DB4000DFE803F013070707071304151423ADF8E4
:10DB500000302246694632F8040B00F007FB072824
:10DB60001BD008D8A8B1032017E00123EFE7838872
:10DB700009339B08EBE7112811D08628F3D1A37A4B
:10DB800023F0030343F00103A3720B4B01221A702D
:10DB900003E0A37A23F00303A37202B010BDA37ABB
:10DBA00023F0030343F00203A372034B01221A7014
:10DBB0000020F2E76C2C0020682C00202DE9F047B3
:10DBC0003A4EC268054686B033460020374659684B
:10DBD0008A421BD10C2303FB00702B78DFF8D08026
:10DBE000092B1AD0132B54D0082B54D16C7A002C4B
:10DBF00051D1002851D0FFF769FF2846FFF757FFA2
:10DC000098F800309BB906B0BDE8F08701300428D1
:10DC100003F10C03DBD10020DFE76C7A002C3AD152
:10DC200000283AD0837A446043F0020383720025CF
:10DC300088F800504FF00C094FF0010A09FB0573FA
:10DC40009A7AC2F340030BB9D20728D588F800A00E
:10DC500003B924B33046FFF759FF00B34FF6FF7303
:10DC6000ADF802300C235D4386287B5BADF80430B1
:10DC700017BF072306238DF80030029018BF00233A
:10DC800068460CBF8DF800308DF80C30FFF70FFFA1
:10DC9000B9E70124B1E70024AFE70446ADE7013559
:10DCA000042D06F10C06C9D1ADE700BF7C2C002085
:10DCB000682C0020154BF7B500221E464FF6FF7565
:10DCC0004FF0FF0C0C27144607FB02611D809D706E
:10DCD00083F809C0887A013220F00300042A887290
:10DCE00003F10C0303F8044C43F8084CECD1502327
:10DCF000CDE900230649074B07484FF4A07200F016
:10DD000076FE002818BF032003B0F0BD7C2C002055
:10DD1000282B0020AC2C00206C2C0020002300F0CD
:10DD2000B9B900002DE9F04180460E4614461F4661
:10DD3000002B4ED0CB1F012B4ED8531E032B4BD89C
:10DD4000FFF79CFE054610BBFF214FF6FF70FFF763
:10DD500095FE0546C8B1A0F8008086706B7AFF2B4F
:10DD60001AD121461E4800F087FEFF2868722DD187
:10DD70004FF6FF732B8000236B604FF47F432B81A2
:10DD8000AB7AA87023F00303AB72112022E0037A70
:10DD9000A342E3D00F201DE04FF000082C72697AF7
:10DDA0000F4800F038FEC8B104EB84042401A4B28B
:10DDB000A408BE7078603C80B8F1000F04D0082E33
:10DDC00002D1A400063C8480002003E04FF001084B
:10DDD000E4E70E20BDE8F0810720FBE70320F9E728
:10DDE0006C2C002008B5FFF749FE18B1FFF76EFE56
:10DDF000002008BD0520FCE713B50023044601936D
:10DE000001A9FFF727FE30B9204600F0F5F950B11F
:10DE1000072807D107E081782046FFF7E3FF20B10C
:10DE2000052802D0032002B010BD019B01330193ED
:10DE300001A92046E5E7CB1F012B70B506460C462D
:10DE4000154601D9072070BD104600F0E0F9002802
:10DE5000F8D021463046FFF711FE28B105808470C6
:10DE6000BDE87040FFF752BE0520ECE7012804D062
:10DE7000043805288CBF00200120704773B5044684
:10DE80000D46164600210822684603F0ACFEA5F5B3
:10DE90008041A4F580406B46324689B280B2FEF7DD
:10DEA0008FFF002818BF052002B070BDF0B5224DCD
:10DEB0008DB00021082201A8297003F094FE4FF6CE
:10DEC000FF7000F041FA4FF6FF770446BC4211D0D4
:10DED000A4F58046B6B201AA03A93046FEF78AFF30
:10DEE0000A2809D03046FEF721FF082806460BD144
:10DEF00001232B700DB0F0BD204600F0C9F920467B
:10DF000000F022FA0446E1E7002EF3D018220021A7
:10DF10000DEB020003F067FE07238DF8183006A80A
:10DF20000123ADF81C4008968DF82430ADF81A7026
:10DF3000FFF744FEDEE700BFB82C00204FF6FF736A
:10DF40004380FFF73BBE000070B5044686B0182240
:10DF50000021684603F047FEA0892378334D00F581
:10DF6000804080B25A1EADF80400042A25D8DFE8AC
:10DF700002F0030303324B0043F6FE76B042E18920
:10DF800004D901F5804292B2B24216D8DA1E534249
:10DF900053418DF80930A368039363688DF8081026
:10DFA0008BB908238DF800309DF8103043F0010341
:10DFB0008DF810306846FFF7C1FF2B780BB1FFF7E3
:10DFC00075FF06B070BD0922049301238DF800206F
:10DFD0008DF81430EEE743F6FE739842EDD8E389EE
:10DFE000002BEAD163683BB90A238DF8003000F0BA
:10DFF0004FF901232B70DDE70B22029301238DF8EB
:10E0000000208DF80C30F4E763683BB913238DF8DA
:10E0100000304FF6FF73ADF80430CBE714220293C3
:10E0200001238DF800208DF80C30F2E7B82C002089
:10E0300030B5174889B0FEF70FFD20BBFEF722FD73
:10E04000044610BB00F004F90822214603A803F09F
:10E05000CAFD03AA05A94CF20700FEF7BEFE10B1E7
:10E06000204609B030BD01A905A8FEF70DFE019BB1
:10E070009D8805F58045ADB205A8FEF729FE284626
:10E0800000F0EEF8E5E70324EAE78624E8E700BFBE
:10E0900049DF0100F0B5FF2887B004460D4617465A
:10E0A0001E462BD80846FFF7E1FE38B303AA2046E8
:10E0B000FFF7E4FE18B10524204607B0F0BD01A922
:10E0C00003A8FEF7E1FD04460028F4D1019BBD70D2
:10E0D0005D883D80029926B9796003A8FEF7F8FDB6
:10E0E000EAE736887868AD00AE4228BF2E46324651
:10E0F00003F050FDB542F0D90C24DDE70724DBE73F
:10E1000008220021014803F06EBD00BFB02C0020A2
:10E11000F0B587B007460E461546FFF7A7FE044642
:10E12000F8B1A7F58040104A03A980B2FEF755FE6A
:10E1300018B10024204607B0F0BD01A903A8FEF7DE
:10E14000A3FD0028F5D1019BAF705A889B882A80D7
:10E1500003F58043029A6A6003A83380FEF7B8FD96
:10E16000E8E70124E6E700BFB02C002030B5FF2827
:10E1700087B003460C46154634D889780846FFF721
:10E1800075FE78B3A3F58042ADF80020A1F580427A
:10E19000ADF802206268019222880292184603AA12
:10E1A000FFF76CFE0528694603A80AD1FEF7B2FD09
:10E1B0000728044618D007D868B10324204607B0C2
:10E1C00030BDFEF7ABFDF3E708280FD00E280CBFDB
:10E1D00011240324F2E7002DF0D0294603A8FEF70E
:10E1E00016FEEBE70724E9E78624E7E71124E5E7D5
:10E1F0004FF6FF7000F034B8FF2808B505D800F0DE
:10E2000035F8FFF753FE002008BD0720FCE700F0BB
:10E2100053B800F07FB800F097B810B54FF6FF7311
:10E2200004469C4208460AD14FF48071FBF7ACFCCF
:10E2300084B2B4F5807F09D14FF6FF7406E0FF2C5D
:10E24000FAD82146FBF77FFC0028F5D1204610BD07
:10E2500040220021014803F0C6BC00BFBC2C0020B6
:10E260000149FFF7DABF00BFBC2C00204FF6FF7357
:10E27000984210B5044606D00449FFF7CEFF231A92
:10E280005842584110BD0020FCE700BFDC2C0020A4
:10E29000FF2810B5044609D801460548FBF761FC84
:10E2A00021460448BDE81040FBF75BBC10BD00BF31
:10E2B000BC2C0020DC2C0020FF28014602D802489C
:10E2C000FBF759BC00207047BC2C0020FF280146FA
:10E2D00002D80248FBF74FBC00207047DC2C00201E
:10E2E0004FF6FF73984270B518BF441C0E4614BF1A
:10E2F000A4B20024A5B2FF2D02D94FF6FF7506E0A7
:10E3000021463046FBF737FC01340028F2D028467E
:10E3100070BD000070B50B490A4EFFF7E1FF4FF6E4
:10E32000FF750446AC4201D1204670BD2046FFF780
:10E33000CDFF0028F8D020463146FFF7D1FF044634
:10E34000F0E700BFBC2C00200149FFF7C9BF00BFA8
:10E35000DC2C0020F8B5074D074E07460024337823
:10E36000A34200DCF8BD55F8043B38469847013419
:10E37000F5E700BF042D0020132D0020074B1B786C
:10E3800010B504464BB1FFF7FDFA204601F060F8E6
:10E390002046BDE81040FFF715B810BD122D002033
:10E3A00008B1FFF7D7BF7047FFF7D4BFFFF7D2BF61
:10E3B00008B5FFF73DFE08B1032008BDFFF77AFC62
:10E3C0000028F9D101F028F80028F5D100F064FC0C
:10E3D0000028F1D1FEF7A0FF0028EDD1FFF79CF84F
:10E3E0000028E9D1054B4FF6FF721A80044B1860E4
:10E3F000044B1870044B01221A70DEE7102D002028
:10E40000182D0020142D0020122D0020084B1B7801
:10E4100053B1084A1378022B08D8074941F8230062
:10E4200001331370002070470820704704207047A4
:10E43000122D0020132D0020042D0020034B1B78EB
:10E440000BB101F01FB80820704700BF122D00204B
:10E4500008B5054B1B782BB101F034F8082808BF2C
:10E46000112008BD0820FCE7122D002009B101F0A1
:10E4700027B8704738B5194B1B7805460C4633B39F
:10E4800039B3FDF787FB30B3831E584258412378D8
:10E4900060F3000323702846FFF776F94FF6FF7309
:10E4A000C01A237818BF012060F3C30323702846E5
:10E4B000FDF780FB237860F3410323702846FDF7C6
:10E4C00087FB237860F382032370002038BD082087
:10E4D000FCE70E20FAE743F20200F7E7122D0020D6
:10E4E000034B1B780BB1FFF7EBB90820704700BF57
:10E4F000122D00202DE9F04F87B0CDE900232F4BDE
:10E500001B7882468946002B55D04FF6FF70FFF7E7
:10E5100080FE0423ADF80A300DF1100B03AB00258B
:10E5200005935A460DF10A03062104460395049506
:10E53000FFF7B0FD07283AD04FF6FF76B0464FF010
:10E54000FF37F0B1052825D04FF6FF739C4230D13C
:10E55000A0452AD0A6420CBF05200020BAF1000F2A
:10E5600001D0AAF80080B9F1000F01D0C9F800501D
:10E57000009B03B11E80019B03B11F6007B0BDE883
:10E58000F08F039BAB4224BFA0461D46BB423CBF5D
:10E5900026461F462046FFF73CFE0DF10A035A4669
:10E5A00006210446FFF776FDCBE70520D6E70520D8
:10E5B000E4E70320E2E70820E0E700BF122D002097
:10E5C00008B500231A4606490648FFF793FF28B10D
:10E5D000431F58425841044B187008BD0120FAE708
:10E5E000FC2C0020102D0020142D0020F0B5044636
:10E5F00087B08088FFF7F6F823786080083B032B0C
:10E6000020D8DFE803F002213166637A5BB9404A23
:10E61000116851B1E068814207D113603D4AA18879
:10E620001180E3600EE0012B0CD13B4B1B784BB10A
:10E63000384BA2881B889A4204D1237A062B01D139
:10E64000FFF7BEFF204660E0637A002BFAD1304A24
:10E6500011680029F6D0E0688142F3D12F49136098
:10E660000A68013A0A60DCE72D4F3B7873B901254F
:10E67000294B1B7833B1274BA2881B889A4201D1C2
:10E68000FFF79EFF002DDDD107B0F0BD4FF6FF7004
:10E69000FFF7BFFD4FF6FF7398420546E7D1FFF73E
:10E6A000BAFDA8420646E2D100251822294668464E
:10E6B0003D7003F098FA0C2320468DF80030ADF839
:10E6C0000460ADF80260FFF745FE6846FFF742FEC2
:10E6D000CEE7134B1A78002AB4D0002118226846DE
:10E6E000197003F080FA0D238DF800304FF6FF7398
:10E6F000ADF80430ADF80230A36802932046237BC6
:10E700008DF80C30FFF726FE6846FFF723FEBBE7C7
:10E71000182D0020102D0020142D0020FC2C00208E
:10E72000002D00202DE9F041304B1B7888B00646C3
:10E73000002B56D02E4B2F4C93E8030023786F46C6
:10E7400087E8030043B12C4B1C68984654B1112450
:10E75000204608B0BDE8F081FFF732FF2378002B98
:10E76000F5D0F0E7254A264D12882B68B2421DD11C
:10E77000F3B11822214602A803F035FA08233046E7
:10E780008DF80830FFF72EF80623ADF810309DF80D
:10E790001830ADF80A0064F3000302A8ADF80C606D
:10E7A00005948DF81830FFF7D5FDD1E75A1C1AD023
:10E7B0000133114A2B6039463046FFF7D7FC044637
:10E7C0000028C5D00023C8F800302B68112803F1B9
:10E7D000FF332B60BBD08628BAD0072818BF03248C
:10E7E000B6E70824B4E71324B2E700BF122D0020D7
:10E7F000C01D0200142D0020182D0020102D002017
:10E80000FC2C002076DF704713B5044669B901A9D6
:10E81000FFF730FE43F20202904202D008B1FAF74D
:10E82000D3FD9DF804309B070CD400212046FFF750
:10E830000FFE38B1112805D00D2805D1132120462F
:10E84000FFF7E0FF02B010BD0B28FBD043F202023D
:10E850009042F7D0FAF7B8FDF4E7017811B9408893
:10E86000FFF7D2BF072903D1806808B1FAF7ACBD22
:10E87000704700002DE9F041037886B00446142B60
:10E880003CD8DFE803F00B3B2D3B3B3B3E3B653B7D
:10E89000653B3B3B3B3B3B3B3B698F008088FFF745
:10E8A00041FF862801D0112811D14449444A0B6800
:10E8B000A08822F8130001335A4202F0070203F045
:10E8C000070358BF53420B6000F082F816E013288C
:10E8D00003D83C4BC340DB0710D4FAF775FD0DE0BD
:10E8E000037A012B0AD8848818220021684603F095
:10E8F0007AF96846ADF80440FFF7BCFF06B0BDE802
:10E90000F081314E3278002AF8D1304D2B78B3B9EE
:10E910006A4619461846FFF7EDFD044648B9BDF8AA
:10E920000000FFF7DDFD044608B1FAF74DFD0123B5
:10E930002B70631F012BE1D90CB12046CDE7FEF708
:10E940001BFA10B901233370D8E70828D6D0C4E7E2
:10E950001E4B01221A70D1E71B4B194D00241C706D
:10E960001A4B1C70154B1F684FF6FF763B195A4225
:10E9700002F0070203F0070358BF534235F8138033
:10E98000B0450BD018220021684625F8136003F02B
:10E990002AF96846ADF80480FFF76CFF0134082CB3
:10E9A000E4D1ABE7084B00221A70037B002BA5D003
:10E9B00083680E2B88D0012BA0D185E7202D002065
:10E9C00018250020C10008001C2D00201D2D00204E
:10E9D0007FB518220021684603F005F90623684632
:10E9E0008DF80030FFF746FF07B05DF804FB70B507
:10E9F000DDE9045468B161B15BB104FB05F69642F0
:10EA000007D835B12CB1C0E90013C0E90254002089
:10EA100070BD0720FCE738B50C46054608B9002054
:10EA200038BD0368002BFAD040680028F7D0FF29D2
:10EA3000F5D0BFF35F8FFBF79EF80028EFD0EB68AF
:10EA4000286803FB0400EBE738B50D46044690B197
:10EA5000036883B1406870B1FF290CD0BFF35F8FAA
:10EA6000FBF789F838B16068BFF35F8F2946BDE8CE
:10EA70003840FBF776B838BD2DE9F04188460646A8
:10EA800018B9FF242046BDE8F0810368002BF8D0B8
:10EA90004368002BF5D00027FF24B368FDB2AB42DA
:10EAA000EFD929467068FBF74EF8BFF35F8F40B986
:10EAB000FF2C08BF2C462D1B01354545E2D0013700
:10EAC000EBE7FF2C07D1FF24F9E721463046FFF79B
:10EAD000BBFF0134E4B2AC42F7D3F4E77EDF70470A
