:020000021000EC
:1090000000600020759301005D9301005F930100F3
:10901000619301006393010065930100000000006B
:109020000000000000000000000000006793010045
:1090300069930100000000006B9301006D93010033
:10904000CDB301006F93010085B701006F9301005C
:109050006F93010000000000E1B5010085B8010038
:1090600085BD010095BD0100A5BD01006F93010004
:109070006F9301006F9301006F9301006F930100E4
:109080006F930100519E01006F9301006F930100E7
:10909000ED9E01006F930100310B02006F93010000
:1090A0006F9301006F9301000000000000000000BA
:1090B0006F9301006F9301000000000000000000AA
:1090C00000000000000000000000000000000000A0
:1090D0000000000000000000000000000000000090
:1090E0000000000000000000000000000000000080
:1090F0000000000000000000000000000000000070
:10910000000000000000000000000000000000005F
:10911000000000000000000000000000000000004F
:10912000000000000000000000000000000000003F
:10913000000000000000000000000000000000002F
:10914000000000000000000000000000000000001F
:10915000000000000000000000000000000000000F
:1091600000000000000000000000000000000000FF
:1091700000000000000000000000000000000000EF
:1091800000000000000000000000000000000000DF
:1091900000000000000000000000000000000000CF
:1091A00000000000000000000000000000000000BF
:1091B00000000000000000000000000000000000AF
:1091C000000000000000000000000000000000009F
:1091D000000000000000000000000000000000008F
:1091E000000000000000000000000000000000007F
:1091F000000000000000000000000000000000006F
:10920000354936480A1A02D0072291438D4634491F
:1092100034480A1A06D00722914381F309880222B2
:1092200082F3148830483149314A00F044F831481B
:109230003149324A00F03FF831483249324A00F0B1
:109240003AF832483249334A00F035F83248334967
:10925000334A00F030F833483349344A00F02BF8F1
:1092600033483449344A00F026F83448344900225F
:1092700000F02CF833483449002200F027F8334836
:109280003349091A082902DB002202604160314A91
:1092900090471F481F49884205D00268043003B434
:1092A000904703BCF7E700208646EC4600200021EB
:1092B000294A9047FEE7884207D0521A05D0037822
:1092C00001300B700131013AF9D17047884202D068
:1092D00002700130FAE7704700600020005800205B
:1092E000006000200060002048600200142500207B
:1092F00078250020C0930100C0930100A84C020013
:10930000486002001425002014250020304E020081
:10931000304E0200304E0200304E0200304E02004D
:10932000304E0200304E0200304E02004760020014
:10933000AC600200782500207825002078250020E8
:109340006437002064370020683700206837002029
:10935000683F00208B930100CD290200FEE7FEE765
:10936000FEE7FEE7FEE7FEE7FEE7FEE7FEE7FEE7D5
:10937000704700BF0C4880470C484FF007018843F6
:1093800085460B488047FFF73BBF0A480A490B4A0E
:10939000884207D0521A05D0037801300B70013192
:1093A000013AF9D17047000071930100006000207C
:1093B00031B001001C4E02000025002014250020C1
:1093C000004870475C3700207047000007B5044B29
:1093D0000093044A402300F032F803B05DF804FB28
:1093E000E9930100792500202DE9F84388461446C9
:1093F000B2B10F4B0F4E0325002743F0010922465F
:1094000008EB0701002002F0DBFD0744241A48B9ED
:1094100033782BB14FF47A40C847013D02D1357003
:10942000BDE8F88301233370002CE8D1F8E700BFD2
:10943000304E020078250020704702F0F5BDF0B5EF
:1094400095B01D46164608460C4601F099FB1A9B3E
:109450000D93CDE9086500252B46082205A9204675
:109460000A958DF82C500C9501F0A7FB079B0293F1
:10947000069B03939DF814308DF8115003F00302FE
:10948000012A1DD1BDF81420059DC3F3C203C2F308
:1094900083168DF81030B20008230EA9204601F083
:1094A0008CFBC5F3952508AB0093324602AB0EA9A1
:1094B000284600F069FB204601F066FB15B0F0BDC0
:1094C000022AF8D1BDF81650C3F3C203C5F38915BB
:1094D0008DF810300827082D2E4628BF08263B4659
:1094E00032460EA9204601F068FBAD1B08AB02AA6C
:1094F00031460EA8374400F0ABFB002DEBD1DAE784
:1095000008B5FFF79AFF0448042100F0ABFA034BBB
:1095100001225A7108BD00BF0C4E02001425002024
:109520000378024613F0040006D003F0030001287C
:1095300003D0022809D0012070470B68128802333B
:10954000C2F3831213440B6070470B6852880233D6
:1095500003EB92130B60EEE72DE9F04F87B0002389
:109560000446861C0DF107000F4615468DF807309E
:1095700000F0B4FE454801683960D0E90132134477
:1095800001335B1A824600F21C4700F5836900F242
:109590001448B3421CD30020002D73D004F00F03F5
:1095A0009B0143F0050363F30F00DAF80020DAF8BB
:1095B00008301340033316444AF823009DF807008F
:1095C000CAF8006000F0AEFE012007B0BDE8F08FE1
:1095D0000121384601F004F8484601F01CF84046E5
:1095E00001F019F8DAF80400DAF808B0029000EA9D
:1095F0000B0003300AEB800002A9FFF791FF029BEA
:1096000050BB0BEA03020AEB820203F1020CD268A0
:109610000392013303EA0B0B0AEB8B0B02F00302FC
:10962000012ADBF80C10CDF808C023D0022A16D08E
:109630008346404600F0F2FF10B1029BCAF80430A6
:109640005946384600F0CCFFDAE901231344DAF832
:10965000002001339B1A9CE70BEA0300C9E7BDF821
:109660000E30C3F3891303334FEA114B0CEB930312
:109670000293DEE7BDF80C30C3F383134FEA114BBE
:109680006344F5E7A40544F006008EE7C0260020F9
:109690000B4B0C48FF2210B59A600022C3F8182427
:1096A000C3E90022C3F81424012283F8202401F026
:1096B00020FA044610B9044801F0AEFA204610BD65
:1096C000C0260020304D02006C4E020030B50A4C1E
:1096D00071B10A4A0A49121BD20800239A4201D1E9
:1096E000002030BD31F82350854202D00133F5E728
:1096F000034654F83300F4E7444D02000C4E0200D8
:1097000014250020094B013903EBC000032909D8B7
:10971000DFE801F00A020406042070470079704770
:10972000407970470020704702207047444D020086
:10973000034BD3E90030C31A58425841704700BF69
:10974000C02600202DE9F04387B0FFF7F1FF064661
:10975000002840F0F9807D4DC5F81804BFF34F8F05
:109760006B68AC6802932340033305EB830002A9C6
:10977000FFF7D6FE029B18B1D5F81824002A5FD057
:1097800004EA0302991C013305EB8202234005EB36
:109790008303D268DB68049302F00303022B039275
:1097A000029160D1BDF80E306948C3F38917642F68
:1097B000B84628BF4FF0640868F38F1308F108011A
:1097C000ADF80E3001F0ADF90646002800F0A78094
:1097D00001F0D6F90023082203A9304601F0E3F98D
:1097E000029924EA01020132B8EB820F4FEA8203A8
:1097F00032D95FFA88F85BB32140DCB2A8EB0408E9
:1098000003315FFA88F9A046524C05EB8101082329
:109810004246304601F0C7F934B108F108034A4620
:109820002146304601F0BFF9029B033703EB97074F
:109830000297D5F81834002B49D1D5F8104459E0D7
:109840002A689A428FD86A60304607B0BDE8F08334
:1098500040491C469946DAE70C40E11C0823424681
:1098600005EB8101DDE7012B59D1BDF80C303848FB
:10987000C3F38311062928BF062161F3891302313E
:109880008900ADF80C3001F04CF90646002846D0AE
:1098900001F076F90023082203A9304601F083F98C
:1098A0000027BDF80C20C2F38312BB00974203F1DE
:1098B0000803BED202994A1C21400331029205EBF3
:1098C00081010422304601F06EF90137E9E73046A4
:1098D00001F05AF9FFF72CFF80F00106F6B2B3E76A
:1098E000E3685B7923B1236831461B6820469847BB
:1098F000E3681C68002CF3D1304601F045F90DF106
:1099000007008DF8074000F0E9FCD5F818340BB9D2
:10991000029B6B609DF8070000F004FDDAE7D5F8C4
:10992000104454B90C4B0D480D49C01AC00800042E
:1099300040F0020000F062F8CCE7236820469B6804
:109940009847E3681C68ECE700267DE7C026002006
:10995000304D0200CC260020444D02007C4D020018
:10996000544E02002DE9F74F224D04460F46924611
:1099700001A901221846D5F808909B46FFF7ECFD97
:1099800020B3019E4FF00008B21CD84508EB02013D
:1099900026D11948002100F0DCFD80F310000004FE
:1099A00040EA1440E400731C04F0380403EA09039D
:1099B00006EA090644F0010405EB8303033644EA92
:1099C000881444EA8724D86045F8264095F8203466
:1099D0001BB1FFF7B7FE0028FBD103B0BDE8F08F45
:1099E00009EA010105EB81015AF82830CB6008F142
:1099F0000108CAE7C0260020DC2A002000231A46FE
:109A0000FFF7B0BF07B50123019201AAFFF7AAFF34
:109A100003B05DF804FB07B5CDE9002302236A46D5
:109A2000FFF7A0FF03B05DF804FB1FB5CDE90123EC
:109A3000069B039301AA0323FFF794FF05B05DF88B
:109A400004FB7FB5CDE90123089B0393099B049395
:109A50000A9B059301AA0523FFF784FF07B05DF871
:109A600004FB000030B50F49D1F810240346002054
:109A7000144634B9DC6820714AB9C1F81034226048
:109A800030BDE4682579854206D02468F1E7D268C4
:109A9000116821601360F3E701300A28E8D14FF024
:109AA000FF30EDE7C0260020094A38B50123D2F87F
:109AB000104482F820341D4604B938BDE3685D7156
:109AC000236820465B689847E3681C68F4E700BF9A
:109AD000C026002010B5037A052B0C460FD0437A20
:109AE00023B1084A0849204600F0FBFD07492046FB
:109AF00000F0F7FD2046BDE8104000F0E7BD002A69
:109B0000F8D0F3E7784E02007D4E02009D4E020031
:109B1000C38873B504460D4633B1144A0092144904
:109B2000144A284600F0DDFD217A05291CD0637A0D
:109B30004BB1A088FFF7E6FD0F4B104953F82020EA
:109B4000284600F0CEFD227A0D4BA08853F8226003
:109B50000021FFF7BBFD0B4903463246284602B001
:109B6000BDE8704000F0BDBD02B070BD784E02008F
:109B7000884E0200804E0200004F02007D4E02001F
:109B8000244F0200A04E02002DE9F04385B01F468D
:109B90000C9D002395F80C902B7306460C469046BE
:109BA00029463846FFF7B4FFB8F1060F09D8DFE8B9
:109BB00008F00412181F283340003146284600F0F0
:109BC00090FD002229463846FFF784FF85F80C9067
:109BD00005B0BDE8F08322683146284600F081FDDB
:109BE000EFE7D4E900233146284600F07AFDE8E7A4
:109BF000A36800933146D4E90023284600F071FDA4
:109C0000DFE7E3680193A36800933146D4E90023BA
:109C1000284600F066FDD4E723690293E3680193C8
:109C2000A36800933146D4E90023284600F059FD8B
:109C3000C7E76369039323690293E3680193A36809
:109C400000933146D4E90023284600F04AFDB8E7E6
:109C500008292DE9F74F80460E4617461C4639D88D
:109C6000002593F80C901D7319461046FFF750FF1E
:109C7000DFF880A0DFF880B0AE422ED918F80520BA
:109C80005946204600F02DFD0135082DF4D1184924
:109C9000DFF868A0DFF868B0204600F022FD00255C
:109CA000AE421FD918F80520019210460AF040FA7A
:109CB0000028019A594608BF2E22204600F011FDC7
:109CC0000135082DECD1012221463846FFF702FF6D
:109CD00084F80C9003B0BDE8F08F5146204600F0A8
:109CE00000FDD1E75146204600F0FBFCE8E700BF4D
:109CF000B44E0200B04E0200AA4E0200B24E020064
:109D0000B64E02001FB50021039001AA44F20100E3
:109D1000CDE9011100F004F805B05DF804FB000086
:109D200010B572B6FFF7C0FEFFF70CFD0028FBD19F
:109D30000D4B0E4C0E49E41AE408240444F00100D3
:109D4000FFF75CFE0B4944F00200FFF757FEBFF33C
:109D50004F8F0949094BCA6802F4E0621343CB6094
:109D6000BFF34F8F00BFFDE7444D02007C4D020062
:109D7000384F0200444F020000ED00E00400FA05F5
:109D8000094A537891780133DBB2994208BF002326
:109D9000117899421FBF03705078182303FB0020ED
:109DA00014BF0430002070477C2B002073B505469B
:109DB00000240DF107000E468DF8074000F08EFAE2
:109DC0000DF10600FFF7DCFF90B10670094B9DF81E
:109DD000062045605A709DF8070000F0A3FA24B9E8
:109DE000054B4FF48012C3F80021204602B070BD2D
:109DF0000424F0E77C2B002000E100E0024B4FF44C
:109E00003C6043F001031847524F020038B50C4B39
:109E10000C4C4FF40032C3F8802001254FF48033FE
:109E2000C4F84833C4F808336560FFF7E7FF064B12
:109E3000A56000241C60FFF7E1FF044B1C7038BDD7
:109E400000E100E000100140982C0020892C002047
:109E5000F8B51F4B1F491B680025C1F84051C1F8D8
:109E60004451C1F84851C1F84C51C1F80051C1F8F2
:109E700004514BB3D1F8044517490968641A24F01A
:109E80007F442F461A68A24209D8A41A15441A7CA6
:109E9000DE691AB1D3E905201F749047AEB90F4AA5
:109EA0000F4B11781B788B4205D10133DBB2022BAB
:109EB00008BF0023137012780A4B43F822500A4B54
:109EC0004FF48012C3F80021F8BD3346DAE700BF33
:109ED0009C2C002000100140982C0020952C002084
:109EE000942C00208C2C002000E100E02DE9F04FA4
:109EF000A24AA34913780978A24D994285B03CD073
:109F00000133DBB2022B08BF002313709E49127885
:109F10009E4B0F6853F822003B1823F07F4300222A
:109F20000B602B6816461446944613B942B12B6059
:109F300006E0196881420ED902B12B60091A196036
:109F400001272B68DFF84CA201934FF00008BEB93F
:109F5000DFF848B262E0401A0C44D968D3F81CE03C
:109F6000C3F800C031B13A1922F07F42C3E90121A0
:109F7000DE611E4673460122D7E700263746E0E73A
:109F80003446F669804A63681268DFF814C2A06834
:109F9000991A21F07F41614500F2A88001442160B7
:109FA000012222742A680023C4E90133E361002AF4
:109FB00040F0A5802C60CAE79BF802105A1CD2B270
:109FC00091428BF8002004BF00228BF80020182259
:109FD00002FB03B32A6819799C68022977D0032908
:109FE00000F08180012919D1207CB8B9D3E903128E
:109FF000A2605A69E2609A69654BA2611B78002BE6
:10A000000CBF0B4603466360BCE78C4200F09480B3
:10A010008946C9690029F8D1002323749BF80030D0
:10A020009BF801209A42C7D12B68B8F1000F04D1E8
:10A03000019A9A4201D1002F43D0002B79D0D3F856
:10A0400000A0544D504BD5F804751C68DFF85481BE
:10A050003E1B98F8003026F07F4603369BB94FF43C
:10A060008033C5F84433C5F804334B4B4FF400320A
:10A070004FF00109C3F880211A60C5F80090FFF77E
:10A08000BDFE88F80090B2452CBF5444A41924F0BA
:10A090007F44C5F84045D5F80435DB1B23F07F43EA
:10A0A000E41B033324F07F44A3420AD9D5F80435D6
:10A0B000C5F84035FFF7A2FE374B4FF40032C3F826
:10A0C0000021334B00221A7005B0BDE8F08F114615
:10A0D00091469FE71174D2690123002AFAD1002B1F
:10A0E0009CD02A609AE700231946F6E7D31A23F09A
:10A0F0007F43834234BFC31A0023236050E72168A3
:10A100001368994213D8591A1160E26152E7091A8B
:10A11000D8691A4638B1034618688842F7D3401AFE
:10A120001860184613462160E061DC610FE71346B2
:10A13000F2E7FFF76BFEC4E74C4511D1D3692B6002
:10A1400073B9DFF844E00120CDE90212CAF8080033
:10A15000CEF800300E4B1870FFF750FEDDE902120A
:10A160000B68C969C9F81C1011B1086803440B6079
:10A170002B68934218BF4FF001084DE7942C002044
:10A18000952C00209C2C0020982C00208C2C00204A
:10A19000882C00200010014000E100E07C2B002012
:10A1A000FEFF7F00892C002008B5FFF72FFE104B23
:10A1B00000200B2218809A700E4B18600E4B1870FE
:10A1C0000E4B18700E4B4FF48012C021C3F8802143
:10A1D00083F814131A6002F18042A2F56F22C2F8CC
:10A1E000080583F81113074BD2F804251A6008BD3F
:10A1F0007C2B00209C2C0020942C0020952C0020EF
:10A2000000E100E0982C0020074B9B784BB132B165
:10A2100028B10368187C20B959745A617047072027
:10A2200070470820704700BF7C2B00202DE9F743C2
:10A23000DFF8848098F8023005460E461746ABB327
:10A24000A0B3042930D9436983B3437C0024012B94
:10A250000DF107000CBF8946A1468DF8074000F0BC
:10A260003DF80DF10600FFF78BFDD8B10123037017
:10A270000F4B4560D3F80435C0E90497C0E90236B6
:10A280009DF8063088F801309DF8070000F04AF884
:10A2900024B9084B4FF48012C3F80021204603B0C4
:10A2A000BDE8F0830424EFE70724F7E70824F5E787
:10A2B0000010014000E100E07C2B0020064A92786B
:10A2C0003AB130B1426922B1002202740221FFF793
:10A2D0006DBD0820704700BF7C2B002070B5EFF3E8
:10A2E000108672B60C4A946801239CB993600B4B9C
:10A2F0000B4DD3F8801029401160C3F88050D3F87B
:10A30000841051604FF0FF32C3F88420047006B906
:10A3100062B670BD0370FAE7A02C002000E100E0F7
:10A32000FC06FFBD084B9A6810B55AB150B9EFF35F
:10A33000108172B6054A1C6814605C6854609860AD
:10A3400001B962B610BD00BFA02C002000E100E002
:10A3500030B5054659B1B2FBF3F403FB1424A0B2A7
:10A3600038B9C5E90010A860AA81EB8130BD0E2084
:10A37000FCE70920FAE782B050E8022FC188B2EB6F
:10A38000324F4FF0000317BF92B241EA014142EA57
:10A39000014104E04268B2EB324F08BF012340E8BC
:10A3A0000212002AE8D18DF807309DF80730002B03
:10A3B0000CBF1120002002B0704737B550E8013FB4
:10A3C0009DB2C48925448489A54228BF2D1B0489D8
:10A3D000A54202BFBFF32F8F002207E0C5EA0305A5
:10A3E00040E80154002CE9D14FF001028DF8032020
:10A3F0000193019B9DF803200B6002F0FF0322B143
:10A400000B880068184403B030BD1846FBE70A8883
:10A410004B889A4209D150E8012FC2EA024240E833
:10A420000123002BF7D1012070470020704737B57A
:10A4300050E8023F1FFAA3F5C488A54202BFBFF34C
:10A440002F8F00220DE0C48925448489A54228BFAE
:10A450002D1BC3EA054540E80254002CE8D14FF01B
:10A4600001028DF803200193019B9DF803200B60EE
:10A4700002F0FF0322B14B880068184403B030BDDE
:10A480001846FBE70A884B889A4209D150E8022F08
:10A49000C2EA224240E80223002BF7D10120704794
:10A4A0000020704701F01F024B090121914000EB91
:10A4B000830000F065B84B0910B501F01F040121BD
:10A4C000A14000EB830000F04FF8E04000F00100F5
:10A4D00010BD01F01F0301229A404B0900EB8300DD
:10A4E000D14300F065B84B0901F01F0150F823007B
:10A4F000C84000F0010070472DE9F0474F1E7F096A
:10A5000080460E460137002558F8254008EB85099E
:10A51000E44394FAA4F4B4FA84F44FEA451A202CE4
:10A5200006D10135AF42EFD834462046BDE8F0876A
:10A530005444A642F5D921464046FFF7BCFF002807
:10A54000F3D0D9F80040E44394FAA4F4B4FA84F4C4
:10A55000E5E710B5034653E8000F0A4643E8002438
:10A5600094F0000FF7D110BD10B5034653E8000F6B
:10A5700040EA010243E8002494F0000FF6D110BD38
:10A5800010B5034653E8002F42EA010043E80004F7
:10A5900094F0000FF6D110BD10B5034653E8000F3C
:10A5A00000EA010243E8002494F0000FF6D110BD48
:10A5B00010B5034653E8002F02EA010043E8000407
:10A5C00094F0000FF6D110BD10B5034653E8000F0C
:10A5D00000EB010243E8002494F0000FF6D110BD17
:10A5E00010B5034653E8002F02EB010043E80004D6
:10A5F00094F0000FF6D110BD10B5034653E8002FBC
:10A60000A2EB010043E8000494F0000FF6D110BD66
:10A610000121FFF7A9BF0121FFF7B2BF0021FFF71A
:10A62000BBBF10B590B1D0E9012301689B1ADBB222
:10A630000A60013BDBB2FF2B026802D100201071DF
:10A6400010BD11684C1C14600B70F2E70E20F7E788
:10A6500037B5054600240DF107008DF80740FFF7D8
:10A660003DFE2A686B68116899420ED9481E106039
:10A6700011F8014CEB68298A01FB0434AB681179AD
:10A680001B1ADBB2994238BF13719DF80700FFF720
:10A6900049FE204603B030BD37B5054600230DF115
:10A6A00007000C468DF80730FFF718FE2A6813687C
:10A6B000591C1160E968641A298AB4FBF1F41C7012
:10A6C0009DF80700FFF72EFE03B030BD826810B57D
:10A6D00004462AB143690168006998470023A360D2
:10A6E00010BD0EB403B5039921B104AB01AA0193C7
:10A6F00000F06EF802B05DF804EB03B070478268BA
:10A7000030B40468551C8560A154D0E901329A42E6
:10A7100002D330BCFFF7DABF30BC70472DE9F84FE9
:10A720009846DDE90A43154682460F460A464FF031
:10A730000109AA420FD2C14538BFC14613F0010B2F
:10A7400001D16CB900240126B8F1010F1BD908F121
:10A75000FF386E43F8E709F10109B2FBF5F2E8E7CB
:10A760009B070ED5B8F1000F0CBF30262026A1455F
:10A77000E9D2013C31465046FFF7C1FF002CF6D12B
:10A78000E0E72026F3E7B7FBF6F39D42E1D9DFF8D7
:10A790003C80B7FBF6F3504618F8031006FB13771E
:10A7A000FFF7ADFF3346AB42B6FBF5F6F1D2BBF196
:10A7B000000F02D00CB1A14501D3BDE8F88F2021D4
:10A7C0005046013CFFF79BFFF4E700BF584F0200E3
:10A7D0002DE9F74F054617468846002900F04281CB
:10A7E00018F8011B49B92B7B002B00F03B81284650
:10A7F00003B0BDE8F04FFFF769BF252940F0B780EF
:10A80000002698F800302D2B424608F1010823D08D
:10A81000302B24D02B2B25D000242A2B02F1010130
:10A8200023D13B681A1D1B683A601C440A46137802
:10A830002E2B26D101324FF0000A104610F8011BD2
:10A84000A1F1300CBCF1090F1DD80A2303FB0A1338
:10A85000A3F1300A0246F0E746F00106D1E746F0E0
:10A860000206CEE746F00406CBE711F8013CA3F15F
:10A8700030000928DBD80A2202FB0434303C0A46A7
:10A88000CBE74FF0000A12F8011B01F0FB0068282B
:10A890009046F8D0782909D86F290CD8632962D05E
:10A8A00022D8252963D0582900F0888098F80030F4
:10A8B000002B95D197E770390829F7D801A353F8F1
:10A8C00021F000BF3FAA0100ADA80100ADA8010022
:10A8D000CDA90100ADA80100ABA90100ADA8010000
:10A8E000ADA80100BDA90100642901D06929DDD10D
:10A8F0003A68D2F80090111D89EAE9723960A2EB3A
:10A90000E9724FF0010B092A35DCD34538BFD34635
:10A910002CB1B9F1000F01DB720700D5013CB30780
:10A9200002D5BAF1000F03D0F00701D44CBB0024CC
:10A93000B9F1000F2DDAC9F100092D212846FFF7E2
:10A94000DEFE06F00302022A04D1BAF1000F01D1A3
:10A950001CBB0024CDE9004653460A22494628463E
:10A96000FFF7DCFEA2E73B681A1D19783A6028461B
:10A97000FFF7C5FE9AE70A230BF1010BB2FBF3F2D6
:10A98000C1E7A345D4D220212846013CFFF7B7FEFA
:10A99000CCE77107D5D52B21D0E7A345DAD23021FA
:10A9A0002846013CFFF7ABFED2E73968CDE9004607
:10A9B0000A1D3A6053460A220968D0E739680A1D21
:10A9C0003A60CDE9004653461022F5E73B681A1D70
:10A9D0003A6016F00106D3F8009028D1B9F1000FC3
:10A9E00003D0484609F016FE0646B44200D904BB1F
:10A9F00009F1FF3919F8011F00293FF457AF284624
:10AA0000FFF77DFEF6E728460136FFF778FE19F8D6
:10AA100006100029F7D1A642BFF448AF002C3FF43E
:10AA200045AF20212846013CFFF769FEF3E70026E9
:10AA3000EDE720212846013CFFF761FED5E73B68A2
:10AA40001A1D3A60302128461C68FFF758FE78210D
:10AA50002846FFF754FE00220823CDE900322146A4
:10AA600010227CE703B0BDE8F08F00BF2DE9F84F5E
:10AA7000B0F806A04579D2F800B09DF828900AFBFE
:10AA800005F5043D88460BEB0301A94203F10404DC
:10AA900088BFA5EB030BB4FBFAF607460AFB164486
:10AAA000C2F800B04EB9AAEB04055D4528BF5D466B
:10AAB000BBF1000F04D1BDE8F88F3F68013EF1E71C
:10AAC000043408EB06003C442A46B9F1000F0DD0CF
:10AAD0002146ABEB050B09F01FFDDA452E443F681C
:10AAE00055464FF0000428BF5D46E1E70146204689
:10AAF000EFE7FFF796BDF8B546790146721E0546A9
:10AB0000002393422D6803D30024A64202D8F8BD47
:10AB10000133F6E70F682846FFF7BEFD01343946DA
:10AB2000F3E72DE9F843068ACD1C0746FFF790FDB1
:10AB3000043E35440446B5FBF6F5F0B14FF480739E
:10AB4000EDB28380C680013D076081464FF000086A
:10AB5000A84512D23846FFF77BFD064648B1637917
:10AB60000133637108F10108C9F8000007608146EC
:10AB7000EEE72046FFF7BFFF34462046BDE8F883E6
:10AB800001210430FFF72CBD10B50121044604302B
:10AB9000FFF732FD10F0FF0F04D12046BDE8104052
:10ABA000FFF7A9BF10BD1FB503920022009203AAB0
:10ABB000FFF75CFF05B05DF804FB1FB503920122AF
:10ABC000009203AAFFF752FF05B05DF804FB41DFD6
:10ABD00070470000064B10B500241C70054B1C602C
:10ABE000BFF35F8F0449054800F01FF8204610BDF1
:10ABF000B42C0020B82C0020744F0200AC2C002094
:10AC000008B505F07BFF18B1BDE80840FFF7DFBFCE
:10AC100020BF40BF20BF08BD836800225A60C3E93F
:10AC200004229A60DA601A6070470B684A684360D1
:10AC3000934208BF0023016008BF43607047436828
:10AC400043B10268916852680B449342436004BF69
:10AC5000002343607047000010B50D49A1F59472C0
:10AC6000914201D800200FE08C1AE30F03EBE403BC
:10AC70005B1002EBC30452F83330834205D802D292
:10AC800004F10802ECE7606810BD2146E8E700BF68
:10AC90007854020008B5FFF7DFFF024B002808BF19
:10ACA000184608BD3A53020029DF704728DF704775
:10ACB00070B503689E6886B004460D466EB11422D6
:10ACC0000021684609F051FCA3680593237901959A
:10ACD0002BB1012B0DD06846B04706B070BD0123E3
:10ACE0008DF8003023690293E3680393636904934A
:10ACF000F1E702238DF80030E3681B030293F5E7C8
:10AD00000846704700207047024B187A003818BF79
:10AD100001207047582D0020034B187A0122B0FA09
:10AD200080F05A7440097047582D002008B510462D
:10AD30001A4609F0F1FB002008BD000008B51422F6
:10AD40000021044809F011FC0348FFF714FB002020
:10AD500008BD00BF582D0020482D002010B5094C1B
:10AD6000094B43602046FFF753FC40B905F0C6FE8F
:10AD7000064920741C2306488C22FFF7E9FA0020BC
:10AD800010BD00BF582D002078540200BC2C0020BC
:10AD9000482D002070B5244C244E237A25463BB91B
:10ADA00023492448FFF743FB306008B9606070BD59
:10ADB000022334682B72237973B1012B25D02046EE
:10ADC0000321FFF775FF00232B726B6018491948A8
:10ADD000BDE87040FFF756BBD4E90523D21AB2F59F
:10ADE000805FD4E9031028BF4FF480529208012AF3
:10ADF00038BF012219441844FFF756FF014650B1ED
:10AE00001128DCD101232B72D1E7D4E903031844C4
:10AE1000FFF74CFFF2E72B7C002BC8D1BDE8704058
:10AE2000022000F009B800BF582D0020702D00202E
:10AE30006C2D0020482D002038B5831E012B45D8ED
:10AE4000234C237A002B41D0022B09D1032830D088
:10AE5000204B00221B68E2601A793AB1012A22D005
:10AE6000637C7BBBBDE83840FFF794BFD3E9051294
:10AE70008D1AB5F5805F94BF521902F580529A6120
:10AE80009142EDD102284FF0000308BF194623720A
:10AE9000104B18BF0D211868FFF70AFF0E490F4825
:10AEA000FFF7F0FADCE71A6901321A615B699A422E
:10AEB000E7E7E3680133082B01D8E360D0E700231C
:10AEC000E360DFE7BDE8384005F008BE38BD00BFED
:10AED000582D0020702D00206C2D0020482D0020C2
:10AEE00000F0FD03012B08D1044B00225A74421ECE
:10AEF000504250411874FFF74DBF7047582D002045
:10AF000010B5064C201DFFF783FB28B9637C1BB9E5
:10AF1000BDE81040FFF73EBF10BD00BF582D002018
:10AF20002DE9F34180460D460F4801A916461F46FC
:10AF3000FFF743FA0446A8B11C22002109F015FBD3
:10AF40002D0B0123237101A90748C4F80080A760D5
:10AF5000E5606661FFF75BFAFFF7D2FF002002B001
:10AF6000BDE8F0810420FAE7482D00202DE9F743E1
:10AF700081468846104801A917461E46FFF71DFA6C
:10AF80000446B0B11C22002109F0EFFA00250A9B0B
:10AF9000A36001A9C4E9037807482571C4F80090AB
:10AFA0006661FFF734FAFFF7ABFF284603B0BDE850
:10AFB000F0830420FAE700BF482D00200C4B1B78DB
:10AFC000062B10D10B4B1B681A070CD10A4B1868C3
:10AFD00000F0F003302B08D000F0E000A0F14003B7
:10AFE000584258417047002070470120704700BF09
:10AFF000E00F00F0E40F00F0E80F00F0094B1B78C1
:10B00000062B0CD1084B1B681A0708D1074B186890
:10B0100000F0F000A0F13003584258417047002082
:10B02000704700BFE00F00F0E40F00F0E80F00F001
:10B0300008B5FFF7C3FF28B16F4B704A1B68C3F315
:10B0400004231360FFF7DAFF10B16D4B6D4A1A60ED
:10B050006D4B6E4A1B68C3F342331360FFF7CEFF9C
:10B0600020B16B4AD36823F08073D3604FF08043E4
:10B070000022C3F80C21C3F81021C3F83825FFF7CC
:10B08000BDFF10B1634B03221A60FFF7B7FF40B159
:10B09000614B05221A6001229A6700229A603F22C2
:10B0A0005A604FF080525D4BD2F80414C3F820155B
:10B0B000D2F80814C3F82415D2F80C14C3F82815D4
:10B0C000D2F81014C3F82C15D2F81414C3F83015A4
:10B0D000D2F81814C3F83415D2F81C14C3F840156C
:10B0E000D2F82014C3F84415D2F82414C3F8481534
:10B0F000D2F82814C3F84C15D2F82C14C3F8501504
:10B10000D2F83014C3F85415D2F83414C3F86015CB
:10B11000D2F83814C3F86415D2F83C14C3F8681593
:10B12000D2F84014C3F86C15D2F84424C3F8702543
:10B1300003F54053FB22C3F81825FFF73FFF28B162
:10B14000374B384A1B6803F04F0313604FF08043BE
:10B15000D3F80024D20744BF6FF00102C3F80024E3
:10B16000314B1B68062B08D1304B1B68062B01BFE7
:10B170002F4A136843F4806313604FF01023D3F811
:10B180000022002A03DBD3F80432002B2FDA294BEC
:10B190000122C3F80425D3F80024002AFBD04FF085
:10B1A00010221521C2F80012D3F80024002AFBD087
:10B1B0004FF010231522C3F804221E4B1A46D3F871
:10B1C00000140029FBD00021C3F80415D2F8003484
:10B1D000002BFBD0BFF34F8F1749184BCA6802F4FE
:10B1E000E0621343CB60BFF34F8F00BFFDE7144B0A
:10B1F000144A1A6008BD00BF240300104035014006
:10B2000074C007400DF0ADBA440200103C05004088
:10B21000F0ED00E0A00500401056004000C00040E6
:10B2200058020010E40E00403001001034010010FC
:10B230003C17004000E0014000ED00E00400FA058A
:10B240001C2500200090D00338B5074C051E04F1E2
:10B25000080318BF1C4623682BB11A6822605B687C
:10B2600028469847F7E738BD7C2D002020B9054BCC
:10B2700001225A70FFF7E8BF012802D1014A9070FD
:10B28000F8E77047742D002020B9034B01225A7053
:10B29000FFF7DABF704700BF742D002038B50B4CA4
:10B2A000237883B90A486360A3602361E36000F0F8
:10B2B00061F8054605F022FC08B900F067F80123A3
:10B2C0002370284638BD8525FBE700BF742D00207C
:10B2D0006DB2010037B50B4C00230DF107008DF85E
:10B2E0000730FEF7FBFFE368013BE360E56815B953
:10B2F00000F060F8A5709DF80700FFF713F803B0A1
:10B3000030BD00BF742D0020012813B508D00328DC
:10B310001CD018B9104B0122C3F8802002B010BD18
:10B320000E4C00230DF107008DF80730FEF7D6FF15
:10B3300023780BB9FFF7B2FFE3689DF807000133EC
:10B34000E3600123A370FEF7EDFFE7E700F01EF8CE
:10B35000FFF7C0FFE2E700BF00E100E0742D00202E
:10B3600000F18040002382B0036003680193019BD9
:10B3700002B07047044B0246187918B91A600122CE
:10B380009A80704785207047882D0020084B1A68E6
:10B39000D20706D4C02283F800230122C3F88021FB
:10B3A0001A604FF080430122C3F81825704700BF90
:10B3B00000E100E0044B01221A604FF08042D2F815
:10B3C0001834DB03FBD470470C000040124B1B68A1
:10B3D00010B573B14FF48070FFF7C2FF4FF0804398
:10B3E0000122C3F808230D4B587910B95A711B6814
:10B3F00098470B4B1B6873B14FF48270FFF7B0FF97
:10B400004FF080430222C3F80823044BBDE81040EC
:10B410001B680120184710BD00010040882D002046
:10B420000401004000F1804000F5C040002382B0DC
:10B43000036003680193019B02B07047800000F134
:10B44000A040D0F8002722F44032C0F80027D0F8FE
:10B45000003743EA0143C0F800377047054B4FF00F
:10B46000FF32072843F8202084BFC01880F83C2012
:10B47000704700BF902D002010B5184C94F849304B
:10B4800053BB04F124032021FF22013911F0FF01F5
:10B4900003F8012BF9D1C8B2FFF7E0FF0131092908
:10B4A000F9D1042200210E4809F05FF80D4BC022AB
:10B4B00083F806234022C3F880214FF4BE701A603F
:10B4C000FFF7B0FF084B4FF00042C3F804230123FD
:10B4D00084F84930002010BD0820FCE7902D0020A2
:10B4E000D52D002000E100E000600040034B93F800
:10B4F0004900003818BF0120704700BF902D002080
:10B5000030B52E4B1A1892F92440013453D18C785F
:10B51000002C4CD01C46002254F8045B013541D16C
:10B520001C1884F82420002443F82240920002F1E1
:10B53000804202F5C0420B78D2F810554C7825F4C1
:10B5400098151B04240525F4F85504F4801403F41D
:10B550004033C2F8105523430402D2F8105504F4C6
:10B56000F85423432B43C2F810354A780123012AAB
:10B570004FF0A04203FA00F30CBFC2F80835C2F83E
:10B580000C3500F5E073032142F82310C2080C4982
:10B59000012300F0070003FA00F08B5C1843885485
:10B5A000002003E00132082AB6D1042030BDFE237A
:10B5B00082F82430D9E70820F8E700BF902D00205A
:10B5C000D52D002001234FF0A0428340C2F808355A
:10B5D000704701234FF0A0428340C2F80C357047FA
:10B5E0002DE9FF470024574D01944FF4807201214B
:10B5F00002F1804303F5C04390B21B68012B06D1D2
:10B60000D5F804330B4202D0FFF70CFF0C43043291
:10B61000B2F5907F4FEA4101EAD14B4B1B68012BF9
:10B620000AD14FF4BE70FFF7FDFE4FF0A04344F087
:10B630000044D3F81035019314F0FF0F1AD0434F94
:10B6400000250126344210D0AB0003F1804303F5FE
:10B65000C043D3F81005D3F8101557F8253023B19F
:10B66000C1F30141C0F3042098470135082D4FEA8A
:10B670004606E7D1002C62DA00224FF0FF33CDE915
:10B680000223324F4FF001090DF1080897F94430B9
:10B6900097F84440013324F0C00550D004AA02EBCF
:10B6A000D50104F0070311F8042C09FA03F31A4238
:10B6B0004FEAD50043D07A19A40992F9242057F80B
:10B6C00022603EB9032C3AD118F800201A4308F83A
:10B6D000002001E0032CF7D005F5E0724FF0A04008
:10B6E00011F80C1C50F822201942C2F3014205D077
:10B6F000022A24D1032C20D1214604E0032A1ED1A2
:10B70000032C1AD102212846FFF798FE3EB14FF0D4
:10B71000010A21462846B047BAF1000F0FD04FF07A
:10B72000A043019AD3F81035934208D00193029BAD
:10B730000393ABE74FF0000AEBE7002EFAD104B019
:10B74000BDE8F087006000407C610040902D002043
:10B750000023435082B043580193019B02B07047CD
:10B760001FB501238DF80030054B8DF808000191BD
:10B770006846D3E90012904705B05DF804FB00BFAE
:10B78000DC2D00207FB5374AD2F82461002E47D047
:10B7900010464FF49271FFF7DBFF02238DF8003063
:10B7A000D2F88034C2F880340393D2F83C358DF857
:10B7B00008302D4BDA6801920022C3E90622684660
:10B7C000D3E9001290472748D0F844316BB14FF4C9
:10B7D000A271FFF7BDFF244B9A6932B100229A6132
:10B7E000D0F83C05D968FFF7BBFF1E48D0F82031E0
:10B7F000A3B14FF49071FFF7ABFF1B4B5A696AB1CD
:10B80000D0F84C158DF80810002299688DF80020AA
:10B8100001915A616846D3E90012904704B070BDA7
:10B82000D2F81031002BCED04FF488711046FFF7BC
:10B830008FFF0D4BD2F83C0599698842C3D1DC6972
:10B84000D96864B1D2F8005225F02005C2F8005240
:10B850001A699C61DA60DE61FFF782FFB3E79C61E1
:10B86000FAE700BF00200040DC2D002000F18040FE
:10B8700000F5E040002382B0036003680193019B60
:10B8800002B07047F0B5504B504C1B6885B0002B90
:10B890003DD04FF4827094F82E20FFF7E7FF2AB3D3
:10B8A00094F82F3013BB4A4B1B68002B33D04FF456
:10B8B0008070FFF7DBFF638B94F82D108B424FD91C
:10B8C00022895B1A9BB292B26383D31A626802EB3D
:10B8D0004303404AC2F82C36C2F830164FF4827047
:10B8E000FFF7C4FF3C4B01221A6014E06368029327
:10B8F0002389ADF80C30E36800218DF8041023BBD8
:10B900002374236801A89847002384F82F3094F803
:10B910002E30002BC7D1314B1B685BB14FF48870C0
:10B92000FFF7A4FF0023237402238DF8043001A83D
:10B93000236898472A4B1B68EBB14FF48A70FFF7D6
:10B9400095FF0023237405B0F0BD208B60836360F6
:10B950002081E160002AD4D11E4B01221A60D0E779
:10B96000BCD1E368012284F82F2013B10022628346
:10B97000AFE76383B2E766694FF000470125002E09
:10B98000E1D0B6FA86F227FA02F34632920026EAAE
:10B99000030602F1804303F5E0431B68002BEED061
:10B9A0001046FFF763FFA2F58C72D30882F0040201
:10B9B000C2F380028DF808308DF8045023688DF8AA
:10B9C000092001A89847DAE704710040002E002002
:10B9D0000071004000700040047000401071004091
:10B9E0001471004038B51D4B044693F82C0098BBE9
:10B9F0001B4A19602178C2F8F0156178C2F8F41575
:10BA0000E5781874012183F82C1083F82D00586113
:10BA100083F82F0083F82E506FF00043C2F80833EC
:10BA20004FF48270FFF722FF4FF48070FFF71EFF84
:10BA3000A3780C485B01DBB280F807338023C0F8A1
:10BA4000803103600223C2F804330DB1C2F804133D
:10BA5000C2F80015002038BD0820FCE7002E0020A9
:10BA60000070004000E100E070B52A4B1A7C02F043
:10BA7000FF05002A4BD10A79012A9CBF264CC4F845
:10BA8000005500F10C0503EB4504247924B993F823
:10BA90002D40013483F82D4003EB4503CC790D7A1A
:10BAA0008E781C715D714B7836021B0106F4E066DE
:10BAB00003F0300333430E7806F003063343CE78A9
:10BAC000360306F480563343160406F4E026334367
:10BAD0004E798979360506F480160906334301F05C
:10BAE00080710B430C4901EB0016000100F180400E
:10BAF00000F5E040012AC6F81835C0F81455C0F822
:10BB0000104502D80123C1F80035002000E01120C3
:10BB100070BD00BF002E00200070004070B5344A98
:10BB2000147C04F0FF03002C5FD1324C0125032666
:10BB30001574C4F80863C4F82C16C4F8305692F88B
:10BB40002D10A9420CD91C46190101F1804101F5C3
:10BB5000E0410133082BC1F81445C1F81045F3D179
:10BB600000F10C03000102EB430300F1804000F5FB
:10BB7000E04019795B79C0F81435C0F810151D49FB
:10BB800001230B604B6042F2107301F5827108686B
:10BB900008B9013BFBD14FF48070FFF767FE4FF40B
:10BBA0008270FFF763FE92F82D30012B11D91048F7
:10BBB00000210B0103F1804303F5E0430131047FD1
:10BBC000457FC3F814550829C3F8104500F1020059
:10BBD000EFD192F82E10074B29B103210020C3F8B2
:10BBE0000413107470BD0221F8E71120FAE700BFBA
:10BBF000002E002000700040024B187C003818BF57
:10BC000001207047002E0020F0B51B4F8BB207EBD0
:10BC1000001443EA0243C4F81C35184B40005C6929
:10BC200000F1010C4FF0004611F5006F26FA0CF6FA
:10BC30004FF0800505FA00F50BBFB44334435C6157
:10BC40005C610CBFC7F80853C7F8045340244FF099
:10BC500000455969844025FA00F040F2FF75AA4278
:10BC6000054A0BBF81430143596159610CBFC2F8BA
:10BC70000843C2F80443F0BD00700040002E0020CD
:10BC800010B5124B1A7CF2B900F10C0103EB410222
:10BC9000127922B193F82D20013A83F82D2003EB7D
:10BCA000410300249C80030103F1804303F5E0433A
:10BCB0000749C3F8144540F2FF72C3F81045FFF777
:10BCC000A3FF204610BD1120FCE700BF002E00207E
:10BCD00000F8FFFF38B5134B6FF00042C3F808239C
:10BCE000114A8021C2F88010104A012111601049C8
:10BCF00042F21072086808B9013AFBD10D4D0024D8
:10BD0000C3F800452C7405EB44031B7F13B1E0B26C
:10BD1000FFF7B6FF0134082CF5D1002385F82C304D
:10BD200038BD00BF0070004000E100E00870004036
:10BD300014710040002E00202DE9F7430024064630
:10BD40000F4600F5A0754FF48038A146A30003F517
:10BD5000A07398B22B686BB1D6F8043308FA04F2DA
:10BD60001A4207D0C5F800902B680193019BD7E9D0
:10BD7000003198470134042C05F10405E6D103B0E5
:10BD8000BDE8F08301490248FFF7D6BF302E0020FE
:10BD90000080004001490248FFF7CEBF3C2E002042
:10BDA0000090004001490248FFF7C6BF482E00201E
:10BDB00000A00040032811D8012A0AD101290FD17F
:10BDC00000F10E02D2B20D4B00EB40001A540020DD
:10BDD00070470129F7D0022904D049B107207047E4
:10BDE0000022F8E7054B00EB400018444270EEE7F4
:10BDF000024B00EB400018448270E8E7542E00200C
:10BE000008B5012202210020FFF7D4FF08B107285E
:10BE100010D1072202210120FFF7CCFF08B107282B
:10BE200008D100210A220846FFF7C4FF10B10728F5
:10BE300008BF002008BD00000388102B10B502D0F9
:10BE4000112B1ED010BD1A4C2168B1B90122084631
:10BE5000FFF7B0FF08B1072824D1072202210120F3
:10BE6000FFF7A8FF08B107281CD1042202210020F7
:10BE7000FFF7A0FF08B1072814D12368013323601E
:10BE8000E0E70B4A1368013B1360002BDAD1FFF7A0
:10BE9000B7FF0028D6D0074B1B68002BD2D0BDE8D7
:10BEA00010401847034B1B68002BE6D09847E4E787
:10BEB000642E0020602E00200369C1688B429DBF64
:10BEC0008268D21802F1FF3203F1FF3394BF501A97
:10BED000581A70472DE9F843D0E902940546A9EBBA
:10BEE00004084068904520440F46144404D908F0E3
:10BEF00013FBEC60BDE8F8834246A4EB090408F0AC
:10BF00000BFB6868224607EB0801F0E72DE9F843D0
:10BF1000C5680646894617464FF000083469B3687D
:10BF20007068A54228BFE418013C621B5C1BBC4240
:10BF300028BF3C46944228BF14464946284422461E
:10BF400008F0EAFAB3682544AB4208BF00253F1B5E
:10BF5000A044A144F560E1D14046BDE8F88300006B
:10BF600010B5114C114AA2610223C4E90433104BED
:10BF7000E361A2644FF400730E4A0F492362E26446
:10BF800000231022E01DA3626362E362A365636580
:10BF9000E365226508F01CFB0849204608F018FB01
:10BFA0002023A37110BD00BF682E0020D1540200D1
:10BFB000F02E0020E02E0020DA540200DE540200B1
:10BFC000F8B5184C182300FB033503FB004025444B
:10BFD000C46A012C0F4616460FD0022C1AD0F4B9B1
:10BFE0002846FFF769FF864205D83246394628467B
:10BFF000FFF770FF34462046F8BD2846FFF75CFF88
:10C000008642344628BF0446224639462846FFF772
:10C0100061FFF0E72846BDE8F840FFF777BF00244E
:10C02000E9E700BF682E0020FFF79ABF6DDF704779
:10C0300079DF70477DDF704764DF70472DE9F04F8F
:10C0400085B000250E9CBDF83CB0B4F800A001916D
:10C05000074690461E46A9463A884A450DDC45B13A
:10C060002388013BA3EB0A039BB2FF2B3AD806F8C7
:10C070000A30002005B0BDE8F08F7A6852F8290038
:10C08000039000220DF10B0103A8FFF7D5FF002854
:10C09000F0D19DF80B20424521D12288002D14BFFC
:10C0A0000020022002EB0801014459451ADC3DB989
:10C0B000013292B2019B2280B35422880132228045
:10C0C00022880DF10B01324403A8FFF7B5FF0028C9
:10C0D000D0D121889DF80B200A442280012509F146
:10C0E0000109B9E70C20C5E72DE9F341089FBDF828
:10C0F00024801546CDE90078022204461E46FFF74B
:10C100009DFF50B93346102229462046CDE90878D4
:10C1100002B0BDE8F041FFF791BF02B0BDE8F08189
:10C120002DE9F04F00231788138090F82D3085B04B
:10C1300006460D46144653B3082F01D80C2027E1BC
:10C1400002A8FFF773FF002840F02281238808220D
:10C15000EA54238801339BB21B222380EA542088AF
:10C16000013080B2208006220DF10901284408F038
:10C17000D3F923889DF8082006339BB212F0FE0203
:10C1800018BF01222380EA54238801332380B37827
:10C19000FBB123880433BB42D0D802A8FFF748FF85
:10C1A000002840F0F58023880322EA5423880133D5
:10C1B0009BB219222380EA542388BDF8082001335A
:10C1C0009BB2E9182380EA54120A4A70238802338A
:10C1D0002380F2789AB12388D91CB942AED80221C3
:10C1E000E954238801339BB201212380E954238839
:10C1F0000B449BB22380EA5423880B44238072684B
:10C20000AAB12388D91CB94298D8022192F90020FA
:10C21000E954238801339BB20A212380E9542388FF
:10C2200001339BB22380EA5423880133238033896E
:10C23000002B40F0A180338A5BB1CDE900472B464B
:10C240000722032106F11000FFF74EFF002840F0FF
:10C250009F80338B5BB1CDE900472B46152214211B
:10C2600006F11800FFF740FF002840F09180326A85
:10C27000002A40F09080D6F82480B8F1000F30D02A
:10C28000B8F804302188981C8A1C0244BA423FF650
:10C2900055AFFE283FF652AF03336B54238801336A
:10C2A0009BB2FF222380EA54238801339BB2238070
:10C2B000B8F80020EA54E918120A4A7020880230BF
:10C2C00080B22080B8F804205AB1D8F808100029AC
:10C2D0006BD0284408F020F92388B8F804201344D0
:10C2E000238096F82C30002B40F09A80307800287C
:10C2F0004ED03388012B58D0228802F1020CBC4565
:10C300003FF61CAF012805D17378023313449F42D6
:10C31000FFF414AF023FBF1ABFB202A905EB0C0035
:10C32000ADF80870FFF786FE90BB3178BDF8083095
:10C33000022900F0BA8072789A4202D3BB4240F2DE
:10C34000B280012940F0B380974293B2C0F0AF8031
:10C35000ADF808300821BDF80830FE2B3FF6EEAEF0
:10C3600022880133AB542288013292B22280A95430
:10C370002288134423800BE0CDE900472B46062298
:10C38000022106F10800FFF7AFFE00283FF453AF8B
:10C3900005B0BDE8F08FB4F800C00CF10603BB4255
:10C3A0003FF6CCAE1188052901D80720F0E76FF4DD
:10C3B000486E01EB0E039BB24FF27D3E7345F4D9FC
:10C3C0005388052BF1D96FF44860181880B2704576
:10C3D000EBD94FF6FF70814203D0834201D09942DE
:10C3E000E3D8052305F80C30238801339BB21221D2
:10C3F0002380E954238801339BB223801188E954B8
:10C40000E818090A4170238802339BB223805288BE
:10C41000EA54E918120A4A702388023323802AE773
:10C42000B36A002BC1D04FF000094FF00C0A4FF057
:10C43000160B96F82C305FFA89F293427FF656AFCE
:10C44000B16A0AFB02F201EB0208B8F80430981C4A
:10C45000FE283FF673AE208803332B542388013324
:10C460009BB2238005F803B0238801339BB223805D
:10C470008A5AEA54E918120A4A702088023080B2B7
:10C480002080B8F804205AB1D8F8081000298CD0C0
:10C49000284408F041F82388B8F804201344238086
:10C4A00009F10109C5E7092155E7BB42FBD9ADF800
:10C4B00008704FE770B5C0B14AB116880024B44285
:10C4C00003D305196D789D4208D0A14201D8002000
:10C4D0000BE0055D01352C44A4B2F0E7A142F6D98A
:10C4E000A31C1380005D013880B270BD13B51346E4
:10C4F0000022ADF806200DF106020446FFF7DAFF30
:10C5000010B1BDF80600204402B010BD72DF7047C4
:10C5100073DF704738B5012204460D46B0F8981015
:10C52000D0F89400FFF7E2FF00B1057004F13C027F
:10C5300004F1940104F15400BDE83840FFF7E6BF70
:10C5400080F830107047F8B504460F46002968D0CF
:10C55000002866D091F87A301BB191F89830002B02
:10C5600061D1D7F8A030042B5DD0D7F89C30042BD4
:10C5700059D04FF0000C84F802C007F178060FCEB6
:10C58000251D0FC50FCE0FC596E8070085E80700EB
:10C5900084F830C0D7F8A4306363D7F8A830A36319
:10C5A0004FF6FF7504F19403C4F8A430A4F8A85022
:10C5B0000722614604F1AA0007F0D7FF23780BB9E0
:10C5C00084F85450224604F155011F25C4F89410F4
:10C5D000384622F8985FFFF7A3FD08BB224604F116
:10C5E0007401C4F89C1007F13C0022F8A05FFFF72B
:10C5F00097FDA8B9A369A4F848304FF480730125CA
:10C60000A4F8503063692064014684F83C506364A8
:10C6100004F13C0204F15400FFF778FF00B92570E3
:10C62000F8BD0E20FCE70720FAE7F8B507780446C6
:10C630000D46002F00F0F98000F1AA068170072254
:10C640000021304607F091FFE38813B1A378012B56
:10C6500004D0E3794BB1A378022B06D1636BA3B16D
:10C66000012284F8B12008209847334604F1B00134
:10C6700013F8012F12B99942FAD117466B1E032BFA
:10C6800052D8DFE803F0050B0F1284F8B130ECE765
:10C69000A3791BB194F8243003B95FB9E3790BB1E6
:10C6A000002F43D1237A002B42D1637A002B0CBF99
:10C6B00000250425636BA570002B3BD0033D012DA5
:10C6C00038D86279002A35D094F8B22092BB84F829
:10C6D000B420012284F8B3200720984704F13C05D8
:10C6E00018220021284607F040FFE36A591E012264
:10C6F000022928BF134684F8513094F8243084F876
:10C700003C2033B1914296BFA36A84F8522084F84A
:10C710005230A278002384F85030042A1BD8DFE876
:10C7200002F06C0D223252000025C3E70225C1E75A
:10C730000325BFE7002384F8B330CFE7C4E91063D3
:10C74000C4F8A4300223012284F83C30802384F80A
:10C750003120A4F84830A378002B51D1636B002B13
:10C760005FD100205CE0022384F83130032384F899
:10C770003C302369A4F848300023C4F8A430E368AF
:10C7800026646364E7E763696364A369A4F84830D7
:10C790006379B3B194F8B2309BB994F8B43083B1F3
:10C7A000022384F8503004212046FFF7B3FE00280E
:10C7B000D1D1052384F8313004F19403C4F8A430B6
:10C7C000C9E70323F6E7E3696364236AA4F8483002
:10C7D000637983B194F8B2306BB994F8B43053B143
:10C7E000022384F8503004212046FFF793FE0028EE
:10C7F000B1D10623DEE70423DCE784F83130AAE771
:10C80000D4F8A4102A4604F15400FFF77FFE38B98B
:10C8100094F8301094F85400FFF77AFE00289DD069
:10C82000F8BD94F8310098479BE70820F8E70388A3
:10C83000102B05D1C37B012B04BF8388A1F8A8303E
:10C840007047704775DF704776DF70477ADF704753
:10C850007BDF7047034B1A8882420CBF18460020CA
:10C86000704700BF0C310020024B9B6903B1184791
:10C87000704700BFF030002073B585B22846FFF73F
:10C88000E9FF044670B1164E027A337B9A420BD20E
:10C8900000F10A012846FFF7D5FFE8B1112801D0C1
:10C8A000FFF7E2FF02B070BD00230372337C43B197
:10C8B0003B212846FFF7C8FF30F0080301D0FFF7FF
:10C8C000D3FF7369002BEDD000228DF80420ADF862
:10C8D000065001A89847E5E7237A01332372E1E780
:10C8E000F030002013B50B46497A02460E4869B96C
:10C8F000D0E901101C7A002C18BF01465868FDF7DA
:10C9000095FC08B1FFF7B0FF02B010BD002119720D
:10C910004369002BF8D001218DF80410ADF80620F2
:10C9200001A89847F0E700BFF03000204B8802884C
:10C930009A4213D842889A4210D380888A8840F25B
:10C94000F313984294BF031AC31A934206D800F215
:10C95000F310904234BF0020012070470020704740
:10C960000388122B70B5014659D004D8102B1ED065
:10C97000112B44D070BD502BFCD12F4BC288DB89CA
:10C980009A42F7D1038A022BF4D186883046FFF70A
:10C9900061FF05460028EDD001F1120000F0FEF91C
:10C9A00038BB6868FDF78AFC0028E3D009E0C37B48
:10C9B000012BDFD14FF6FF70FFF74CFF054620B982
:10C9C0000420BDE87040FFF74FBF1C4A8E880680E8
:10C9D000002303721368C0F80A305368C0F80E30A1
:10C9E00010310A30FFF7A2FF134B6872DB89002B6E
:10C9F000C0D129463046BDE87040FFF773BF80883C
:10CA0000FFF728FF04460028B4D04068FDF756FC25
:10CA100008B1FFF729FF4FF6FF732380AAE7868846
:10CA20003046FFF717FF05460028A3D008310A302B
:10CA3000FFF77CFF6872DCE7F03000202031002037
:10CA4000F8B5064648B305460FCD154F3C460FC412
:10CA500095E8070084E807003068124C3C60B0B1EC
:10CA6000FFF7F4FEC0B9326813682360536863604F
:10CA70000D480E4A4FF6FF7303800D4B40F8043FFC
:10CA80000021FDF7C1FB002818BF032004E0204669
:10CA9000FFF7DEFE0028EBD0F8BD0E20FCE700BF5C
:10CAA000F0300020203100200C31002079C8010036
:10CAB00028310020F7B5174601900E4691B1019C30
:10CAC0006CB100252C46294601A8FDF70CFD18B1D4
:10CAD0003946A8B2B04701340135142DF3D12046B0
:10CAE00003B0F0BD0C46FAE773B50191019C064610
:10CAF0006CB100252C46294601A8FDF7F4FC18B1BD
:10CB000006EB440301349D800135142DF3D13046EA
:10CB1000346002B070BD00002DE9F04703888488BE
:10CB2000112B8CB005463CD01A2B3FD0102B17D1BF
:10CB3000284EB368DB43009371686846FDF738FD03
:10CB4000009901A8FFF7D0FF0DF108094FF0000888
:10CB5000019B984507D3132C13D90420FDF7D2F875
:10CB60000CB0BDE8F08739F802AB00270137514619
:10CB700006EB8700FDF7ADFC1D2FF7D108F101088A
:10CB8000E6E715482146FDF78DFC14482146FDF7E0
:10CB900089FCEB7B012BE3D011482146FDF782FC99
:10CBA000DEE70D482146FDF794FCD9E7037A0D48EE
:10CBB0001F2B4FEA1315214606D9FDF773FC022DF2
:10CBC00009482146EAD1EEE7FDF783FC06482146F5
:10CBD000E9E700BF48310020503100204C310020EF
:10CBE00054310020583100205C31002013280146C8
:10CBF00002D80248FDF777BC002070474C31002076
:10CC0000FFF7F4BF10B50446FFF7F0FF38B1044852
:10CC10002146FDF768FC002814BF0220012010BD4A
:10CC20005031002010B50446FFF7E0FF28B121463F
:10CC30000248BDE81040FDF756BC10BD5831002039
:10CC400010B50446FFF7D2FF28B121460248BDE8DF
:10CC50001040FDF748BC10BD5C31002010B5044603
:10CC6000FFF7C4FF002814BF2046142010BD0000A9
:10CC700008B518210248FDF73FFCC0B208BD00BF4F
:10CC80004831002070B50A4E054630460C46FDF787
:10CC90002AFC58B12846FFF7A9FF38B106342946C7
:10CCA00006EB8400BDE87040FDF71DBC002070BDA0
:10CCB00048310020F8B50D4C054620460E46174673
:10CCC000FDF711FC80B12846FFF790FF60B1B01D61
:10CCD00004EB800029461FB1BDE8F840FDF7E2BB38
:10CCE000BDE8F840FDF7F5BBF8BD00BF48310020B6
:10CCF000F8B50A4D04460E46014628461746FDF78C
:10CD0000F2FB48B1043405EB84043A46A06831468E
:10CD1000BDE8F840FFF7CEBEF8BD00BF48310020A7
:10CD200070B50546164608460AB90E2070BD0023A8
:10CD30001360002DF9D02B68002BF6D0EB8813F090
:10CD400003040ED1FFF78AFFC0B214280BD02B7951
:10CD500083420AD9EB882A6800FB03203060204612
:10CD6000E4E70720E2E70520E0E70420DEE7AADFAA
:10CD70007047002301380B70042806D8DFE800F064
:10CD80000306080A0C0011230B7070472123FBE7F0
:10CD90003123F9E71223F7E72223F5E7007800F0C3
:10CDA00001007047F0B58B7891B0012B0C4638BF6D
:10CDB00001238DF80E3005460B88ADF80C300021AC
:10CDC00016466846032207F0D0FB607C6946FFF7F1
:10CDD000D0FFA07C0DF10101FFF7CBFFE27B237BAD
:10CDE000217D43EAC203227C43EA02139DF802201C
:10CDF000002922F0190203F0190314BF02210121B6
:10CE0000134361F342031C22002109A88DF802306C
:10CE100007F0ABFB637B13F0300F15D002AF03229A
:10CE20000021384607F0A1FBE07C0DF10901FFF776
:10CE3000A0FF11238DF808309DF80A300E970122CB
:10CE400062F342038DF80A30637B8DF8243014229C
:10CE5000A37B8DF82530002104A807F086FB03ABE7
:10CE60000493A388ADF81C30A368CDF814D01BB18F
:10CE7000E288ADF818200893A369002B31D001AFE8
:10CE800003220021384607F070FBA3691A88ADF829
:10CE90002C205A88ADF82E205A680D97187B0A92DC
:10CEA0003946FFF766FFA3690DF10501587BFFF7CF
:10CEB00060FFA269917A137A43EAC103D17A927B27
:10CEC00043EA01139DF80610002A03F0190321F02C
:10CED000190114BF022201220B4362F342038DF8B1
:10CEE0000630E36903B10C93334604AA09A9284626
:10CEF000FFF73DFF11B0F0BDA5DF7047B5DF70470C
:10CF000058B14FF0F7130360FB230371F723C3807D
:10CF10001723C1608360002070470E20704730B136
:10CF2000A1F11703E02B04D80180002070470E20E8
:10CF3000704707207047000013B5034680880C46F1
:10CF400090B91A883A2A65D010D8102A3AD0112AF6
:10CF50005BD0A37A43B1E1880020FFF7CDFF002822
:10CF600070D14FF48073638102B010BD552AF0D1A7
:10CF7000DB88C988A072172B38BF17238B4228BFC4
:10CF80000B462381FFF7BAFF60B1FDF783FE354BF7
:10CF90003549024635481B1ADB081B0443F00100E3
:10CFA000FCF730FDE37A002BD3D1E368002BD0D01F
:10CFB00040F6772200922289ADF804206946204687
:10CFC0009847C6E7DB7B012B04BF0B88CB80C98861
:10CFD00023898B42BDD20020FFF78EFF10B90123B9
:10CFE000E372B6E7112802D10123A372B1E7FDF77E
:10CFF00051FE1C4B1E4902461C481B1ADB081B0431
:10D0000043F00100FCF7FEFCA3E7F723CB801723D6
:10D010008B609EE75B89CA88934228BF1346172B13
:10D02000CA6838BF17230B814AB1C97A39B140F6B3
:10D0300077210091ADF804306946204690470023DF
:10D04000638186E711288FD0FDF724FE054B084940
:10D05000024606481B1ADB081B0443F00100FCF7DC
:10D06000D1FC81E7944D020016550200444D0200A8
:10D07000E5540200B0DF704766DF704710B500214D
:10D0800004464088FFF7F8FF034608B9237210BD35
:10D09000112801D10123F9E76368BDE81040184762
:10D0A00060B159B10378DE2B0AD00B684360DE23F0
:10D0B00003704FF6FF734380002070470E207047C7
:10D0C0000820704728B10378DE2B04D1418000206E
:10D0D00070470E20704708207047F0B5054685B0B0
:10D0E0000C46F1B1E8B10B78DE2B1AD182884B885F
:10D0F0009A4204D10B7A13B10846FFF7BFFF2B8881
:10D10000112B32D0512B0ED0012B0AD12B7A012BAF
:10D1100007D1A9886288914203D123722046FFF784
:10D12000ADFF05B0F0BDAE886388B342F9D1AF79E9
:10D13000022FF6D1AD7B2B1F022BF2D8002110223B
:10D14000684607F012FA052D14BF4FF4C073002390
:10D15000694630468DF80070ADF80430FFF78AFF5D
:10D160000028DED063689847DBE76388AA889A4284
:10D1700004BF4FF6FF736380D3E7000070B5064E1F
:10D180000546002456F8043B0BB128469847013465
:10D19000042CF7D170BD00BFCC310020033080B229
:10D1A00040F2FD33984230B51FD8124B1A783AB985
:10D1B0001C895D892C440444A4B2B4F5806F0AD361
:10D1C0001A7DA2B99A8BDC8B2244024492B2B2F54A
:10D1D000806F0CD201220A801446142202FB043311
:10D1E0005A8910445881002030BD0920FCE70720EF
:10D1F000FAE700BF003200200B4A0C4B5188142084
:10D2000000FB0131CB6833B904204968107001225A
:10D21000074800F047BF07490523137002238B809E
:10D22000012209680023F3E7E431002000320020E6
:10D2300000250020C832002007B5002305490093CF
:10D24000054A09680548082300F096FE03B05DF81A
:10D2500004FB00BFC83200206055020000250020FA
:10D2600007B5002301460093034A0448082300F051
:10D2700083FE03B05DF804FB585502000025002032
:10D2800013B500230C4600930146084A08480423BE
:10D2900000F072FE38B90749142303FB041401237C
:10D2A000237402B010BD0E20FBE700BF54550200EE
:10D2B000002500200032002037B50A480A4B42689A
:10D2C0009C88196853880325033305709BB200209E
:10D2D00000909B0001EB8401044800F04DFE03B078
:10D2E00030BD00BFE4310020C832002000250020FE
:10D2F00010B501460448FDF760F81C2204460021E1
:10D3000007F033F9204610BDB432002068B102683E
:10D31000084B9A4209D14068074B984207D0013325
:10D32000984214BF0320012070470320704700205B
:10D33000704700BFDEC0ADDEFE011EF1438803333F
:10D3400000EB8303994209D382884FF6FF739A4218
:10D3500006D00088B0FA80F040097047022070477C
:10D36000012070472DE9F0410D460223154F2B8017
:10D37000164600F5805100F108044FF001088C4278
:10D380000ED2236801330BD02046FFF7D7FF48B1F8
:10D390000EB186F80080022809D14FF480632B80FB
:10D3A000BDE8F081A3683A68934200D93B602B88BE
:10D3B0006288033313442B806388033304EB8304B4
:10D3C000DDE700BFF831002038B5144B14220D46BC
:10D3D00002FB00302B68446804F58051A3B15C88DF
:10D3E000033403EB84048C4215D22368013312D03A
:10D3F0002046FFF7A3FF012808D002280BD0002801
:10D40000F1D12C60012038BD0834ECE76388033388
:10D4100004EB8304E7E70020F5E700BF00320020BB
:10D42000426873B504460D4662B3234BD9688A42FD
:10D4300028D31B699A4225D812F0030322D11F4931
:10D440000089098988421DD120689168884219D1D4
:10D450001B494868824203D900F5805082420DD3AF
:10D4600089698A420CD901F580518A4208D2012289
:10D470002A80B3FA83F0400902B070BD1A46F7E77C
:10D480000A23F6E700232B801E460196288801A96F
:10D49000FFF79AFF30B92B8801339BB2012B2B8009
:10D4A000F3D9E9E7019B226899689142EED1636064
:10D4B000024B1B892381DFE700250020E431002097
:10D4C000003200202DE9F8431C461C4B1B78064611
:10D4D0000F4615466BB372B36CB3DFF868804FF03C
:10D4E0001409A388012B01D90A2020E009FB03F3CA
:10D4F00018F803302BB9A0882146FFF765FF20B943
:10D500002060A3880133A380EBE723681EB19988CC
:10D5100032889142EFD11FB119883A889142EAD1FD
:10D520009A68C5E90023064B1B892B810020BDE8C2
:10D53000F8830220FBE70520F9E700BFDC3100207B
:10D54000E43100200032002008B5074B5888191D2F
:10D55000FFF73AFF18B1BDE80840FFF7ADBEBDE8E0
:10D560000840FFF749BE00BFE43100202DE9F04F2D
:10D57000A14FDFF8A89289B00646B8463B6823B9A8
:10D580009E484946FCF753FF3860D8F80050297888
:10D590004B1E052B07D8DFE813F021007900790036
:10D5A0000901090160010F241422002103A806F0DB
:10D5B000DCFF41F61D539C4208BF0024D8F8003020
:10D5C00004941A78013A052A00F2F181DFE812F09A
:10D5D000DD01E101010211021D02270226B1884B83
:10D5E00000225A600124DFE72B79032B1DD8DFE8E6
:10D5F00003F015022A3583490B78022B084619D00F
:10D600000B7D022B4FF0010316D114225343C21895
:10D610000020C8545068FFF723FE03E001232B715C
:10D62000FFF70AFE002800F0BC80754B00225A600C
:10D630000E24B9E70023E8E7714A13700023536012
:10D6400041F61D54B0E770497048002302222B7147
:10D650008A800968012200F025FDE3E76A4C002674
:10D660002E712068674DFFF7FBFD694BD4F800C0B1
:10D670005A8814235343EA18EE5451682160A18854
:10D68000C2F804C011810222A280CBE7B5F814A031
:10D69000AA7DDFF870B1AEB1022AEB8806D9142159
:10D6A00001FB0AB1DA1C088902440A81142202FB38
:10D6B0000ABAC3F57F43BAF80A20FD331344AAF827
:10D6C0000A308FE7142303FB0AB318895C6804EB64
:10D6D0008004062A68D8DFE802F0274D35431D593B
:10D6E000040041F61D54AA7DEB88022A06D91421B4
:10D6F00001FB0AB1DA1C088902440A81142202FBE8
:10D700000ABAC3F57F43BAF80A20FD331344AAF8D6
:10D710000A3049E73F48404900234360AB69036052
:10D72000FFF77EFE002859D00223AB75002300933B
:10D730000423EA182146354800F01EFC002830D0AA
:10D740000E24D0E72B69002B14BF03230123AB75F4
:10D750000023009305F10C02042304F10801EAE719
:10D760000123AB750022EB8800922A699B0004F12B
:10D770000C01E0E703290CBF05230623AB7500234A
:10D780000093042305F10802E118D4E70623AB75E2
:10D79000214B19881F4B5868FFF772FD044600287B
:10D7A000A1D109B0BDE8F08F0F249CE7002E7FF4D3
:10D7B00019AF2B79012B33D0022B3FF441AF002B53
:10D7C0007FF4F1AE02232B710DF10A01EB68039394
:10D7D00003A8CDE90466FFF723FE08B90A24E3E6AF
:10D7E0000498BDF80A108388EB8003882B81FFF72B
:10D7F00047FD044627E000BFFC310020B432002082
:10D80000DC31002000320020C8320020002500203A
:10D81000E4310020C0310020D4320020F431002057
:10D82000DFF814A203AA53463146A81DFFF74AFEAB
:10D83000044660B9BAF804100498FFF721FD0446C5
:10D840000A2C3FF4FDAE002C7FF4AEAEA9E708220F
:10D850003146504606F089FEF2E7002E7FF4C2AE54
:10D86000704B1A7BB2B11E731A78013A062A3FF642
:10D870009AAE01A151F822F01FD9010045D901004B
:10D8800063D9010069D90100A7D501006FD9010052
:10D8900081D901001A78072AE6D801A151F822F0AF
:10D8A000C1D8010069D8010069D80100E7D801009A
:10D8B000FBD801001BD901001BD90100E3D80100EE
:10D8C0001A89594901321A8100225A801A730A783A
:10D8D000B2FA82F252099A720A7DB2FA82F25209BF
:10D8E000DA72012207E0514958688A884088033279
:10D8F00002448A8002221A70B6E74B4C5A884B4980
:10D90000142505FB0242086854685060888810811D
:10D9100002228A800C600622EDE70722EBE79A7A62
:10D9200032B9DA7A8AB900221A705A805A6087E6C8
:10D930003D4900229A72CA68002AF2D1097C002966
:10D94000EFD05A80FFF700FE53E70022DA72364A22
:10D95000116A0029E7D192F82420002AE3D001229D
:10D96000EFE7FFF7A9FC44E7FFF746FC41E72E4A43
:10D970005B88142101FB03235868FFF771FC38E72B
:10D9800000225A60FFF758FC33E700238DF80C3073
:10D990000DE001228DF80C201A89ADF818209A8824
:10D9A000DB680593ADF81A2000238DF81C3003A81E
:10D9B000FFF7E4FB002649461D48C8F80060FCF765
:10D9C00061FD1C480121FCF717FE00287FF4D6AD4D
:10D9D000E7E602228DF80C201A89ADF818209A8803
:10D9E000ADF81A20DA689B7D05929A1F5342534185
:10D9F000DBE703228DF80C20DA88ADF818201A89AD
:10DA0000DB68ADF81A200593D1E704228DF80C20CD
:10DA1000DB88ADF818300023ADF81A30F3E70523A2
:10DA2000B4E700BFE431002000320020C8320020FB
:10DA3000B4320020C4320020D83200204068FFF702
:10DA400095BD000008B505480121FCF7BDFD18B9DA
:10DA5000BDE80840FFF78ABD08BD00BFC432002002
:10DA60002DE9F3419846354B1B7806460D46002BB1
:10DA70005BD000295BD009884FF6FF73994258D0DC
:10DA80006B88002B55D06B689B0754D14AB92F89FE
:10DA90000DF102013846FFF781FB30B102B0BDE85D
:10DAA000F08113885788ADF8023001A8FFF720FCF9
:10DAB000044658B9BDF80230214A142101FB032362
:10DAC00058890338C01B58810820E7E780F8008098
:10DAD00000238375BDF8023083826B6803610121E6
:10DAE0001848FCF77DFD2B882381B8F1030F6B8864
:10DAF000A38004BF0423A3754FF0000508BF33685B
:10DB0000E06008BFA3611048E780658101A9FCF7C8
:10DB10007EFC36B1E36833600C4B75601B89B572CF
:10DB20003381FFF78FFF0020B8E70220B6E705201A
:10DB3000B4E70420B2E70320B0E700BFDC310020E7
:10DB400000320020F8310020B4320020E4310020FF
:10DB500008B5034607480268042A08D00168064A47
:10DB600042F821300121FCF73BFD002008BD0C20CC
:10DB7000FCE700BFD0320020CC3100202DE9F04F6F
:10DB800014228BB000210DEB020006F0EEFC724A6D
:10DB9000137803F0FF01CDE901123BB105A8FFF7AF
:10DBA000EDFA002630460BB0BDE8F08F029B181D41
:10DBB000FCF72EFD0028F4D14FF010234FF08052D7
:10DBC0005B691269654C591C04BF302353432361C0
:10DBD0006349A3F5405300222046E36000F09AF920
:10DBE000039406460028DDD15E495F48DFF8849142
:10DBF000DFF884811C238C22FCF7AAFBB246354651
:10DC00004FF0030B3446039BDF68574438463946D0
:10DC1000FFF77CFB01284AD0032815D0002835D116
:10DC20001421614308EB010208F80100576001F17B
:10DC300010020831424441443846FFF793FB45F057
:10DC400002050134A4B221E007F5805208680130D2
:10DC500074D104319142F9D1D9F800203AB90222A5
:10DC60000123C9F80070A9F8042001930CE01422E4
:10DC70006243022008EB020108F802003B4A4F60B1
:10DC8000548001340881A4B245F001050AF5805A98
:10DC9000BAF5405FB7D1BBF1010F98BF0025EDB2D7
:10DCA000022D02D0062D20D045BB0B267AE7019B22
:10DCB00063B11422624308EB0201022008F802005B
:10DCC0000134D9F800204A600881A4B20022284912
:10DCD000C9F800703846FFF745FBB9F80420022A5E
:10DCE0000CBF042208221543D0E7029A01231370C7
:10DCF00005A800235360FFF741FA53E704A8FFF794
:10DD0000F7FAC8B10123013D03700A2D09D8DFE8F5
:10DD100005F006080608070807080F110F00002382
:10DD2000037104A91048FCF772FBFFF78BFE39E77B
:10DD30000323F5E70223F3E7082633E70BF1FF326D
:10DD40001FFA82FB1422624308EB02014F60032199
:10DD500008F8021075E700BFDC3100200025002024
:10DD60008454020028320020B4320020E431002024
:10DD7000CC320020C83200200032002073B50D469E
:10DD80000446C8B1C1B10DF10601FFF749FBA8B1C6
:10DD90000B4BBDF806006668142202FB003001211F
:10DDA0000C30FCF71DFC63682E600C336B600123A4
:10DDB000A372002002B070BD0520FBE70A20F9E73E
:10DDC0000032002013B50446A8B10DF10601FFF79B
:10DDD00027FB90B10B4ABDF80630142101FB032349
:10DDE000DA6862B1A27A52B1DA680020013ADA60E8
:10DDF000A07202B010BD0520FBE70A20F9E706205B
:10DE0000F7E700BF0032002002230022FFF728BE00
:10DE100018B103230022FFF723BE0520704700003E
:10DE2000104B1B7813B50446ABB14FF6FF73984205
:10DE300013D001A8FFF75CFA88B105230370012312
:10DE40000371C48001A90848FCF7E1FAFFF7FAFD65
:10DE5000002002B010BD0220FBE70420F9E70820F3
:10DE6000F7E700BFDC310020B43200200E4B1B78F6
:10DE700007B5A3B101A8FFF73BFA90B106230370E1
:10DE800001A90A48FCF7C3FA094B1A780AB1012222
:10DE90001A73FFF7D7FD002003B05DF804FB0220E2
:10DEA000FAE70820F8E700BFDC310020B432002098
:10DEB000E431002007B5ADF80600ADF804100DF10F
:10DEC000060001A9FFF7FEFA03B05DF804FB07B5F1
:10DED0001346ADF806000A4600200DF10601FFF7D3
:10DEE000F1FA03B05DF804FB07B51346ADF8060080
:10DEF0000A460DF106000021FFF7E4FA03B05DF8D1
:10DF000004FB20B119B103680B60002070470520A5
:10DF10007047000013B50B46114680B9104B1148ED
:10DF2000114AC01A0E23C0080093104B0004104978
:10DF300040F00100FBF779FD0E2002B010BD4BB997
:10DF4000074B08480B4AC01AC0080E230093000470
:10DF5000064BECE703601B6802B0BDE810401847B1
:10DF6000444D02009C4D020068550200FE5602001E
:10DF70006D5502009C5502002DE9F34188B93D4BD7
:10DF80003D483E4AC01AC0080E243D4B0094000490
:10DF90003C4940F00100FBF748FD204602B0BDE8D7
:10DFA000F0814AB9334B3448374AC01AC0080E24AE
:10DFB000334B00940004EBE7D0F800E0BEF1000F13
:10DFC00009D12C4B2C48314AC01AC00808242C4BCC
:10DFD00000940004DCE74BB9264B27482C4AC01AB2
:10DFE000C0080924264B00940004D1E74768D7F8FD
:10DFF0000480B3FBF8F708FB17374FB11D4B1E48E1
:10E00000244AC01AC00809241D4B00940004BFE72D
:10E010008F0709D0174B18481F4AC01AC008102490
:10E02000174B00940004B3E712F0030F09D0114B13
:10E0300011481A4AC01AC0081024114B0094000459
:10E04000A6E7C768B9420BD305694C1E1C44AC4215
:10E0500006D8DEF80C40A44602B0BDE8F0416047A7
:10E06000044B05480E4AC01AC0081024044B009403
:10E0700000048DE7444D02009C4D020068550200EB
:10E08000105702006D550200EA5502009655020035
:10E09000A9550200F05502001A560200325602003D
:10E0A00055560200F7B580B92A4B2B482B4AC01AA7
:10E0B000C0080E242A4B009400042A4940F00100B5
:10E0C000FBF7B3FC204603B0F0BDD0F800C0BCF1B4
:10E0D000000F09D11F4B2048234AC01AC00808244A
:10E0E0001F4B00940004E8E74AB91A4B1A481F4A2C
:10E0F000C01AC00809241A4B00940004DDE74768E1
:10E10000D7F800E00EF1FF370F4209D0114B12484B
:10E11000174AC01AC0081024114B00940004CCE721
:10E12000C768B9420CD304694D1E0EFB0255A542C7
:10E1300006D8DCF81040A44603B0BDE8F0406047C4
:10E14000044B05480B4AC01AC0081024044B009425
:10E150000004B2E7444D02009C4D020068550200E5
:10E16000235702006D55020096550200A955020082
:10E170007C560200A2560200A0DF704710B504468C
:10E18000408800F0D1FBA0802046BDE8104001F09F
:10E19000DDB930B587B005460C4618220021684627
:10E1A00006F0E3F9072368468DF80030ADF8025019
:10E1B0000294FFF7E3FF07B030BD000030B587B031
:10E1C000054618220021684606F0CFF94FF6FF7386
:10E1D0009D42ADF8025023D0284600F0B8FA11282D
:10E1E000044617D007D860B10B2811D02146284625
:10E1F000FFF7CFFF03E043F202039842F6D100227B
:10E2000009E00E2368468DF80030FFF7B7FFF6E708
:10E210000F23F7E70122034B28461978FEF74AFD42
:10E2200007B030BDE5320020FFF7C8BF024B0349FD
:10E2300018780022FEF75CBDE732002075E201008D
:10E2400013B5042204460021684606F08EF942F612
:10E25000A623ADF8003001238DF80230044B186876
:10E26000019001AA69462046FFF786FF02B010BD63
:10E270004857020070B5234E86B031780446FEF749
:10E2800001FD0546D8BB204600F0B4FA112801462E
:10E2900023D008D8062822D0082820D078B12046DC
:10E2A000FFF777FF19E043F20203984215D043F2DB
:10E2B00001439842F3D12046FFF780FF0DE0294645
:10E2C0001822684606F051F9102368468DF8003090
:10E2D000ADF80240FFF752FF0125012205E020467C
:10E2E00000F022FB00F0A0FA0022074B204619782C
:10E2F000FEF7E0FC31782A462046FEF7DBFC06B04C
:10E3000070BD00BFE8320020E732002013B504469C
:10E3100000F00AFB00236A46092100F08DFF052862
:10E3200005D1044B012219782046FEF7C3FC02B048
:10E3300010BD00BFE432002008B5084B084918782A
:10E340000022FEF7D5FC024630B9064B0649187884
:10E35000BDE80840FEF7CCBC08BD00BFE632002097
:10E360006DE30100E432002041E2010030B50121FB
:10E3700087B005461C48FCF7ECF80446BFF35F8FF6
:10E3800070BB284600F09EF9862801460ED007D8BB
:10E39000D0B1112826D02846FFF7FBFE002403E069
:10E3A00043F202039842F6D122460FE0182221469A
:10E3B000684606F0DAF8062368468DF80030ADF8B6
:10E3C0000250FFF7DBFEEFE701240246074B284629
:10E3D0001978FEF76FFC1CB9BFF35F8F024B1C600E
:10E3E00007B030BD0122F1E7E0320020E632002024
:10E3F00038B503780446A3B94088FFF7DFFE658887
:10E40000284600F0E4F928B1064B01221978284685
:10E41000FEF750FC6088FFF779FFBDE83840FFF752
:10E420008BBF38BDE732002037B50378082B044690
:10E4300030D1427A72BB057A072D1BD0082D2DD022
:10E44000012D27D180886A46294600F039FD08BB96
:10E45000019B1B78F3B1A08800F094FA4FF6FF738C
:10E46000984217D0114B2A461978FEF723FCFFF784
:10E47000DDFE0FE0808800F085FA4FF6FF739842CA
:10E48000044607D00A4B01221978FEF713FC2046F8
:10E49000FFF73CFFFFF750FF03B030BD054B196895
:10E4A0000129F7D1BFF35F8F1A60F3E7E73200204D
:10E4B000E6320020E0320020F8B5FEF7D9FB144F19
:10E4C000144E3870FEF7D4FB3070FEF7D1FB124DBE
:10E4D000124C2870FEF7CCFB2070FEF7C9FB104BE6
:10E4E00018703B78182B10D03378182B0DD02B7860
:10E4F000182B0AD02378182B07D0182805D0094BE1
:10E5000000201860BFF35F8FF8BD0320FCE700BF59
:10E51000E6320020E5320020E7320020E832002019
:10E52000E4320020E032002013B50123ADF80030C2
:10E530000923094A8DF80230084B0024A14208BF84
:10E54000134601938DF8034000F0EEF92246694628
:10E5500000F0DEFE02B010BD4C5702005057020022
:10E5600030B503888588522B87B0044631D00DD84A
:10E57000352B45D0502B30D02C4B2D49187800220C
:10E58000FEF7B6FBFFF752FE07B030BD542BF3D1B8
:10E5900018220021684605F0E8FF112328468DF86F
:10E5A0000030ADF8025000F0BFF9ADF8040000F003
:10E5B0003BF9204B284619780022FEF77BFB1E4BC7
:10E5C000284619780022FEF775FB6846FFF7D6FD4E
:10E5D000D2E72846FFF7F2FDCEE7037B012BCBD134
:10E5E000827A012AC8D1018942F602139942C3D125
:10E5F000124B28461978FEF75DFBFFF79DFEBBE73F
:10E600000F4B002219782846FEF754FBE18851B9D8
:10E61000A389012B03D1A17B003918BF0121284612
:10E62000FFF782FFA8E70021F9E700BFE5320020ED
:10E6300029E20100E8320020E7320020E632002023
:10E64000E4320020AFDF7047B1DF7047B2DF7047C0
:10E65000B3DF704773B50F4B0F4C93E803006D4663
:10E6600085E8030000222088294600F051FE4FF67D
:10E67000FF7603462088B04201D0112B01D102B0B1
:10E6800070BD00F098FE00222946208000F040FE78
:10E690000346EFE768570200EA320020044B1A886D
:10E6A0004FF6FF739A4201D0FFF7D4BF704700BF07
:10E6B000EA320020024B4FF6FF721A8000207047AA
:10E6C000EA3200202DE9F743804600F02DF94FF69D
:10E6D000FF739842064637D001274FF003093A46A8
:10E6E0006B460821304600F0EFFB0137BFB205460C
:10E6F00028BB01990A46032342F8049B0631404691
:10E70000FFF7A4FF044648B932460821304600F01E
:10E7100064FC0446204603B0BDE8F0830C280CD00E
:10E72000052800D12C460821304600F02DFC002899
:10E7300018BF0324002DD2D1ECE70125F3E7072809
:10E7400014BF04460C24E5E743F20204E2E72DE996
:10E75000F341074600F0E8F84FF6FF73984218D1EE
:10E760000024032526464FF001082B462246314659
:10E770003846FFF769FF042821D0082825D00B2848
:10E780001ED115F002030FD196B9ACB902B0BDE8A5
:10E79000F0816A46082100F093FB0028E0D1019B3C
:10E7A0009C881D689E1DDEE701254FF00008DCE710
:10E7B00003251C461E46F8E703253446F5E71120DD
:10E7C000B8F1000F08BF0B20E0E70020F8E71FB505
:10E7D0000DF10703039300F0A7F802AA012100F04E
:10E7E0006FFB20B9039B187805B05DF804FB00208F
:10E7F000FAE7000070B505460A48FFF729FF70B92F
:10E80000084C43F2030621884FF6FF722846FFF7B3
:10E8100019FFB04204D1238801332380F3E703209A
:10E8200070BD00BFEC32002013B5074A044692E8E1
:10E8300003006B4683E8030000221946204600F0DF
:10E8400067FD02B010BD00BF7057020046DF704781
:10E85000421E00F10F0312F8010F10B99A42FAD1CB
:10E8600070470120704708B570B171B103780A781C
:10E87000534013F0FE0F08D106220131013005F09C
:10E88000D5FCB0FA80F0400908BD0020FCE72DE976
:10E89000F04700F101084F1C06460D4600F1110932
:10E8A00001F1110A10223946404605F0BFFC04462A
:10E8B000D0B94046FFF7CCFF18B13846FFF7C8FF84
:10E8C000044651464846FFF7CEFF737C03F0FC0335
:10E8D000042B05D06B7C03F0FC03042B18BF04460B
:10E8E00004F00100BDE8F0870024EAE730B585B008
:10E8F00004460D4600F0D6FC02AA0DF106010720E1
:10E9000000F0D8FC10B94FF6FF700BE0BDF80630F0
:10E91000AB42F1D003992046FFF7B9FF0028EBD0B6
:10E92000BDF8060005B030BD132810B5044602D965
:10E930004FF6FF7010BDFEF759F90028F8D00A20F5
:10E94000014B4443185BF5E7EE320020132838B53D
:10E9500004460D4602D943F2020038BDFEF746F9DF
:10E960000028F8D006480A2303FB040050F8023FB1
:10E970002B608388AB808379AB710020EDE700BF0B
:10E98000EE3200204FF6FF7398422DE9F041054624
:10E990000CD00C4F00244FF00A0808FB04F3A6B279
:10E9A000DB5BAB4205D00134142CF6D14FF6FF7679
:10E9B00004E03046FEF71AF90028F4D03046BDE8EE
:10E9C000F08100BFEE320020038843B9821C00F1C1
:10E9D0000A0312F8010B10B99A42FAD170470120CC
:10E9E000704710B50446FFF7EFFF58B122880B8837
:10E9F0009A4208D108220231A01C05F017FCB0FA97
:10EA000080F0400910BD0020FCE71FB5044600F06F
:10EA100049FC02AA0DF10601072000F04BFC10B9D9
:10EA20004FF6FF7007E0039920464631FFF7D9FF04
:10EA300018B1BDF8060004B010BD039920462A3174
:10EA4000FFF7CFFF0028E4D0F3E7000013289FBFB3
:10EA50000A235843014B1952704700BFEE32002081
:10EA600038B50546FFF78EFF0446284600F096FAB3
:10EA700038B9132C05D80A235C43024B4FF6FF72BA
:10EA80001A5338BDEE32002070B58CB014466A4679
:10EA90000D4600F11003164613F8011D02F8011B84
:10EAA0009842F9D10D22002104A805F05EFD2B78D3
:10EAB0008DF81F306B788DF81E303046AB788DF8AE
:10EAC0001D30FFF7C3FE9DF82F3023709DF82E30C8
:10EAD00063709DF82D30A3700CB070BD30B5037815
